:0200000460009A
:100000004643464200000156000000000101020084
:1000100000000000000000000000000000000000E0
:1000200000000000000000000000000000000000D0
:1000300000000000000000000000000000000000C0
:1000400000000000010403000000000000000000A8
:100050000000200000000000000000000000000080
:100060000000000000000000000000000000000090
:100070000000000000000000000000000000000080
:10008000EB04180A063204260000000000000000FD
:10009000050404240000000000000000000000002F
:1000A0000000000000000000000000000000000050
:1000B0000604000000000000000000000000000036
:1000C0000000000000000000000000000000000030
:1000D00020041808000000000000000000000000DC
:1000E0000000000000000000000000000000000010
:1000F0000000000000000000000000000000000000
:1001000000000000000000000000000000000000EF
:100110000204180804200000000000000000000095
:1001200000000000000000000000000000000000CF
:10013000600400000000000000000000000000005B
:1001400000000000000000000000000000000000AF
:10015000000000000000000000000000000000009F
:10016000000000000000000000000000000000008F
:10017000000000000000000000000000000000007F
:10018000000000000000000000000000000000006F
:10019000000000000000000000000000000000005F
:1001A000000000000000000000000000000000004F
:1001B000000000000000000000000000000000003F
:1001C000000100000010000001000000000000001D
:1001D000000000000000000000000000000000001F
:1001E000000000000000000000000000000000000F
:1001F00000000000000000000000000000000000FF
:10020000D4D4D4D4D4D4D4D4D4D4D4D4D4D4D4D4AE
:10100000D10020400020006000000000000000002F
:1010100020100060001000600000000000000000D0
:1010200000000060A09F000000000000EFBEADDEE9
:10103000124880F3088812481249016000F036F81F
:10104000114812490022814201D004C0FBE7104838
:101050001049114A814202D008CA08C0FAE70F4875
:101060004FF47001026842EA01020260BFF34F8F41
:10107000BFF36F8F00F014F800DE00000040002086
:1010800008ED00E00040002000500020888500208E
:10109000B84200204C440020A09F006088ED00E092
:1010A00040F2330CC0F2000C6047D4D41C4840F22C
:1010B000924188420CBF1B4A1B4A1C4B5360136869
:1010C00023F0800313601A481A4901BF1A480A0C1A
:1010D0008264C1F30F014164016C41F004010164B9
:1010E0001648174A824205D01649814202D008CAE2
:1010F00008C0FAE71448154A824205D014498142D3
:1011000002D008CA08C0FAE71248134A824205D042
:101110001249814202D008CA08C0FAE770470000AD
:10112000240400000080034000C00B4020C528D9E3
:1011300000C00A40AAAAFAFF00400E4000000000CA
:10114000B8220060506A00000040002000200060CB
:10115000B842002000002020088D00609812202056
:10116000D4D4D4D4D4D4D4D4D4D4D4D4D4D4D4D43F
:10117000D4D4D4D4D4D4D4D4D4D4D4D4D4D4D4D42F
:10118000D4D4D4D4D4D4D4D4D4D4D4D4D4D4D4D41F
:10119000D4D4D4D4D4D4D4D4D4D4D4D4D4D4D4D40F
:10200000004000203110006041290000356A0000C6
:102010004129000041290000412900000000000082
:102020000000000000000000000000004129000046
:102030004129000000000000412900004129000062
:1020400041290000412900004129000041290000E8
:1020500041290000412900004129000041290000D8
:1020600041290000412900004129000041290000C8
:1020700041290000412900004129000041290000B8
:1020800041290000000000000000000000000000E6
:102090004129000041290000412900004129000098
:1020A0004129000041290000412900004129000088
:1020B0004129000041290000412900004129000078
:1020C0004129000041290000412900004129000068
:1020D0004129000041290000412900004129000058
:1020E0004129000041290000412900004129000048
:1020F0004129000041290000412900004129000038
:102100004129000041290000412900004129000027
:1021100000000000412900000000000041290000EB
:102120004129000041290000412900004129000007
:102130004129000041290000000000004129000061
:1021400041290000412900004129000041290000E7
:1021500041290000412900000000000000000000AB
:1021600041290000412900004129000041290000C7
:1021700041290000412900004129000041290000B7
:1021800041290000412900004129000041290000A7
:102190004129000041290000412900004129000097
:1021A0004129000041290000412900004129000087
:1021B0004129000041290000412900004129000077
:1021C00041290000412900004129000000000000D1
:1021D0004129000041290000412900004129000057
:1021E0004129000041290000412900004129000047
:1021F0004129000041290000412900004129000037
:102200004129000041290000412900004129000026
:102210004129000041290000412900004129000016
:102220004129000041290000412900004129000006
:102230004129000041290000412900000000000060
:102240000000000041290000412900004129000050
:1022500041290000412900004129000041290000D6
:1022600041290000412900004129000041290000C6
:1022700041290000412900004129000041290000B6
:1022800041290000412900004129000041290000A6
:102290004129000041290000412900004129000096
:1022A00041290000412900004129000000000000F0
:0822B000412900004129000052
:1022B800007840F218120B4640F25C41C2F220014D
:1022C800C2F2200251F8201052F82020184605F0DA
:1022D80047BF084640F2D031C2F22001122205F071
:1022E8003FBF80B56F4600F000F880B56F46ADF58A
:1022F800886D09AC204602F083F804F1340004F13B
:10230800380104F1540202F034FA5398016841F09C
:1023180001010160DDF84C810021D8F8000020F0AF
:102328000200C8F800003998C8F80811C8F8181150
:10233800C8F82811C8F83811016821F001010160B6
:10234800016841F4004101600168090409D5016888
:10235800090444BF01685FEA014102D50168090424
:10236800F2D43F218160016821F0010101603A98AF
:10237800016821F001010160016841F40041016038
:102388000168090409D50168090444BF01685FEAC6
:10239800014102D501680904F2D43F2140F26342A9
:1023A8008160016821F0010101600999886C40F0A1
:1023B80001008864486C10434864486C012262F349
:1023C80083004864486C20F080004864886C40F0C2
:1023D80020008864486C40F440404864486C40F4ED
:1023E80044704864886C40F080008864886D0007F9
:1023F80009D0886D00071CBF886D5FEA007002D0A5
:10240800886D0007F2D1886C40F020008864486C21
:1024180020F4404048644A6C0A9822F4447202F559
:1024280088724A64816C40F2634241F00101816420
:10243800416C11434164416C012262F383014164A0
:10244800416C21F080014164816C41F0200181647C
:10245800416C41F440414164416C41F44471416430
:10246800816C41F080018164816D090709D0816D1B
:1024780009071CBF816D5FEA017102D0816D0907F0
:10248800F2D1816C0DF5F47A02220F2341F020017C
:102498008164416C0F2621F440414164416C21F470
:1024A800447101F5887141646899504602F042FC14
:1024B80063998CA84FF4805202F004FC6D98DDE912
:1024C8002012069090A8329DDDF8A891DDF8BCB1E5
:1024D80002F094FC55AB4FF470440FCBA0F88C413C
:1024E800A0F88E6108A8A1F88C41A1F88E61A2F825
:1024F8008C41A2F88E61A3F88C41A3F88E610895EF
:1025080002F027F9079000208E9004208D90032078
:102518008C9048F23010C2F200000C4600F21240D3
:102528000122BFF35F8FD0E84F1FC0E8432F002B75
:10253800F9D10029BFF35F8F40F0048348F23016C9
:102548004FF48061C2F20006304606F0C9FB04F081
:10255800FEFF8CA90546304600F054FF002840F0E5
:10256800EE8248F2485041F23811C2F2000006608B
:1025780046F20000C2F200004218BFF35F8F52E833
:10258800001F41F0004342E80036002EF7D10695BF
:10259800B1F1FF3FBFF35F8F40F3EA8245F21002CB
:1025A8000126C2F2000202F5A061BFF35F8FD1E8F5
:1025B8004F3FC1E8456F002DF9D10494002BBFF3BC
:1025C8005F8F40F0E082CDE9832141F23811014468
:1025D8007A9000F5865200F5805080910621CDE969
:1025E800819B4FF0000BCDE97B1050467F914FF057
:1025F8000109CDE97D120121ADF814B202F037FCD2
:10260800BAE87E000DF5107C0CF104007EC09AE853
:102618007E007EC0604601218DF874926446CDF834
:1026280040B203F042FD9DF8740208B190982FE083
:1026380004F0A7FF064604F09AFF9098F10727D107
:10264800002840F0AB824FF0FF307AAE9090002027
:102658007A9004F120007B90304603F0AAFC3046C3
:1026680003F0EFFC3046012103F0F7FC304601216E
:1026780003F0B7FC30464FF47A6103F0C0FC3046F3
:1026880003F0A3FC90980130909004F072FF24E0CE
:10269800002840F083824FF0FF307AAE90900020FF
:1026A8007A9004F120007B90304603F082FC30469B
:1026B80003F0C7FC3046012103F0CFFC304601216E
:1026C80003F08FFC30464FF47A6103F098FC3046F3
:1026D80003F07BFC90980130909048F2000A0420A7
:1026E800C2F2000A21468AF805000AF10C096CC9F1
:1026F80048466CC07CC97CC091E87C0001217CC044
:10270800002003228AF804104FF0FF31CAF808109D
:102718000821CAF844008023CAF80000FF20CDE948
:102728000021802102904846002203F0BBFE0D469E
:10273800DAF80810C00701F10101CAF8081040F0E2
:102748003382DAF80000002840F041829AF804B099
:1027580000200029CAF800000BF101028AF80420C1
:1027680040F0E0814FF0FF310222CAF808104FF420
:102778000071CDE900210021029048460022002383
:1027880003F090FEDAF80820C00702F10102CAF847
:10279800082040F0CD81002A059540F0C3814FF014
:1027A800FF300C46CAF80800022000264FF40075D6
:1027B8008DE86100484680210022802303F072FEE4
:1027C800DAF80820C00702F10102CAF8082040F030
:1027D800AF8148F24C50002AC2F2000080F826105F
:1027E80040F2FF31A0F80F10059980F82DB00AF1DA
:1027F800440B81734FF00801818181804FF4FA51B5
:10280800C68580F82C60A0F827508584C0F820B0D1
:10281800A0F81B5084760583C0F814B0C0F808B03F
:102828008671016040F07E814FF0FF304021CAF888
:1028380008000020CDE9000100210290484601224D
:10284800002303F02FFE0E46DAF8081090ACC007FC
:1028580001F10101CAF8081040F0BF81002940F0D9
:1028680061814FF0FF304021CAF808000020CDE90F
:1028780000018021029048460122802303F012FEC5
:10288800DAF80820C00702F10102CAF8082040F06F
:10289800AB81DAF80000002840F0B9814FF0FF3032
:1028A800002A0591CAF8000040F0B781CAF808006C
:1028B800484603F070FEDAF808000130CAF808004C
:1028C800C0F0B1814FF0FF308021CAF80800E01C49
:1028D800BFF35F8FCAF84490BFF35F8F06F056F9D5
:1028E8004846812103F030FC484601214FF0010A97
:1028F80003F02AFC4846822103F026FC48460221C0
:1029080003F022FC4846832103F01EFC48460321BD
:1029180003F01AFC4846842103F016FC48460421BB
:1029280003F012FC4846852103F00EFC48460521B9
:1029380003F00AFC4846862103F006FC48460621B7
:1029480003F002FC4846872103F0FEFB48460721B6
:1029580003F0FAFB48F248050598C2F20005214643
:10296800A8774020A8838322288205F12100AE742D
:102978000026A5F81F60C5F818B0A5F81360C5F8BB
:102988000CB02E8006F0AAF94FF0806040F2E231D8
:10299800C5E937903220C5F8D6000220C4F20000FD
:1029A800C2F22001C5F8D2001020A5F8D00045F6E3
:1029B8002400C2F2DD7085F8E460C5F8CC00092077
:1029C800C5E92F100698C5F8C460C5E92B66C5F897
:1029D800B460C5F8A46004F0C5FD48F2B010052243
:1029E800C4F21F0049F69916D0F8F0114CF6CD4BF9
:1029F8004FF4E041C1F69916C0F8F011CCF6CC4B73
:102A080001684CF24F35DDF8209062F30301016054
:102A1800D9F8040020F00050C9F80400D8F80801DB
:102A280020F00100C8F80801C8F80CA1D8F808017E
:102A380020F00400C8F80801D8F8080120F00200C6
:102A4800C8F80801049800F01F000AFA00F40020F2
:102A580009E0C8F80CA1D8F80801799920F001001C
:102A6800C8F80801481C799000F0EAFCD9F8080079
:102A780080003AD47998079900FB0B60C1F884402C
:102A8800B0F1333F34D248F28450C2F200000068FB
:102A980003282DD30020CDF844A2949040F2EC30C6
:102AA800C2F22000CDF84CA290908CA8929046F2E9
:102AB8007D40C0F200008D9079A88C9040F20040D3
:102AC800C2F2200004F0D5FE40F264317E9010205E
:102AD800C2F220017D907AAACDE97A1090A87C9163
:102AE8000321002304F05EFE02E00798C0F8884046
:102AF800C8F80051D8F8080140F00100C8F80801EA
:102B0800D8F80C01C007A4D1D8F80C01C00704BF3D
:102B1800D8F80C015FEAC0709BD1D8F80C01C00747
:102B2800EED096E740F22420C2F2200004F0B4FE72
:102B380040F210308DF84012C2F220003AE02846E8
:102B480004F010FD069840F2104390AAC2F2200348
:102B58002B21CDF848B2CDE9909040F24C40C2F21A
:102B68002000009040F22040C2F2200004F087FFCD
:102B780040F26C0040F2E802C2F22000C2F22002E9
:102B88001F2104F0C7FE40F2381040F2B812C2F21A
:102B98002000C2F22002202104F0BCFE40F25C00BA
:102BA800C2F2200004F078FE40F220308DF8405246
:102BB800C2F2200040F27423009040F2003090AA44
:102BC800C2F22000C2F220030F2104F058FF40F2A5
:102BD8006420C2F2200004F05FFE40F2F0208DF87D
:102BE8004062C2F2200005E040F2E0208DF8401279
:102BF800C2F2200040F27423009040F2F80090AA3C
:102C0800C2F22000C2F22003202104F038FF40F273
:102C18005420C2F2200004F03FFE40F24420C2F2E9
:102C2800200004F039FE40F23420C2F2200004F003
:102C380033FEF0B503AF4DF8048D8C46816889B337
:102C4800C36841698B4249D20269D0F818E0D45C64
:102C58000134D4540EF102038B421FD80EF580754F
:102C6800A9422C4638BF0C469D423ED3E41A052C97
:102C780014D39CF80640BCF80450D45413440EF105
:102C880007049CF808608C429CF807805E704FEA45
:102C980015269D7083F80480DE7007D902205DF840
:102CA800048BF0BD07205DF8048BF0BD8E4524D25F
:102CB800072302F80E300EF101038B423FBF0521B6
:102CC800D154846108203CBF5DF8048BF0BD40F20C
:102CD80068521846C2F2200204F0B2FE40F278525E
:102CE8001846C2F2200204F0ABFE40F248521846E1
:102CF800C2F22002214605F07BFA40F25852704693
:102D0800C2F2200204F09CFE0020704770470820A1
:102D1800704770470A46D0E9000105F025BA0068F7
:102D280004F0D2BE80B56F4682B00022802901929D
:102D380007D28DF80410012201A900F057FA02B059
:102D480080BD02220B4662F39F13B1F5006F05D2D6
:102D58008DF80530C02343EA911125E0B1F5803F95
:102D680011D28DF806308B0962F39F13E02242EAF4
:102D780011318DF805308DF80410032201A900F0F7
:102D880035FA02B080BD8DF807308B0962F39F13C6
:102D98008DF806300B0B890C62F39F131E2262F329
:102DA800DF0104228DF805308DF8041001A900F028
:102DB8001DFA02B080BD0A4640F21861C2F2200135
:102DC80004F087BED0B502AF537A012B07D1137A2E
:102DD800012B02BF90F82C3054889C4200D0D0BD03
:102DE8009379212B04BF9288072A28D0088840F0BD
:102DF80002000628F3D1C86809220A800068BFF3D8
:102E08005F8F88B18A7C0C461146012203F00EFEC2
:102E1800A0690068BFF35F8F00281FBFA17F012250
:102E2800BDE8D04003F002BE40F2885040F208628C
:102E3800C2F22000C2F22002222104F0EEFD0A882C
:102E4800042A18BFD0BDCA88002390F804C0012402
:102E580090F805E0072AC1F8AC3083790068486229
:102E680008460C8081F8283081F829E081F82AC0CA
:102E780028BF0722C1F8B020BDE8D04000F058BDF7
:102E8800D0B502AF84B0537A012B07D1137A012B46
:102E980002BF90F82C3054889C4201D004B0D0BDB9
:102EA8009379002B5BD0202B0ED0222B2CD11278BB
:102EB8000B8802F0010480F82E40062BC2F3400272
:102EC80080F82F20EAD14DE0D1F8B030812B5CD2C8
:102ED800062B19D991F8282091F8294091F82AE071
:102EE800032A4B6AB1F800C003604FF0000380F872
:102EF80004E028BF1A46052C827138BF2346BCF16E
:102F0800060F4371CAD12DE0088840F00200062858
:102F1800C4D1C86809220A800068BFF35F8F98B1DE
:102F28008A7C0C461146012203F080FDA0690068E6
:102F3800BFF35F8F00281FBFA17F012204B0BDE847
:102F4800D04018BF03F072BD40F2885040F20862CA
:102F5800C2F22000C2F22002222104F05EFD08889D
:102F680006289BD188690368BFF35F8F002BEBD0DD
:102F78008A7F0020009002A80C461946012303F01E
:102F88006DFB0820208004B0D0BD40F29462184642
:102F9800C2F22002802105F00CF9F0B503AF4DF81C
:102FA800048D84B090F82C60804600250220CDE97D
:102FB80000050C46084631460222022304F029F88F
:102FC800C1B2082963D12046314602220223009566
:102FD80004F073F8C1B2082959D140F2A46220461E
:102FE800C2F220022421032303F0B8FEC1B208294B
:102FF8004DD140F2A7622046C2F2200224210223CA
:1030080003F0ACFEC1B2082941D10620A7F116028F
:1030180007F8156C242198F82D60032307F8160C7F
:10302800204607F8146C03F099FEC1B208292ED186
:103038000120A7F1130227F8130C204624210323AB
:1030480007F8116C03F08AFEC1B208291FD108F1F4
:1030580008012046FFF7EDFDC1B2082917D100206D
:103068003146009020460A22002304F026F8C1B217
:1030780008290CD108F120012046FFF7DAFDC1B27A
:10308800082904D108F114012046FFF7D2FD04B045
:103098005DF8048BF0BD0021C18581710821818014
:1030A8004FF4FA5101607047F0B503AF2DE9000BFA
:1030B80048F28452D1F80080C2F2000212689045AA
:1030C80003D90020BDE8000BF0BD4268F2B10068EA
:1030D800D1E90194061D02EB4200850003E00C3D96
:1030E80006F10C06EDD030688442F8D156F8040C8D
:1030F8004946224605F01CFC0028F0D171680020E2
:10310800884598BF0120BDE8000BF0BD0120BDE84F
:10311800000BF0BDF0B503AF2DE9000F91B080466C
:1031280048F28450C2F20000D1F82090006881452E
:103138001ED8D8F804008A46F0B1D8F8001000EB81
:103148004000DAE909B60C1D850003E00C3D04F1E6
:103158000C040DD020688642F8D154F8040C594666
:10316800324605F0E5FB0028F0D16068814505D9B5
:1031780011B0BDE8000FF0BDDAE909B6002040F251
:10318800186105900420029040F2B060C2F220005D
:1031980001AA01900320049007A8039040F66F202D
:1031A800C0F20000C2F220010C9010A80B9040F66B
:1031B8006520C0F20000CDF800800A900EA80990A2
:1031C80045F24740C0F20000CDF8349008900DA8B1
:1031D80007900AF12C0010906846CDE90EB604F06D
:1031E80078FC11B0BDE8000FF0BD7047F0B503AF33
:1031F8002DE9000F83B014460D46D0F8008004F086
:10320800A6F9D8F80810002940F0F680D8F80C90F4
:103218004FF0FF31C8F80810012209F21146BFF338
:103228005F8FD6E84F1FC6E8432F002BF9D1BFF3B5
:103238005F8F61B10124D8F808100131C8F808106F
:1032480004F090F9204603B0BDE8000FF0BDD9F8AE
:103258000014BFF35F8FD9F80424BFF35F8F914246
:1032680003D2CB43D2180AD180E0B1F5806F04D1E4
:10327800012A7BD9013A002101E0C1F58062A2460A
:10328800A242019238BF92460AEB01024944BFF3B9
:103298005F8FC9F80C2402900846294652460095CB
:1032A80005F01CFD029809F20C4B99F81114BFF3B4
:1032B8005F8F59B3D9F80014BFF35F8FBFF35F8FE7
:1032C8005BE8002F4BE80023002BF9D1BFF35F8F99
:1032D800B1F5806FD9F80834BFF35F8FD9F80C24A3
:1032E800BFF35F8F01D08A4203D39A4205D94FF4C6
:1032F8008061BFF35F8FC9F80814BFF35F8FC9F807
:1033080000240021BFF35F8F89F811140199A142AD
:1033180020D20099A4EB0A020125BFF35F8F514424
:10332800D6E84F3FC6E8445F002CF9D1002BBFF325
:103338005F8F7FF47FAFD9F80034BFF35F8FD9F880
:1033480004C4BFF35F8F634506D2DD431CEB050C55
:1033580014D10BE000246EE7B3F5806F0CD1BCF1FB
:10336800010F03D9ACF1010C002307E0012400216F
:10337800BFF35F8F31705EE7C3F5806C944538BF4B
:103388006246D018BFF35F8FC9F80C0409EB03003D
:1033980005F0A4FC99F81104BFF35F8F48B3D9F87E
:1033A8000014BFF35F8FBFF35F8F02985BE8002FB5
:1033B8004BE80023002BF9D1BFF35F8FB1F5806F85
:1033C800D9F80834BFF35F8FD9F80C24BFF35F8FA7
:1033D80001D08A4203D39A4205D94FF48061BFF3E2
:1033E8005F8FC9F808140024BFF35F8FC9F8002461
:1033F800BDE7002402981EE740F23470C2F22000B4
:1034080004F04AFAD0B502AF45F200020C46D1E901
:103418000113C2F200024FF0000CD06082E80A10DB
:1034280040F24471C2F22001104604F076F90028F7
:1034380001BF216848F28452C2F200021160D0BD77
:10344800F0B503AF2DE9000B84B040F25C7048F290
:10345800445848F24805C2F220000390C2F200081E
:1034680008F10800C2F2000502A9029028460122CC
:1034780000F0E4FDD5F8DC40814694F83400D0B182
:103488002068002840F08E814FF0FF30214641F837
:10349800200B0020CDE9020102A802F0C2FD00289D
:1034A80046D002AE304602F0CCFD304602F0B9FDFF
:1034B8000028F7D13AE004F064F8064604F057F81B
:1034C8002068F1071AD1002840F06C814FF0FF30D6
:1034D800214641F8200B0020CDE9020102A802F0A4
:1034E800A0FD00283FD002AE304602F0AAFD3046CB
:1034F80002F097FD0028F7D1012639E0002840F0B6
:1035080051814FF0FF30214641F8200B0020CDE9D2
:10351800020102A802F085FD50B102AE304602F069
:1035280090FD304602F07DFD0028F7D1012604E029
:1035380002A802F034FD80F0010620680130206006
:1035480095F8E21098F8000002291CD1002861D1F2
:10355800D5F8DC0002F077FFD5F8DC4094F83400A9
:10356800E0B120683CE002A802F019FD80F00106F5
:1035780020680130206003F0FCFF95F8E21098F80D
:1035880000000229E2D0002800F09880D5F8DC502D
:1035980095F83400002864D028687EE003F0F1FF35
:1035A800054603F0E4FF2068E90719D1002840F038
:1035B800F9804FF0FF30214641F8200B0020CDE97B
:1035C800020102A802F061FD00281CBF0DF10800ED
:1035D80002F0D9FC20680130206003F0CAFF16E031
:1035E800002840F0DF804FF0FF30214641F8200BE3
:1035F8000020029002A8039102F047FD00281CBF9A
:103608000DF1080002F0BFFC2068013020600120A5
:1036180088F80000D8F81C000168BFF35F8F002904
:1036280000F0C680002098F82220009002A801230C
:1036380049EA0605012403F005F975B1D8F8040034
:10364800BFF35F8F00F58261D1E84F2FC1E8434F88
:10365800002BF9D1BFF35F8FBAB304B0BDE8000BFC
:10366800F0BD03F08EFF044603F081FF2868E107F0
:1036780013D1002840F096804FF0FF3028600020DA
:10368800029005F12000039002A802F092FC28683D
:103698000130286003F06DFF10E0002840F08280C0
:1036A8004FF0FF3028600020029005F120000390C1
:1036B80002A802F07EFC286801302860002088F803
:1036C800000004B0BDE8000BF0BDD0F80064BFF303
:1036D8005F8FD0F80824BFF35F8FD0F80434BFF3AE
:1036E8005F8F934206D19E423EBFBFF35F8F002398
:1036F800C0F804349E4228BF32469A4207D10020BF
:10370800BFF35F8F087004B0BDE8000BF0BDD8F8B8
:103718002810D8F804400968BFF35F8F002947D004
:10372800D61A98F82E20034402A83546B6F5007F2D
:1037380028BF4FF40075009502F090FF9DF808002F
:1037480088B194F81004BFF35F8F00283FF485AF69
:1037580004F20440BFF35F8F50E8001F40E80012F6
:10376800002AF9D115E0039894F81014BFF35F8F7D
:1037780000293FF472AF04F20441864238BF304654
:10378800BFF35F8F51E8002F024441E80023002B6C
:10379800F8D10020BFF35F8F84F8100404B0BDE8AF
:1037A800000BF0BD40F2D840C2F2200004F074F8DB
:1037B80040F2885040F20862C2F22000C2F22002B1
:1037C800222104F02AF9D0B502AF84B00188062975
:1037D80011D181690968BFF35F8F79B10023827FB6
:1037E800009302AB04461846012302F037FF082075
:1037F800208004B0D0BD072004B0D0BD40F288506E
:1038080040F20862C2F22000C2F22002222104F033
:1038180004F9F0B503AF4DF804BD86B00446088836
:103828000D46411E032927D3052825D0072832D164
:10383800D5F8AC00D5F8063069898028D5F802207B
:10384800ADF80C10CDE901236BD8E9680968BFF31E
:103858005F8F00295AD0C0F18003AA7C28440093C6
:1038680000F1240304A802F0EDFF9DF81000C0B396
:103878009DF81100D8B92EE0E8680168BFF35F8FA2
:10388800002943D0AA7C04A800260123009602F050
:10389800D9FF2E801FE0E8680168BFF35F8FA9B3E6
:1038A8000020AA7C009004A8012302F0CBFFE8685E
:1038B800092129800068BFF35F8F38B3A97C0122F2
:1038C80003F0B4F8A8690068BFF35F8FF0B1A97F6F
:1038D800012203F0ABF80420607206B05DF804BB67
:1038E800F0BD0598D5E92B120844C5F8AC00904204
:1038F800F1D3DDE901010623BDF80C202B802060FF
:103908006160228106B05DF804BBF0BD40F28850CA
:1039180040F20862C2F22000C2F22002222104F022
:103928007CF840F2F4728021C2F2200204F022FCFA
:10393800B0B502AF84B00446D0E92951D0F8AC0044
:10394800D4F8B0C0002DA38BAE46ACEB000208BF84
:1039580004F1240E9A4238BF1346002D03EB000CE5
:1039680008BF80219C4525D38C452AD8A1690968C0
:10397800BFF35F8F61B3A27F00930EEB000302A831
:1039880002F06CFE9DF8080008B104B0B0BD0398C1
:10399800D4E92B120144C4F8AC109142F5D30021AC
:1039A800A28BC4F8A4100321904208BF02212180F1
:1039B80004B0B0BD40F614026146C2F2200204F021
:1039C80017FC40F614026046C2F2200204F0F1FB34
:1039D80040F2885040F20862C2F22000C2F220028F
:1039E800222104F01AF8D0B502AF0446C0680921B4
:1039F80021800068BFF35F8F78B1A17C012203F0BA
:103A080015F8A0690068BFF35F8F00281FBFA17F6A
:103A18000122BDE8D04003F009B840F2885040F2D6
:103A28000862C2F22000C2F22002222103F0F5FF50
:103A3800F0B503AF2DE9000782B01D4691468846D0
:103A480082468AB108EBC9064446D4E900012A46F1
:103A58004B6A51469847BAF8000040F00200062821
:103A680035D10834B442F0D1687AA0B3BAF800105E
:103A780041F0020006282AD1DAF80C000921AAF838
:103A880000100068BFF35F8FB0B19AF812100122DE
:103A980002F0CCFFDAF818000068BFF35F8F002847
:103AA8001FBF9AF81E10012202B0BDE800071CBF14
:103AB800BDE8F04002F0BABF40F2885040F2086218
:103AC800C2F22000C2F22002222103F0A6FF02B0B7
:103AD800BDE80007F0BD297AA87949B3012912D0B9
:103AE800022908BF0028C1D16988DAF8DC0001F092
:103AF8008F0103F02DF8BAF800100429B8D1AAF8FC
:103B08002400002039E080B30A28AFD1BAF80010A9
:103B18000429ADD1BAF80610002001228AF8240041
:103B2800AAF80020002918BF0121CAE92B0153E097
:103B3800D0B306282CD0082898D1BAF80010042948
:103B480096D1BAF8061001229AF8E2300020AAF8B5
:103B58000020002918BF0121CAE92B01981EB0FADC
:103B680080F040098AF8240036E0BAF800100429E9
:103B78007FF47EAF0020AAF82400BAF806200121BD
:103B8800AAF80010022A28BF0222CAE92B0223E061
:103B980069884A4628885346CDE900010AF1B400ED
:103BA800414600F0DFF861E7BAF8001004297FF415
:103BB8005FAF9AF8E00001239AF8E1100022BAF802
:103BC8000660AAF8003041EA4000022E28BF02260B
:103BD800CAE92B26AAF824005046FFF7A9FE45E7B4
:103BE800F0B503AF4DF8048D84B01D4680468AB108
:103BF80001EBC2040E46D6E900012A460B6A41468B
:103C08009847B8F8000040F0020006285FD108364F
:103C1800A642F0D1687A78B367E040F0020006283F
:103C280055D1D8F80C000921A8F800100068BFF396
:103C38005F8FB0B198F81210012202F0F7FED8F8A1
:103C480018000068BFF35F8F00281FBF98F81E1088
:103C5800012204B05DF8048B1CBFBDE8F04002F0FF
:103C6800E5BE40F2885040F20862C2F22000C2F27B
:103C78002002222103F0D1FE2A7AA879298852B39A
:103C8800012A0AD0022A30D1012837D0032808BFD8
:103C980000292AD16988012234E00B2808BF0029AD
:103CA80023D1B8F800000628B7D1D8F81800016861
:103CB800BFF35F8F0029D4D098F81E200020009011
:103CC80002A8012302F0CAFC0820A8F8000004B0EA
:103CD8005DF8048BF0BD0138082806D8DFE800F04D
:103CE80008052205190505052800B8F8000094E71D
:103CF8000129FAD1002088F8E00024E00029F4D155
:103D080069880022D8F8DC0001F08F0102F08EFEED
:103D180019E0481E80B27F28E7D2D8F8DC0002F00C
:103D2800F7FB0DE00129E0D1012088F8E0000AE066
:103D380019B10129D9D1022003E098F8E20030B185
:103D4800012088F8E2004046FFF73DFDCDE7B8F8CE
:103D5800000040F0020106297FF45FAF4046FFF7FC
:103D680042FEC2E7F0B503AF2DE900078CB0BE688C
:103D78000D46014698464FF0FF33B0B203EB1020D2
:103D88000E2800F2F480DFE810F00F00520029003E
:103D9800F200F200F200F200F200F200F200F2008B
:103DA800F200F200F2008500B8F80000042840F0A4
:103DB8009980002080220A908DF82C0006900490AB
:103DC80004A8099208F12402B8F80640089203F002
:103DD80013F8C0B2082840F08580BFE0F3B2032B87
:103DE80000F2958004220846DFE803F0028380860B
:103DF800B8F80000042875D1002080210A9001AA93
:103E08008DF82C0002230690049040F20940099195
:103E180008F12401ADF8040004A808910321B8F8BA
:103E2800064002F09BFFC0B208285BD196E0B8F8C4
:103E38000000042856D1002014460A9080228DF8EC
:103E48002C000690049004A8099208F12402B8F8FE
:103E58000690089203F069F8C0B2082842D18CB1E4
:103E680005EBC40604AC4FF0000AD5E90001CA68A6
:103E780021469047C0B2082834D10835CDF818A09B
:103E8800B542F2D104A803F0B4F80A98802800F2E9
:103E9800A580C2E0B8F80000042823D100208021C2
:103EA8000A9014468DF82C0006900490019004A8FE
:103EB800039001A8099108F12401B8F80690089127
:103EC80003F03CFAC0B208280CD1E60001AC002E81
:103ED8007ED0F5E802010A6921469047083EC0B243
:103EE8000828F4D00CB0BDE80007F0BD01F10800C7
:103EF8000C22006828B93AE001F110001422006889
:103F0800A8B38A58B8F800100429EBD111E0D7F803
:103F18000C90D4005CB3F5E802014A464B6931467F
:103F28009847083C0028F5D00A46B8F8001004293C
:103F3800D8D180230021099308F12403089304AB06
:103F48000A918DF82C100691049101461846B8F88C
:103F5800064003F039F9C0B20828C3D10A9880286E
:103F68003CD884424FF0000138BF204659E0B8F8E9
:103F7800000040F002000628B4D1D8F80C0009214E
:103F8800A8F800100068BFF35F8FB0B198F812105E
:103F9800012202F04BFDD8F818000068BFF35F8FCC
:103FA80000281FBF98F81E1001220CB0BDE80007BA
:103FB8001CBFBDE8F04002F039BD40F2885040F225
:103FC8000862C2F22000C2F22002222103F025FD7D
:103FD80001A803F083FA0A9880281ED9D8F80C00A3
:103FE8000921A8F800100068BFF35F8F0028E4D00B
:103FF80098F81210012202F019FDD8F8180000688C
:10400800BFF35F8F0028D8D098F81E10012202F065
:104018000DFD0CB0BDE80007F0BD0021814538BF9B
:104028004846C8E92B100120A8F800004046FFF7D1
:104038007FFC0CB0BDE80007F0BDD4D4F0B503AFE9
:104048002DE9000F8FB00D46D0F8DC10064607A802
:10405800144602F0BEFD96F8E200BDF81C100328D5
:1040680013D100294FF0000018BF032903D10FB066
:10407800BDE8000FF0BD96F8E300042800F0A18128
:10408800042286F8E20086F8E320DFE801F01E0348
:104098002D231E00D6F8DC0002F0B1FA00204FF400
:1040A800806186F8E40086F8E000A6F8E210308027
:1040B8005CB105EBC404083D55F8080F69688969C7
:1040C800884705F10800A042F6D100200FB0BDE8EE
:1040D800000FF0BD032186F8E30086F8E210002007
:1040E8000FB0BDE8000FF0BDBDF81E00BDF82010F0
:1040F800BDF822200490084340EA020A069105927E
:104108005FEACA70039400F0DD800698C00748D0C3
:104118003088013807282CD8DFE800F00415082B70
:104128002B2B2B283046FFF703FC3AE0F068006899
:10413800BFF35F8F002800F04F81B17C002202F0AE
:1041480075FC052013E0B0690168BFF35F8F002993
:1041580000F042810020B27F00900CA8012302F0F9
:104168007DFA9DF83000E0B9032000E0002030809F
:1041780017E0F068092131800068BFF35F8F0028DD
:1041880000F02A81B17C012202F050FCB06900687D
:10419800BFF35F8F002800F01F81B17F012202F07A
:1041A80045FC0598C0070AD10498C00700F088802C
:1041B80009A83146FFF72DFB9DF82D006CE0F0684B
:1041C8000168BFF35F8F002900F0068106F124041F
:1041D8008020B27C00900CA8234602F033FB9DF8A7
:1041E800300018B19DF8310060B969E00D9A812A54
:1041F80080F0FD800CA8214602F092FD9DF8390060
:10420800042818D1F068092131800068BFF35F8F56
:10421800002800F0E180B17C012202F007FCB069BF
:104228000068BFF35F8F002800F0D680B17F0122BD
:1042380002F0FCFB44E00C980290F068BDF838806E
:104248009DF837909DF836B0BDF834400068BFF34C
:104258005F8F002800F0C080B17C002202F0E6FBEE
:10426800B9F1000F00F08A8002990420A6F80A80AC
:1042780086F8099086F808B0F480C6F802103080F5
:10428800ADF82C808DF82B908DF82AB0ADF8284029
:1042980009914FEA1820039C042811D09DF82B009F
:1042A80040B180280CD109AB304629462246FFF799
:1042B800BFFB05E009AB304629462246FFF790FCD4
:1042C8002AF0010ABAF1000F029542D00399002999
:1042D8004FD002980225012600EBC109A0F1080879
:1042E8000598444605420AD054F8080F61688A6A5E
:1042F8003146904704F108004845F5D10DE004988F
:1043080005420AD0444654F8080F6168CA6A314623
:10431800904704F108004845F5D1069805420DD0AC
:1043280066F07F04C3465BF8080FDBF804100A6BDD
:10433800214690470BF108004845F4D12AEA050ABE
:104348005FEA0A4005D0701C0F2E4FEA4505064665
:10435800C6D3039969B1029800EBC104A0F108051E
:1043680055F8080F6968C969884705F10800A0422F
:10437800F6D101200FB0BDE8000FF0BD8CB1802C44
:104388003FF640AF0020A6F80A80C6E92B047072F9
:104398000298C6F80200072086F808B0F48030803A
:1043A8008EE70620ADF82C8030800020C6F8B000DB
:1043B8008DF82B00ADF8280002988DF82AB00990E6
:1043C80067E740F6240040F69C02C2F22000C2F2E1
:1043D80020021C2103F09EFA40F2885040F2086245
:1043E800C2F22000C2F22002222103F016FB40F69E
:1043F80004031046C2F2200380211A4603F0D9FEB6
:10440800F0B503AF2DE9000F81B048F27C514FF0B1
:10441800010CC2F20001BFF35F8FD1E84F2FC1E852
:1044280043CF002BF9D1BFF35F8F002A01BF48F2B9
:104438000001C4F20D010022C4F22F0201BF02F5EF
:10444800542C02F5502E02F54C28A1F5004401BF6A
:10445800A1F5003501F5F61601F5F413C0E9683643
:1044680001BFC0E96A54C0E96C8EC0E96EC101F5AC
:10447800005E01BF01F5805640F2040CC4F22E0C18
:1044880001F5021401BF0CF5FE7501F5004300F5B6
:10449800C07888E8380001BF00F5C67383E81210B9
:1044A800C0E9666EA1F5404C01BF01F5881E01F513
:1044B800861801F5841401F5821301BF01F5003651
:1044C80002F51025C0E9585600F5B47501BF85E816
:1044D8001A41C0F87CC1A1F5804C02F51C2E01BF21
:1044E80002F5182802F51424A1F5E03301F5282671
:1044F80001BF01F5EE15C0E9505600F5A47585E831
:10450800184101BFC0E9562C02F5782802F5742934
:1045180002F5702401BF02F56C234CF2000CC4F2C2
:10452800070C0CF5004601BF01F5E03E01F58E15BC
:10453800C0E9485EC0E94A6101BF00F5987585E8A1
:104548001802C0F83C8101F5482801BF01F544294B
:1045580001F5402A01F53C2B01F5382301BF01F58F
:10456800342401F5302501F52C26C0E9406501BF4A
:10457800C0E94243C0E944BAC0E9469802F5302888
:1045880001BF02F52C2902F5282A02F5242B02F591
:10459800861301BF02F5841402F5821502F5801610
:1045A800C0E9386501BFC0E93A43C0E93CBAC0E98F
:1045B8003E9801F5F01801BF01F59219A1F5503A9E
:1045C800A1F5403BA1F5303301BF01F5901401F589
:1045D8008C1501F58A16C0E9306501BFC0E9324380
:1045E800C0E934BAC0E9369844F2000B01BFC4F2FE
:1045F800002B0BF500490BF5804A4FF0844801BFAA
:1046080001F56C2601F5682401F56425A1F5C03390
:1046180001BFC0E9283500F1A80383E85009C0E9C3
:104628002EA901BF01F5602801F5E61901F5E81A80
:10463800A1F5203601BF0BF5E03301F5582401F54B
:104648005425C0E9205401BF00F1880484E84804D7
:10465800C0E9259EC0F89C8001BFA1F5103E01F578
:10466800FE1801F5001902F5642A01BF02F560235E
:1046780002F55C2602F5582501F5A03401BF00F1CA
:10468800600B8BE87000C0E91B3AC0E91D9801BFB8
:10469800C0F87CE001F5803E02F540480CF5804901
:1046A80001BF01F5804A01F5F21344F20806C4F28D
:1046B800090601BF06F1100506F10804C0E91064F7
:1046C800C0E9125301BFC0E914A9C0E9168E0CF560
:1046D800C03E01F5103801BF01F5801901F57C24B1
:1046E80001F5782302F57C2601BF02F54825C0E9CB
:1046F800085600F1280585E8180201BFC0E90D81B8
:10470800C0F83CE002F5442E02F50C2601BF01F585
:10471800D21501F5242402F54022A1F5803301BF0A
:10472800A1F5A031C0E90013C0E9022C103001BF87
:1047380080E8704001B0BDE8000FF0BD40F6AC0065
:1047480040F64012C2F22000C2F22002352103F0E6
:1047580064F948F248110068C4F21F0105230A6889
:1047680063F303020A60416841F0080141600321D4
:104778007047F0B503AF4DF804BD0E46002115464D
:10478800044600F06BFA284640F2E24100F06DFA68
:10479800304600F02EFA40F298152146C2F2200564
:1047A80000222846366800F015FBA81C2146002286
:1047B80000F010FB281D2146002200F00BFBA81D6D
:1047C8002146002200F006FB05F1080021460022E0
:1047D80000F000FB05F10A002146002200F0FAFA79
:1047E80005F10C002146002200F0F4FA05F10E0054
:1047F8002146002200F0EEFA05F1100021460022C1
:1048080000F0E8FA05F112002146002200F0E2FA71
:1048180005F114002146002200F0DCFA05F116002B
:104828002146002200F0D6FA05F1180021460022A0
:1048380000F0D0FA05F11A002146002200F0CAFA69
:1048480005F11C002146002200F0C4FA05F11E0003
:104858002146002200F0BEFA20684169890107D587
:10486800416921F000714161204600F0E8F92068B3
:104878004169012221F0605141612068816962F338
:104888000D318161204600F0DAF92068416941F074
:1048980000714161204600F0D2F94FF48050306039
:1048A800642030604FF4005070603068002809D4EC
:1048B800306800285CBF3068002803D43068B0F145
:1048C800FF3FF2DC20680122016962F30201016105
:1048D800204600F0B4F92068416921F4E0514161B3
:1048E800204600F0ACF92068816941F440218161DB
:1048F8002068416921F000714161204600F09FF96C
:10490800206840F65C15C2F220050022416941F496
:10491800407141612846214600F05CFAA81C2146F6
:10492800002200F057FA281D2146002200F052FA12
:10493800A81D2146002200F04DFA2068022640F604
:104948006C150022C2F22005816B66F3D8418163A1
:104958002068816B41F4802181632846214600F05C
:1049680039FAA81C2146002200F034FA281D2146F5
:10497800002200F02FFAA81D2146002200F02AFA92
:10498800206840F650150322C2F22005816966F3BB
:10499800051181612068816962F39C618161284603
:1049A8002146002200F016FAA81C2146002200F039
:1049B80011FA281D2146002200F00CFAA81D2146F4
:1049C800002200F007FA05F108002146002200F055
:1049D80001FA2068172240F28435C2F22005C16925
:1049E80062F30501C16120680022C16941F04001FC
:1049F800C1612846214600F0EDF9A81C2146002295
:104A080000F0E8F9281D2146002200F0E3F9A81D6E
:104A18002146002200F0DEF905F1080021460022B7
:104A280000F0D8F905F10A002146002200F0D2F979
:104A380005F10C002146002200F0CCF905F10E002A
:104A48002146002200F0C6F9206840F67415C2F22B
:104A580020050322416A41F0400141622068416A11
:104A680066F3050141622846214600F0B3F9A81C07
:104A78002146032200F0AEF9281D2146032200F04A
:104A8800A9F9A81D2146032200F0A4F905F10800A0
:104A98002146032200F09EF905F10A00214603226F
:104AA80000F098F905F10C002146032200F092F974
:104AB80005F10E002146032200F08CF905F11000E3
:104AC8002146032200F086F905F11200214603224F
:104AD80000F080F905F114002146032200F07AF96C
:104AE80005F116002146032200F074F905F11800BB
:104AF8002146032200F06EF905F11A00214603222F
:104B080000F068F905F11C002146032200F062F963
:104B180005F11E002146032200F05CF905F1200092
:104B28002146032200F056F905F12200214603220E
:104B380000F050F905F124002146032200F04AF95B
:104B480005F126002146032200F044F905F128006A
:104B58002146032200F03EF905F12A0021460322EE
:104B680000F038F905F12C002146032200F032F953
:104B780005F12E002146032200F02CF905F1300042
:104B88002146032200F026F905F1320021460322CE
:104B980000F020F905F134002146032200F01AF94B
:104BA80005F136002146032200F014F905F138001A
:104BB8002146032200F00EF905F13A0021460322AE
:104BC80000F008F905F13C002146032200F002F943
:104BD80005F13E002146032200F0FCF805F14000F3
:104BE800214603225DF804BBBDE8F04000F0F2B8AE
:104BF800FEE780B56F4600684FF400514FF48052CD
:104C08004FF0400C4FF4803E00E0416103699B0483
:104C1800FBD50369DB0401D44261F7E70369B3F10B
:104C2800FF3FF3DC0369DB0306D403695B0648BF77
:104C380080BDC0F814C0E9E7C0F818E0E6E70068EE
:104C480003E0816C002908BF7047816C29B1816C31
:104C580000291CBF816C0029F3D170470068426DA0
:104C680022F0030211434165704740F227629142E6
:104C780038BF0A46B2F5487F98BF4FF44872A2F58C
:104C8800487144F2AF7300688AB25A43C368A1EB13
:104C9800124189B2490801EB124123F01F0242EA8E
:104CA8001111C16004E00168B1F1FF3FD8BF70473E
:104CB8000168002905D4016800295CBF0168002942
:104CC800F1D57047F0B503AF2DE9000B44F2E0438E
:104CD800C4F21F031B68C3F30B2E4FEA135CE645AF
:104CE8001FBF0124C1F88841DBB24FF47A781FBF97
:104CF80003FB08F9ACEB0E04D1F8906149F658654E
:104D08001FBFCFF6FF7513FB085393FBF4F3C2EAFA
:104D180006021FBFC1F8902180E80A40C0F80C9035
:104D2800BDE8000B18BFF0BD40F62420C2F22000F9
:104D380003F0E9FCB0B502AF054608680C4640F43C
:104D480080300860086840F040000860222063F363
:104D58001340486040F26850C0F20C10086240F2FC
:104D68009510C0F2B2004862DC20C0F27A00886276
:104D78007D20C0F25800C8624B20C0F24000086392
:104D88002F20C0F22E004863886346F62010C860C2
:104D980040F6A31088604FF4C840C8614FF4C8605B
:104DA800886140F6C410C0F6804008613F20486121
:104DB800086820F0030010430860086820F4803079
:104DC8000860C86F4021281D03F08AFF10202C605E
:104DD8006864B0BD03784078096803F03F0301EBCD
:104DE80083014000C0B20323D1F868C0834002FAAF
:104DF80000F02CEA0303184388667047F0B503AF48
:104E08002DE9000FADF5057D0DF1040B80464FF43B
:104E18000071584603F064FF44F2B8290DF5017A91
:104E2800C2F2000900244E460025D9E96001CDE907
:104E3800830150468295819602F063FB81AB0C3664
:104E480001350FCB4BF804000BEB04001034043091
:104E5800B4F5007F0EC0E8D101A940464FF40072B6
:104E680003F03AFF0DF5057DBDE8000FF0BD80B5F4
:104E78006F46D0E9072E4FF0004C4FF08043CEF834
:104E880034C0CEF838C0CEF838300023CEF8003021
:104E98000223C2F84031D2F840319B070CD5D2F832
:104EA80040319B0744BFD2F840315FEA837303D592
:104EB800D2F840319B07EED44FF0000C0A23C2F819
:104EC80040C10029C2F8A831D2F8843123F0807398
:104ED80008BF03F18073C2F88431D2F84411006826
:104EE800C2F84411C2F848C1C2F8580180BDF0B5F3
:104EF80003AF4DF804BD9AB00446C069D0F8B811A4
:104F0800C0F8B811D0F8BC11C0F8BC11D0F87811AD
:104F1800C0F878110021C0F87C11D0F8B01159B14F
:104F2800D0F8B01100291CBFD0F8B011002903D067
:104F3800D0F8B0110029F0D14FF0FF31C0F8B4110A
:104F4800D0F8B41159B1D0F8B41100291CBFD0F869
:104F5800B411002903D0D0F8B4110029F0D10020F1
:104F68000821CDE9060101210C90089003900190D9
:104F780001A800F1400500F110061094059102E027
:104F88000598022824D03046294600F0A2FEF8B140
:104F9800007C10F07F01F3D0E269082911911BD23F
:104FA800013940B2B0F1FF3F6FF40C00C9B202EB17
:104FB8008101D1F8C421C8BF6FF08C0000EA02005B
:104FC8004FF40022C8BF08221043C1F8C401D7E734
:104FD8001AB05DF804BBF0BD002040F6C831169049
:104FE8000220139040F65C30C2F22000C2F2200189
:104FF80012900120159018A8149046F27F50C0F224
:105008000000199011A8189012A802F0F6FC0246A8
:105018004368C8B2490041EAD011C8B2834217D9DF
:10502800936901F00F011B68BFF35F8F9BB223FAEE
:1050380001F1C9070CD05169814284BF0120704732
:1050480080B56F4640F63442C2F2200202F0F8FC06
:1050580000207047F0B503AF2DE9000F83B08046FC
:10506800486800281FBF88690068BFF35F8F5FEA40
:10507800C07005D140F69020C2F2200002F040FC3A
:105088004869002800F01D8151F81C4F9A460125F7
:10509800BAF1080F51F80C0CD4F8AC3190F9106043
:1050A80006F01F0C05FA0CF56ED32B406CD0D0F827
:1050B80008C0C4F8AC51D4F8406146F40056C4F8AE
:1050C8004061DCE90A56D4F840319B0425D4D4F871
:1050D800403143F40053C4F84031DCE90A56D4F8AF
:1050E80040319B045FBFD4F8403143F40053C4F807
:1050F8004031DCE90A565CBFD4F840315FEA8343AB
:105108000BD4D4F8403143F40053C4F84031DCE9FF
:105118000A56D4F840319B04CDD5D4F8403123F455
:105128000053C4F8403190F910C0D4F8B831566033
:10513800BCF1000F15600CF01F024FF0010648BFCC
:105148001B0C964033401B0614D14FF48033BCF13E
:10515800FF3FC8BF01234FF47F0603FA02F2C8BF1E
:10516800FF263240C4F8782182681268C2F30A42E6
:1051780000F02BFD0820C8F80400002088F8000083
:1051880003B0BDE8000FF0BDC3685B6813F0680F9B
:1051980001D0072008E0D4F8B831002E48BF1B0C16
:1051A8002B401B0609D0002088F80100012088F850
:1051B800000003B0BDE8000FF0BDB6F1FF3F4FF4AB
:1051C80080364FF47F03CDF80880C8BF0126C8BFDA
:1051D800FF2306FA0CF63340C4F8BC314FF4803E86
:1051E80090F910304FF47F05B3F1FF3F03F01F0330
:1051F800C4BFFF254FF0010E0EFA03F32B40C4F88D
:105208007831C668D0E9013EDEF800507468F66966
:10521800C5F30A45554538BFAA46C4F30E45761B63
:10522800B24528BFB246534538BF9A46BAF1000F77
:1052380036D0D0F800B00AF00305BAF1040F01D255
:1052480000261EE040F2FC730AEA030902F1010895
:10525800002601950BEB06041BF8065008EB060325
:1052680094F801C008F806C00436B14594F802C0A5
:1052780003F8015C83F801C0E5789D70EAD1019DCF
:10528800B3446DB19BF80030012D935508D03244DA
:105298009BF80130022D53701CBF9BF802309370AD
:1052A800DEF80020C2F30A4200F08FFCDDF8088027
:1052B8000020C8F804A088F8000003B0BDE8000F7B
:1052C800F0BD40F644420020C2F22002002102F064
:1052D800B7FBF0B503AF2DE9000F85B04E68022E7D
:1052E800C0F00C818E693668BFF35F8FB60740F156
:1052F80005814E69012E40F207810E69356A6D6895
:1053080015F0680F01D0072115E08A4696F8245059
:105318005AF81C8F05F01F0E4FFA85FC0125D8F8A6
:10532800B841BCF1000F48BF240C05FA0EF52C401B
:10533800240607D0002141700121017005B0BDE8A5
:10534800000FF0BD4FF480344FF47F05BCF1FF3FF0
:10535800C8BF0124C8BFFF2504FA0EF42540C8F8C9
:10536800785106F11409D6E905B4F6693668C6F32A
:105378000A469E4238BF33469C4238BF2346CDE991
:10538800030343B103F00305042BCDF8089007D2BB
:1053980000205E4623E00C464846514600225AE06B
:1053A80040F2FC7003EA000E02F1010900200195A9
:1053B80009EB000619F8005016F8014C96F801C0E0
:1053C800B6780BF800400BEB000404308645657096
:1053D80084F802C0E670EBD1019D0BEB00060C4689
:1053E80055B1115C012D317006D01044022D417861
:1053F80071701CBF8078B070581E012101EB5016E7
:1054080006F0030902F0B7F8049A4EF670702BF014
:105418001F01CEF20000612A0FD326F0030201F12A
:1054280020030160036001F14003036001F16003A0
:10543800043A01F180010360F1D1B9F1000F1CBFFA
:105448000160B9F1010F50D102F095F802F096F819
:1054580002985146049A00F0B8FBA0690068BFF3AF
:105468005F8FC00758D060690028DDE9030259D072
:10547800216901240B7CD8F8B8515EB203F01F03F0
:10548800002E48BF2D0C9C4025402D0626D14FF4F8
:105498008032B6F1FF3FC8BF01224FF47F0502FA00
:1054A80003F2C8BFFF252A40C8F8BC2191F9102093
:1054B8004FF480304FF47F06B2F1FF3F02F01F0235
:1054C800C4BFFF260120904000223040C8F8780170
:1054D8000846514600F079FBDDE9030200214260ED
:1054E800017005B0BDE8000FF0BD01F120020260B7
:1054F800B9F1020F1CBF40310160A5E740F6A020BA
:10550800C2F2200002F0FCF940F644420120C2F247
:105518002002314602F094FA40F6B020C2F2200090
:1055280002F0EEF940F644420020C2F220020021C7
:1055380002F086FAF0B503AF2DE9000F83B0844678
:10554800387A4D68460046EAD016F0B2854240F2F5
:10555800C4808D6906F00F062D68BFF35F8FADB26A
:1055680025FA06F6F60700F0B880D1F814E086456B
:1055780040F2B9800E6900EB800006EB8000C66837
:10558800766816F0680F01D0072012E0057C8E4679
:1055980051F81C9F05F01F0A6CB20125D9F8B861B3
:1055A80005FA0AF5002C48BF360C35402D0609D0FF
:1055B80000208CF8010001208CF8000003B0BDE841
:1055C800000FF0BDBEF82C6004F00F05EE40F607A2
:1055D800EED04FF480354FF47F06CDF808C0B4F113
:1055E800FF3FC8BF0125C8BFFF2605FA0AF52E40B0
:1055F800C9F8BC614FF4803C90F910604FF47F0407
:10560800B6F1FF3F06F01F06C4BFFF244FF0010CA0
:105618000CFA06F62640C9F87861C568D0E9016E2B
:10562800DEF80040D5F804C0ED69C4F30A449C4292
:1056380038BF2346CCF30E442D1BAB4228BF2B4664
:105648009E4238BF3346B3B3D0F800A003F003043A
:10565800042B01D200261FE0019440F2FC7403EAF7
:10566800040902F1010B00260AEB06041AF8065099
:105678000BEB060C94F801800BF806800436B14554
:1056880094F802800CF8015C8CF80180E4788CF8BE
:105698000240E9D1019CB2446CB19AF80050012C47
:1056A800955508D032449AF80150022C55701CBF09
:1056B8009AF802609670DEF800201C46C2F30A428F
:1056C80000F083FADDF808C00020CCF804408CF81C
:1056D800000003B0BDE8000FF0BD40F6C020C2F2E4
:1056E800200002F00DF940F644427146C2F2200251
:1056F80002F0A6F9F0B503AF2DE9000F81B03E7AAC
:105708004D68740044EAD616F4B2A54240F2CE8041
:105718008D6906F00F062D68BFF35F8FADB225FACD
:1057280006F6F60700F0C280D1F814C0A44540F28E
:10573800C3800E6904EB840506EB850BDBF80C606F
:10574800766816F0680F01D0072112E09BF8105018
:1057580051F81CCF05F01F0E6CB20125DCF8B861BA
:1057680005FA0EF5002C48BF360C35402D0607D03B
:10577800002141700121017001B0BDE8000FF0BDAA
:1057880000904FF48030B4F1FF3FC8BF01204FF4C0
:105798007F0400FA0EF0C8BFFF242040CCF878013F
:1057A800DBF80860DBE900803668C6F30A469E42EB
:1057B80038BF3346984238BF0346002B61D003F008
:1057C800030C042B02D2002640461BE040F2FC707A
:1057D80003EA000E02F10109002609EB060019F898
:1057E80006A010F8014C4578807808F8064008EBC8
:1057F80006040436B64584F801A0A570E070ECD123
:1058080008EB06008946BCF1000F0CD0915DBCF195
:10581800010F017007D09119BCF1020F4A7842704C
:105828001CBF89788170581E01219A4601EB5014DB
:1058380004F0030601F09FFE4EF6707028F01F0179
:10584800CEF20000BAF1610F52460FD324F00302E2
:1058580001F120030160036001F14003036001F1DD
:105868006003043A01F180010360F1D1002E1CBFEE
:105878000160012E12D101F07EFE01F07FFE534639
:10588800494658461A461C4600F09FF900980021E0
:105898004460017001B0BDE8000FF0BD01F12002C5
:1058A8000260022E1CBF40310160E4E740F6D020C0
:1058B800C2F2200002F024F840F644422046C2F228
:1058C8002002614602F0BCF8B0B502AF8AB0D3B28C
:1058D800540044EAD314D0F804C05FFA84FEF445B7
:1058E80055D9836904F00F041B68BFF35F8F9BB21F
:1058F800E340DB074BD0D0F814C0F4454DD950F83D
:105908001CCF0EEB8E0450F80C3C03EB840E9EF873
:10591800103003F07F040194082C46D25DB205F0E4
:105928003F03002D0CEB8303D3F8C04108D424F0C7
:1059380001040C4452B2002AC3F8C04109D518E04A
:1059480024F4803461F3104452B2002AC3F8C041F1
:105958000FD471B9DCF8B81101239EF91020002A80
:1059680002F01F0248BF090C03FA02F211400906AF
:1059780001D00AB0B0BDDEF808100968C1F30A42C8
:10598800014670460AB0BDE8B04000F01EB940F6C6
:10599800E020C2F2200001F0B3FF40F64442704616
:1059A800C2F22002614602F04BF8002040F6C831EE
:1059B80006900220039040F65C30C2F22000C2F24A
:1059C800200102900120059008A8049046F27F501B
:1059D800C0F20000099001A8089002A802F00DF892
:1059E80080B56F468AB002464368C8B2490041EAAA
:1059F800D011C8B2834227D9936901F00F011B68FF
:105A0800BFF35F8F9BB223FA01F1C9071CD051691C
:105A180081421FD9136900EB8000D16903EB800034
:105A2800007C00F07F020192082A19D240B200F0EF
:105A38003F02002801EB8201D1F8C01148BF090CD0
:105A480001F001000AB080BD40F6F020C2F220004B
:105A580001F056FF40F63442C2F2200201F0F0FF96
:105A6800002040F6C83106900220039040F65C30D2
:105A7800C2F22000C2F2200102900120059008A87D
:105A8800049046F27F50C0F20000099001A80890E7
:105A980002A801F0B2FFF0B503AF2DE9000B9AB0F0
:105AA8008046109000200821CDE9060108F11C0964
:105AB8000C90012108900390019001A800F1400585
:105AC80000F1100605910AE021F44C0141EA8241F7
:105AD80041F44001C0F8C4110598022821D030468D
:105AE800294600F0F6F8E0B1027C12F07F01F3D00D
:105AF800D9F80030082911914CD254B2427C481E82
:105B0800B4F1FF3FC0B203EB8000D0F8C411DBDD75
:105B180002F00F0221F00C0141EA820141F0C001BC
:105B2800D8E700200821CDE906010121CDF8408001
:105B38000C9008900591039001900CE0B1F1FF3FA3
:105B480006DD81680968C1F30A42494600F03DF85C
:105B5800059802281AD03046294600F0BAF8A8B1AC
:105B6800017C11F07F0249B2E8D0D9F80030082A48
:105B780011920FD2013A0029D2B203EB8202D2F875
:105B8800C421E5D412F08001DBD1E1E71AB0BDE809
:105B9800000BF0BD002040F6C8311690022013908B
:105BA80040F65C30C2F22000C2F2200112900120BF
:105BB800159018A8149046F27F50C0F20000199072
:105BC80011A8189012A801F018FFF0B503AF4DF80E
:105BD800048D82B005468846EE6801210068316070
:105BE8007168F26162F31E417160CAB1B06040F63B
:105BF800FF71B068884300F58050F060F0686FF37B
:105C08000B0000F58050306130696FF30B0000F530
:105C18008050706170696FF30B0000F5805004E0EC
:105C28000020B060F06030617061B0618021706800
:105C380040F400407060706861F30700706000967F
:105C480001F099FC4EF670746846CEF2000420F01C
:105C58001C00206001F08FFC01F090FCA8688660B1
:105C6800C16821F0FF01C160019001F084FC01A826
:105C780020F01C0020602030206001F07CFC01F046
:105C88007DFC95F910204FF47F01D8F800004FF4FF
:105C98008033B2F1FF3F02F01F02C8BFFF21C8BF27
:105CA800012303FA02F21140C0F8B011D0F8B01184
:105CB80059B1D0F8B01100291CBFD0F8B011002993
:105CC80003D0D0F8B0110029F0D102B05DF8048BF0
:105CD800F0BDF0B503AF4DF804BD84B0C16800292C
:105CE8001CBFD0E904128A4266D101AB056884461C
:105CF8000ECB002D4CF8101FC0E9052344D0D0E985
:105D08000112914240D2C26A00F1180E0224012504
:105D180003E0D0E90113994236D24B1C436041F0AD
:105D28008003C9B2446141EA032101830021C560AF
:105D380003E0D0E904138B42EBD04B1CCCF80030C5
:105D48001EF8011056684B0043EAD111CBB29E42AF
:105D5800EFD9966901F00F013668BFF35F8FB6B2CD
:105D680026FA01F1C907E4D0516999427CD9116931
:105D780003EB830301EB8303197C4906D9D018464A
:105D880004B05DF804BBF0BD01AEC569002346CE82
:105D9800002DC3608CE846001CBFD0E908128A4277
:105DA80033D101AE46CEC0E90926C0E9073118460D
:105DB80004B05DF804BBF0BDC26A00F1180503E049
:105DC800D0E904138B4290D04B1C0361695C546882
:105DD8004B0043EAD111CBB29C42F1D9946901F04E
:105DE8000F012468BFF35F8FA4B224FA01F1C90739
:105DF800E6D05169994237D9116903EB830301EB66
:105E08008303197C4906DBD0B9E7C26A00F128058B
:105E180003E0D0E908168E42C3D04E1C0662695CC6
:105E280056684C0044EAD1115FFA81FC6645F0D906
:105E3800966901F00F013668BFF35F8FB6B226FA94
:105E480001F1C907E5D05169614514D911690CEB15
:105E58008C0601EB86010E7C7606DAD00B461846D6
:105E680004B05DF804BBF0BD40F644421846C2F2E7
:105E7800200201F0E5FD40F644426046C2F22002ED
:105E880001F0DEFDF0B503AF2DE9000B844646684E
:105E9800C8B24D0045EAD014E0B2864217D9DCF802
:105EA800189004F00F04D7F80880012606FA04FEBB
:105EB800BFF35F8F59E8006F46EA0E0449E80045D2
:105EC800002DF7D116EA0E0FBFF35F8F03D0002025
:105ED800BDE8000BF0BDDCF80CE0864545D9DCF8E0
:105EE80014E0864548D9DCF800600025C0F2FF754B
:105EF800B3F5806F06EB801405EA0345266846F083
:105F080000562660266888BF4FF080656FF31A46F2
:105F18002E44266026685FEA0865DCF808E026F467
:105F28000049DCF810C04EB24D4608BF05F50045E3
:105F3800B6F1FF3FD8BF4D462560450101264EF812
:105F480005600EEB401600EB8000756825F0FF0534
:105F580075604CF820200CEB80000174011D80F85E
:105F6800118058C1BDE8000BF0BD40F6544271469F
:105F7800C2F2200201F064FD40F664427146C2F2AA
:105F8800200201F05DFDD0E900018C22096800289B
:105F980008BF8422885840F0004088507047D0E9F4
:105FA80000018C220968002808BF84228858C00F85
:105FB8007047D0E900018C220968002808BF8422B4
:105FC800885820F0004088507047D0E900018C22A2
:105FD8000968002808BF8422885840F0804088500B
:105FE8007047D0E900028C231268002808BF842378
:105FF800D05820F0807040EA0160D0507047D0E956
:1060080000028823002808BF80236FF07F401268B1
:10601800814238BF0846012898BF01200138D05076
:106028007047D0E900014FF0007209680028D1F8E4
:10603800441108BF4FF0807211EA020018BF012016
:106048007047D0E900014FF000720968002808BFC6
:106058004FF08072C1F844217047D0E900024FF038
:1060680000731268002808BF4FF080736FF000704B
:10607800D2F848C108BF6FF08070002900EA0C0010
:1060880018BF1843C2F848017047D0E900014FF023
:10609800007209680028D1F8481108BF4FF08072D3
:1060A80011EA020018BF01207047F0B503AF4DF8A0
:1060B80004BD044690F834000D4608B1206829E074
:1060C80001F05FFA064601F052FA2068F10721D183
:1060D800002801BF206A4FF0FF312160D0F8481135
:1060E80001BF21F0410165F3000165F38611C0F895
:1060F800481101BF2068013020605DF804BB04BF6F
:10610800BDE8F04001F035BA40F6E040C2F22000A8
:1061180001F0C2FB002801BF206A4FF0FF31216067
:10612800D0F8481101BF21F0410165F3000165F382
:106138008611C0F8481101BF2068013020605DF861
:1061480004BB08BFF0BDDFE7F0B503AF4DF804BDF1
:10615800044690F834000D4608B1206835E001F097
:1061680010FA064601F003FA2068F1072DD100283D
:1061780055D14FF0FF3069002060E8B241EAD011F4
:10618800A268C8B2824217D9E26901F00F01126809
:10619800BFF35F8F92B222FA01F1C9070CD0A1694F
:1061A800814242D9616900EB800001EB8000806880
:1061B800016821F0005101602068013020605DF81D
:1061C80004BBBDE8F04001F0D4B940BB4FF0FF304C
:1061D80069002060E8B241EAD011A268C8B28242E0
:1061E80017D9E26901F00F011268BFF35F8F92B20D
:1061F80022FA01F1C9070CD0A169814215D9616958
:1062080000EB800001EB80008068016821F00051FC
:1062180001602068013020605DF804BBF0BD40F6E5
:10622800E040C2F2200001F037FB40F64442C2F2DF
:10623800200201F005FCF0B503AF2DE9000782B09C
:1062480006683168002940F0EB8000F1040A04690F
:106258004FF0FF3230469AE8220440F8042B0A78BF
:106268004AB34978B4684A0042EAD112D3B29C4290
:1062780011D9F46902F00F022468BFF35F8FA4B24A
:1062880024FA02F2D20706D0B169994240F2CE80D0
:1062980001200521BDE0F26A2B889A42C0F0AB804C
:1062A800B56AD21AAA42C0F0A680F2620C469AF8E1
:1062B80000500095A8E02178B26841F001094FEA42
:1062C800490343EAD111CBB29A4240F28C80F26979
:1062D80001F00F011268BFF35F8F92B222FA01F149
:1062E800C90700F08080B169994240F29F80217807
:1062F800B26841F002094FEA490343EAD111CBB22F
:106308009A4270D9F26901F00F011268BFF35F8FEA
:1063180092B222FA01F1C90765D0B169994240F2F7
:1063280085802178B26841F003094FEA490343EABE
:10633800D111CBB29A4256D9F26901F00F01126815
:10634800BFF35F8F92B222FA01F1C9074BD0B1694E
:1063580099426BD92178B26841F004094FEA4903A0
:1063680043EAD111CBB29A423DD9F26901F00F014B
:106378001268BFF35F8F92B222FA01F1C90732D0D7
:10638800B169994252D92178B26841F005094FEABA
:10639800490343EAD111CBB29A4224D9F26901F0F8
:1063A8000F011268BFF35F8F92B222FA01F1C90799
:1063B80019D0B169994239D92178804641F0060946
:1063C8004946FEF724FE0146404661B1207840F078
:1063D800070940464946FEF71AFE0146404611B1F4
:1063E8000120032115E0F16A2B88994203D3CA1AC8
:1063F800B16A8A4202D2012004210AE0F2624C46C4
:106408009AF8001000914946FFF73CFDA8B100201A
:10641800214632680132326002B0BDE80007F0BDA3
:1064280040F6E040C2F2200001F036FA40F634426D
:106438001846C2F2200201F003FB40F60030C2F217
:10644800200001F05DFAB0B502AF044690F83400C0
:1064580008B1206815E001F094F8054601F087F8C6
:106468002068E9070DD1B8B94FF0FF302060201D32
:10647800FFF711FB206801302060BDE8B04001F053
:1064880078B848B94FF0FF302060201DFFF703FBB4
:10649800206801302060B0BD40F6E040C2F2200024
:1064A80001F0FAF9B0B502AF88B007F8221CA7F1DD
:1064B80022010791A7F11F010691A7F11E0105917D
:1064C80090F83410D7E9024507F8212CA7F12102EA
:1064D80007F8203C07F81F4C27F81E5CCDE903029B
:1064E80021B103A8FFF7A7FE08B0B0BD01F049F835
:1064F800044601F03CF803A8FFF79DFEE20705D12A
:1065080004460D4601F035F82946204608B0B0BDCE
:10651800F0B503AF4DF804BD044690F834000D46BD
:1065280008B1206823E001F02CF8064601F01FF8B6
:106538002068F1071BD1002801BF206A4FF0FF3106
:106548002160690601BF01F18071C0F8541120680B
:10655800013001BF20605DF804BBBDE8F04001F0E8
:1065680008B840F6E040C2F2200001F095F9002892
:1065780001BF206A4FF0FF312160690601BF01F1B8
:106588008071C0F854112068013002BF20605DF8A6
:1065980004BBF0BDE5E7B0B502AF044690F834009F
:1065A80008B120681DE000F0ECFF054600F0DFFFB1
:1065B8002068E90715D1002801BF206AD0F84011EA
:1065C8000022226001BF41F00101C0F84011BDE87E
:1065D800B04000F0CEBF40F6E040C2F2200001F02B
:1065E8005BF9002801BF206AD0F840110022226020
:1065F80002BF41F00101C0F84011B0BDEBE7B0B5F2
:1066080002AF044690F8340008B1206815E000F0A5
:10661800B8FF054600F0ABFF2068E9070DD1B8B90F
:106628004FF0FF302060201DFEF761FC206801302C
:106638002060BDE8B04000F09CBF48B94FF0FF3083
:106648002060201DFEF753FC206801302060B0BD9B
:1066580040F6E040C2F2200001F01EF9F0B503AFA9
:106668002DE9000784B0814691F83400D7F80880F6
:1066780016460D46E0B32868002840F0D7804FF052
:10668800FF3071002860F0B241EAD011AA68C8B2A0
:10669800824220D9EA6901F00F011268BFF35F8FC7
:1066A80092B222FA01F1C90715D0A969814240F2D4
:1066B800C380291D700600F0928002A81A4643463E
:1066C8000096FFF717F89DF80800002800F0918061
:1066D8009DF8090000E0052089F8010001202968DB
:1066E80089F80000481C286004B0BDE80007F0BD28
:1066F8009A4600F046FF044600F039FF2868E10793
:106708002CD1002840F092804FF0FF3071002860B3
:10671800F0B241EAD011AA68C8B2824249D9EB69FD
:1067280001F00F011B68BFF35F8F9BB223FA01F1E1
:10673800C9073ED0A96981427ED9291D52467006F3
:106748005CD002A843460096FEF7D4FF9DF80800E7
:1067580000285BD09DF8096001242CE0002865D151
:106768004FF0FF3071002860F0B241EAD011AA68FA
:10677800C8B2824225D9EB6901F00F011B68BFF34B
:106788005F8F9BB223FA01F1C9071AD0A969814228
:1067980052D9291D524670063CD002A8434600969D
:1067A800FEF7A8FF9DF80800E0B39DF809600124F2
:1067B80009E00124052628680130286000F0D9FE88
:1067C80004E001240526286801302860F0B244EA74
:1067D8000020C9E9000804B0BDE80007F0BD02A820
:1067E8001A464346FEF775FD9DF8080000287FF419
:1067F8006FAF0398C9F80400002070E702A8434669
:10680800FEF767FD9DF808000028A3D1DDF80C808D
:106818000024D0E702A84346FEF75BFD9DF8080078
:106828000028C2D1DDF80C800024CCE740F6E04017
:10683800C2F2200001F030F840F63442C2F22002E1
:1068480001F0FEF8F0B503AF2DE9000784B08146EA
:1068580091F83400D7F8088016460D46E0B328684A
:10686800002840F0D7804FF0FF3071002860F0B268
:1068780041EAD011AA68C8B2824220D9EA6901F077
:106888000F011268BFF35F8F92B222FA01F1C907B4
:1068980015D0A969814240F2C380291D700600F015
:1068A800928002A81A4643460096FEF743FE9DF8DA
:1068B8000800002800F091809DF8090000E00520FC
:1068C80089F801000120296889F80000481C28601F
:1068D80004B0BDE80007F0BD9A4600F052FE044639
:1068E80000F045FE2868E1072CD1002840F092808E
:1068F8004FF0FF3071002860F0B241EAD011AA6869
:10690800C8B2824249D9EB6901F00F011B68BFF395
:106918005F8F9BB223FA01F1C9073ED0A969814272
:106928007ED9291D524670065CD002A843460096BF
:10693800FEF700FE9DF8080000285BD09DF809606E
:1069480001242CE0002865D14FF0FF307100286049
:10695800F0B241EAD011AA68C8B2824225D9EB69DF
:1069680001F00F011B68BFF35F8F9BB223FA01F19F
:10697800C9071AD0A969814252D9291D5246700601
:106988003CD002A843460096FEF7D4FD9DF80800C7
:10699800E0B39DF80960012409E001240526286870
:1069A8000130286000F0E5FD04E001240526286890
:1069B80001302860F0B244EA0020C9E9000804B0B8
:1069C800BDE80007F0BD02A81A464346FEF742FBA1
:1069D8009DF8080000287FF46FAF0398C9F80400F9
:1069E800002070E702A84346FEF734FB9DF8080034
:1069F8000028A3D1DDF80C800024D0E702A8434684
:106A0800FEF728FB9DF808000028C2D1DDF80C80AD
:106A18000024CCE740F6E040C2F2200000F03CFF42
:106A280040F63442C2F2200201F00AF8F0B503AF92
:106A38004DF8048D044690F834000D46F0B12068F6
:106A4800002872D14FF0FF3069002060E8B241EAB7
:106A5800D011A368C8B2834261D9E36901F00F017C
:106A68001B68BFF35F8F9BB223FA01F1C90756D0A9
:106A7800A16981425FD9201D11464DE0904600F082
:106A880080FD064600F073FD2068F10728D1002834
:106A98004BD14FF0FF306A002060E8B242EAD012D2
:106AA800A168D0B2814212D9E36902F00F021B68D3
:106AB800BFF35F8F9BB223FA02F2D20707D0A36914
:106AC80083423ED9201D41462A46FEF7FDFE206836
:106AD800013020605DF8048BBDE8F04000F049BD4E
:106AE80018BB4FF0FF306A002060E8B242EAD012CB
:106AF800A168D0B2814212D9E36902F00F021B6883
:106B0800BFF35F8F9BB223FA02F2D20707D0A369C3
:106B1800834216D94146201D2A46FEF7D5FE206835
:106B2800013020605DF8048BF0BD40F6E040C2F211
:106B3800200000F0B1FE40F63442C2F2200200F01C
:106B48007FFF40F634421946C2F2200200F078FF77
:106B5800F0B503AF4DF804BD044690F8340028B1F1
:106B680020686FF00042904222D32CE00E4600F0DD
:106B780008FD054600F0FBFC2068E90713D16FF01B
:106B8800004188421FD201302060201D3146FEF7A7
:106B980027FF054620680138206000F0EAFC2846F7
:106BA8005DF804BBF0BD6FF0004188420BD231465E
:106BB80001302060201DFEF713FF21680139216094
:106BC8005DF804BBF0BD40F6D040C2F2200000F0F2
:106BD8007DFEF0B503AF2DE900070C4691F834109F
:106BE80079B12168002940F09580216A4FF0FF3281
:106BF8002260D1F8442153061AD4D2072BD10021A0
:106C08003DE0064600F0BDFC054600F0B0FC2068FB
:106C1800E90712D100287DD1206A4FF0FF312160A9
:106C2800D0F844114A0631D4C90739D1002531E0DA
:106C38004022C1F84421012121E000286AD1206ABC
:106C48004FF0FF312160D0F844114A0623D4C90718
:106C580040D1002523E00122C1F84421D1F8BC210C
:106C6800D1F8BC31D2B2C3F3074322861E04C1F85F
:106C7800BC6183804280D1F8AC11C18002212268B6
:106C88000180501C2060BDE80007F0BD40210125AF
:106C9800C0F8441118E040210125C0F844112DE046
:106CA80001210225C0F84411D0F8BC11D0F8BC214C
:106CB8005FFA81F8C2F30749A4F830804FEA094126
:106CC800C0F8BC11D0F8ACA120680130206000F0F9
:106CD80050FC16E001210225C0F84411D0F8BC117F
:106CE800D0F8BC215FFA81F8C2F30749A4F83080D4
:106CF8004FEA0941C0F8BC11D0F8ACA120680130B6
:106D08002060C9EA0A40706045EA08403060BDE882
:106D18000007F0BD40F6E040C2F2200000F0BCFDE4
:106D2800082A16D10A784B78B1F802C04968C0F829
:106D3800021002F08001C17102F01F018371042961
:106D4800A0F800C028BF04210172C2F341114172AA
:106D5800704701210170042141727047F0B503AFFB
:106D68002DE90007D0E9058A04460AF102004045EA
:106D780018D80AF58076B045354638BF454686426C
:106D88002BD32E1A9E420DD32646246989461146D6
:106D980020441A461D4601F0A1FFA81C0AEB000179
:106DA800414503D90220BDE80007F0BDC2451BD20A
:106DB80004F80A000AF1010040453FBF04F80090BA
:106DC800B1610820BDE8000738BFF0BD40F6705239
:106DD8004146C2F2200200F033FE40F650522946E6
:106DE800C2F2200201F004FA40F660525046C2F2A4
:106DF8002002414600F024FEF0B503AF2DE9000F54
:106E080087B00D690A46D1F800808E68002D18BF3A
:106E18000325B8F1000F18BF4FF00108002E18BF66
:106E28000126D0E9051C0CF1020E8E4504D902207A
:106E380007B0BDE8000FF0BD0CF5807399421C4601
:106E480038BF0C4673455AD3A4EB0E03102B04D25B
:106E5800022007B0BDE8000FF0BD740092F82130A1
:106E68000294012692F820400394D47F0693B2F846
:106E780018B00494947F538B4FEA1B2A928B059485
:106E8800D0F81090140A01941C0A00944FF404746A
:106E980029F80E4009EB0E04A272009AE673029ECE
:106EA8006272069A6673019E6271039AE6720CF129
:106EB800120622718E42049AE270059AA57384F82C
:106EC8000C80237284F807A084F806B0A27004D955
:106ED800022007B0BDE8000FF0BD8C4517D20CF1B9
:106EE800010312228B4209F80C2017D20121866176
:106EF800082009F8031007B0BDE8000FF0BD40F600
:106F080050527046C2F22002214601F071F940F653
:106F180060526046C2F2200200F092FD40F67052C4
:106F28001846C2F2200200F08BFDF0B503AF4DF811
:106F380004BD91F82550012291F8233091F8226080
:106F480091F82440002BD0E9051E0EF102030577C5
:106F58000EF10405C0E900256FF03F0508BF6FF08A
:106F68007F058B421AD80EF580729142944638BF3D
:106F78008C469A422ED3ACEB0302072A0ED345EA7D
:106F8800441204694FF08075E55023445A71002279
:106F98001A710EF109028A429E7103D902205DF826
:106FA80004BBF0BD8E451DD2092304F80E300EF146
:106FB80001038B423FBF0221E154826108203CBF9C
:106FC8005DF804BBF0BD40F670521846C2F22002CC
:106FD80000F036FD40F650521846C2F220026146D3
:106FE80001F006F940F660527046C2F2200200F045
:106FF80027FD4169032981BF01698069488070477D
:1070080080B56F4640F680520420C2F2200201F09B
:10701800D0F8F0B503AF2DE9000B8E46017F91B390
:10702800D0E9051C0CF102048C421CD80CF58076C2
:10703800B142354638BF0D46A64228D32D1B062D32
:1070480011D305690026D7E9028905F804E02C4424
:1070580062700CF108028A42667184F8049084F820
:107068000380A37003D90220BDE8000BF0BD8C4556
:1070780015D2082305F80C300CF101038B4215D208
:107088000B218261E9540820BDE8000BF0BD40F6F1
:1070980050522046C2F22002294601F0A9F840F6D3
:1070A80060526046C2F2200200F0CAFC40F67052FC
:1070B8001846C2F2200200F0C3FC80B56F4684B0C7
:1070C800D7F808E0944600220292CDE9003E6346D4
:1070D80000F002F804B080BDF0B503AF2DE9000B55
:1070E8008C46110601D0416909E00168D1B34468B2
:1070F80041698C425AD20669355D01353555D0F85B
:1071080018E04FF00108D7E904490EF10405002CF6
:10711800C0E9028508BFA1460EF102048C421DD8C1
:107128000EF58075A9422E4638BF0E46A54235D3C6
:10713800351B072D12D30569D7E9028605F804C067
:107148002C4462700EF10902E37000238A4284F82D
:107158000690667184F80480A37007D90220BDE800
:10716800000BF0BD0720BDE8000BF0BD8E4524D212
:10717800092305F80E300EF101038B423FBF0421AD
:10718800E954826108203CBFBDE8000BF0BD40F621
:1071980070521846C2F2200200F052FC40F65052DB
:1071A8002046C2F22002314601F022F840F6905201
:1071B8002046C2F2200200F043FC40F660527046BE
:1071C800C2F2200200F03CFCF0B503AF2DE9000F3D
:1071D80083B00B460546D0E90510861C8E4204D9BB
:1071E800022003B0BDE8000FF0BD884280F099800E
:1071F8002C6900F1010E00268E45265480F09780F8
:1072080003EB020B221802F1020C0295032600255B
:107218004FF0000804F80E6001944419B8F1000F0B
:1072280004F1020E05D04FF000099A468E4534D37A
:1072380058E05B455BD09A461AF9012BB2F1FF3F43
:107248005FFA82F923DC5E7809F01F08B9F1E00FD4
:1072580006F03F0617D39A78B9F1F00F02F03F0213
:1072680042EA86162BD3DA7803F1040A02F03F02C9
:1072780042EA861208F0070642EA86490022B2EB83
:10728800194F04D023E046EA881903F1020A1FFACD
:1072980089F84FF000098E4524D2231D1EF1030FF3
:1072A80037D88B422ED82CF805800235C84653466D
:1072B8004419B8F1000F04F1020EB4D1B9E746EA57
:1072C800083903F1030A0022B2EB194FDFD009F5A0
:1072D8007F02372363F39F294FF4584343EA9228E8
:1072E8008E45DAD3022003B0BDE8000FF0BD019A45
:1072F800A91C11540298C0F818E0082003B0BDE892
:10730800000FF0BD40F6C0521846C2F2200200F04D
:1073180050FF40F6C0527046C2F22002194600F0F3
:1073280067FF40F6A052C2F2200200F089FB40F647
:10733800B0527046C2F2200200F082FBD0B502AF14
:1073480082680123D2E9051E0EF10404C0E9003465
:107358000EF102038B4216D80EF58074A142A446A2
:1073680038BF8C469C4230D3ACEB0304032C0AD3C1
:10737800D2F810C000242CF8034063449C700EF12E
:1073880005048C4201D90220D0BD8E4525D20523A3
:107398000CF80E300EF101038B423FBF0F210CF8A1
:1073A8000310946140F6D0523FBFC2F2200202217E
:1073B8000423BDE8D04038BF00F016B840F670523C
:1073C8001846C2F2200200F03BFB40F65052184625
:1073D800C2F22002614600F00BFF40F66052704690
:1073E800C2F2200200F02CFBF0B503AF4DF804BD4B
:1073F8000568D5B1D0E901067469A04242D2346962
:1074080003F1030EBEF1FF0F255C05F101052554BC
:107418009EBFD6E905C000EB0E0565454FF0020496
:1074280008D920465DF804BBF0BD072420465DF866
:1074380004BBF0BD60452CD23569441C05F800E05A
:10744800D6F814C064452BD2D6F810C010250CF815
:107458000450841CD6F814C0644529D23569033019
:107468002955C4182CD271698C4230D83169084426
:1074780011461A4601F032FCB461082420465DF832
:1074880004BBF0BD40F6DC522146C2F2200200F0F7
:10749800D7FA40F6EC526146C2F2200200F0D0FA68
:1074A80040F6FC52C2F220022046614600F0C8FABB
:1074B80040F60C62C2F220022046614600F0C0FA93
:1074C80040F61C622146C2F2200200F091FE40F60E
:1074D8001C622046C2F2200200F06BFE8268002384
:1074E80003605169032981BF106991694180704720
:1074F80080B56F4640F62C620420C2F2200200F0EC
:1075080058FE0146406820283FBF896801EB4010BB
:107518004FF4805100223FBF425000F580508280D6
:1075280082713FBFC2718260C26002613FBF8282C6
:10753800C282826182833CBFC283704780B56F4636
:1075480040F698622021C2F2200200F079FAD0B504
:1075580002AF00F016F8012121EA000400F007F854
:107568002046D0BD002808BF704700F002B872B6A8
:10757800704762B67047BFF34F8F7047BFF36F8F86
:107588007047EFF310807047006800F0DFB980B5EE
:107598006F4690B0029044F24040C2F200000021D1
:1075A800D0E84F2FC0E8431F002BF9D172B348F23F
:1075B8008450C2F20000006840B3002040F6641115
:1075C800079001200490C2F22001069009A80590B6
:1075D80045F2D920C0F2000003910A9002A8099050
:1075E80040F60470C2F2200000F043F940F614712E
:1075F8000F900D20C2F220010E900BAACDE90B10BE
:1076080003A80D910121002300F0CCF800F000F848
:1076180080B56F4648F248100521C4F21F004BF2AE
:10762800004301603821C0F8F0114CF26C00C4F23C
:107638000A0041F6004E01684EF6004CC0F2C44301
:10764800C0F64E6E21F0080101604CF28400C2F2CF
:10765800601CC4F21B0050F8801C41F0080140F87F
:10766800801C082101601A46013AFDD141601A4682
:10767800013AFDD101601A46013AFDD141601A462E
:10768800013AFDD101601A46013AFDD141607246C6
:10769800013AFDD101607246013AFDD141601A46B6
:1076A800013AFDD101607246013AFDD141601A46A6
:1076B800013AFDD101607246013AFDD1416072463E
:1076C800013AFDD101601A46013AFDD141601A46DE
:1076D800013AFDD101601A46013AFDD141601A46CE
:1076E800013AFDD101601A46013AFDD14160624676
:1076F800013AFDD1B6E7006840F65072C2F22002A6
:107708000B4652F8301002EBC0004268184600F0F1
:107718002BBC002070477047704780B56F4648F211
