:0200000460009A
:100000004643464200000156000000000101020084
:1000100000000000000000000000000000000000E0
:1000200000000000000000000000000000000000D0
:1000300000000000000000000000000000000000C0
:1000400000000000010403000000000000000000A8
:100050000000200000000000000000000000000080
:100060000000000000000000000000000000000090
:100070000000000000000000000000000000000080
:10008000EB04180A063204260000000000000000FD
:10009000050404240000000000000000000000002F
:1000A0000000000000000000000000000000000050
:1000B0000604000000000000000000000000000036
:1000C0000000000000000000000000000000000030
:1000D00020041808000000000000000000000000DC
:1000E0000000000000000000000000000000000010
:1000F0000000000000000000000000000000000000
:1001000000000000000000000000000000000000EF
:100110000204180804200000000000000000000095
:1001200000000000000000000000000000000000CF
:10013000600400000000000000000000000000005B
:1001400000000000000000000000000000000000AF
:10015000000000000000000000000000000000009F
:10016000000000000000000000000000000000008F
:10017000000000000000000000000000000000007F
:10018000000000000000000000000000000000006F
:10019000000000000000000000000000000000005F
:1001A000000000000000000000000000000000004F
:1001B000000000000000000000000000000000003F
:1001C000000100000010000001000000000000001D
:1001D000000000000000000000000000000000001F
:1001E000000000000000000000000000000000000F
:1001F00000000000000000000000000000000000FF
:10020000D4D4D4D4D4D4D4D4D4D4D4D4D4D4D4D4AE
:10100000D10020400020006000000000000000002F
:1010100020100060001000600000000000000000D0
:1010200000000060F8C0000000000000EFBEADDE70
:10103000124880F3088812481249016000F036F81F
:10104000114812490022814201D004C0FBE7104838
:101050001049114A814202D008CA08C0FAE70F4875
:101060004FF47001026842EA01020260BFF34F8F41
:10107000BFF36F8F00F014F800DE00000040002086
:1010800008ED00E00040002000500020988500207E
:10109000B84200204C440020F8C0006088ED00E019
:1010A00041F6216CC0F2000C6047D4D41C4840F2D9
:1010B000924188420CBF1B4A1B4A1C4B5360136869
:1010C00023F0800313601A481A4901BF1A480A0C1A
:1010D0008264C1F30F014164016C41F004010164B9
:1010E0001648174A824205D01649814202D008CAE2
:1010F00008C0FAE71448154A824205D014498142D3
:1011000002D008CA08C0FAE71248134A824205D042
:101110001249814202D008CA08C0FAE770470000AD
:10112000240400000080034000C00B4020C528D9E3
:1011300000C00A40AAAAFAFF00400E4000000000CA
:10114000B8220060BC860000004000200020006043
:10115000B84200200000202074A9006084172020DD
:10116000D4D4D4D4D4D4D4D4D4D4D4D4D4D4D4D43F
:10117000D4D4D4D4D4D4D4D4D4D4D4D4D4D4D4D42F
:10118000D4D4D4D4D4D4D4D4D4D4D4D4D4D4D4D41F
:10119000D4D4D4D4D4D4D4D4D4D4D4D4D4D4D4D40F
:102000000040002031100060B5400000A3860000B1
:10201000B5400000B5400000B540000000000000E1
:10202000000000000000000000000000B5400000BB
:10203000B540000000000000B5400000D7200000BF
:10204000B5400000B5400000B5400000B5400000BC
:10205000B5400000B5400000B5400000B5400000AC
:10206000B5400000B5400000B5400000B54000009C
:10207000B5400000B5400000B5400000B54000008C
:10208000B54000000000000000000000000000005B
:10209000B5400000B5400000B5400000B54000006C
:1020A000B5400000B5400000B5400000B54000005C
:1020B000B5400000B5400000B5400000B54000004C
:1020C000B5400000B5400000B5400000B54000003C
:1020D000B5400000B5400000B5400000B54000002C
:1020E000B5400000B5400000B5400000B54000001C
:1020F000B5400000B5400000B5400000B54000000C
:10210000B5400000B5400000B5400000B5400000FB
:1021100000000000B540000000000000B5400000D5
:10212000B5400000B5400000B5400000B5400000DB
:10213000B5400000B540000000000000B5400000C0
:10214000B5400000B5400000B5400000B5400000BB
:10215000B5400000B5400000000000000000000095
:10216000B5400000B5400000B5400000B54000009B
:10217000B5400000B5400000B5400000B54000008B
:10218000B5400000B5400000B5400000B54000007B
:10219000B5400000B5400000B5400000B54000006B
:1021A000B5400000B5400000B5400000B54000005B
:1021B000B5400000B5400000B5400000B54000004B
:1021C000B5400000B5400000B54000000000000030
:1021D000B5400000B5400000B5400000B54000002B
:1021E000B5400000B5400000B5400000B54000001B
:1021F000B5400000B5400000B5400000B54000000B
:10220000B540000013110000B5400000B5400000CB
:10221000B5400000B5400000B5400000B5400000EA
:10222000B5400000B5400000B5400000B5400000DA
:10223000B5400000B5400000B540000000000000BF
:1022400000000000B5400000B5400000B5400000AF
:10225000B5400000B5400000B5400000B5400000AA
:10226000B5400000B5400000B5400000B54000009A
:10227000B5400000B5400000B5400000B54000008A
:10228000B5400000B5400000B5400000B54000007A
:10229000B5400000B5400000B5400000B54000006A
:1022A000B5400000B5400000B5400000000000004F
:0822B000B5400000B54000003C
:1022B800F0B503AF2DE9000FABB08A46044601F133
:1022C800340038310AF1540203F00DFEDAF828011F
:1022D800016841F001010160DAF82811086820F06E
:1022E800020008600020C1F80801C1F81801C1F80F
:1022F80028011491C1F83801DAF8C0B0DBF8000001
:1023080020F00100CBF80000DBF8000040F40040AA
:10231800CBF80000DBF8000000040CD5DBF8000067
:10232800000444BFDBF800005FEA004003D5DBF897
:1023380000000004EED43F20CBF80800DBF80000D2
:1023480020F00100CBF80000DAF8C450286820F02B
:1023580001002860286840F40040286028680004CC
:1023680009D52868000444BF28685FEA004002D500
:1023780028680004F2D43F2040F26341A86028682E
:1023880020F001002860DAF80060DAF85C011390A8
:10239800B06C40F00100B064706C08437064706CFD
:1023A800012161F383007064706C20F08000706418
:1023B800B06C40F02000B064706C40F44040706431
:1023C800706C40F444707064B06C40F08000B0648D
:1023D800B06D000709D0B06D00071CBFB06D5FEA93
:1023E800007002D0B06D0007F2D1B06C40F26341CA
:1023F80040F02000B064706C20F440407064706C51
:1024080020F4447000F588707064DAF80480D8F815
:10241800480040F00100C8F84800D8F844000843D4
:10242800C8F84400D8F84400012161F38300C8F8D3
:102438004400D8F8440020F08000C8F84400D8F8D8
:10244800480040F02000C8F84800D8F8440040F49C
:102458004040C8F84400D8F8440040F44470C8F834
:102468004400D8F8480040F08000C8F84800D8F880
:10247800580000070CD0D8F8580000071CBFD8F83F
:1024880058005FEA007003D0D8F858000007EED172
:10249800D8F8480002220F2340F02000C8F848006E
:1024A800D8F8440020F44040C8F84400D8F8440064
:1024B80020F4447000F58870C8F84400DAF87C11FC
:1024C80015A803F0F1FFDAF8681127A84FF4805235
:1024D80003F0B2FFDAF89C001290DAF8A400119029
:1024E800DAF8A8000D90DAF8AC000C90DAF884015C
:1024F8000B90DAF890010A90DAF89801DAE91712E5
:10250800069004F5907004F074FADAF83091DAF86D
:1025180088E009F59070606709F1C0002067DAE982
:102528000D0109F16003DAF81421CDE90F100F212C
:10253800DAF854000E90DAF880000990DAF884008E
:102548000190DAF8E0000590DAF8E8000490DAF88B
:10255800FC000390DAE940C00890DAF80801079017
:10256800DAF80C010090DAF81C0102904FF4704080
:10257800A9F88C01C4E91999A9F88E114FF00F092F
:10258800E366DAF8343103F59071C4F8881003F182
:10259800C001C4F88410A3F88C0103F16001C4E9F8
:1025A8001E33A3F88E91C4F88010DAF8381101F5BB
:1025B8009073C4F89C3001F1C003C4F89830A1F8B6
:1025C8008C01C4E92311A1F88E916031C4F89410EC
:1025D800DAF83C1101F59073C4F8B03001F1C0038A
:1025E800C4F8AC30A1F88C0101F16000C4F8A8006F
:1025F800C4E92811A1F88E911399C4E904B501F131
:1026080034005031C4E93068C4E9C81015A90698E7
:1026180020630A98E0620B98A0620C9860620D989B
:1026280020621498C4F8BCE0C4F860C0C4E9000093
:10263800C4E902001298A0611198E0610198C4F8F9
:10264800B8000998C4F8B400059820640498606438
:102658000398C4E91202482200982065089860652A
:102668000798A0650298E0650E98E0630F98A0634C
:102678001098606304F1C80008F065F927AB04F509
:10268800887C0FCB8CE80F002BB0BDE8000FF0BDA5
:10269800007840F2DC020B4640F20431C2F220011D
:1026A800C2F2200251F8201052F82020184607F0F4
:1026B80099BB084640F2E821C2F22001122207F035
:1026C80091BBF0B503AF2DE9000F81B080460C68CF
:1026D80006F038FDD8F800603168451AB5F1FF3FBB
:1026E80004DDE80F01B0BDE8000FF0BDD8F8040024
:1026F800D0F800B0DBF800000028F2D1D4E90010CF
:10270800096888470446DBF80000894636680028CF
:102718001EBFC168DBF8040088470020D8F808A06D
:10272800CBF810008BF80C00CBE90049CBF8086017
:1027380006F048FDBFF35F8FDAF8001009B38B6825
:10274800DBF80820D31A1AD40B698BB39E68961B42
:1027580026D4196931B38E68961B25D40B693BB30F
:102768009E68961B1CD41969E1B18E68961B1BD410
:102778000B69EBB19E68961B1E46EAD516E0CBF8AE
:102788001010CAF800B006F028FDD8F80C00C0F800
:1027980000B006F0EFFCE80F01B0BDE8000FF0BD97
:1027A8001E4603E0194603E00E461946CBF81060B2
:1027B800C1F810B006F011FDD8F80C00C0F800B050
:1027C800E80F01B0BDE8000FF0BDD0B502AF48F288
:1027D800FC034FF0030CC4F21F034FF0010E1A68FC
:1027E8006CF303021A601A6842F010021A60D3F8F8
:1027F800F02142F40062C3F8F021C3F8D0E35A682C
:102808006CF303025A605A6842F010025A60D3F817
:10281800F42142F40062C3F8F4210222C3F8D4E39D
:1028280002610269920732D44A7A8B7A0C7A02F0F2
:102838003F0291F80BC003F03F0364F30D2242EA14
:1028480003420CF03F0342EA03628264426AD1E920
:10285800003422F0070291F80DC0097B1A44426245
:102868004FF070624FF200036FF31F3402EA016108
:10287800826ACFF2F0036CF313411A4011442144E9
:1028880081624FF001118165C0F810E0D0BD0023CE
:10289800036102699207C7D503610269920742BFC3
:1028A800036102695FEA8272BED503610269920719
:1028B800EED4B9E7F0B503AF2DE9000FB5B00D467A
:1028C80048F23011C2F200011E4601F2124192464E
:1028D8000123BFF35F8FD1E84F2FC1E8443F002C9D
:1028E800F9D1BFF35F8F32B195E80E000EC035B055
:1028F800BDE8000FF0BD48F230140590C2F20004A4
:102908004FF48061204608F022F806F05BFC804610
:102918002046314602F026F920B195E80700059BCC
:1029280007C3FEE148F24850D5F800C0C2F20000E3
:10293800AA68046046F20000C2F2000041F23813AF
:10294800C61807F8D5ACBFF35F8F56E8003F43F0D1
:10295800004546E80054002CF7D1B3F1FF3FBFF320
:102968005F8F40F3EB8145F218060124C2F200069E
:1029780006F5A063BFF35F8FD3E84F5FC3E8414F0D
:102988000029F9D1CDF81080002DBFF35F8F40F0FA
:10299800E0810021CDE930C2ADF8D01041F2381104
:1029A8000144299000F5865200F580500DF1A408E5
:1029B8002F910621CDE93263CDE92A1040462E91A8
:1029C8004FF0010BCDE92C12012104F04BF8B8E8C7
:1029D8007E000DF11C0909F104007EC098E87E0014
:1029E8007EC00024484651468DF850B0079405F043
:1029F80057F9B86829A92B90A7F1D5002A9028A8DB
:102A08002990484628944FF0000A00F04AFA48F204
:102A1800000B0420C2F2000B0BF10C088BF8050028
:102A28000821B9E83C0040463CC0B9E87C007CC0BD
:102A380099E87C007CC0012003228BF804004FF049
:102A4800FF30CBF80800FF20CDE90021802102905B
:102A5800404600228023CBF844A0CBF800A005F024
:102A68001CFB0E46DBF80810C00701F10101CBF88A
:102A7800081040F07981DBF80000002840F07B81E5
:102A88009BF8045000200029CBF8000005F1010252
:102A98008BF8042040F04C814FF0FF310222CBF834
:102AA80008104FF40071CDE9002100210290404642
:102AB8000022002305F0F1FA0C46DBF80810C007E5
:102AC80001F10101CBF8081040F05B81002940F0CA
:102AD8002F814FF0FF304FF4007ACBF80800022026
:102AE8004FF00009CDE9000A4046802100228023EA
:102AF800CDF8089005F0D1FADBF80820C00702F1FC
:102B08000102CBF8082040F03F8148F24C50002ADF
:102B1800C2F2000080F8261040F2FF3180F82D50F4
:102B28000BF14405A0F80F104FF008018181818056
:102B38004FF4FA51A0F82E9080F82C90A0F827A016
:102B4800A0F824A00562A0F81BA08476A0F818A01D
:102B580045618673856080F80690016040F0E880E2
:102B68004FF0FF304021CBF808000020CDE90001EC
:102B78000021029040460122002305F08EFA0C46FF
:102B8800DBF80810C00701F10101CBF8081040F08C
:102B98000E81002940F0CC804FF0FF304021CBF867
:102BA80008000020CDE90001802102904046012262
:102BB800802305F072FADBF80820C00702F1010251
:102BC800CBF8082040F0FA80DBF80000002840F03D
:102BD80008814FF0FF30002ACBF8000040F0078151
:102BE800CBF8080040460E460394AA4605F0CEFAF4
:102BF800DBF808000130CBF80800C0F0FE804FF089
:102C0800FF300DF11C09CBF8080009F10300BFF3F0
:102C18005F8FCBF844808021BFF35F8F07F0EDFD15
:102C28004046812105F08BF84046012105F087F8E0
:102C38004046822105F083F84046022105F07FF8DE
:102C48004046832105F07BF84046032105F077F8DC
:102C58004046842105F073F84046042105F06FF8DA
:102C68004046852105F06BF84046052105F067F8D8
:102C78004046862105F063F84046062105F05FF8D6
:102C88004046872105F05BF84046072105F057F8D4
:102C980048F248054020C2F200050399A8830024A1
:102CA800288205F12100A97449468322A5F81F400E
:102CB800AE77C5F818A0A5F81340C5F80CA02C806D
:102CC80007F043FE4FF0806040F2FA21C5E93780F3
:102CD8003220C5F8D6000220C4F20000C2F220015A
:102CE800C5F8D2001020A5F8D00045F62400C2F29D
:102CF800DD7085F8E440C5F8CC000920C5E92F103F
:102D080042F6F1010598C0F20001C5F8C440C5E9D2
:102D18002B44C5F8B440C5F8A440C0E90041DDF82B
:102D28001080404606F059FA35B0BDE8000FF0BDF6
:102D380040F25C00C2F2200006F0EFFB40F2903057
:102D480040F20C42C2F22000C2F220021F2106F01B
:102D580022FC40F21C1040F21C42C2F22000C2F2D7
:102D68002002202106F017FC40F238208DF81C6064
:102D7800C2F220000EE040F29C00C2F2200006F0F1
:102D8800CCFB8DF81C4001E08DF81C1040F2282087
:102D9800C2F2200040F2AC03009040F2182007AACB
:102DA800C2F22000C2F220030F2106F0A9FC40F273
:102DB80008208DF81C40C2F2200005E040F2F8100F
:102DC8008DF81C10C2F2200040F2AC03009040F2D3
:102DD800BC0007AAC2F22000C2F22003202106F09C
:102DE8008FFC40F28C00C2F2200006F096FB40F205
:102DF8007C00C2F2200006F090FB40F26C00C2F2A8
:102E0800200006F08AFBF0B503AF2DE900078046E5
:102E180006F0B8F902E061685046884706F0D2F932
:102E2800BFF35F8F0546D8F800609EB3D6F80890C8
:102E380006F088F9B168401A0021B0F1FF3FC8BF19
:102E480001210028317317D43069C8F80000D6E989
:102E58000010096888470446307B05F001008A465F
:102E680006F0BBF9002CD6D106F06CF9A0EB0900EE
:102E7800B0F1FF3FD2DC0AE005F0010006F0ADF941
:102E880006F060F9A0EB0900B0F1FF3FC6DCBDE831
:102E98000007F0BD2846BDE80007BDE8F04006F091
:102EA8009CB9F0B503AF2DE9000B82B0044690F849
:102EB8003400D1E900598E6808B1206838E006F07E
:102EC8009EF9804606F08EF920685FEAC8712FD116
:102ED80000285AD14FF0FF30206028686D460090D6
:102EE80004F1200001902846D6F8008099F8006087
:102EF80004F05AFE284604F09FFE002E18BF012653
:102F08002846314604F0A4FE2846012104F064FE58
:102F18002846414604F06EFE284604F051FE20681B
:102F28000130206006F060F902B0BDE8000BF0BD8A
:102F380058BB4FF0FF30206028686D46009004F1C0
:102F4800200001902846D6F8008099F8006004F027
:102F58002BFE284604F070FE002E18BF01262846D6
:102F6800314604F075FE2846012104F035FE284656
:102F7800414604F03FFE284604F022FE2068013056
:102F8800206002B0BDE8000BF0BD40F28030C2F214
:102F9800200006F0C2FAF0B503AF2DE9000B154684
:102FA800044600791268022801D11AB959E0002AAA
:102FB80056D008B320680668706910F4705F40F056
:102FC800BE80C00714D1706910F4705F40F0B780FC
:102FD800C0070DD1706910F4705F40F0B080C00771
:102FE80006D1706910F4705F40F0A980C007E3D083
:102FF800480203F0A9FA3066A86858B36D68D4F897
:10300800009005EB0008D9F80060706910F4705F53
:1030180040F09580C00714D1706910F4705F40F0DB
:103028008E80C0070DD1706910F4705F40F0878002
:10303800C00706D1706910F4705F40F08080C00747
:10304800E3D015F8010B0002023003F07DFA454584
:103058003066D8D1002222710020BDE8000BF0BDF7
:10306800F8B920680668706910F4705F67D1C00706
:1030780011D1706910F4705F61D1C0070BD170690C
:1030880010F4705F5BD1C00705D1706910F4705FF0
:1030980055D1C007E7D048000130000203F054FAC8
:1030A8003066D5F80890B9F1000F51D0D4F80080F7
:1030B800D8F80060706910F4705F40D1C00711D172
:1030C800706910F4705F3AD1C0070BD1706910F4C1
:1030D800705F34D1C00705D1706910F4705F2ED1CC
:1030E800C007E7D04FEA0920033003F02DFA6968DA
:1030F800306601EB0900D8F80020536913F4705FBB
:103108002CD1136F5E0414D5536913F4705F25D165
:10311800136F5E040DD5536913F4705F1ED1136FDE
:103128005E0406D5536913F4705F17D1136F5E04FC
:10313800E3D401F8013B01228142DCD18BE747F659
:103148000371C0F2003101400120BDE8000BF0BD61
:10315800012222710020BDE8000BF0BD47F6037084
:10316800C0F2003003EA00010120BDE8000BF0BD09
:10317800F0B503AF2DE9000B86B0044690F8600067
:103188008846B0B1032840F0F28094F85C00D8B1CA
:10319800032840F0F28094F8591004F11400002933
:1031A80068D0032940D040F26450C2F2200007F0F2
:1031B800FFF8256848F280560020C2F2000684F81D
:1031C8005C00C4E9016501E0D4E901654FF000093C
:1031D80005F0B8FF014684F8599066654219002D3C
:1031E80018BF511CC4E9030104F11400E16222462E
:1031F80042F8301F002182F828103379002B00F0A4
:10320800A4802346012543F8341F83F824501D4623
:1032180045F81C1F03F11801C3E9053343E90821E8
:1032280043E9066543E904654146FFF74AFA8146E2
:1032380008B103204CE0A06C016849B1007B00286C
:103248001CBF002084F8580094F8580000BB35E0F3
:103258000021D4E9096084F85810D0F8008005F0FE
:10326800B1FFBFF35F8F316869B10A69884504D13E
:10327800326008E0E16A666DB9E722B1904548D14D
:1032880013461A690A6105F0A8FF94F85800A8B116
:10329800D4E90950066805F095FFBFF35F8F2968E8
:1032A80051B10A698E4201D12A6005E022B19642E5
:1032B80019D113461A690A6105F08FFF002084F8B6
:1032C8005800606B00281EBFC168A06B88470120AA
:1032D80084F8600084F85C0084F85900484606B019
:1032E800BDE8000BF0BD11690029E5D08E4226D05B
:1032F8000A69002AE0D09642DBD011690029DBD0A8
:103308008E421CD00A69002AD6D096421346EAD1CA
:10331800D0E711690029B6D0884513D00A69002A78
:10332800B1D09045ACD011690029ACD0884509D0FE
:103338000A69002AA7D090451346EAD1A1E70B46AF
:103348001146B7E70B4611469BE70120049101900F
:1033580040F2F440C2F22000039140F25451009030
:103368000420C2F220010290684606F087F940F274
:103378009040C2F2200007F01BF840F27450C2F2ED
:10338800200007F015F8084640F2A041C2F22001DB
:10339800022206F02BBC45F200000121C2F2000017
:1033A8000068BFF35F8F80F87D10704745F200001A
:1033B8000121C2F200004068BFF35F8F80F89110CE
:1033C800704780B56F4641F28C70C2F220000068E9
:1033D80080470020BDE8804005F014BF80B56F46E7
:1033E80096B043F6004647F6037945F2000841F2E5
:1033F800FD04C0F20016C0F20039C2F200084FF016
:10340800000AC0F2000406E00621DDE901208BF87D
:103418000010D168884741F2283BC2F2200B01E036
:10342800BFF32F8FD8F8005095F87C0030B305F122
:103438007D00D0E84F1F01291ED1C0E841AF002907
:10344800F7D141F2E700BFF35F8FC0F2000001A996
:10345800CDE901B0287DCDF814A00028CDE90311ED
:1034680067D0032840F0A58005F1180003A9FFF7ED
:103478007FFE58B10321A3E0BFF32F8FD8F8045083
:1034880095F89000002840F0A780CBE795F87800E1
:10349800032807D195F87400032804BF95F8710034
:1034A80003284DD0A8680122D0E9000101F01F01CE
:1034B80002FA01F14CF6CD42C0F88C10284650F8BB
:1034C800101FCCF6CC425143B1F1333F00F29C803F
:1034D80048F29451C2F2000109680329C0F09480AF
:1034E800012140F20C620C91C2F220020E9109A94E
:1034F8000D9148F2ED11C0F20001CDF83CA0CDE9E4
:10350800090140F21460C2F220000B9205F0F2FFAC
:1035180040F2246115901520C2F22001149011AADE
:10352800CDE911100BA813910321002305F07BFFAF
:103538006AE0D5E90010C5E90210C5F810A067E0F7
:10354800D5E90F60046805F03DFEBFF35F8F316871
:10355800E1B10A698C4201D1326017E0B2B19442FC
:10356800134611D0116989B18C4209D00A696AB130
:10357800944208D0116949B18C4201D00A69EDE73B
:103588000B46114600E013461A690A6105F025FE4C
:10359800E86C43F6004641F2FD0485F870A0002867
:1035A800C0F20016C0F200041EBFC168286D88472B
:1035B80078E705F1180003A9FFF7DAFDC0B1042187
:1035C800DDE901202975D1688847D8F8045095F8B5
:1035D800900000283FF426AF05F19100D0E84F1F76
:1035E80001297FF41DAFC0E841AF0029F6D155E0AD
:1035F80095F87800032807D195F87400032804BFCC
:1036080095F87100032810D0D5E90301013129612B
:10361800D0E90401642201F01F01806885F878A0D0
:10362800AA61C840C007C4D11EE7D5E90F60046885
:1036380005F0C8FDBFF35F8F3168E1B10A698C42BC
:1036480001D1326017E0B2B19442134611D011692A
:1036580089B18C4209D00A696AB1944208D01169CB
:1036680049B18C4201D00A69EDE70B46114600E0EA
:1036780013461A690A6105F0B0FDE86C43F6004686
:1036880041F2FD0485F870A00028C0F20016C0F2CF
:1036980000041EBFC168286D8847B5E7BFF35F8F78
:1036A800CDE901B4AB4601A91BF8180FCDF814A059
:1036B800CDE90311DFE810F008000B050B05140035
:1036C800EC00B40168034404286868600068016974
:1036D80041F0010101614FF47A7085F87CA0E8613E
:1036E80005F11C0003A9FFF743FD08B103218CE68F
:1036F80095F87C00032808D195F87800032804BFC2
:1037080095F87500032800F0B781686801684A6970
:1037180002F04073B3F1007F04D109F17F4002EA5F
:10372800000181E00A6942F440720A614FF4FE42E6
:103738004A6102218DF8481040F239611190012048
:10374800C2F220010D90CDE90B0111A80BAA482166
:10375800FFF721FC002867D111984C46D0F800905B
:10376800D9F8140010F4705F57D1C00714D1D9F8F4
:10377800140010F4705F50D1C0070DD1D9F81400AF
:1037880010F4705F49D1C00706D1D9F8140010F4BD
:10379800705F42D1C007E3D0042002F0D5FEC9F81B
:1037A8006000D9F8140010F4705F36D1C00514D445
:1037B800D9F8140010F4705F2FD1C0050DD4D9F8D2
:1037C800140010F4705F28D1C00506D4D9F814008D
:1037D80010F4705F21D1C005E3D5D9F8140000EAD0
:1037E8000601B1F1807F14D1D9F8140000EA06016E
:1037F800B1F1807F02BFD9F8140000EA0601B1F1E7
:10380800807F06D1D9F8140000EA0601B1F1807F63
:10381800E3D010F4705F00F09181A14600EA040142
:1038280041F2FD04C0F2000448F294500891C2F23B
:103838000000006840B3012040F264610C90C2F2BD
:1038480020010E9009A80D9044F29D40C0F200009E
:10385800CDF83CA00A9008A8099040F26C60C2F22A
:1038680020000B9105F046FE40F2246115901520CA
:10387800C2F22001149011AACDE911100BA81391DE
:103888000121002305F0CFFD052085F87CA0E86123
:1038980005F11C0003A9FFF76BFC08B10421B4E58E
:1038A80095F87C00032808D195F87800032804BF10
:1038B80095F87500032800F0EF80686801684A6988
:1038C80002F04073B3F1007F04D109F17F4002EAAE
:1038D800000171E00A6942F440720A614FF4FE4245
:1038E8004A6102218DF8481040F27C611190012054
:1038F800C2F220010D90CDE90B0111A80BAA4821B5
:10390800FFF749FB002857D111980468606910F443
:10391800705F4BD1C00711D1606910F4705F45D159
:10392800C0070BD1606910F4705F3FD1C00705D1A3
:10393800606910F4705F39D1C007E7D0042002F045
:1039480003FE2066606910F4705F2FD1C00511D4A2
:10395800606910F4705F29D1C0050BD4606910F458
:10396800705F23D1C00505D4606910F4705F1DD164
:10397800C005E7D5606900EA0601B1F1807F11D181
:10398800606900EA0601B1F1807F02BF606900EA60
:103998000601B1F1807F05D1606900EA0601B1F145
:1039A800807FE7D010F4705F00F0CE8041F2FD0414
:1039B80000EA0901C0F2000448F294500891C2F2EA
:1039C8000000006840B3012040F2A4610C90C2F2EC
:1039D80020010E9009A80D9044F29D40C0F200000D
:1039E800CDF83CA00A9008A8099040F2AC60C2F259
:1039F80020000B9105F07EFD40F224611590152002
:103A0800C2F22001149011AACDE911100BA813914C
:103A18000121002305F007FD052085F87CA0E86159
:103A280005F11C0003A9FFF7A3FB08B10521ECE48D
:103A380095F87C00032807D195F87800032804BF7F
:103A480095F87500032808D00120A8600220E860D6
:103A58000320286104206861C6E0D5E91060046885
:103A680005F0B0FBBFF35F8F316800297DD00A698C
:103A78008C4221D1326078E0D5E91060046805F005
:103A8800A1FBBFF35F8F3168002900F084800A69C9
:103A98008C4227D132607EE0D5E91060046805F0D9
:103AA80091FBBFF35F8F3168002900F08A800A69B3
:103AB8008C422DD1326084E0002A56D094421346BD
:103AC80051D01169002950D08C4242D00A69002A8D
:103AD8004BD0944246D01169002946D08C4238D048
:103AE8000A69E9E7002A56D09442134651D0116971
:103AF800002950D08C422FD00A69002A4BD094421A
:103B080046D01169002946D08C4225D00A69E9E7D8
:103B1800002A56D09442134651D01169002950D03A
:103B28008C421CD00A69002A4BD0944246D01169B5
:103B3800002946D08C4212D00A69E9E7A14641F231
:103B4800FD04C0F200049FE641F2FD04C0F2000447
:103B580062E70B46114606E00B46114619E00B4694
:103B680011462CE013461A690A6105F036FB286DE8
:103B780043F6004641F2FD0485F874A00028C0F21F
:103B88000016C0F200041EBFC168686D88475BE775
:103B980013461A690A6105F020FB286D43F60046B2
:103BA80041F2FD0485F874A00028C0F20016C0F2A6
:103BB80000041EBFC168686D8847A6E513461A69E8
:103BC8000A6105F00AFB286D43F6004641F2FD0440
:103BD80085F874A00028C0F20016C0F200041EBFC9
:103BE800C168686D884768E605F108025846C5E966
:103BF80008BA824200F0A081686A131D6968EB6107
:103C0800431C6B6203281268AA6200F2528240F2D7
:103C1800F462C2F22002105C07F8390C08684269A5
:103C280002F04073B3F1007F04D109F17F4002EA4A
:103C3800000175E0026942F4407202614FF4FE42ED
:103C4800426102201191A7F139018DF84800012045
:103C5800CDE90B010BAA0D9011A84821FFF79BF99C
:103C680000285DD111980468606910F4705F51D123
:103C7800C00711D1606910F4705F4BD1C0070BD138
:103C8800606910F4705F45D1C00705D1606910F410
:103C9800705F3FD1C007E7D0042002F055FC2066D2
:103CA800606910F4705F35D1C00511D4606910F4F3
:103CB800705F2FD1C0050BD4606910F4705F29D1F3
:103CC800C00505D4606910F4705F23D1C005E7D53D
:103CD800606900EA0601B1F1807F11D1606900EAEC
:103CE8000601B1F1807F02BF606900EA0601B1F107
:103CF800807F05D1606900EA0601B1F1807FE7D0D5
:103D080041F2FD0400EA090110F4705FC0F20004FA
:103D180006D135E041F2FD0400EA0901C0F20004D1
:103D280048F294500891C2F20000006840B30120A4
:103D380040F230710C90C2F220010E9009A80D904B
:103D480044F29D40C0F20000CDF83CA00A9008A8BB
:103D5800099040F23870C2F220000B9105F0CAFBBE
:103D680040F2246115901520C2F22001149011AA86
:103D7800CDE911100BA813910121002305F053FB85
:103D8800052085F88CA0E86205F12C0003A9FFF74F
:103D9800EFF900287FF438AB95F88C00032808D198
:103DA80095F88800032804BF95F88500032800F0DB
:103DB8000881A86A092800F2838140F2487269687C
:103DC800C2F22002105C07F8390C0868426902F058
:103DD8004073B3F1007F04D109F17F4002EA00018A
:103DE80075E0026942F4407202614FF4FE4242619A
:103DF80002201191A7F139018DF848000120CDE981
:103E08000B010BAA0D9011A84821FFF7C4F8002850
:103E18005DD111980468606910F4705F51D1C007D2
:103E280011D1606910F4705F4BD1C0070BD1606984
:103E380010F4705F45D1C00705D1606910F4705F58
:103E48003FD1C007E7D0042002F07EFB20666069FE
:103E580010F4705F35D1C00511D4606910F4705F3B
:103E68002FD1C0050BD4606910F4705F29D1C0054B
:103E780005D4606910F4705F23D1C005E7D5606987
:103E880000EA0601B1F1807F11D1606900EA0601FC
:103E9800B1F1807F02BF606900EA0601B1F1807F5D
:103EA80005D1606900EA0601B1F1807FE7D041F2EF
:103EB800FD0400EA090110F4705FC0F2000406D1A5
:103EC80035E041F2FD0400EA0901C0F2000448F2BD
:103ED80094500891C2F20000006840B3012040F2FB
:103EE80084710C90C2F220010E9009A80D9044F242
:103EF8009D40C0F20000CDF83CA00A9008A80990A7
:103F080040F28C70C2F220000B9105F0F3FA40F2F7
:103F1800246115901520C2F22001149011AACDE950
:103F280011100BA813910121002305F07CFAD5E9A3
:103F3800072082427FF460AE642085F87CA0E861A7
:103F480005F11C0003A9FFF713F910B10721FFF7CA
:103F58005CBA95F87C00032807D195F87800032807
:103F680004BF95F8750003283AD048F29450C2F27D
:103F7800000000680328FFF437AE0120CDF83CA00C
:103F88000C9040F2D460C2F22000CDF838A00B901B
:103F980004200D9040F2DC60C2F2200005F0AAFA7D
:103FA80040F2246115901520C2F22001149011AA44
:103FB800CDE911100BA813910321002305F033FA62
:103FC80012E6D5E91460046805F0FCF8BFF35F8FCA
:103FD8003168002940D00A698C4210D132603BE038
:103FE800D5E91060046805F0EDF8BFF35F8F31681C
:103FF80000294BD00A698C4213D1326046E05AB38B
:104008009442134626D0116931B38C421BD00A69F9
:1040180012B394421DD01169F1B18C4213D00A69D0
:10402800EDE79AB3944213462ED0116971B38C42CE
:104038000CD00A6952B3944225D0116931B38C422D
:1040480004D00A69EDE70B46114603E00B4611461A
:104058001AE013461A690A6105F0BFF8286E43F69C
:10406800004641F2FD0485F884A00028C0F200163D
:10407800C0F200041EBFC168686E8847A86A092894
:104088007FF69BAE1CE013461A690A6105F0A5F895
:10409800286D43F6004641F2FD0485F874A0002817
:1040A800C0F20016C0F200041EBFC168686D8847E0
:1040B8005BE740F2FC620421C2F2200205F001FB3A
:1040C80040F254720A21C2F2200205F0FAFAFEDE2A
:1040D80080B56F46CCB005F085F848F28C500121C8
:1040E800C2F2000001AA01704EF27140CEF2000047
:1040F800F02101704EF20C10CEF200004FF40031A6
:10410800016045F200010020C2F20001ADF8800014
:1041180048F298540A60C2F20004ADF8140121A8CC
:10412800486044F20000C2F20000A04203D905F042
:1041380063F8A04203D900F015F8FFF74FF9012101
:104148000020479140F2C871C2F220014A9049907C
:104158000420469140F2D071489046A8C2F220014E
:1041680005F08CFAF0B503AF2DE9000FADF2045D50
:10417800D0AC204601F0F4FC06A82146FEF798F8DA
:1041880010AB0D980DF1080CDDF858A00ECB8CE89B
:104198000F0002A801F08DFE804600200890042040
:1041A8000790032006904FF47A6047F8200CA7F197
:1041B800200089460090D0A803A906AB012201245B
:1041C800FEF778FBD098002840F0C88006AD0021A3
:1041D800DDF844B3284601F07CFE50462946FEF738
:1041E800F4FA48F23C120523C4F21F02D2F8F40193
:1041F8004FF4E040C2F8F401106863F30300106064
:104208000298416821F001014160916863F303015C
:1042180091604668029926F004064660566863F382
:10422800030656604A6822F002024A604EF2100203
:10423800CEF20002136823F001031360136843F001
:104248000403136042F2BF73C0F20903536013689A
:1042580043F002031360136843F00103136048F24C
:10426800805245F20003C2F20002BFF35F8F14715F
:10427800C2F20003BFF35F8F1E6806F17C02D2E82A
:104288004F5F4DB90125BFF35F8FC2E8445F54B15A
:10429800D2E84F4F002CF8D040F2DC50BFF32F8FFC
:1042A800C2F2200027E0002241F2847CBFF35F8F36
:1042B800327541F29072C2F2200CC2F2200201243F
:1042C800C6E900C2BFF35F8F86F87D405B6803F1E3
:1042D8009006D6E84F5F45B9BFF35F8FC6E8454FF4
:1042E800B5B1D6E84F5F002DF8D040F2CC50BFF3FF
:1042F8002F8FC2F2200040F28453009040F2945075
:10430800C2F22003C2F2200006AA2B2105F0F8F918
:1043180041F2A8750026C2F22005BFF35F8F1E7612
:1043280001241D60BFF35F8F83F8914041F28C73C5
:10433800CCE90089C2F22003C2E90006C3F800B044
:104348000223C2E90203C2E90414C5F800A004F07C
:104358004BFF0DF2045DBDE8000FF0BDD0AA06AB1F
:1043680007CA07C340F2FC50C2F2200040F2EC53E7
:10437800009040F29450C2F22003C2F2200006AA34
:104388002B2105F0BDF948F28050C2F20000FEF77B
:104398003ABDF0B503AF4DF8048D8C46816889B3FA
:1043A800C36841698B4249D20269D0F818E0D45CED
:1043B8000134D4540EF102038B421FD80EF58075D8
:1043C800A9422C4638BF0C469D423ED3E41A052C20
:1043D80014D39CF80640BCF80450D45413440EF18E
:1043E80007049CF808608C429CF807805E704FEACE
:1043F80015269D7083F80480DE7007D902205DF8C9
:10440800048BF0BD07205DF8048BF0BD8E4524D2E7
:10441800072302F80E300EF101038B423FBF05213E
:10442800D154846108203CBF5DF8048BF0BD40F690
:10443800CC021846C2F2200205F043F940F6DC022D
:104448001846C2F2200205F03CF940F6AC021846C4
:10445800C2F22002214605F00DFD40F6BC0270466E
:10446800C2F2200205F02DF900207047704708209D
:10447800704770470A46D0E9000105F0B7BC0068EC
:1044880005F063B980B56F4682B000228029019299
:1044980007D28DF80410012201A900F057FA02B0E2
:1044A80080BD02220B4662F39F13B1F5006F05D25F
:1044B8008DF80530C02343EA911125E0B1F5803F1E
:1044C80011D28DF806308B0962F39F13E02242EA7D
:1044D80011318DF805308DF80410032201A900F080
:1044E80035FA02B080BD8DF807308B0962F39F134F
:1044F8008DF806300B0B890C62F39F131E2262F3B2
:10450800DF0104228DF805308DF8041001A900F0B0
:104518001DFA02B080BD0A4640F67C11C2F22001A5
:1045280005F018B9D0B502AF537A012B07D1137A29
:10453800012B02BF90F82C3054889C4200D0D0BD8B
:104548009379212B04BF9288072A28D0088840F045
:1045580002000628F3D1C86809220A800068BFF360
:104568005F8F88B18A7C0C461146012204F059F805
:10457800A0690068BFF35F8F00281FBFA17F0122D9
:10458800BDE8D04004F04DB840F6EC0040F66C129F
:10459800C2F22000C2F22002222105F07FF80A8828
:1045A800042A18BFD0BDCA88002390F804C001248B
:1045B80090F805E0072AC1F8AC30837900684862B2
:1045C80008460C8081F8283081F829E081F82AC053
:1045D80028BF0722C1F8B020BDE8D04000F058BD80
:1045E800D0B502AF84B0537A012B07D1137A012BCF
:1045F80002BF90F82C3054889C4201D004B0D0BD42
:104608009379002B5BD0202B0ED0222B2CD1127843
:104618000B8802F0010480F82E40062BC2F34002FA
:1046280080F82F20EAD14DE0D1F8B030812B5CD250
:10463800062B19D991F8282091F8294091F82AE0F9
:10464800032A4B6AB1F800C003604FF0000380F8FA
:1046580004E028BF1A46052C827138BF2346BCF1F6
:10466800060F4371CAD12DE0088840F002000628E1
:10467800C4D1C86809220A800068BFF35F8F98B167
:104688008A7C0C461146012203F0CBFFA069006822
:10469800BFF35F8F00281FBFA17F012204B0BDE8D0
:1046A800D04018BF03F0BDBF40F6EC0040F66C12D6
:1046B800C2F22000C2F22002222104F0EFFF088893
:1046C80006289BD188690368BFF35F8F002BEBD066
:1046D8008A7F0020009002A80C461946012303F0A7
:1046E800B8FD0820208004B0D0BD40F6F812184666
:1046F800C2F22002802105F09EFBF0B503AF4DF811
:10470800048D84B090F82C60804600250220CDE905
:1047180000050C46084631460222022304F074FACA
:10472800C1B2082963D120463146022202230095EE
:1047380004F0BEFAC1B2082959D140F60822204631
:10474800C2F220022421032304F003F9C1B208298C
:104758004DD140F60B222046C2F22002242102232A
:1047680004F0F7F8C1B2082941D10620A7F11602D2
:1047780007F8156C242198F82D60032307F8160C08
:10478800204607F8146C04F0E4F8C1B208292ED1C9
:104798000120A7F1130227F8130C20462421032334
:1047A80007F8116C04F0D5F8C1B208291FD108F137
:1047B80008012046FFF7EDFDC1B2082917D10020F6
:1047C8003146009020460A22002304F071FAC1B253
:1047D80008290CD108F120012046FFF7DAFDC1B203
:1047E800082904D108F114012046FFF7D2FD04B0CE
:1047F8005DF8048BF0BD0021C1858171082181809D
:104808004FF4FA5101607047F0B503AF2DE9000B82
:1048180048F29452D1F80080C2F200021268904522
:1048280003D90020BDE8000BF0BD4268F2B1006872
:10483800D1E90194061D02EB4200850003E00C3D1E
:1048480006F10C06EDD030688442F8D156F8040C15
:104858004946224605F0A3FE0028F0D171680020E1
:10486800884598BF0120BDE8000BF0BD0120BDE8D8
:10487800000BF0BDF0B503AF2DE9000F91B08046F5
:1048880048F29450C2F20000D1F8209000688145A7
:104898001ED8D8F804008A46F0B1D8F8001000EB0A
:1048A8004000DAE909B60C1D850003E00C3D04F16F
:1048B8000C040DD020688642F8D154F8040C5946EF
:1048C800324605F06CFE0028F0D16068814505D9B4
:1048D80011B0BDE8000FF0BDDAE909B6002040F6D6
:1048E8007C1105900420029040F61420C2F22000AA
:1048F80001AA01900320049007A8039042F2CF1068
:10490800C0F20000C2F220010C9010A80B9042F2F5
:10491800C510C0F20000CDF800800A900EA80990DA
:1049280047F2C900C0F20000CDF8349008900DA8F5
:1049380007900AF12C0010906846CDE90EB604F0F5
:1049480009FF11B0BDE8000FF0BD7047F0B503AF27
:104958002DE9000F83B014460D46D0F8008004F00E
:1049680031FCD8F80810002940F0F680D8F80C90EF
:104978004FF0FF31C8F80810012209F21146BFF3C1
:104988005F8FD6E84F1FC6E8432F002BF9D1BFF33E
:104998005F8F61B10124D8F808100131C8F80810F8
:1049A80004F01BFC204603B0BDE8000FF0BDD9F8A9
:1049B8000014BFF35F8FD9F80424BFF35F8F9142CF
:1049C80003D2CB43D2180AD180E0B1F5806F04D16D
:1049D800012A7BD9013A002101E0C1F58062A24693
:1049E800A242019238BF92460AEB01024944BFF342
:1049F8005F8FC9F80C240290084629465246009554
:104A080005F0A3FF029809F20C4B99F81114BFF3B3
:104A18005F8F59B3D9F80014BFF35F8FBFF35F8F6F
:104A28005BE8002F4BE80023002BF9D1BFF35F8F21
:104A3800B1F5806FD9F80834BFF35F8FD9F80C242B
:104A4800BFF35F8F01D08A4203D39A4205D94FF44E
:104A58008061BFF35F8FC9F80814BFF35F8FC9F88F
:104A680000240021BFF35F8F89F811140199A14236
:104A780020D20099A4EB0A020125BFF35F8F5144AD
:104A8800D6E84F3FC6E8445F002CF9D1002BBFF3AE
:104A98005F8F7FF47FAFD9F80034BFF35F8FD9F809
:104AA80004C4BFF35F8F634506D2DD431CEB050CDE
:104AB80014D10BE000246EE7B3F5806F0CD1BCF184
:104AC800010F03D9ACF1010C002307E001240021F8
:104AD800BFF35F8F31705EE7C3F5806C944538BFD4
:104AE8006246D018BFF35F8FC9F80C0409EB0300C6
:104AF80005F02BFF99F81104BFF35F8F48B3D9F87D
:104B08000014BFF35F8FBFF35F8F02985BE8002F3D
:104B18004BE80023002BF9D1BFF35F8FB1F5806F0D
:104B2800D9F80834BFF35F8FD9F80C24BFF35F8F2F
:104B380001D08A4203D39A4205D94FF48061BFF36A
:104B48005F8FC9F808140024BFF35F8FC9F80024E9
:104B5800BDE7002402981EE740F69820C2F2200024
:104B680004F0DBFCD0B502AF45F208020C46D1E9EF
:104B78000113C2F200024FF0000CD06082E80A1064
:104B880040F6A821C2F22001104604F007FC0028D4
:104B980001BF216848F29452C2F200021160D0BDF0
:104BA800F0B503AF2DE9000B84B040F6C02048F201
:104BB800445848F24805C2F220000390C2F20008A7
:104BC80008F10800C2F2000502A902902846012255
:104BD80000F0E4FDD5F8DC40814694F83400D0B10B
:104BE8002068002840F08E814FF0FF30214641F8C0
:104BF800200B0020CDE9020102A803F00DF80028DF
:104C080046D002AE304603F017F8304603F004F8F9
:104C18000028F7D13AE004F0F2FA064604F0E2FA86
:104C28002068F1071AD1002840F06C814FF0FF305E
:104C3800214641F8200B0020CDE9020102A802F02C
:104C4800EBFF00283FD002AE304602F0F5FF3046B9
:104C580002F0E2FF0028F7D1012639E0002840F0F1
:104C680051814FF0FF30214641F8200B0020CDE95B
:104C7800020102A802F0D0FF50B102AE304602F0A5
:104C8800DBFF304602F0C8FF0028F7D1012604E018
:104C980002A802F07FFF80F0010620680130206042
:104CA80095F8E21098F8000002291CD1002861D17B
:104CB800D5F8DC0003F0C2F9D5F8DC4094F83400EC
:104CC800E0B120683CE002A802F064FF80F0010631
:104CD80020680130206004F087FA95F8E21098F80F
:104CE80000000229E2D0002800F09880D5F8DC50B6
:104CF80095F83400002864D028687EE004F07FFA34
:104D0800054604F06FFA2068E90719D1002840F039
:104D1800F9804FF0FF30214641F8200B0020CDE903
:104D2800020102A802F0ACFF00281CBF0DF1080028
:104D380002F024FF20680130206004F055FA16E0E4
:104D4800002840F0DF804FF0FF30214641F8200B6B
:104D58000020029002A8039102F092FF00281CBFD5
:104D68000DF1080002F00AFF2068013020600120E0
:104D780088F80000D8F81C000168BFF35F8F00298D
:104D880000F0C680002098F82220009002A8012395
:104D980049EA0605012403F050FB75B1D8F8040070
:104DA800BFF35F8F00F58261D1E84F2FC1E8434F11
:104DB800002BF9D1BFF35F8FBAB304B0BDE8000B85
:104DC800F0BD04F01CFA044604F00CFA2868E10768
:104DD80013D1002840F096804FF0FF302860002063
:104DE800029005F12000039002A802F0DDFE286879
:104DF8000130286004F0F8F910E0002840F08280C3
:104E08004FF0FF3028600020029005F12000039049
:104E180002A802F0C9FE286801302860002088F83E
:104E2800000004B0BDE8000BF0BDD0F80064BFF38B
:104E38005F8FD0F80824BFF35F8FD0F80434BFF336
:104E48005F8F934206D19E423EBFBFF35F8F002320
:104E5800C0F804349E4228BF32469A4207D1002047
:104E6800BFF35F8F087004B0BDE8000BF0BDD8F841
:104E78002810D8F804400968BFF35F8F002947D08D
:104E8800D61A98F82E20034402A83546B6F5007FB6
:104E980028BF4FF40075009503F0DBF99DF8080072
:104EA80088B194F81004BFF35F8F00283FF485AFF2
:104EB80004F20440BFF35F8F50E8001F40E800127F
:104EC800002AF9D115E0039894F81014BFF35F8F06
:104ED80000293FF472AF04F20441864238BF3046DD
:104EE800BFF35F8F51E8002F024441E80023002BF5
:104EF800F8D10020BFF35F8F84F8100404B0BDE838
:104F0800000BF0BD40F63C00C2F2200004F005FBA7
:104F180040F6EC0040F66C12C2F22000C2F2200209
:104F2800222104F0BBFBD0B502AF84B0018806296A
:104F380011D181690968BFF35F8F79B10023827F3E
:104F4800009302AB04461846012303F082F90820B7
:104F5800208004B0D0BD072004B0D0BD40F6EC00DE
:104F680040F66C12C2F22000C2F22002222104F0A4
:104F780095FBF0B503AF4DF804BD86B0044608882C
:104F88000D46411E032927D3052825D0072832D1ED
:104F9800D5F8AC00D5F8063069898028D5F8022004
:104FA800ADF80C10CDE901236BD8E9680968BFF3A7
:104FB8005F8F00295AD0C0F18003AA7C284400934F
:104FC80000F1240304A803F038FA9DF81000C0B3D8
:104FD8009DF81100D8B92EE0E8680168BFF35F8F2B
:104FE800002943D0AA7C04A800260123009603F0D8
:104FF80024FA2E801FE0E8680168BFF35F8FA9B329
:105008000020AA7C009004A8012303F016FAE8689F
:10501800092129800068BFF35F8F38B3A97C01227A
:1050280003F0FFFAA8690068BFF35F8FF0B1A97FAA
:10503800012203F0F6FA0420607206B05DF804BBA2
:10504800F0BD0598D5E92B120844C5F8AC0090428C
:10505800F1D3DDE901010623BDF80C202B80206087
:105068006160228106B05DF804BBF0BD40F6EC003B
:1050780040F66C12C2F22000C2F22002222104F093
:105088000DFB40F658328021C2F2200204F0B4FE33
:10509800B0B502AF84B00446D0E92951D0F8AC00CD
:1050A800D4F8B0C0002DA38BAE46ACEB000208BF0D
:1050B80004F1240E9A4238BF1346002D03EB000C6E
:1050C80008BF80219C4525D38C452AD8A169096849
:1050D800BFF35F8F61B3A27F00930EEB000302A8BA
:1050E80003F0B7F89DF8080008B104B0B0BD039804
:1050F800D4E92B120144C4F8AC109142F5D3002135
:10510800A28BC4F8A4100321904208BF0221218079
:1051180004B0B0BD40F678326146C2F2200204F015
:10512800A9FE40F678326046C2F2200204F083FEFF
:1051380040F6EC0040F66C12C2F22000C2F22002E7
:10514800222104F0ABFAD0B502AF0446C0680921A9
:1051580021800068BFF35F8F78B1A17C012203F042
:1051680060FAA0690068BFF35F8F00281FBFA17FA6
:105178000122BDE8D04003F054BA40F6EC0040F6F6
:105188006C12C2F22000C2F22002222104F086FA38
:10519800F0B503AF2DE9000782B01D469146884659
:1051A80082468AB108EBC9064446D4E900012A467A
:1051B8004B6A51469847BAF8000040F002000628AA
:1051C80035D10834B442F0D1687AA0B3BAF80010E7
:1051D80041F0020006282AD1DAF80C000921AAF8C1
:1051E80000100068BFF35F8FB0B19AF81210012267
:1051F80003F017FADAF818000068BFF35F8F002889
:105208001FBF9AF81E10012202B0BDE800071CBF9C
:10521800BDE8F04003F005BA40F6EC0040F66C1229
:10522800C2F22000C2F22002222104F037FA02B0B2
:10523800BDE80007F0BD297AA87949B3012912D041
:10524800022908BF0028C1D16988DAF8DC0001F01A
:105258008F0103F078FABAF800100429B8D1AAF837
:105268002400002039E080B30A28AFD1BAF8001032
:105278000429ADD1BAF80610002001228AF82400CA
:10528800AAF80020002918BF0121CAE92B0153E020
:10529800D0B306282CD0082898D1BAF800100429D1
:1052A80096D1BAF8061001229AF8E2300020AAF83E
:1052B8000020002918BF0121CAE92B01981EB0FA65
:1052C80080F040098AF8240036E0BAF80010042972
:1052D8007FF47EAF0020AAF82400BAF80620012146
:1052E800AAF80010022A28BF0222CAE92B0223E0EA
:1052F80069884A4628885346CDE900010AF1B40076
:10530800414600F0DFF861E7BAF8001004297FF49D
:105318005FAF9AF8E00001239AF8E1100022BAF88A
:105328000660AAF8003041EA4000022E28BF022693
:10533800CAE92B26AAF824005046FFF7A9FE45E73C
:10534800F0B503AF4DF8048D84B01D4680468AB190
:1053580001EBC2040E46D6E900012A460B6A414613
:105368009847B8F8000040F0020006285FD10836D8
:10537800A642F0D1687A78B367E040F002000628C8
:1053880055D1D8F80C000921A8F800100068BFF31F
:105398005F8FB0B198F81210012203F042F9D8F8E3
:1053A80018000068BFF35F8F00281FBF98F81E1011
:1053B800012204B05DF8048B1CBFBDE8F04003F087
:1053C80030B940F6EC0040F66C12C2F22000C2F28E
:1053D8002002222104F062F92A7AA879298852B396
:1053E800012A0AD0022A30D1012837D0032808BF61
:1053F80000292AD16988012234E00B2808BF002936
:1054080023D1B8F800000628B7D1D8F818000168E9
:10541800BFF35F8F0029D4D098F81E200020009099
:1054280002A8012302F015FF0820A8F8000004B024
:105438005DF8048BF0BD0138082806D8DFE800F0D5
:1054480008052205190505052800B8F8000094E7A5
:105458000129FAD1002088F8E00024E00029F4D1DD
:1054680069880022D8F8DC0001F08F0103F0D9F830
:1054780019E0481E80B27F28E7D2D8F8DC0002F095
:1054880042FE0DE00129E0D1012088F8E0000AE0A1
:1054980019B10129D9D1022003E098F8E20030B10E
:1054A800012088F8E2004046FFF73DFDCDE7B8F857
:1054B800000040F0020106297FF45FAF4046FFF785
:1054C80042FEC2E7F0B503AF2DE900078CB0BE6815
:1054D8000D46014698464FF0FF33B0B203EB10205B
:1054E8000E2800F2F480DFE810F00F0052002900C7
:1054F800F200F200F200F200F200F200F200F20014
:10550800F200F200F2008500B8F80000042840F02C
:105518009980002080220A908DF82C000690049033
:1055280004A8099208F12402B8F80640089203F08A
:105538005EFAC0B2082840F08580BFE0F3B2032BC2
:1055480000F2958004220846DFE803F00283808693
:10555800B8F80000042875D1002080210A9001AA1B
:105568008DF82C0002230690049040F2094009911E
:1055780008F12401ADF8040004A808910321B8F843
:10558800064003F0E6F9C0B208285BD196E0B8F807
:105598000000042856D1002014460A9080228DF875
:1055A8002C000690049004A8099208F12402B8F887
:1055B8000690089203F0B4FAC0B2082842D18CB120
:1055C80005EBC40604AC4FF0000AD5E90001CA682F
:1055D80021469047C0B2082834D10835CDF818A024
:1055E800B542F2D104A803F0FFFA0A98802800F225
:1055F800A580C2E0B8F80000042823D1002080214B
:105608000A9014468DF82C0006900490019004A886
:10561800039001A8099108F12401B8F806900891AF
:1056280003F087FCC0B208280CD1E60001AC002EBC
:105638007ED0F5E802010A6921469047083EC0B2CB
:105648000828F4D00CB0BDE80007F0BD01F108004F
:105658000C22006828B93AE001F110001422006811
:10566800A8B38A58B8F800100429EBD111E0D7F88C
:105678000C90D4005CB3F5E802014A464B69314608
:105688009847083C0028F5D00A46B8F800100429C5
:10569800D8D180230021099308F12403089304AB8F
:1056A8000A918DF82C100691049101461846B8F815
:1056B800064003F084FBC0B20828C3D10A988028AA
:1056C8003CD884424FF0000138BF204659E0B8F872
:1056D800000040F002000628B4D1D8F80C000921D7
:1056E800A8F800100068BFF35F8FB0B198F81210E7
:1056F800012202F096FFD8F818000068BFF35F8F08
:1057080000281FBF98F81E1001220CB0BDE8000742
:105718001CBFBDE8F04002F084BF40F6EC0040F644
:105728006C12C2F22000C2F22002222103F0B6FF5E
:1057380001A803F0CEFC0A9880281ED9D8F80C00DE
:105748000921A8F800100068BFF35F8F0028E4D093
:1057580098F81210012202F064FFD8F818000068C7
:10576800BFF35F8F0028D8D098F81E10012202F0EE
:1057780058FF0CB0BDE80007F0BD0021814538BFD7
:105788004846C8E92B100120A8F800004046FFF75A
:105798007FFC0CB0BDE80007F0BDD4D4F0B503AF72
:1057A8002DE9000F8FB00D46D0F8DC10064607A88B
:1057B800144603F009F896F8E200BDF81C10032817
:1057C80013D100294FF0000018BF032903D10FB0EF
:1057D800BDE8000FF0BD96F8E300042800F0A181B1
:1057E800042286F8E20086F8E320DFE801F01E03D1
:1057F8002D231E00D6F8DC0002F0FCFC00204FF43C
:10580800806186F8E40086F8E000A6F8E2103080AF
:105818005CB105EBC404083D55F8080F696889694F
:10582800884705F10800A042F6D100200FB0BDE876
:10583800000FF0BD032186F8E30086F8E21000208F
:105848000FB0BDE8000FF0BDBDF81E00BDF8201078
:10585800BDF822200490084340EA020A0691059206
:105868005FEACA70039400F0DD800698C00748D04C
:105878003088013807282CD8DFE800F00415082BF9
:105888002B2B2B283046FFF703FC3AE0F068006822
:10589800BFF35F8F002800F04F81B17C002202F037
:1058A800C0FE052013E0B0690168BFF35F8F0029CF
:1058B80000F042810020B27F00900CA8012302F082
:1058C800C8FC9DF83000E0B9032000E000203080DB
:1058D80017E0F068092131800068BFF35F8F002866
:1058E80000F02A81B17C012202F09BFEB0690068B9
:1058F800BFF35F8F002800F01F81B17F012202F003
:1059080090FE0598C0070AD10498C00700F0888067
:1059180009A83146FFF72DFB9DF82D006CE0F068D3
:105928000168BFF35F8F002900F0068106F12404A7
:105938008020B27C00900CA8234602F07EFD9DF8E2
:10594800300018B19DF8310060B969E00D9A812ADC
:1059580080F0FD800CA8214602F0DDFF9DF839009B
:10596800042818D1F068092131800068BFF35F8FDF
:10597800002800F0E180B17C012202F052FEB069FB
:105988000068BFF35F8F002800F0D680B17F012246
:1059980002F047FE44E00C980290F068BDF83880A9
:1059A8009DF837909DF836B0BDF834400068BFF3D5
:1059B8005F8F002800F0C080B17C002202F031FE29
:1059C800B9F1000F00F08A8002990420A6F80A8035
:1059D80086F8099086F808B0F480C6F8021030807E
:1059E800ADF82C808DF82B908DF82AB0ADF82840B2
:1059F80009914FEA1820039C042811D09DF82B0028
:105A080040B180280CD109AB304629462246FFF721
:105A1800BFFB05E009AB304629462246FFF790FC5C
:105A28002AF0010ABAF1000F029542D00399002921
:105A38004FD002980225012600EBC109A0F1080801
:105A48000598444605420AD054F8080F61688A6AE6
:105A58003146904704F108004845F5D10DE0049817
:105A680005420AD0444654F8080F6168CA6A3146AC
:105A7800904704F108004845F5D1069805420DD035
:105A880066F07F04C3465BF8080FDBF804100A6B66
:105A9800214690470BF108004845F4D12AEA050A47
:105AA8005FEA0A4005D0701C0F2E4FEA45050646EE
:105AB800C6D3039969B1029800EBC104A0F10805A7
:105AC80055F8080F6968C969884705F10800A042B8
:105AD800F6D101200FB0BDE8000FF0BD8CB1802CCD
:105AE8003FF640AF0020A6F80A80C6E92B04707282
:105AF8000298C6F80200072086F808B0F4803080C3
:105B08008EE70620ADF82C8030800020C6F8B00063
:105B18008DF82B00ADF8280002988DF82AB009906E
:105B280067E740F6883040F60042C2F22000C2F231
:105B380020021C2103F02FFD40F6EC0040F66C1209
:105B4800C2F22000C2F22002222103F0A7FD40F693
:105B580068331046C2F2200380211A4604F06BF91C
:105B6800F0B503AF2DE9000F81B048F27C514FF03A
:105B7800010CC2F20001BFF35F8FD1E84F2FC1E8DB
:105B880043CF002BF9D1BFF35F8F002A01BF48F242
:105B98000001C4F20D010022C4F22F0201BF02F578
:105BA800542C02F5502E02F54C28A1F5004401BFF3
:105BB800A1F5003501F5F61601F5F413C0E96836CC
:105BC80001BFC0E96A54C0E96C8EC0E96EC101F535
:105BD800005E01BF01F5805640F2040CC4F22E0CA1
:105BE80001F5021401BF0CF5FE7501F5004300F53F
:105BF800C07888E8380001BF00F5C67383E8121042
:105C0800C0E9666EA1F5404C01BF01F5881E01F59B
:105C1800861801F5841401F5821301BF01F50036D9
:105C280002F51025C0E9585600F5B47501BF85E89E
:105C38001A41C0F87CC1A1F5804C02F51C2E01BFA9
:105C480002F5182802F51424A1F5E03301F52826F9
:105C580001BF01F5EE15C0E9505600F5A47585E8B9
:105C6800184101BFC0E9562C02F5782802F57429BD
:105C780002F5702401BF02F56C234CF2000CC4F24B
:105C8800070C0CF5004601BF01F5E03E01F58E1545
:105C9800C0E9485EC0E94A6101BF00F5987585E82A
:105CA8001802C0F83C8101F5482801BF01F54429D4
:105CB80001F5402A01F53C2B01F5382301BF01F518
:105CC800342401F5302501F52C26C0E9406501BFD3
:105CD800C0E94243C0E944BAC0E9469802F5302811
:105CE80001BF02F52C2902F5282A02F5242B02F51A
:105CF800861301BF02F5841402F5821502F5801699
:105D0800C0E9386501BFC0E93A43C0E93CBAC0E917
:105D18003E9801F5F01801BF01F59219A1F5503A26
:105D2800A1F5403BA1F5303301BF01F5901401F511
:105D38008C1501F58A16C0E9306501BFC0E9324308
:105D4800C0E934BAC0E9369844F2000B01BFC4F286
:105D5800002B0BF500490BF5804A4FF0844801BF32
:105D680001F56C2601F5682401F56425A1F5C03319
:105D780001BFC0E9283500F1A80383E85009C0E94C
:105D88002EA901BF01F5602801F5E61901F5E81A09
:105D9800A1F5203601BF0BF5E03301F5582401F5D4
:105DA8005425C0E9205401BF00F1880484E8480460
:105DB800C0E9259EC0F89C8001BFA1F5103E01F501
:105DC800FE1801F5001902F5642A01BF02F56023E7
:105DD80002F55C2602F5582501F5A03401BF00F153
:105DE800600B8BE87000C0E91B3AC0E91D9801BF41
:105DF800C0F87CE001F5803E02F540480CF580498A
:105E080001BF01F5804A01F5F21344F20806C4F215
:105E1800090601BF06F1100506F10804C0E910647F
:105E2800C0E9125301BFC0E914A9C0E9168E0CF5E8
:105E3800C03E01F5103801BF01F5801901F57C2439
:105E480001F5782302F57C2601BF02F54825C0E953
:105E5800085600F1280585E8180201BFC0E90D8140
:105E6800C0F83CE002F5442E02F50C2601BF01F50E
:105E7800D21501F5242402F54022A1F5803301BF93
:105E8800A1F5A031C0E90013C0E9022C103001BF10
:105E980080E8704001B0BDE8000FF0BD40F610404A
:105EA80040F6A442C2F22000C2F22002352103F0DB
:105EB800F5FB48F248110068C4F21F0105230A687F
:105EC80063F303020A60416841F00801416003215D
:105ED800704780B56F460A4641F20021C0F27A0148
:105EE80000F058FB80BDF0B503AF4DF804BD0E4679
:105EF80000211546044600F06BFA284640F2E241BC
:105F080000F06DFA304600F02EFA40F27C1521467A
:105F1800C2F2200500222846366800F056FDA81C6B
:105F28002146002200F051FD281D2146002200F0E4
:105F38004CFDA81D2146002200F047FD05F1080090
:105F48002146002200F041FD05F10A002146002209
:105F580000F03BFD05F10C002146002200F035FD64
:105F680005F10E002146002200F02FFD05F110007A
:105F78002146002200F029FD05F1120021460022E9
:105F880000F023FD05F114002146002200F01DFD5C
:105F980005F116002146002200F017FD05F1180052
:105FA8002146002200F011FD05F11A0021460022C9
:105FB80000F00BFD05F11C002146002200F005FD54
:105FC80005F11E002146002200F0FFFC206841690F
:105FD800890107D5416921F000714161204600F02F
:105FE800E8F920684169012221F060514161206887
:105FF800816962F30D318161204600F0DAF9206889
:10600800416941F000714161204600F0D2F94FF436
:1060180080503060642030604FF400507060306809
:10602800002809D4306800285CBF3068002803D4F1
:106038003068B0F1FF3FF2DC20680122016962F3A9
:1060480002010161204600F0B4F92068416921F499
:10605800E0514161204600F0ACF92068816941F4C3
:10606800402181612068416921F000714161204629
:1060780000F09FF9206840F6C045C2F220050022D2
:10608800416941F4407141612846214600F09DFC78
:10609800A81C2146002200F098FC281D2146002259
:1060A80000F093FCA81D2146002200F08EFC206819
:1060B800022640F6D8450022C2F22005816B66F31D
:1060C800D84181632068816B41F48021816328462F
:1060D800214600F07AFCA81C2146002200F075FC3D
:1060E800281D2146002200F070FCA81D2146002230
:1060F80000F06BFC206840F6B4450322C2F220058C
:10610800816966F3051181612068816962F39C6188
:10611800816128462146002200F057FCA81C214630
:10612800002200F052FC281D2146002200F04DFC00
:10613800A81D2146002200F048FC05F10800214670
:10614800002200F042FC2068172240F28C25C2F29F
:106158002005C16962F30501C16120680022C16997
:1061680041F04001C1612846214600F02EFCA81CE0
:106178002146002200F029FC281D2146002200F0BB
:1061880024FCA81D2146002200F01FFC05F1080090
:106198002146002200F019FC05F10A0021460022E0
:1061A80000F013FC05F10C002146002200F00DFC64
:1061B80005F10E002146002200F007FC206840F699
:1061C800E045C2F220050322416A41F040014162E4
:1061D8002068416A66F3050141622846214600F0BD
:1061E800F4FBA81C2146032200F0EFFB281D2146E2
:1061F800032200F0EAFBA81D2146032200F0E5FB7C
:1062080005F108002146032200F0DFFB05F10A0032
:106218002146032200F0D9FB05F10C002146032298
:1062280000F0D3FB05F10E002146032200F0CDFB60
:1062380005F110002146032200F0C7FB05F112000A
:106248002146032200F0C1FB05F114002146032278
:1062580000F0BBFB05F116002146032200F0B5FB58
:1062680005F118002146032200F0AFFB05F11A00E2
:106278002146032200F0A9FB05F11C002146032258
:1062880000F0A3FB05F11E002146032200F09DFB50
:1062980005F120002146032200F097FB05F12200BA
:1062A8002146032200F091FB05F124002146032238
:1062B80000F08BFB05F126002146032200F085FB48
:1062C80005F128002146032200F07FFB05F12A0092
:1062D8002146032200F079FB05F12C002146032218
:1062E80000F073FB05F12E002146032200F06DFB40
:1062F80005F130002146032200F067FB05F132006A
:106308002146032200F061FB05F1340021460322F7
:1063180000F05BFB05F136002146032200F055FB37
:1063280005F138002146032200F04FFB05F13A0041
:106338002146032200F049FB05F13C0021460322D7
:1063480000F043FB05F13E002146032200F03DFB2F
:1063580005F14000214603225DF804BBBDE8F0408A
:1063680000F033BBFEE780B56F4600684FF400517C
:106378004FF480524FF0400C4FF4803E00E04161F2
:1063880003699B04FBD50369DB0401D44261F7E789
:106398000369B3F1FF3FF3DC0369DB0306D4036948
:1063A8005B0648BF80BDC0F814C0E9E7C0F818E034
:1063B800E6E7006803E0816C002908BF7047816C3C
:1063C80029B1816C00291CBF816C0029F3D1704769
:1063D8000068426D22F0030211434165704740F2A4
:1063E8002762914238BF0A46B2F5487F98BF4FF4FA
:1063F8004872A2F5487144F2AF7300688AB25A43F2
:10640800C368A1EB124189B2490801EB124123F09C
:106418001F0242EA1111C16004E00168B1F1FF3FB7
:10642800D8BF70470168002905D4016800295CBFFE
:1064380001680029F1D57047F0B503AF2DE9000BCD
:1064480044F2E043C4F21F031B68C3F30B2E4FEA68
:10645800135CE6451FBF0124C1F88841DBB24FF445
:106468007A781FBF03FB08F9ACEB0E04D1F89061F2
:1064780049F658651FBFCFF6FF7513FB085393FB0A
:10648800F4F3C2EA06021FBFC1F8902180E80A406F
:10649800C0F80C90BDE8000B18BFF0BD40F6905056
:1064A800C2F2200003F071FFB0B502AF05460868DC
:1064B8000C4640F480300860086840F040000860EE
:1064C800222063F31340486040F26850C0F20C1079
:1064D800086240F29510C0F2B2004862DC20C0F2B7
:1064E8007A0088627D20C0F25800C8624B20C0F252
:1064F800400008632F20C0F22E004863886346F6E8
:106508002010C86040F6A31088604FF4C840C861E6
:106518004FF4C860886140F6C410C0F68040086136
:106528003F204861086820F00300104308600868AD
:1065380020F480300860C86F4021281D04F007FA55
:1065480010202C606864B0BD01460238C3B2042B29
:1065580028BF042388B24FEA102C4FF40070DFE8FC
:1065680003F0030C0412050060467047C8070CBF0F
:106578000CF580600CF5A06070470121CCFA51F051
:1065880061F31F20704701200321CCFA50F061F31A
:106598001F207047F0B503AF4DF804BD86B040F634
:1065A800B46C4FFA82FEC2F2200C5CF82E20B1FBCC
:1065B800F2F2131F4AF6AB221C0A022C07D89BB230
:1065C80053435E0CF4B2202C01D200218FE05CF81A
:1065D8002E304C08B4FBF3F3033B1C0A022C07D8FB
:1065E8009BB25A43560CF2B2202A01D201217EE016
:1065F8005CF82E208B08B3FBF2F2931E4AF6AB220E
:106608001C0A022C07D89BB253435E0CF4B2202C10
:1066180001D202216BE05CF82E30CC08B4FBF3F316
:10662800023B1C0A022C07D89BB25A43560CF2B202
:10663800202A01D203215AE05CF82E200B09B3FB73
:10664800F2F2931E4AF6AB221C0A022C07D89BB220
:1066580053435E0CF4B2202C01D2042147E05CF8CD
:106668002E304C09B4FBF3F3023B1C0A022C07D86A
:106678009BB25A43560CF2B2202A01D2052136E0C9
:106688005CF82E208B09B3FBF2F2931E4AF6AB227C
:106698001C0A022C07D89BB253435E0CF4B2202C80
:1066A80001D2062123E05CF82E30C909B1FBF3F1D1
:1066B80002390B0A022B9FBF89B251434E0CF1B22B
:1066C80098BF202912D301210020019140F62061B2
:1066D800C2F220010490009140F628610390042042
:1066E8000290C2F22001684602F0C8FF072140F27A
:1066F800FC0400228281F2B2C2F22004022A54F879
:106708002110144698BF02247600012A4FF0010593
:10671800847288BF1546F6B20123032E057298BF0E
:106728000326012A467288BF6B08016031190422CA
:10673800C372490052FA81F16A1CD2B2914288BFF1
:106748000A46426006B05DF804BBF0BDB0B502AFC2
:1067580082B005680C46A80126D4E8013CD4680438
:1067680052D4A80468D4E8047ED4280500F19480A3
:10677800680500F1A880A80500F1BB80E80500F1D4
:10678800CE80A80700F1E080E80740F0F180002DF6
:10679800019540F0068140F6AC612046C2F2200126
:1067A800072203F01FFB09E140F6C8412046C2F268
:1067B8002001082203F016FB002840F00081E801C0
:1067C80015D540F638612046C2F22001032203F0B5
:1067D80009FB002840F0F38040F63B612046C2F2F6
:1067E80020010F2203F0FEFA002840F0E880680438
:1067F80015D540F638612046C2F22001032203F085
:10680800F1FA002840F0DB8040F64A612046C2F2E7
:1068180020010A2203F0E6FA002840F0D080A804FC
:1068280015D540F638612046C2F22001032203F054
:10683800D9FA002840F0C38040F654612046C2F2DD
:1068480020010F2203F0CEFA002840F0B880E804B7
:1068580015D540F638612046C2F22001032203F024
:10686800C1FA002840F0AB8040F663612046C2F2CE
:1068780020010A2203F0B6FA002840F0A08028057B
:1068880015D540F638612046C2F22001032203F0F4
:10689800A9FA002840F0938040F29C212046C2F2D9
:1068A8002001102203F09EFA002840F08880680535
:1068B80013D540F638612046C2F22001032203F0C6
:1068C80091FA00287BD140F66D612046C2F2200182
:1068D8000D2203F087FA002871D1A80513D540F6D8
:1068E80038612046C2F22001032203F07BFA002817
:1068F80065D140F67A612046C2F220010D2203F0EC
:1069080071FA00285BD1E80513D540F638612046B6
:10691800C2F22001032203F065FA00284FD140F6A5
:1069280087612046C2F220010A2203F05BFA0028A0
:1069380045D1A80711D540F638612046C2F220019A
:10694800032203F04FFAD0BB40F691612046C2F211
:1069580020010C2203F046FA88BBE80711D040F664
:1069680038612046C2F22001032203F03BFA30BB13
:1069780040F69D612046C2F220010D2203F032FA52
:10698800E8B948F2FC00CFF6FF402840019019D042
:1069980040F638612046C2F22001032203F022FAB1
:1069A80068B940F6AA612046C2F22001022203F02B
:1069B80019FA20B901A8214603F00DFD10B10120F4
:1069C80002B0B0BD002002B0B0BD037840780968BD
:1069D80003F03F0301EB83014000C0B20323D1F869
:1069E80068C0834002FA00F02CEA03031843886663
:1069F8007047F0B503AF2DE9000FADF5057D0DF13A
:106A0800040B80464FF40071584603F0A0FF44F28F
:106A1800B8290DF5017AC2F2000900244E46002576
:106A2800D9E96001CDE9830150468295819602F04B
:106A380063FB81AB0C3601350FCB4BF804000BEB35
:106A4800040010340430B4F5007F0EC0E8D101A969
:106A580040464FF4007203F076FF0DF5057DBDE862
:106A6800000FF0BD80B56F46D0E9072E4FF0004CFF
:106A78004FF08043CEF834C0CEF838C0CEF8383066
:106A88000023CEF800300223C2F84031D2F840315A
:106A98009B070CD5D2F840319B0744BFD2F8403150
:106AA8005FEA837303D5D2F840319B07EED44FF0E9
:106AB800000C0A23C2F840C10029C2F8A831D2F854
:106AC800843123F0807308BF03F18073C2F88431E6
:106AD800D2F844110068C2F84411C2F848C1C2F89B
:106AE800580180BDF0B503AF4DF804BD9AB0044617
:106AF800C069D0F8B811C0F8B811D0F8BC11C0F806
:106B0800BC11D0F87811C0F878110021C0F87C11B8
:106B1800D0F8B01159B1D0F8B01100291CBFD0F885
:106B2800B011002903D0D0F8B0110029F0D14FF0EE
:106B3800FF31C0F8B411D0F8B41159B1D0F8B4117C
:106B480000291CBFD0F8B411002903D0D0F8B41123
:106B58000029F0D100200821CDE9060101210C907F
:106B680008900390019001A800F1400500F110067B
:106B78001094059102E00598022824D03046294651
:106B880000F0A2FEF8B1007C10F07F01F3D0E269BA
:106B9800082911911BD2013940B2B0F1FF3F6FF4BF
:106BA8000C00C9B202EB8101D1F8C421C8BF6FF053
:106BB8008C0000EA02004FF40022C8BF08221043EC
:106BC800C1F8C401D7E71AB05DF804BBF0BD0020D6
:106BD80041F2540116900220139040F6E870C2F278
:106BE8002000C2F2200112900120159018A81490DC
:106BF80048F2ED10C0F20000199011A8189012A8E0
:106C080002F03CFD02464368C8B2490041EAD0118F
:106C1800C8B2834217D9936901F00F011B68BFF30B
:106C28005F8F9BB223FA01F1C9070CD051698142E9
:106C380084BF0120704780B56F4641F2C002C2F29E
:106C4800200202F03EFD00207047F0B503AF2DE9A9
:106C5800000F83B08046486800281FBF8869006815
:106C6800BFF35F8F5FEAC07005D140F61C70C2F2B7
:106C7800200002F086FC4869002800F01D8151F8C8
:106C88001C4F9A460125BAF1080F51F80C0CD4F89C
:106C9800AC3190F9106006F01F0C05FA0CF56ED3B4
:106CA8002B406CD0D0F808C0C4F8AC51D4F840617F
:106CB80046F40056C4F84061DCE90A56D4F840317D
:106CC8009B0425D4D4F8403143F40053C4F8403130
:106CD800DCE90A56D4F840319B045FBFD4F8403150
:106CE80043F40053C4F84031DCE90A565CBFD4F8D9
:106CF80040315FEA83430BD4D4F8403143F4005366
:106D0800C4F84031DCE90A56D4F840319B04CDD5AB
:106D1800D4F8403123F40053C4F8403190F910C03E
:106D2800D4F8B8315660BCF1000F15600CF01F02A2
:106D38004FF0010648BF1B0C964033401B0614D188
:106D48004FF48033BCF1FF3FC8BF01234FF47F06E7
:106D580003FA02F2C8BFFF263240C4F878218268DD
:106D68001268C2F30A4200F02BFD0820C8F804009C
:106D7800002088F8000003B0BDE8000FF0BDC3682C
:106D88005B6813F0680F01D0072008E0D4F8B83129
:106D9800002E48BF1B0C2B401B0609D0002088F88A
:106DA8000100012088F8000003B0BDE8000FF0BD25
:106DB800B6F1FF3F4FF480364FF47F03CDF80880DB
:106DC800C8BF0126C8BFFF2306FA0CF63340C4F833
:106DD800BC314FF4803E90F910304FF47F05B3F189
:106DE800FF3F03F01F03C4BFFF254FF0010E0EFA4B
:106DF80003F32B40C4F87831C668D0E9013EDEF8C9
:106E080000507468F669C5F30A45554538BFAA4667
:106E1800C4F30E45761BB24528BFB246534538BF6A
:106E28009A46BAF1000F36D0D0F800B00AF0030540
:106E3800BAF1040F01D200261EE040F2FC730AEA00
:106E4800030902F10108002601950BEB06041BF863
:106E5800065008EB060394F801C008F806C004368B
:106E6800B14594F802C003F8015C83F801C0E578E5
:106E78009D70EAD1019DB3446DB19BF80030012D9E
:106E8800935508D032449BF80130022D53701CBF33
:106E98009BF802309370DEF80020C2F30A4200F03B
:106EA8008FFCDDF808800020C8F804A088F80000EE
:106EB80003B0BDE8000FF0BD41F2D0020020C2F2DD
:106EC8002002002102F0FDFBF0B503AF2DE9000F11
:106ED80085B04E68022EC0F00C818E693668BFF30B
:106EE8005F8FB60740F105814E69012E40F2078198
:106EF8000E69356A6D6815F0680F01D0072115E035
:106F08008A4696F824505AF81C8F05F01F0E4FFA3F
:106F180085FC0125D8F8B841BCF1000F48BF240C06
:106F280005FA0EF52C40240607D0002141700121F6
:106F3800017005B0BDE8000FF0BD4FF480344FF488
:106F48007F05BCF1FF3FC8BF0124C8BFFF2504FA75
:106F58000EF42540C8F8785106F11409D6E905B4AD
:106F6800F6693668C6F30A469E4238BF33469C42E5
:106F780038BF2346CDE9030343B103F00305042BCF
:106F8800CDF8089007D200205E4623E00C4648461C
:106F9800514600225AE040F2FC7003EA000E02F16A
:106FA80001090020019509EB000619F8005016F8B0
:106FB800014C96F801C0B6780BF800400BEB0004C2
:106FC80004308645657084F802C0E670EBD1019DF7
:106FD8000BEB00060C4655B1115C012D317006D043
:106FE8001044022D417871701CBF8078B070581E13
:106FF800012101EB501606F0030902F0F7F8049A94
:107008004EF670702BF01F01CEF20000612A0FD3EC
:1070180026F0030201F120030160036001F140033F
:10702800036001F16003043A01F180010360F1D1CA
:10703800B9F1000F1CBF0160B9F1010F50D102F086
:10704800D5F802F0D6F802985146049A00F0B8FB39
:10705800A0690068BFF35F8FC00758D06069002837
:10706800DDE9030259D0216901240B7CD8F8B85115
:107078005EB203F01F03002E48BF2D0C9C40254034
:107088002D0626D14FF48032B6F1FF3FC8BF01224A
:107098004FF47F0502FA03F2C8BFFF252A40C8F85B
:1070A800BC2191F910204FF480304FF47F06B2F1E3
:1070B800FF3F02F01F02C4BFFF26012090400022BC
:1070C8003040C8F878010846514600F079FBDDE900
:1070D800030200214260017005B0BDE8000FF0BD59
:1070E80001F120020260B9F1020F1CBF40310160BA
:1070F800A5E740F62C70C2F2200002F042FA41F2F5
:10710800D0020120C2F22002314602F0DAFA40F63B
:107118003C70C2F2200002F034FA41F2D0020020A2
:10712800C2F22002002102F0CCFAF0B503AF2DE93B
:10713800000F83B08446387A4D68460046EAD01678
:10714800F0B2854240F2C4808D6906F00F062D68C2
:10715800BFF35F8FADB225FA06F6F60700F0B880E8
:10716800D1F814E0864540F2B9800E6900EB800042
:1071780006EB8000C668766816F0680F01D0072015
:1071880012E0057C8E4651F81C9F05F01F0A6CB270
:107198000125D9F8B86105FA0AF5002C48BF360C64
:1071A80035402D0609D000208CF8010001208CF80C
:1071B800000003B0BDE8000FF0BDBEF82C6004F07D
:1071C8000F05EE40F607EED04FF480354FF47F06FA
:1071D800CDF808C0B4F1FF3FC8BF0125C8BFFF26DE
:1071E80005FA0AF52E40C9F8BC614FF4803C90F9C5
:1071F80010604FF47F04B6F1FF3F06F01F06C4BFCE
:10720800FF244FF0010C0CFA06F62640C9F8786105
:10721800C568D0E9016EDEF80040D5F804C0ED6914
:10722800C4F30A449C4238BF2346CCF30E442D1BBA
:10723800AB4228BF2B469E4238BF3346B3B3D0F883
:1072480000A003F00304042B01D200261FE00194E0
:1072580040F2FC7403EA040902F1010B00260AEB70
:1072680006041AF806500BEB060C94F801800BF88C
:1072780006800436B14594F802800CF8015C8CF85D
:107288000180E4788CF80240E9D1019CB2446CB1E9
:107298009AF80050012C955508D032449AF80150BC
:1072A800022C55701CBF9AF802609670DEF8002018
:1072B8001C46C2F30A4200F083FADDF808C0002039
:1072C800CCF804408CF8000003B0BDE8000FF0BD16
:1072D80040F64C70C2F2200002F053F941F2D0029D
:1072E8007146C2F2200202F0ECF9F0B503AF2DE9C5
:1072F800000F81B03E7A4D68740044EAD616F4B2A5
:10730800A54240F2CE808D6906F00F062D68BFF3C6
:107318005F8FADB225FA06F6F60700F0C280D1F805
:1073280014C0A44540F2C3800E6904EB840506EB43
:10733800850BDBF80C60766816F0680F01D0072122
:1073480012E09BF8105051F81CCF05F01F0E6CB2DC
:107358000125DCF8B86105FA0EF5002C48BF360C9B
:1073680035402D0607D0002141700121017001B080
:10737800BDE8000FF0BD00904FF48030B4F1FF3F3E
:10738800C8BF01204FF47F0400FA0EF0C8BFFF24E5
:107398002040CCF87801DBF80860DBE9008036682B
:1073A800C6F30A469E4238BF3346984238BF034662
:1073B800002B61D003F0030C042B02D200264046B8
:1073C8001BE040F2FC7003EA000E02F101090026FE
:1073D80009EB060019F806A010F8014C45788078EA
:1073E80008F8064008EB06040436B64584F801A000
:1073F800A570E070ECD108EB06008946BCF1000FDF
:107408000CD0915DBCF1010F017007D09119BCF14E
:10741800020F4A7842701CBF89788170581E01217A
:107428009A4601EB501404F0030601F0DFFE4EF615
:10743800707028F01F01CEF20000BAF1610F5246B9
:107448000FD324F0030201F120030160036001F16E
:107458004003036001F16003043A01F18001036015
:10746800F1D1002E1CBF0160012E12D101F0BEFE29
:1074780001F0BFFE5346494658461A461C4600F0DE
:107488009FF9009800214460017001B0BDE8000F29
:10749800F0BD01F120020260022E1CBF40310160E4
:1074A800E4E740F65C70C2F2200002F06AF841F2AC
:1074B800D0022046C2F22002614602F002F9B0B5BD
:1074C80002AF8AB0D3B2540044EAD314D0F804C04F
:1074D8005FFA84FEF44555D9836904F00F041B68EC
:1074E800BFF35F8F9BB2E340DB074BD0D0F814C0EB
:1074F800F4454DD950F81CCF0EEB8E0450F80C3CD7
:1075080003EB840E9EF8103003F07F040194082CDE
:1075180046D25DB205F03F03002D0CEB8303D3F890
:10752800C04108D424F001040C4452B2002AC3F824
:10753800C04109D518E024F4803461F3104452B2F4
:10754800002AC3F8C0410FD471B9DCF8B81101237F
:107558009EF91020002A02F01F0248BF090C03FA06
:1075680002F21140090601D00AB0B0BDDEF80810D9
:107578000968C1F30A42014670460AB0BDE8B04046
:1075880000F01EB940F66C70C2F2200001F0F9FF5D
:1075980041F2D0027046C2F22002614602F091F830
:1075A800002041F2540106900220039040F6E87052
:1075B800C2F22000C2F2200102900120059008A822
:1075C800049048F2ED10C0F20000099001A808905C
:1075D80002A802F053F880B56F468AB002464368A5
:1075E800C8B2490041EAD011C8B2834227D9936989
:1075F80001F00F011B68BFF35F8F9BB223FA01F103
:10760800C9071CD0516981421FD9136900EB80005A
:10761800D16903EB8000007C00F07F020192082A08
:1076280019D240B200F03F02002801EB8201D1F8E4
:10763800C01148BF090C01F001000AB080BD40F636
:107648007C70C2F2200001F09CFF41F2C002C2F23D
:10765800200202F036F8002041F254010690022080
:10766800039040F6E870C2F22000C2F220010290B6
:107678000120059008A8049048F2ED10C0F200001F
:10768800099001A8089002A801F0F8FFF0B503AF2F
:107698002DE9000B9AB08046109000200821CDE912
:1076A800060108F11C090C90012108900390019033
:1076B80001A800F1400500F1100605910AE021F447
:1076C8004C0141EA824141F44001C0F8C4110598D7
:1076D800022821D03046294600F0F6F8E0B1027CB5
:1076E80012F07F01F3D0D9F80030082911914CD25B
:1076F80054B2427C481EB4F1FF3FC0B203EB800095
:10770800D0F8C411DBDD02F00F0221F00C0141EAD0
:10771800820141F0C001D8E700200821CDE9060127
