:0200000460009A
:100000004643464200000156000000000101020084
:1000100000000000000000000000000000000000E0
:1000200000000000000000000000000000000000D0
:1000300000000000000000000000000000000000C0
:1000400000000000010403000000000000000000A8
:100050000000200000000000000000000000000080
:100060000000000000000000000000000000000090
:100070000000000000000000000000000000000080
:10008000EB04180A063204260000000000000000FD
:10009000050404240000000000000000000000002F
:1000A0000000000000000000000000000000000050
:1000B0000604000000000000000000000000000036
:1000C0000000000000000000000000000000000030
:1000D00020041808000000000000000000000000DC
:1000E0000000000000000000000000000000000010
:1000F0000000000000000000000000000000000000
:1001000000000000000000000000000000000000EF
:100110000204180804200000000000000000000095
:1001200000000000000000000000000000000000CF
:10013000600400000000000000000000000000005B
:1001400000000000000000000000000000000000AF
:10015000000000000000000000000000000000009F
:10016000000000000000000000000000000000008F
:10017000000000000000000000000000000000007F
:10018000000000000000000000000000000000006F
:10019000000000000000000000000000000000005F
:1001A000000000000000000000000000000000004F
:1001B000000000000000000000000000000000003F
:1001C000000100000010000001000000000000001D
:1001D000000000000000000000000000000000001F
:1001E000000000000000000000000000000000000F
:1001F00000000000000000000000000000000000FF
:10020000D4D4D4D4D4D4D4D4D4D4D4D4D4D4D4D4AE
:10100000D10020400020006000000000000000002F
:1010100020100060001000600000000000000000D0
:1010200000000060E8F9000000000000EFBEADDE47
:10103000124880F3088812481249016000F036F81F
:10104000114812490022814201D004C0FBE7104838
:101050001049114A814202D008CA08C0FAE70F4875
:101060004FF47001026842EA01020260BFF34F8F41
:10107000BFF36F8F00F014F800DE00000040002086
:1010800008ED00E00040002000500020988500207E
:10109000B84200204C440020E8F9006088ED00E0F0
:1010A00045F2430CC0F2000C6047D4D41C4840F217
:1010B000924188420CBF1B4A1B4A1C4B5360136869
:1010C00023F0800313601A481A4901BF1A480A0C1A
:1010D0008264C1F30F014164016C41F004010164B9
:1010E0001648174A824205D01649814202D008CAE2
:1010F00008C0FAE71448154A824205D014498142D3
:1011000002D008CA08C0FAE71248134A824205D042
:101110001249814202D008CA08C0FAE770470000AD
:10112000240400000080034000C00B4020C528D9E3
:1011300000C00A40AAAAFAFF00400E4000000000CA
:10114000B8220060A8C0000000400020002000601D
:10115000B84200200000202060E3006088162020B4
:10116000D4D4D4D4D4D4D4D4D4D4D4D4D4D4D4D43F
:10117000D4D4D4D4D4D4D4D4D4D4D4D4D4D4D4D42F
:10118000D4D4D4D4D4D4D4D4D4D4D4D4D4D4D4D41F
:10119000D4D4D4D4D4D4D4D4D4D4D4D4D4D4D4D40F
:102000000040002031100060318100008FC00000CE
:1020100031810000318100003181000000000000AA
:1020200000000000000000000000000031810000FE
:10203000318100000000000031810000F1530000F8
:1020400031810000318100003181000031810000C8
:1020500031810000318100003181000031810000B8
:1020600031810000318100003181000031810000A8
:102070003181000031810000318100003181000098
:10208000318100000000000000000000000000009E
:102090003181000031810000318100003181000078
:1020A0003181000031810000318100003181000068
:1020B0003181000031810000318100003181000058
:1020C0003181000031810000318100003181000048
:1020D0003181000031810000318100003181000038
:1020E0003181000031810000318100003181000028
:1020F0003181000031810000318100003181000018
:102100003181000031810000318100003181000007
:10211000000000003181000000000000318100005B
:1021200031810000318100003181000031810000E7
:102130003181000031810000000000003181000089
:1021400031810000318100003181000031810000C7
:10215000318100003181000000000000000000001B
:1021600031810000318100003181000031810000A7
:102170003181000031810000318100003181000097
:102180003181000031810000318100003181000087
:102190003181000031810000318100003181000077
:1021A0003181000031810000318100003181000067
:1021B0003181000031810000318100003181000057
:1021C00031810000318100003181000000000000F9
:1021D0003181000031810000318100003181000037
:1021E0003181000031810000318100003181000027
:1021F0003181000031810000318100003181000017
:10220000318100005507000031810000318100005C
:1022100031810000318100003181000031810000F6
:1022200031810000318100003181000031810000E6
:102230003181000031810000318100000000000088
:102240000000000031810000318100003181000078
:1022500031810000318100003181000031810000B6
:1022600031810000318100003181000031810000A6
:102270003181000031810000318100003181000096
:102280003181000031810000318100003181000086
:102290003181000031810000318100003181000076
:1022A0003181000031810000318100000000000018
:0822B0003181000031810000C2
:1022B800F0B503AF2DE9000B86B0044690F8600036
:1022C8008846B0B1032840F0F28094F85C00D8B199
:1022D800032840F0F28094F8591004F11400002902
:1022E80068D0032940D040F21830C2F220000BF029
:1022F800B8FD256848F288560020C2F2000684F826
:102308005C00C4E9016501E0D4E901654FF000090A
:102318000AF0D4FD014684F8599066654219002DEB
:1023280018BF511CC4E9030104F11400E1622246FC
:1023380042F8301F002182F828103379002B00F072
:10234800A4802346012543F8341F83F824501D46F2
:1023580045F81C1F03F11801C3E9053343E90821B7
:1023680043E9066543E90465414605F0BFFE814639
:1023780008B103204CE0A06C016849B1007B00283B
:102388001CBF002084F8580094F8580000BB35E0C2
:102398000021D4E9096084F85810D0F800800AF0C8
:1023A800CDFDBFF35F8F316869B10A69884504D1F3
:1023B800326008E0E16A666DB9E722B1904548D11C
:1023C80013461A690A610AF0C4FD94F85800A8B1C6
:1023D800D4E9095006680AF0B1FDBFF35F8F296898
:1023E80051B10A698E4201D12A6005E022B19642B4
:1023F80019D113461A690A610AF0ABFD002084F866
:102408005800606B00281EBFC168A06B8847012078
:1024180084F8600084F85C0084F85900484606B0E7
:10242800BDE8000BF0BD11690029E5D08E4226D029
:102438000A69002AE0D09642DBD011690029DBD076
:102448008E421CD00A69002AD6D096421346EAD199
:10245800D0E711690029B6D0884513D00A69002A47
:10246800B1D09045ACD011690029ACD0884509D0CD
:102478000A69002AA7D090451346EAD1A1E70B467E
:102488001146B7E70B4611469BE7012004910190DE
:1024980040F2A820C2F22000039140F208310090D7
:1024A8000420C2F22001029068460AF02DFE40F294
:1024B8006400C2F220000BF0D4FC40F22830C2F2D3
:1024C80020000BF0CEFCD4D4F0B503AF2DE9000BFF
:1024D8000446807C8946DFE800F0050C121D385858
:1024E800739BBAD9227C08210020E36884E80B009A
:1024F80006E040F25010C2F220000BF0B2FCFEDE03
:10250800884262746CDA01302060A068002184F887
:102518009C10606104F114054946284600F0E8F86B
:102528000126002840F0D780284600F03CFAA06831
:10253800D0E9000101F01F0106FA01F1C0F8881086
:102548000021A06884F89C10606104F114054946D4
:10255800284600F0CDF80126002840F0C280284621
:1025680000F021FAA068617CD0E9020202F01F02A3
:10257800C9074FF0840106FA02F208BF88214250C9
:102588000021A06884F89C10606104F11405494694
:10259800284600F0ADF80126002840F0858028463E
:1025A80000F001FAA068D0E9000101F01F0106FA65
:1025B80001F1C0F884100021A06884F89C106061C3
:1025C80004F114054946284600F092F800287BD10A
:1025D800284600F0E8F9627CD4E9000152088FE748
:1025E800A0680122D0E9000101F01F0102FA01F1FF
:1025F800C0F88810A068D0E9020101F01F0102FAB2
:1026080001F1C0F884100021A06884F89C10606172
:1026180004F114084946404600F06AF8012628B13A
:102628000720A0743046BDE8000BF0BD404600F01E
:10263800BAF9A068D0E9000101F01F0106FA01F11A
:10264800C0F884100021A06884F89C10606104F12F
:1026580014084946404600F04BF8012628B10820E6
:10266800A0743046BDE8000BF0BD404600F09BF971
:10267800A068D0E9000101F01F0106FA01F1C0F8D5
:1026880088100021A06884F89C10606104F114058A
:102698004946284600F02CF860B101260920A074AC
:1026A8003046BDE8000BF0BD0520A0743046BDE8FB
:1026B800000BF0BD284600F076F900260120A07432
:1026C8003046BDE8000BF0BD01260620A074304658
:1026D800BDE8000BF0BD0320A0743046BDE8000B38
:1026E800F0BD0420A0743046BDE8000BF0BDD4D482
:1026F800F0B503AF2DE9000B064690F8880089462F
:1027080068B1032840F0A980B04618F8140FDFE834
:1027180000F003AAB0534C00D6E9011008E0316874
:102728000022B0460869143108F8142F48E904104B
:10273800C6E9031048F63711C0F24101884200F299
:10274800BA804FF47A7100224843344604F8842F43
:1027580054F8781C44E91B104DF68361C4F21B3110
:10276800A0FB0101002086F88000880C306206F189
:1027780020004946FFF79CFD08B10420C0E096F808
:102788008000032807D196F87C00032804BF96F838
:102798007900032827D001210020217088F8001033
:1027A80086F88810BDE8000BF0BD344614F8840F95
:1027B80070B10328DBD005E0344614F8840F48B123
:1027C80003285BD040F24420C2F220000BF049FB02
:1027D800F069C1E7F0694DF68361C4F21B31A0FBD3
:1027E8000101880C46E0D6E91150D0F800900AF0B3
:1027F800A5FBBFF35F8F296851B10A69894501D1EB
:102808002A6005E022B191450ED113461A690A6182
:102818000AF09FFB706D002186F8781000281EBF13
:10282800C168B06D8847B6E711690029F0D08945BD
:1028380010D00A69002AEBD09145E6D01169002929
:10284800E6D0894506D00A69002AE1D091451346A9
:10285800EAD1DBE70B461146D8E740F2E010C2F2B6
:1028680020000BF0FEFA40F2D800C2F220000BF074
:10287800F8FAFEDE0021306286F8801006F12000AA
:102888004946FFF715FDD0BB96F88000032807D10D
:1028980096F87C00032804BF96F87900032820D016
:1028A8000121306986F8841048F63711C0F24101D9
:1028B80088427FF646AF0021344604F8841F47F269
:1028C800C961CFF6BE71084444F8740C4FF6D8605D
:1028D800CFF6FF7054F8781C44E91B1041F2C6008B
:1028E800C8E7D6E9115004680AF028FBBFF35F8FE8
:1028F8002968A9B10A698C420CD12A6010E003202A
:102908000321217088F80000012086F88810BDE8AE
:10291800000BF0BD22B194420ED113461A690A6128
:102928000AF017FB706D002186F8781000281EBF8A
:10293800C168B06D8847B3E711690029F0D08C42AF
:1029480010D00A69002AEBD09442E6D01169002918
:10295800E6D08C4206D00A69002AE1D09442134698
:10296800EAD1DBE70B461146D8E7084640F2F011FA
:10297800C2F2200102220AF07FBE45F200000121C6
:10298800C2F200000068BFF35F8F80F8F110704753
:1029980045F200000121C2F200004068BFF35F8FDA
:1029A80080F879107047D0B502AF90F888100329E5
:1029B80018BFD0BD017D032918BF042907D190F89D
:1029C8008410032904BF90F88010032900D0D0BDDB
:1029D80090F87C10032904BF90F879100329F6D1E8
:1029E80000F144010446084605F045FB616D0022EC
:1029F800204684F878200029E9D0C968806DBDE8B0
:102A0800D040084780B56F4641F28860C2F2200086
:102A1800006880470020BDE880400AF0AFBAD4D4EF
:102A280080B56F46AAB045F2000940F2CB6841F282
:102A3800F03507AEC2F200094FF0000AC0F20008F4
:102A4800C2F2200501E0BFF32F8FD9F8044094F8B3
:102A5800780000B304F17900D0E84F1F012918D19C
:102A6800C0E841AF0029F7D140F2E160BFF35F8FC2
:102A7800C0F2000005A9CDE9055094F87400CDF81E
:102A880024A0CDE9071160B9D4E90001C4E9020125
:102A98005CE0BFF32F8FD9F800B09BF8F000A0B925
:102AA800D3E704F110003146FFF702FC002840D0BC
:102AB800DDE90510032284F87420C9688847D9F82D
:102AC80000B09BF8F0000028BFD00BF1F100D0E86F
:102AD8004F1F0129B7D1C0E841AF0029F7D1BFF393
:102AE8005F8FCDE907589BF81000CDF840A0CDE9DD
:102AF8000E66DFE810F00900FD23FD231300E8004F
:102B0800B70FBD00CA00F921DBF800004FF47A7155
:102B18008BF874A0CBF81410CBF804000BF1140058
:102B28000EA9FFF7C5FB002800F08D80032104F0F3
:102B380066B994F87000032808D194F86C0003284B
:102B480004BF94F86900032800F0228148F28450F9
:102B5800C2F200000068032834D340F2AC32A06807
:102B6800C2F22002012113920BAA15924BF2C9520C
:102B78001491C0F200021691D0E900010C9201F004
:102B88001F01CDF85CA0A7F1710280680B92C840C4
:102B980000F0010007F8710C40F2B430C2F22000D6
:102BA8000AF08BF940F2943112901520C2F22001FC
:102BB80011900EAACDE90E1013A81091032100233D
:102BC8000AF014F948F28450C2F2000000680228A2
:102BD80034D940F2C832E068C2F2200201211392CF
:102BE8000BAA15924BF2C9521491C0F20002169129
:102BF800D0E900010C9201F01F01CDF85CA0A7F10B
:102C0800710280680B92C84000F0010007F8710C4F
:102C180040F2D030C2F220000AF04FF940F294316D
:102C280012901520C2F2200111900EAACDE90E10C3
:102C380013A81091032100230AF0D8F8642084F81F
:102C480070A020612DE79BF87400032808D19BF839
:102C58007000032804BF9BF86D00032800F058811A
:102C68005C4604F81CAF54F8180C44F8080C37E01C
:102C7800D84618F8C50FA8F1B106002800F09880CA
:102C8800032801F0168704F003BB5C4614F8E90F2B
:102C9800002800F09380032844F000835E4616F86D
:102CA8002F0FDFE810F008001F2325236D016301B3
:102CB800D31B421F7C01DBE90713DBF828009BF8D4
:102CC8002C2002F0F0BF5C4614F81C1FA4F1080089
:102CD800DFE811F00500F0220E23FA00EB0000688F
:102CE8005E46049446F8200FB44646F8080C0CF8E3
:102CF800CCAF0021D946027D012509F83F1F0023EA
:102D080009F8031C49F8070C09F8171C49F81B2C8B
:102D18005C4604F83E5F04F8013C44F80A0C04F8E9
:102D28000E1C44F8122C017D8B4281F0D4825A4645
:102D3800402102F84AAF029202F8021C42F8060C3F
:102D4800049C5D4605F854AF15F80C1C45F8140CA6
:102D580045F8080C05F80B1CCBF850000122D0E907
:102D6800020101F01F01CDF80CC002FA01F1C0F810
:102D78008810DBF850008BF8E0A0CBF858000BF176
:102D880058000EA9B046FFF7B3FCE8B3032055E19D
:102D9800D4E90D6005680AF0D1F8BFF35F8F316898
:102DA800002900F09D820A698D420FD1326097E2B6
:102DB8009BF8C400DBF8C01001F074BEDBE93713E0
:102DC800DBF8E4009BF8E82002F061BF002A00F07D
:102DD80087829542134600F081821169002900F02C
:102DE8007F828D4200F05A820A69002A00F07882B8
:102DF800954200F072821169002900F071828D42BB
:102E080000F04C820A69E1E79BF8E0004646032897
:102E180040F0FB809BF86C00032800F0ED8004284C
:102E280040F0F3809BF8DC00032804BF9BF8D8002F
:102E3800032840F0EA809BF8D400032804BF9BF8DD
:102E4800D100032840F0E1800494DBE927400668BC
:102E58000AF074F8BFF35F8F2168002900F030870B
:102E68000A698E4200F03682002A00F029879642CD
:102E7800134600F023871169002900F021878E424C
:102E880000F0BB860A69002A00F01A87964200F013
:102E980014871169002900F013878E4200F0AD866F
:102EA8000A69002AE3D100F00BBF5E4616F82A0F24
:102EB800DFE810F00600FA211E224E00CD0B3F007D
:102EC800DBF8240001F0CABADC461CF8EC0FACF1C0
:102ED800CC06D0B1032844F0F981D94619F83F0F40
:102EE800DFE810F00800002206229D019001C204CC
:102EF8002608B1019BF828100125DBF824209BF84F
:102F08003C30DBF83800049402E730680494F0E6BB
:102F1800DBE90E4005680AF011F8BFF35F8F2168FE
:102F2800002900F07A850A698D4247D1226000F0B5
:102F380074BD5D4615F8340FDFE810F00600CE21A9
:102F4800DA211F0C8D0CFB0CDBF82C0001F004BC03
:102F58005D4615F8340FDFE810F00500B321CB21EA
:102F68009D0A0B0BDBF82C0001F083BA5D4615F8BF
:102F7800380FDFE810F07919A521BD218C19F9194E
:102F8800D84618F83A0FDFE810F006008F21B32171
:102F98007B01A1176C01DBF8340002F09DBE5D4691
:102FA80015F8380FDFE810F006009821A4213F1E1D
:102FB800AC1E191FDBF8300003F024BE002A00F015
:102FC8002C859542134600F026851169002900F0EA
:102FD80024858D4200F037830A69002A00F01D8598
:102FE800954200F017851169002900F016858D4279
:102FF80000F029830A69E1E79BF8DC00032804BF95
:103008009BF8D800032800F04C81DBF8500001221F
:10301800D0E9000101F01F0102FA01F1C0F888109F
:10302800DBF850008BF8E0A0CBF858000BF1580003
:103038000EA9B046FFF75CFBD8B10420287041F216
:10304800F035DDF80CC00320C2F2200507AE029966
:1030580040F2CB68C0F200080870032089F800002D
:1030680045F200090320C2F200098CF8000001F0C3
:1030780070BC9BF8E00041F2F035C2F220054646EC
:1030880003284FD19BF86C00032842D0042849D16B
:103098009BF8DC00032804BF9BF8D800032841D123
:1030A8009BF8D400032804BF9BF8D100032839D12A
:1030B8002646DBE92740056809F040FFBFF35F8F2C
:1030C8002168002900F04C860A698D4200F041828F
:1030D800002A00F045869542134600F03F861169A4
:1030E800002900F03D868D4200F0C6850A69002A55
:1030F80000F03686954200F030861169002900F00C
:103108002F868D4200F0B8850A69002AE3D100F0C5
:1031180027BE9BF8DC00032804BF9BF8D8000328CF
:1031280000F0FE8101209BF849108BF85400DBF871
:1031380040008BF85EA08BF85C10CBF858000BF1C0
:103148004C000EA90196FFF7BFF920B1DDF80CC0BD
:1031580007AE04207BE79BF85E00019E0338062833
:1031680000F2D8809BF8E800032840F0D3809BF851
:103178007400032800F0C580042840F0CB809BF839
:10318800E400032804BF9BF8E000032840F0C28055
:103198009BF8DC00032804BF9BF8D900032840F003
:1031A800B9802646DBE92940056809F0C7FEBFF368
:1031B8005F8F2168002900F00E860A698D4200F0B1
:1031C8002784002A00F007869542134600F00186FE
:1031D8001169002900F0FF858D4200F0DA850A693F
:1031E800002A00F0F885954200F0F285116900295F
:1031F80000F0F1858D4200F0CC850A69002AE3D100
:1032080000F0E9BD5D46CDF80CC015F8480F0196F1
:10321800DFE810F02F0256206E204202AF02594616
:10322800CDF80CC011F84A0F0291DFE810F0070042
:103238003D20612066010600550180E7DBF8440067
:10324800DDF80CC07DE5D846CDF80CC018F8480F5D
:103258000196DFE810F0DF0641204D20F2065F07F7
:10326800CC075D4615F8440FDFE810F0060036205D
:103278004220A91618178717DBF83C0002F08EBE0B
:103288005D4615F8440FDFE810F005001B203320D9
:103298004315B215DBF83C0002F029BD0B46114678
:1032A8001CE09BF8D400032804BF9BF8D100032836
:1032B8007FF4ABAE0494DBE92740066809F03EFED4
:1032C800BFF35F8F2168002900F0FA840A698E42F3
:1032D80040F04883226000F0F3BC13461A690A6183
:1032E80009F037FE606C41F2F03584F868A0C2F24C
:1032F8002005002807AE1EBFC168A06C8847FFF7ED
:1033080025BC9BF8E400032804BF9BF8E0000328D1
:1033180000F06583594601F854AF049151F8140C34
:1033280041F8080CCBF850000122D0E9020101F065
:103338001F0102FA01F1C0F88810DBF850008BF881
:10334800E0A0CBF858000BF158000EA9B046FFF7E3
:10335800CFF908B1032021E19BF8E0004646032895
:103368004FD19BF86C00032842D0042849D19BF820
:10337800DC00032804BF9BF8D800032841D19BF840
:10338800D400032804BF9BF8D100032839D126466E
:10339800DBE92740056809F0D1FDBFF35F8F21689D
:1033A800002900F0FF840A698D4200F0D982002AC2
:1033B80000F0F8849542134600F0F2841169002960
:1033C80000F0F0848D4200F0E1840A69002A00F0E0
:1033D800E984954200F0E3841169002900F0E28451
:1033E8008D4200F0D3840A69002AE3D100F0DABCE8
:1033F8009BF8DC00032804BF9BF8D800032800F0E2
:103408009682DBF850000122D0E9000101F01F018B
:1034180002FA01F1C0F88410DBF850008BF8E0A044
:10342800CBF858000BF158000EA9B046FFF760F929
:1034380008B10420B2E09BF8E0004646032840F0BB
:1034480094809BF86C00032800F08680042840F0E4
:103458008C809BF8DC00032804BF9BF8D800032865
:1034680040F083809BF8D400032804BF9BF8D10068
:10347800032840F07A802646DBE92740056809F0F2
:103488005DFDBFF35F8F2168002900F0C3840A69DE
:103498008D4200F0E982002A00F0BC849542134670
:1034A80000F0B6841169002900F0B4848D4200F060
:1034B80073840A69002A00F0AD84954200F0A7845D
:1034C8001169002900F0A6848D4200F065840A691C
:1034D800002AE3D100F09EBC594611F8540F04911C
:1034E800DFE810F00800FA1E061F07000600540067
:1034F80098E728E7DBF84C0014E75D4615F8540F09
:10350800DFE810F00800DE1EF61E060005008DE557
:10351800FFF735BCDBF84C00DDF80CC0FFF71CBC2E
:103528009BF8D400032804BF9BF8D10003287FF43C
:10353800F9AD2646DBE92740056809F0FFFCBFF333
:103548005F8F2168002900F00B840A698D4240F0E2
:103558008D82226000F004BC9BF8DC00032804BFC5
:103568009BF8D800032800F06682DBF8500001229F
:10357800D0E9020101F01F0102FA01F1C0F884103C
:10358800DBF850008BF8E0A0CBF858000BF158009E
:103598000EA90196FFF7ACF830B10520DDE903C1AB
:1035A80007AE0870052052E59BF8E00040F2CB68B2
:1035B800C0F20008032852D19BF86C00032845D0BC
:1035C80004284CD19BF8DC00032804BF9BF8D800E2
:1035D800032844D19BF8D400032804BF9BF8D100EA
:1035E80003283CD12646DBE92740056809F0A6FCFC
:1035F800BFF35F8F2168002900F040840A698D427B
:1036080000F08782002A00F039849542134600F0C2
:1036180033841169002900F031848D4200F0F4836D
:103628000A69002A00F02A84954200F0248411696E
:10363800002900F023848D4200F0E6830A69002AFD
:10364800E3D100F01BBC0B461146E4E19BF8DC001B
:10365800032804BF9BF8D800032800F041825D4688
:10366800012105F848AF55F8140CA970297345F8DD
:10367800080CDBF840000122CBF84400D0E9020135
:1036880001F01F0102FA01F1C0F88810DBF84400CC
:103698008BF8D4A0CBF84C000BF14C000EA9FFF727
:1036A80027F808B103206BE09BF8D40003284FD11A
:1036B8009BF86000032842D0042849D19BF8D00029
:1036C800032804BF9BF8CC00032841D19BF8C8000D
:1036D800032804BF9BF8C500032839D12646DBE937
:1036E8002440D0F8008009F029FCBFF35F8F2168DF
:1036F800002900F0AE830A69884500F0EF81002AAE
:1037080000F0A7839045134600F0A18311690029B2
:1037180000F09F83884500F074830A69002A00F04E
:103728009883904500F092831169002900F09183F5
:10373800884500F066830A69002AE3D189E39BF88B
:10374800D000032804BF9BF8CC00032800F0AC810C
:10375800DBF844000122D0E9000101F01F0102FA60
:1037680001F1C0F88810DBF844008BF8D4A0CBF83E
:103778004C000BF14C000EA9FEF7BAFF50B1042023
:10378800287041F2F035DDF80CC00420C2F22005A3
:1037980000F03DBD9BF8D40041F2F035019EC2F225
:1037A8002005DDF80CC003284ED19BF860000328E3
:1037B80041D0042848D19BF8D000032804BF9BF8C7
:1037C800CC00032840D19BF8C800032804BF9BF80D
:1037D800C500032838D12646DBE92440056809F0EE
:1037E800ADFBBFF35F8F2168002900F059830A6998
:1037F8008D4200F0A981002A00F0528395421346B9
:1038080000F04C831169002900F04A838D4200F0D2
:1038180017830A69002A00F04383954200F03D832C
:103828001169002900F03C838D4200F009830A6980
:10383800002AE3D134E39BF8D000032804BF9BF8A7
:10384800CC00032800F067810120DBF834108BF8E6
:1038580048009BF83D00CBF84C10302161F39F00E5
:103868008BF852A08BF850000BF140000EA9CDF850
:103878000CC00196FEF728FE28B1052007AEDDF83A
:103888000CC0FFF7EBBB9BF85200DDF80CC0033807
:10389800062800F28E809BF8DC00032840F089801F
:1038A8009BF8680003287BD0042840F082809BF8AE
:1038B800D800032804BF9BF8D400032879D19BF8CB
:1038C800D000032804BF9BF8CD00032871D12646F9
:1038D800DBE92640056809F031FBBFF35F8F2168FB
:1038E800002900F0F9820A698D4200F04881002A17
:1038F80000F0F2829542134600F0EC82116900292B
:1039080000F0EA828D4200F09E820A69002A00F0E7
:10391800E382954200F0DD821169002900F0DC8223
:103928008D4200F090820A69002AE3D1D4E29BF824
:10393800D400032804BF9BF8D10003287FF461ADAD
:103948002646DBE92740056809F0F8FABFF35F8FE0
:103958002168002900F026820A698D4240F0118111
:1039680022601FE2002A00F0AB819642134600F065
:10397800A5811169002900F0A3818E4200F03D81E4
:103988000A69002A00F09C81964200F0968111692C
:10399800002900F095818E4200F02F810A69E1E745
:1039A8009BF8D800032804BF9BF8D400032800F034
:1039B800CD80DBF834108BF83EA09BF83D00097DE4
:1039C8009BF83020081ADBF82C308BF84420CBF811
:1039D8004030CBF84800002840F0958211E39BF86E
:1039E800DC00032804BF9BF8D90003287FF492ACBD
:1039F8002646DBE92940056809F0A0FABFF35F8F86
:103A08002168002900F0E7810A698D4240F0D780DB
:103A18002260E0E113461A690A6109F09AFADBF8B4
:103A280048008BF86CA000281EBFC168DBF84C006A
:103A38008847FFF715B99BF8D400032804BF9BF803
:103A4800D10003287FF491AD2646DBE927400568BD
:103A580009F074FABFF35F8F2168002900F0DA815A
:103A68000A698D4240F0CC802260D3E1002A00F040
:103A780077819542134600F071811169002900F0A1
:103A88006F818D4200F0F8800A69002A00F0688191
:103A9800954200F062811169002900F061818D4230
:103AA80000F0EA800A69E1E79BF8C800032804BF30
:103AB8009BF8C50003287FF44BAE2646DBE924407B
:103AC800D0F8008009F03AFABFF35F8F2168002927
:103AD80000F0BF810A69884540F0B0802260B8E1F3
:103AE8009BF8D400032804BF9BF8D10003287FF477
:103AF800B6AD2646DBE92740056809F01FFABFF393
:103B08005F8F2168002900F0B9810A698D4240F071
:103B1800B6802260B2E19BF8C800032804BF9BF876
:103B2800C50003287FF490AE2646DBE924400568EB
:103B380009F004FABFF35F8F2168002900F0B08113
:103B48000A698D4240F0CE802260A9E19BF8D0003E
:103B5800032804BF9BF8CD0003287FF42AAF26462C
:103B6800DBE92640056809F0E9F9BFF35F8F2168B2
:103B7800002900F0B1810A698D4240F0D1802260AD
:103B8800AAE1002A00F00E819542134600F0088150
:103B98001169002900F006818D4200F0F7800A695A
:103BA800002A00F0FF80954200F0F9801169002991
:103BB80000F0F8808D4200F0E9800A69E1E7002A08
:103BC80000F009819542134600F00381116900292C
:103BD80000F001818D4200F0DC800A69002A00F0C3
:103BE800FA80954200F0F4801169002900F0F38012
:103BF8008D4200F0CE800A69E1E70B4611465DE090
:103C0800002A00F007819542134600F001811169EE
:103C1800002900F0FF808D4200F0BE800A69002A6A
:103C280000F0F880954200F0F2801169002900F058
:103C3800F1808D4200F0B0800A69E1E7002A00F0C7
:103C480008819045134600F002811169002900F0AF
:103C58000081884500F0D5800A69002A00F0F980C3
:103C6800904500F0F3801169002900F0F280884542
:103C780000F0C7800A69E1E70B4611466EE0002AAA
:103C880000F0FC809542134600F0F6801169002987
:103C980000F0F4808D4200F0B7800A69002A00F035
:103CA800ED80954200F0E7801169002900F0E68078
:103CB8008D4200F0A9800A69E1E713461A690A6192
:103CC80009F047F9DBF8AC004646049C00288BF85D
:103CD800D0A03FF49AA9C168DBF8B00088474646EF
:103CE800FFF793B9002A00F0DB809542134600F0F5
:103CF800D5801169002900F0D3808D4200F0A080A2
:103D08000A69002A00F0CC80954200F0C68011694B
:103D1800002900F0C5808D4200F092800A69E1E731
:103D2800002A00F0D9809542134600F0D38011692B
:103D3800002900F0D1808D4200F085800A69002AB0
:103D480000F0CA80954200F0C4801169002900F093
:103D5800C3808D4277D00A69E2E713461A690A617F
:103D680009F0F7F8DBF8AC0041F2F0353446C2F25E
:103D78002005002846468BF8D0A03FF4D3A9C16897
:103D8800DBF8B00088474646FFF7CCB90B4611462A
:103D980006E00B4611461CE00B46114638E0134678
:103DA8001A690A6109F0D5F8DBF8AC0041F2F03580
:103DB8003446C2F22005002846468BF8D0A03FF4CE
:103DC80020ABC168DBF8B00088474646FFF719BB4F
:103DD80013461A690A6109F0BCF8DBF8B4003446E6
:103DE800019E41F2F0350028C2F220058BF8D8A0D8
:103DF8003FF490AAC168DBF8B8008847019EFFF736
:103E080089BA0B46114622E00B46114634E01346A8
:103E18001A690A6109F09DF8DBF8AC0041F2F03547
:103E28003446C2F22005002846468BF8D0A03FF45D
:103E38009CABC168DBF8B00088474646FFF795BBE6
:103E48000B4611462AE00B46114643E013461A6911
:103E58000A6109F07EF8DBF8A00040F2CB688BF825
:103E6800C4A0C0F20008002834461EBFC168DBF8B1
:103E7800A40088476CE413461A690A6109F069F8D6
:103E8800DBF8AC0034468BF8D0A000281EBFC16810
:103E9800DBF8B0008847FFF7E2BB13461A690A61EE
:103EA80009F057F8DBF8A0003446019E41F2F035DE
:103EB800DDF80CC00028C2F220058BF8C4A03FF43E
:103EC800C3ACC168DBF8A4008847DDF80CC0019ECC
:103ED800BAE413461A690A6109F03BF8DBF8A8004E
:103EE80041F2F035DDF80CC0C2F220050028344656
:103EF8008BF8CCA03FF45DADC168DBF8AC00884717
:103F0800DDF80CC055E5DBF840100138CBF8480067
:103F1800002976D0019E481ECBF84000DBF834001B
:103F28009BF844108BF85EA08BF85C10CBF8580017
:103F38000BF14C000EA901966646FEF7C5FAB44689
:103F480008B1062063E19BF85E000338062853D8C1
:103F58009BF8E80003284FD19BF87400032842D04F
:103F6800042849D19BF8E400032804BF9BF8E0002B
:103F7800032841D19BF8DC00032804BF9BF8D90033
:103F8800032839D10494DBE92940056808F0D6FFF5
:103F9800BFF35F8F2168002901F04A860A698D42C4
:103FA80001F0E583002A01F043869542134601F0AB
:103FB8003D861169002901F03B868D4201F0038698
:103FC8000A69002A01F03486954201F02E861169AB
:103FD800002901F02D868D4201F0F5850A69002A35
:103FE800E3D101F025BE9BF8E400032804BF9BF849
:103FF800E000032801F0A283DBF8480000287FF4E2
:1040080082AFD846CDF80CC008F848AF58F8140C61
:1040180048F8080CDBF840000122CBF84400D0E94E
:10402800020101F01F0102FA01F1C0F88810DBF863
:1040380044008BF8D4A0CBF84C000BF14C000EA92F
:10404800FEF756FB08B10320D8E09BF8D4000328FC
:104058004FD19BF86000032842D0042849D19BF82F
:10406800D000032804BF9BF8CC00032841D19BF85B
:10407800C800032804BF9BF8C500032839D1264689
:10408800DBE92440056808F059FFBFF35F8F21681A
:10409800002901F0A1850A698D4201F0C382002A36
:1040A80001F09A859542134601F09485116900291B
:1040B80001F092858D4201F080850A69002A01F09D
:1040C8008B85954201F085851169002901F0848569
:1040D8008D4201F072850A69002AE3D101F07CBDA6
:1040E8009BF8D000032804BF9BF8CC00032801F0FC
:1040F8008082DBF844000122D0E9000101F01F01B1
:1041080002FA01F1C0F88410DBF844008BF8D4A05F
:10411800CBF84C000BF14C000EA9FEF7E9FA08B1F8
:1041280004206BE09BF8D40003284FD19BF8600073
:10413800032842D0042849D19BF8D000032804BFA3
:104148009BF8CC00032841D19BF8C800032804BF82
:104158009BF8C500032839D12646DBE924400568C9
:1041680008F0ECFEBFF35F8F2168002901F04A8553
:104178000A698D4201F0C282002A01F04385954206
:10418800134601F03D851169002901F03B858D42F8
:1041980001F016850A69002A01F03485954201F07C
:1041A8002E851169002901F02D858D4201F00885C1
:1041B8000A69002AE3D101F025BD9BF8D000032845
:1041C80004BF9BF8CC00032801F07F82DBF8440091
:1041D8000122D0E9020101F01F0102FA01F1C0F841
:1041E8008410DBF844008BF8D4A0CBF84C000BF11A
:1041F8004C000EA9FEF77CFA60B10520DDF80CC072
:1042080088F8000040F2CB680720C0F2000807AE2B
:10421800FEF724BF9BF8D40040F2CB68019EC0F2A1
:104228000008DDF80CC003284FF0010504944ED1B6
:104238009BF86000032841D0042848D19BF8D0009F
:10424800032804BF9BF8CC00032840D19BF8C80082
:10425800032804BF9BF8C500032838D1DBE92440B4
:10426800056808F06BFEBFF35F8F2168002901F035
:10427800F8840A698D4201F09482002A01F0F184E1
:104288009542134601F0EB841169002901F0E98495
:104298008D4201F09B840A69002A01F0E28495426C
:1042A80001F0DC841169002901F0DB848D4201F002
:1042B8008D840A69002AE3D101F0D3BC9BF8D000B1
:1042C800032804BF9BF8CC00032801F052820BF1AD
:1042D8003E048BF8485084F800A089F8005045F255
:1042E80000098CF80050C2F2000996F8CC00049C32
:1042F800032840F0A980F07F0338042800F2A48046
:10430800DFE800F003311825120096F82A00032888
:104318003CD0042833D0052840F0948096F8340027
:104328000338032837D38DE096F82800033802288D
:104338001ED987E096F832000338062800F28280FA
:1043480006F1340595F8880003282CD07AE096F811
:104358003E000338062875D806F1400595F8880010
:10436800032820D06EE096F828000338012869D881
:1043780006F12C0595F88800032814D062E096F819
:104388003E00033807285DD2202005E096F8340067
:104398000338022856D2182006F120010D1895F886
:1043A800880003284ED1287D032842D0042849D10B
:1043B80095F88400032804BF95F88000032841D1AC
:1043C80095F87C00032804BF95F87900032839D1B3
:1043D800D5E91140D0F8008008F0B0FDBFF35F8F39
:1043E8002168002901F04D830A69884500F050874B
:1043F800002A01F046839045134601F04083116975
:10440800002901F03E83884501F09E820A69002A4E
:1044180001F03783904501F031831169002901F0DB
:104428003083884501F090820A69002AE3D101F0BF
:1044380028BB95F88400032804BF95F8800003285A
:1044480000F00D8786F81EA0DBF818005E46417D57
:1044580006F82AAF06F8021C46F8060C5D4605F871
:1044680034AF15F80C1C45F8140C45F8080C05F881
:104478000B1CCBF830000122D0E9020101F01F012A
:1044880002FA01F1C0F88810DBF830008BF8C0A000
:10449800CBF838000BF138000EA9FEF729F908B15E
:1044A80003206CE09BF8C000032850D19BF84C0017
:1044B800032843D004284AD19BF8BC00032804BF32
:1044C8009BF8B800032842D19BF8B400032804BF26
:1044D8009BF8B10003283AD10494DBE91F40D0F8D7
:1044E800008008F02BFDBFF35F8F2168002901F0E1
:1044F800E1810A69884500F01C81002A01F0DA810F
:104508009045134601F0D4811169002901F0D28148
:10451800884501F0A2810A69002A01F0CB81904503
:1045280001F0C5811169002901F0C481884501F0B5
:1045380094810A69002AE3D101F0BCB99BF8BC0058
:10454800032804BF9BF8B800032800F0D880DBF8E4
:1045580030000122D0E9000101F01F0102FA01F147
:10456800C0F88810DBF830008BF8C0A0CBF8380012
:104578000BF138000EA9FEF7BBF818B1042028701B
:104588000320DFE19BF8C00041F2F035C2F22005BC
:1045980003284FD19BF84C00032842D0042849D166
:1045A8009BF8BC00032804BF9BF8B800032841D13E
:1045B8009BF8B400032804BF9BF8B100032839D145
:1045C8000494DBE91F40056808F0B8FCBFF35F8F6F
:1045D8002168002901F013820A698D4200F02482C3
:1045E800002A01F00C829542134601F006821169F7
:1045F800002901F004828D4201F056810A69002ADF
:1046080001F0FD81954201F0F7811169002901F05F
:10461800F6818D4201F048810A69002AE3D101F050
:10462800EEB99BF8BC00032804BF9BF8B800032828
:1046380000F0E18101209BF829108BF83400DBF8A9
:1046480020008BF83EA08BF83C10CBF838000BF11B
:104658002C000EA9FDF738FF08B1042076E19BF87D
:104668003E000338062870D89BF8C80003286CD190
:104678009BF8540003285FD0042866D19BF8C40037
:10468800032804BF9BF8C00003285ED19BF8BC0038
:10469800032804BF9BF8B900032856D10494DBE92A
:1046A8002140056808F04AFCBFF35F8F21680029A4
:1046B80001F03A820A698D4200F05586002A01F01D
:1046C80033829542134601F02D821169002901F0C9
:1046D8002B828D4201F0CF810A69002A01F02482E1
:1046E800954201F01E821169002901F01D828D4258
:1046F80001F0C1810A69002AE3D101F015BA9BF8DB
:10470800B400032804BF9BF8B10003287FF41FAF4F
:104718000494DBE91F40D0F8008008F00FFCBFF3D9
:104728005F8F2168002901F0C5800A69884540F03B
:104738003886226001F0BEB89BF8C400032804BF85
:104748009BF8C000032800F0F5855D4605F834AFF6
:1047580055F8140C45F8080CCBF830000122D0E9C4
:10476800020101F01F0102FA01F1C0F88810DBF81C
:1047780030008BF8C0A0CBF838000BF138000EA938
:10478800FDF7B6FF08B10320DAE09BF8C000032864
:1047980050D19BF84C00032843D004284AD19BF8F9
:1047A800BC00032804BF9BF8B800032842D19BF83B
:1047B800B400032804BF9BF8B10003283AD104943D
:1047C800DBE91F40D0F8008008F0B8FBBFF35F8F2B
:1047D8002168002901F08C810A69884500F0A885C4
:1047E800002A01F085819045134601F07F81116907
:1047F800002901F07D81884501F027810A69002A96
:1048080001F07681904501F070811169002901F06D
:104818006F81884501F019810A69002AE3D101F006
:1048280067B99BF8BC00032804BF9BF8B8000328AD
:1048380000F06485DBF830000122D0E9000101F0C6
:104848001F0102FA01F1C0F88410DBF830008BF880
:10485800C0A0CBF838000BF138000EA9FDF748FFCF
:1048680008B104206CE09BF8C000032850D19BF8E5
:104878004C00032843D004284AD19BF8BC000328E5
:1048880004BF9BF8B800032842D19BF8B400032862
:1048980004BF9BF8B10003283AD10494DBE91F4018
:1048A800D0F8008008F04AFBBFF35F8F2168002929
:1048B80001F04C810A69884500F07185002A01F0F1
:1048C80045819045134601F03F811169002901F0A7
:1048D8003D81884501F006810A69002A01F0368188
:1048E800904501F030811169002901F02F81884538
:1048F80001F0F8800A69002AE3D101F027B99BF892
:10490800BC00032804BF9BF8B800032800F02D85DD
:10491800DBF830000122D0E9020101F01F0102FAA0
:1049280001F1C0F88410DBF830008BF8C0A0CBF898
:1049380038000BF138000EA9FDF7DAFE68B1052042
:104948002870052041F2F035C2F22005307007AE1C
:1049580004202070042102F052BA9BF8C00041F2F2
:10496800F035C2F2200503286AD19BF84C000328D1
:104978005DD0042864D19BF8BC00032804BF9BF8D1
:10498800B80003285CD19BF8B400032804BF9BF847
:10499800B100032854D1DBE91F40056808F0CEFABE
:1049A800BFF35F8F2168002901F0F5800A698D4205
:1049B80000F06685002A01F0EE809542134601F06A
:1049C800E8801169002901F0E6808D4201F0A68097
:1049D8000A69002A01F0DF80954201F0D980116947
:1049E800002901F0D8808D4201F098800A69002AD8
:1049F800E3D101F0D0B89BF8B400032804BF9BF8BA
:104A0800B10003287FF416AE0494DBE91F40056863
:104A180008F094FABFF35F8F2168002900F0EF8750
:104A28000A698D4240F04F85226000F0E8BF9BF88C
:104A3800BC00032804BF9BF8B800032800F00885D1
:104A4800012013A98BF82A005C228BF834008BF81C
:104A58001C000A20CBF814000BF1180009F069FCBF
:104A68008BF874A00BF114060EA93046FDF720FC54
:104A780010B1052102F0C2B99BF87400032808D1CF
:104A88009BF87000032804BF9BF86D00032800F012
:104A98000A818F20DBF80410ABF8C4000BF1C508BD
:104AA800CBF8C01048758BF81EA08BF81C00CBF80B
:104AB8001810B07ADFE810F00600F8131C141C0078
:104AC80019010F007068354605F814AF317A306067
:104AD800F060717217E0354615F8140FDFE810F032
:104AE8000600FC1308149501FF016902F0687EE1D5
:104AF800354615F8140FDFE810F00500E313FB1333
:104B080014007E00F06830610122D0E9020101F052
:104B18001F0102FA01F1C0F88810306986F8A0A0D8
:104B2800B06106F118000EA9FDF7E2FD08B10320F7
:104B380068E096F8A00003284FD196F82C000328C7
:104B480042D0042849D196F89C00032804BF96F85F
:104B58009800032841D196F89400032804BF96F8DA
:104B68009100032839D1D6E91740D0F8009008F011
:104B7800E5F9BFF35F8F2168002900F0D5860A693F
:104B8800894500F00983002A00F0CE869145134636
:104B980000F0C8861169002900F0C686894500F032
:104BA8005F860A69002A00F0BF86914500F0B98641
:104BB8001169002900F0B886894500F051860A6914
:104BC800002AE3D100F0B0BE96F89C00032804BF89
:104BD80096F89800032800F0C68230690122D0E9CF
:104BE800000101F01F0102FA01F1C0F888103069D4
:104BF80086F8A0A0B06106F118000EA9FDF778FDAF
:104C080018B1042028700320DCE196F8A00041F2D6
:104C1800F035C2F2200503285FD196F82C0003284E
:104C280052D0042859D196F89C00032804BF96F85E
:104C38009800032851D196F89400032804BF96F8E9
:104C48009100032849D1D6E91740056808F076F99C
:104C5800BFF35F8F2168002900F0E7860A698D425B
:104C680000F0DF82002A00F0E0869542134600F04B
:104C7800DA861169002900F0D8868D4200F02D8669
:104C88000A69002A00F0D186954200F0CB861169A6
:104C9800002900F0CA868D4200F01F860A69002AA2
:104CA800E3D100F0C2BEDBE90E40056808F046F922
:104CB800BFF35F8F2168002900F0B9840A698D422B
:104CC80069D1226000F0B3BC96F89C00032804BFA9
:104CD80096F89800032800F08C820120717A3075CC
:104CE800306886F81EA03177B06106F10C000EA975
:104CF800FDF7EAFB08B1042068E1B07F0338062815
:104D080070D896F8A80003286CD196F834000328C8
:104D18005FD0042866D196F8A400032804BF96F84B
:104D2800A00003285ED196F89C00032804BF96F8DB
:104D38009900032856D1D6E91940056808F0FEF80D
:104D4800BFF35F8F2168002900F0B0860A698D42A1
:104D580000F0B882002A00F0A9869542134600F0B8
:104D6800A3861169002900F0A1868D4200F0EF8525
:104D78000A69002A00F09A86954200F09486116923
:104D8800002900F093868D4200F0E1850A69002A27
:104D9800E3D100F08BBE002A00F049849542134607
:104DA80000F043841169002900F041848D4200F02D
:104DB80069830A69002A00F03A84954200F0348435
:104DC8001169002900F033848D4200F05B830A6981
:104DD800E1E796F8A400032804BF96F8A00003288A
:104DE80000F0588235463068F06005F814AF30613D
:104DF8000122D0E9020101F01F0102FA01F1C0F815
:104E08008810306986F8A0A0B06106F118000EA9D4
:104E1800FDF76EFC08B10320D2E096F8A000032845
:104E28004FD196F82C00032842D0042849D196F88F
:104E38009C00032804BF96F89800032841D196F8EF
:104E48009400032804BF96F89100032839D1D6E9C5
:104E58001740D0F8009008F071F8BFF35F8F216811
:104E6800002900F0B9850A69894500F0C081002A47
:104E780000F0B2859145134600F0AC851169002910
:104E880000F0AA85894500F00C850A69002A00F01F
:104E9800A385914500F09D851169002900F09C8546
:104EA800894500F0FE840A69002AE3D100F094BD28
:104EB80096F89C00032804BF96F89800032800F091
:104EC8007D8130690122D0E9000101F01F0102FA59
:104ED80001F1C0F88410306986F8A0A0B06106F12D
:104EE80018000EA9FDF704FC08B1042068E096F844
:104EF800A00003284FD196F82C00032842D004289C
:104F080049D196F89C00032804BF96F89800032816
:104F180041D196F89400032804BF96F8910003281D
:104F280039D1D6E91740D0F8009008F007F8BFF358
:104F38005F8F2168002900F08E850A69894500F095
:104F48008C81002A00F087859145134600F0818501
:104F58001169002900F07F85894500F0DF840A691E
:104F6800002A00F07885914500F0728511690029C2
:104F780000F07185894500F0D1840A69002AE3D1DF
:104F880000F069BD96F89C00032804BF96F89800C5
:104F9800032800F0498130690122D0E9020101F0BB
:104FA8001F0102FA01F1C0F88410306986F8A0A048
:104FB800B06106F118000EA9FDF79AFB88B105202B
:104FC8002870052041F2F035C2F22005B0720320A6
:104FD80088F8000040F2CB680621C0F2000801F012
:104FE8000DBF96F8A000012403284ED196F82C0096
:104FF800032841D0042848D196F89C00032804BF10
:1050080096F89800032840D196F89400032804BF26
:1050180096F89100032838D1D6E91740056807F0BB
:105028008DFFBFF35F8F2168002900F04E850A6964
:105038008D4200F06181002A00F0478595421346B1
:1050480000F041851169002900F03F858D4200F08C
:10505800BD840A69002A00F03885954200F032853F
:105068001169002900F031858D4200F0AF840A698A
:10507800002AE3D100F029BD96F89C00032804BF5C
:1050880096F89800032800F01F81B47234759BF8D5
:105098001E00032816D0042808D0052840F0878071
:1050A8009BF828000338032811D380E09BF83200CE
:1050B800033807287BD22020351895F88800032864
:1050C8000BD074E09BF82800033802286FD2182010
:1050D800351895F88800032869D1287D03285DD004
:1050E800042864D195F88400032804BF95F880004B
:1050F80003285CD195F87C00032804BF95F8790053
:10510800032854D1D5E91160D0F8008007F016FFC4
:10511800BFF35F8F3168002900F02E850A69884542
:1051280000F07681002A00F027859045134600F0AC
:1051380021851169002900F01F85884500F0EB845E
:105148000A69002A00F01885904500F01285116957
:10515800002900F01185884500F0DD840A69002ADD
:10516800E3D100F009BD96F89400032804BF96F82F
:10517800910003287FF431ADD6E91740D0F80090AC
:1051880007F0DCFEBFF35F8F2168002900F0CC83B5
:105198000A69894540F03E812260C5E395F884009C
:1051A800032804BF95F88000032800F01881002028
:1051B8008BF8C540CBF8080001F0ACBE96F8940017
:1051C800032804BF96F8910003287FF47AAED6E945
:1051D8001740D0F8009007F0B1FEBFF35F8F216849
:1051E800002900F0F9830A69894540F04E81226060
:1051F800F2E396F89400032804BF96F89100032878
:105208007FF46BADD6E91740056807F097FEBFF34A
:105218005F8F2168002900F008840A698D4240F0F8
:105228007081226000F001BC96F89400032804BF46
:1052380096F8910003287FF4AEAED6E91740D0F86F
:10524800009007F07BFEBFF35F8F2168002900F014
:1052580002840A69894540F072812260FBE395F86F
:105268007C00032804BF95F8790003287FF4EAA896
:10527800D5E91140D0F8008007F060FEBFF35F8FDA
:105288002168002900F0FD830A69884540F075818E
:105298002260F6E396F89C00032804BF96F899006C
:1052A80003287FF49FADD6E91940056807F046FE4C
:1052B800BFF35F8F2168002900F0F8830A698D42E7
:1052C80040F079812260F1E396F89400032804BF46
:1052D80096F8910003287FF4D8AED6E91740056800
:1052E80007F02CFEBFF35F8F2168002900F0ED83E3
:1052F8000A698D4240F0AD812260E6E39BF8B40074
:10530800032804BF9BF8B10003287FF493AA0494F0
:10531800DBE91F40D0F8008007F010FEBFF35F8F75
:105328002168002900F0E4830A69884540F0AF81CC
:105338002260DDE39BF8BC00032804BF9BF8B9009A
:1053480003287FF402AA0494DBE92140056807F0EA
:10535800F5FDBFF35F8F2168002900F0E5830A6936
:105368008D4240F0CD812260DEE39BF8B400032833
:1053780004BF9BF8B10003287FF4CAAA0494DBE9B0
:105388001F40D0F8008007F0D9FDBFF35F8F216878
:10539800002900F0DB830A69884540F00482226016
:1053A800D4E3002A00F086829045134600F08082FC
:1053B8001169002900F07E82884500F04E820A6952
:1053C800002A00F07782904500F071821169002967
:1053D80000F07082884500F040820A69E1E795F89C
:1053E8007C00032804BF95F8790003287FF4DFAE1A
:1053F800D5E91160D0F8008007F0A0FDBFF35F8FFA
:105408003168002900F0B8830A69884540F0E981CD
:105418003260B1E3002A00F087829145134600F01C
:1054280081821169002900F07F82894500F0188285
:105438000A69002A00F07882914500F072821169A9
:10544800002900F07182894500F00A820A69E1E7C3
:105458009BF8B400032804BF9BF8B10003287FF42D
:10546800EFAADBE91F40056807F068FDBFF35F8F0F
:105478002168002900F08F830A698D4240F0CF81AE
:10548800226088E30B461146CFE0002A00F0A48290
:105498009145134600F09E821169002900F09C8214
:1054A800894500F0FE810A69002A00F0958291453D
:1054B80000F08F821169002900F08E82894500F082
:1054C800F0810A69E1E7002A00F0998295421346C3
:1054D80000F093821169002900F091828D4200F05A
:1054E800E3810A69002A00F08A82954200F08482EA
:1054F8001169002900F083828D4200F0D5810A6984
:10550800E1E7002A00F091829542134600F08B8271
:105518001169002900F089828D4200F0DE810A6954
:10552800002A00F08282954200F07C8211690029ED
:1055380000F07B828D4200F0D0810A69E1E7002A01
:1055480000F089829145134600F083821169002991
:1055580000F08182894500F0E1810A69002A00F0A3
:105568007A82914500F074821169002900F07382F3
:10557800894500F0D3810A69E1E7002A00F08182B9
:105588009045134600F07B821169002900F079826A
:10559800884500F0D9810A69002A00F07282904596
:1055A80000F06C821169002900F06B82884500F0D8
:1055B800CB810A69E1E7002A00F078829542134618
:1055C80000F072821169002900F070828D4200F0AB
:1055D800BE810A69002A00F06982954200F0638260
:1055E8001169002900F062828D4200F0B0810A69D9
:1055F800E1E79BF8C800032804BF9BF8C50003280F
:105608007EF477AD2646DBE92440056807F096FC72
:10561800BFF35F8F2168002900F0DE820A698D429E
:1056280040F021812260D7E213461A690A6107F027
:1056380090FCDBF8480041F2F0358BF86CA0C2F220
:10564800200500281EBFC168DBF84C008847FFF71B
:1056580020BA002A00F039829542134600F03382BE
:105668001169002900F031828D4200F0AF810A698A
:10567800002A00F02A82954200F02482116900294C
:1056880000F023828D4200F0A1810A69E1E7002A37
:1056980000F02E829045134600F0288211690029F7
:1056A80000F02682884500F0D0810A69002A00F0BF
:1056B8001F82904500F019821169002900F01882B4
:1056C800884500F0C2810A69E1E79BF8C800032811
:1056D80004BF9BF8C50003287EF478AD2646DBE9B5
:1056E8002440056807F02AFCBFF35F8F2168002972
:1056F80000F088820A698D4240F0F280226081E2DF
:10570800002A00F011829542134600F00B821169BD
:10571800002900F009828D4200F0AD810A69002A53
:1057280000F00282954200F0FC811169002900F026
:10573800FB818D4200F09F810A69E1E79BF8DC005C
:10574800032804BF9BF8D90003287EF455AC0494C1
:10575800DBE92940056807F0F1FBBFF35F8F21689B
:10576800002900F065820A698D4240F0F3802260CA
:105778005EE29BF8C800032804BF9BF8C500032815
:105788007EF4A5ADDBE92440056807F0D7FBBFF33D
:105798005F8F2168002900F064820A698D4240F019
:1057A800F78022605DE2002A00F0D0819045134620
:1057B80000F0CA811169002900F0C881884500F00D
:1057C80091810A69002A00F0C181904500F0BB81EF
:1057D8001169002900F0BA81884500F083810A69BF
:1057E800E1E7002A00F0C8819045134600F0C28125
:1057F8001169002900F0C081884500F08C810A6990
:10580800002A00F0B981904500F0B38111690029A0
:1058180000F0B281884500F07E810A69E1E7002A3C
:1058280000F0B9819542134600F0B381116900294F
:1058380000F0B1818D4200F071810A69002A00F000
:10584800AA81954200F0A4811169002900F0A38182
:105858008D4200F063810A69E1E70B46114627E0B3
:105868000B4611465EE0002A00F0B68195421346C9
:1058780000F0B0811169002900F0AE818D4200F07E
:105888009C810A69002A00F0A781954200F0A18155
:105898001169002900F0A0818D4200F08E810A690B
:1058A800E1E70B46114695E00B461146A5E0134685
:1058B8001A690A6107F04DFBDBF88C0040F2CB68EF
:1058C8008BF8B0A0C0F200080028049C1EBFC16875
:1058D800DBF890008847FEF73ABE0B461146A2E077
:1058E800002A00F08F819542134600F089811169E2
:1058F800002900F087818D4200F062810A69002A40
:1059080000F08081954200F07A811169002900F049
:1059180079818D4200F054810A69E1E70B4611460E
:1059280097E013461A690A6107F013FBF06E45F217
:10593800000986F890A0C2F2000900281EBFC168BD
:10594800306F8847FFF749B90B46114697E00B4679
:105958001146A9E0002A00F06B819542134600F039
:1059680065811169002900F063818D4200F02B8167
:105978000A69002A00F05C81954200F0568111699D
:10598800002900F055818D4200F01D810A69E1E788
:10599800002A00F066819542134600F06081116983
:1059A800002900F05E818D4200F010810A69002A0A
:1059B80000F05781954200F051811169002900F0EB
:1059C80050818D4200F002810A69E1E70B461146D9
:1059D80079E013461A690A6107F0BBFAF06E45F2DE
:1059E800000986F890A0C2F2000900281EBFC1680D
:1059F800306F8847FFF765BA13461A690A6107F0DE
:105A0800A8FADBF88C0041F2F0358BF8B0A0C2F2AE
:105A180020050028049C1EBFC168DBF89000884759
:105A2800FEF708BE13461A690A6107F092FAF06E8B
:105A380041F2F03586F890A0C2F2200500281EBF7A
:105A4800C168306F8847FFF748B90B4611464DE0EB
:105A580013461A690A6107F07CFAF06E45F20009EC
:105A680086F890A0C2F2000900281EBFC168306FF6
:105A78008847FFF790BA0B46114653E013461A6958
:105A88000A6107F066FA686D40F2CB68049CC0F2C0
:105A98000008002885F878A03EF4D4ACC168A86D49
:105AA8008847FEF7CFBC13461A690A6107F051FA16
:105AB800706F86F898A000281EBFC168B06F88472D
:105AC800FFF790B913461A690A6107F042FAF06EB7
:105AD800012486F890A000281EBFC168306F88474F
:105AE800FFF7D3BA0B4611462EE013461A690A612E
:105AF80007F02FFADBF88C0040F2CB688BF8B0A0E7
:105B0800C0F200080028049C1EBFC168DBF89000A2
:105B18008847FEF78FBE0B4611462BE00B46114611
:105B280037E013461A690A6107F013FADBF89400A4
:105B38008BF8B8A00028049C1EBFC168DBF8980049
:105B48008847FEF702BE13461A690A6107F001FA90
:105B5800DBF88C0040F2CB688BF8B0A0C0F20008EC
:105B68000028049C1EBFC168DBF890008847FEF738
:105B7800CFBE13461A690A6107F0EBF9686D85F81C
:105B880078A000281EBFC168A86D8847FFF70FBB23
:105B980013461A690A6107F0DCF9DBF88C0041F258
:105BA800F0358BF8B0A0C2F2200500281EBFC168EE
:105BB800DBF890008847FEF743BF0B46114609E023
:105BC8000B4611461CE00B4611462FE00B461146CA
:105BD80045E013461A690A6107F0BBF9DBF8A00033
:105BE80041F2F0358BF8C4A0C2F2200500283446F3
:105BF8001EBFC168DBF8A4008847FEF77ABA1346CF
:105C08001A690A6107F0A5F9DBF8A00041F2F0353E
:105C18008BF8C4A0C2F22005002834461EBFC16814
:105C2800DBF8A4008847FEF7D1BA13461A690A615F
:105C380007F08FF9DBF8B40041F2F035049CC2F2AA
:105C480020050028B4468BF8D8A03EF4D5A9C16831
:105C5800DBF8B8008847B446FEF7CEB913461A6990
:105C68000A6107F076F9DBF8A0000125019EDDF84E
:105C78000CC000288BF8C4A03EF429ABC168DBF83F
:105C8800A4008847DDF80CC0019EFEF720BB5E46E5
:105C98000B4406F82FAF06F8032C46F8070C46F815
:105CA800131C46F80F3CB446264601248BF82D20D9
:105CB8008BF82E40CBF82400CBE90513017D8A42EE
:105CC80081F0FD80D846402108F83AAF3446664650
:105CD80008F8021C48F8060C5D4605F844AF15F8AC
:105CE8000C1C45F8140C45F8080C05F80B1CCBF8EF
:105CF80040000122D0E9020101F01F0102FA01F17E
:105D0800C0F88810DBF840008BF8D0A0CBF848002A
:105D18000BF148000EA9FCF7EBFC08B103206DE07D
:105D28009BF8D000032851D19BF85C00032844D08D
:105D380004284BD19BF8CC00032804BF9BF8C8006B
:105D4800032843D19BF8C400032804BF9BF8C10073
:105D580003283BD1DBE923100491D0F8009007F029
:105D6800EDF8049BBFF35F8F1968002900F05D868A
:105D78000A69894500F06A84002A00F05686914530
:105D8800944600F04F861169002900F04E86894537
:105D980000F0DD850A69002A00F04786914500F089
:105DA80040861169002900F04086894500F0CF85BA
:105DB8000A69002AE3D100F038BE9BF8CC0003281A
:105DC80004BF9BF8C800032800F02584DBF84000D6
:105DD8000122D0E9000101F01F0102FA01F1C0F827
:105DE8008810DBF840008BF8D0A0CBF848000BF106
:105DF80048000EA9FCF77CFC18B104202870032089
:105E0800C4E19BF8D00041F2F035C2F22005032826
:105E18004FD19BF85C00032842D0042849D19BF855
:105E2800CC00032804BF9BF8C800032841D19BF885
:105E3800C400032804BF9BF8C100032839D1DBE95B
:105E48002350D0F8009007F079F8BFF35F8F2968E6
:105E5800002900F08E850A69894500F08583002AAB
:105E680000F087859145134600F081851169002966
:105E780000F07F85894500F05E850A69002A00F0F8
:105E88007885914500F072851169002900F07185C7
:105E9800894500F050850A69002AE3D100F069BD00
:105EA8009BF8CC00032804BF9BF8C800032800F027
:105EB800428301209BF839108BF84400DBF830004E
:105EC8008BF84EA08BF84C10CBF848000BF13C0037
:105ED8000EA9FCF7F9FA08B104205BE19BF84E0023
:105EE8000338062853D89BF8D80003284FD19BF8CD
:105EF8006400032842D0042849D19BF8D400032821
:105F080004BF9BF8D000032841D19BF8CC0003289C
:105F180004BF9BF8C900032839D1DBE92550D0F824
:105F2800009007F00BF8BFF35F8F2968002900F095
:105F3800BF850A69894500F0DC83002A00F0B8852E
:105F48009145134600F0B2851169002900F0B0852B
:105F5800894500F005850A69002A00F0A985914560
:105F680000F0A3851169002900F0A285894500F099
:105F7800F7840A69002AE3D100F09ABD9BF8D4009F
:105F8800032804BF9BF8D000032800F099835D46DE
:105F980005F844AF55F8140C45F8080CCBF8400048
:105FA8000122D0E9020101F01F0102FA01F1C0F853
:105FB8008810DBF840008BF8D0A0CBF848000BF134
:105FC80048000EA9FCF794FB08B10320DCE09BF81D
:105FD800D000032851D19BF85C00032844D0042842
:105FE8004BD19BF8CC00032804BF9BF8C8000328BA
:105FF80043D19BF8C400032804BF9BF8C1000328C1
:106008003BD1DBE923100491D0F8009006F096FF0D
:10601800049BBFF35F8F1968002900F01C850A698B
:10602800894500F03083002A00F015859145944693
:1060380000F00E851169002900F00D85894500F0F2
:1060480089840A69002A00F00685914500F0FF84DA
:106058001169002900F0FF84894500F07B840A69F2
:10606800002AE3D100F0F7BC9BF8CC00032804BF5A
:106078009BF8C800032800F0EB82DBF840000122FF
:10608800D0E9000101F01F0102FA01F1C0F8841003
:10609800DBF840008BF8D0A0CBF848000BF14800A3
:1060A8000EA9FCF725FB08B104206DE09BF8D00091
:1060B800032851D19BF85C00032844D004284BD115
:1060C8009BF8CC00032804BF9BF8C800032843D1E1
:1060D8009BF8C400032804BF9BF8C10003283BD1E8
:1060E800DBE923100491D0F8009006F027FF049B09
:1060F800BFF35F8F1968002900F069840A69894530
:1061080000F06A82002A00F062849145944600F00B
:106118005B841169002900F05A84894500F01184D4
:106128000A69002A00F05384914500F04C841169F3
:10613800002900F04C84894500F003840A69002A8C
:10614800E3D100F044BC9BF8CC00032804BF9BF8C3
:10615800C800032800F02582DBF840000122D0E9BE
:10616800020101F01F0102FA01F1C0F88410DBF806
:1061780040008BF8D0A0CBF848000BF148000EA9DE
:10618800FCF7B6FA78B105202870052041F2F03501
:10619800C2F2200588F8000040F2CB680320C0F264
:1061A800000800F027BE9BF8D00040F2CB68C0F290
:1061B800000803284ED19BF85C00032841D004282E
:1061C80048D19BF8CC00032804BF9BF8C8000328DB
:1061D80040D19BF8C400032804BF9BF8C1000328E2
:1061E80038D1DBE92350D0F8008006F0A7FEBFF3D2
:1061F8005F8F2968002900F0D5830A69884500F077
:10620800CE81002A00F0CE839045134600F0C88363
:106218001169002900F0C683884500F08F830A6958
:10622800002A00F0BF83904500F0B9831169002966
:1062380000F0B883884500F081830A69002AE3D119
:10624800B0E39BF8CC00032804BF9BF8C8000328E0
:1062580000F08C815D46012105F838AF55F8140C23
:10626800A970297345F8080CDBF830000122CBF837
:106278003400D0E9020101F01F0102FA01F1C0F86F
:106288008810DBF834008BF8C4A0CBF83C000BF185
:106298003C000EA9FCF72CFA08B103206BE09BF830
:1062A800C40003284FD19BF85000032842D004288B
:1062B80049D19BF8C000032804BF9BF8BC00032801
:1062C80041D19BF8B800032804BF9BF8B500032808
:1062D80039D1DBE92090D0F8008006F02FFEBFF31B
:1062E8005F8FD9F80010002900F086830A69884575
:1062F80000F08E81002A00F07F839045134600F05D
:1063080079831169002900F07783884500F01C83A0
:106318000A69002A00F07083904500F06A831169C9
:10632800002900F06983884500F00E830A69002A75
:10633800E3D161E39BF8C000032804BF9BF8BC00CD
:10634800032800F04B81DBF834000122D0E900017A
:1063580001F01F0102FA01F1C0F88810DBF83400DF
:106368008BF8C4A0CBF83C000BF13C000EA9FCF75D
:10637800BFF920B104202870042000F037BD9BF835
:10638800C40041F2F035C2F2200503284ED19BF833
:106398005000032841D0042848D19BF8C0000328A6
:1063A80004BF9BF8BC00032840D19BF8B800032821
:1063B80004BF9BF8B500032838D1DBE92050D0F89A
:1063C800008006F0BBFDBFF35F8F2968002900F04D
:1063D80057830A69884500F07181002A00F05083CC
:1063E8009045134600F04A831169002900F048835C
:1063F800884500F0B2820A69002A00F0418390457E
:1064080000F03B831169002900F03A83884500F0C9
:10641800A4820A69002AE3D132E39BF8C00003286A
:1064280004BF9BF8BC00032800F02F810120DBF893
:1064380024108BF838009BF82D00CBF83C10302145
:1064480061F39F008BF842A08BF840000BF13000FD
:106458000EA9FCF739F810B1052000F0CBBC9BF869
:1064680042000338062852D89BF8CC0003284ED1A6
:106478009BF85800032841D0042848D19BF8C8004D
:10648800032804BF9BF8C400032840D19BF8C00030
:10649800032804BF9BF8BD00032838D1DBE922504C
:1064A800D0F8008006F04AFDBFF35F8F2968002905
:1064B80000F013830A69884500F03681002A00F04D
:1064C8000C839045134600F006831169002900F0FB
:1064D8000483884500F047820A69002A00F0FD829B
:1064E800904500F0F7821169002900F0F68288458E
:1064F80000F039820A69002AE3D1EEE29BF8C8006D
:10650800032804BF9BF8C400032800F0F480DBF8DC
:1065180024008BF82EA09BF82D30007DDBE90512B6
:10652800C01ACBE90C12CBF838000BF1380500285B
:1065380040F0E48260E39BF8C400032804BF9BF8A2
:10654800C10003287FF4B5ACDBE92350D0F80090F4
:1065580006F0F4FCBFF35F8F2968002900F0098278
:106568000A69894540F0E2802A6002E29BF8C4008B
:10657800032804BF9BF8C10003287FF46BAEDBE956
:106588002350D0F8008006F0D9FCBFF35F8F29684C
:10659800002900F007820A69884540F0E5802A60F2
:1065A80000E29BF8C400032804BF9BF8C10003283D
:1065B8007FF4D2ADDBE923100491D0F8009006F007
:1065C800BDFC049BBFF35F8F1968002900F0FF81B1
:1065D8000A69894540F0E6801A60F8E19BF8B8003E
:1065E800032804BF9BF8B50003287FF4ACAEDBE9B1
:1065F8002090D0F8008006F0A1FCBFF35F8FD9F897
:106608000010002900F0F8810A69884540F0E88008
:10661800C9F80020F0E19BF8C400032804BF9BF8E8
:10662800C10003287FF4D2ABDBE923100491D0F832
:10663800009006F083FC049BBFF35F8F1968002964
:1066480000F0F3810A69894540F0E8801A60ECE1BE
:106658009BF8C400032804BF9BF8C10003287FF4FB
:106668000CADDBE923100491D0F8009006F066FC2D
:10667800049BBFF35F8F1968002900F0EC810A6959
:10668800894540F0E8801A60E5E19BF8B8000328E6
:1066980004BF9BF8B50003287FF4C8AEDBE920509F
:1066A800D0F8008006F04AFCBFF35F8F2968002904
:1066B80000F0E6810A69884540F0E9802A60DFE158
:1066C8009BF8CC00032804BF9BF8C90003287FF47B
:1066D8005EACDBE92550D0F8009006F02FFCBFF344
:1066E8005F8F2968002900F0E3810A69894540F035
:1066F800EA802A60DCE19BF8C000032804BF9BF80D
:10670800BD0003287FF403AFDBE92250D0F80080F6
:1067180006F014FCBFF35F8F2968002900F0DD81C3
:106728000A69884540F0EB802A60D6E1002A00F02B
:1067380020819145134600F01A811169002900F063
:106748001881894500F0F7800A69002A00F0118154
:10675800914500F00B811169002900F00A818945F3
:1067680000F0E9800A69E1E7002A00F01B81904502
:10677800134600F015811169002900F0138188453E
:1067880000F0DC800A69002A00F00C81904500F0D6
:1067980006811169002900F00581884500F0CE8046
:1067A8000A69E1E7002A00F012819145944600F059
:1067B8000B811169002900F00A81894500F0C18028
:1067C8000A69002A00F00381914500F0FC801169F4
:1067D800002900F0FC80894500F0B3800A69E1E7F0
:1067E800002A00F009819045134600F003811169E1
:1067F800002900F00181884500F0A6800A69002A76
:1068080000F0FA80904500F0F4801169002900F04A
:10681800F380884500F098800A69E1E7002A00F0D3
:1068280004819145944600F0FD801169002900F02B
:10683800FC80894500F08B800A69002A00F0F58009
:10684800914500F0EE801169002900F0EE8089453D
:106858007DD00A69E2E7002A00F0FD809145944660
:1068680000F0F6801169002900F0F580894571D0A3
:106878000A69002A00F0EF80914500F0E88011696C
:10688800002900F0E880894564D00A69E3E7002A16
:1068980000F0F6809045134600F0F0801169002959
:1068A80000F0EE80884558D00A69002A00F0E88098
:1068B800904500F0E2801169002900F0E1808845E8
:1068C8004BD00A69E3E7002A00F0F28091451346AD
:1068D80000F0EC801169002900F0EA8089453FD07A
:1068E8000A69002A00F0E480914500F0DE80116911
:1068F800002900F0DD80894532D00A69E3E7002AE3
:1069080000F0EB809045134600F0E58011690029FE
:1069180000F0E380884526D00A69002A00F0DD806F
:10692800904500F0D7801169002900F0D68088458D
:1069380019D00A69E3E70B46114618E00B461146E1
:106948002EE08C4611463FE00B46114652E08C463D
:10695800114667E08C4611467AE00B4611468DE0F9
:106968000B461146A2E00B461146B4E013461A69DD
:106978000A6106F0EEFADBF89C0045F2000941F2E4
:10698800F0358BF8C0A00028C2F20009C2F2200539
:106998001EBFC168DBF8A0008847FFF78ABA134614
:1069A8001A690A6106F0D5FADBF89C0040F2CB6858
:1069B8008BF8C0A0C0F2000800281EBFC168DBF831
:1069C800A000884746E49446DCF810200A6106F0E7
:1069D800C0FADBF89C0045F200098BF8C0A0C2F2AF
:1069E800000900281EBFC168DBF8A0008847FFF730
:1069F800B3BB13461A690A6106F0ABFADBF89000DC
:106A080045F2000940F2CB688BF8B4A00028C2F226
:106A18000009C0F200081EBFC168DBF8940088476F
:106A280091E49446DCF810200A6106F092FADBF84B
:106A38009C0045F200098BF8C0A0C2F200090028AA
:106A48001EBFC168DBF8A0008847FFF7BFB99446AE
:106A5800DCF810200A6106F07CFADBF89C0045F2AD
:106A680000098BF8C0A0C2F2000900281EBFC16847
:106A7800DBF8A0008847FFF700BB13461A690A61D4
:106A880006F067FADBF8900040F2CB6841F2F03587
:106A98008BF8B4A00028C0F20008C2F220051EBF7F
:106AA800C168DBF894008847C0E413461A690A6194
:106AB80006F04FFADBF8A40045F200098BF8C8A0ED
:106AC800C2F2000900281EBFC168DBF8A800884789
:106AD800FFF75DBA13461A690A6106F03AFADBF85D
:106AE800980040F2CB688BF8BCA0C0F200080028E0
:106AF8001EBFC168DBF89C00884708E5DBE90C127B
:106B08000138CBF83800914276D041F2F03511F8CF
:106B1800010BDBF82420C2F22005CBF830108BF8EB
:106B28004C00CBF848208BF84EA00BF13C000EA986
:106B3800FBF7CAFC08B106205CE19BF84E0003385D
:106B4800062852D89BF8D80003284ED19BF8640039
:106B5800032841D0042848D19BF8D400032804BF57
:106B68009BF8D000032840D19BF8CC00032804BF31
:106B78009BF8C900032838D1DBE92550D0F80080FC
:106B880006F0DCF9BFF35F8F2968002900F06F83F6
:106B98000A69884500F0A782002A00F068839045BA
:106BA800134600F062831169002900F0608388456C
:106BB80000F017830A69002A00F05983904500F015
:106BC80053831169002900F05283884500F0098336
:106BD8000A69002AE3D14AE39BF8D400032804BFDA
:106BE8009BF8D000032800F06682DBF838000BF130
:106BF800380500287FF482AFDBF824008BF838A032
:106C0800CBF83000CBF834000122D0E9020101F0C2
:106C18001F0102FA01F1C0F88810DBF834008BF884
:106C2800C4A0CBF83C000BF13C000EA9FBF760FDBB
:106C380008B10320D8E09BF8C40003284FD19BF883
:106C48005000032842D0042849D19BF8C0000328EB
:106C580004BF9BF8BC00032841D19BF8B800032867
:106C680004BF9BF8B500032839D1DBE92090D0F8A0
:106C7800008006F063F9BFF35F8FD9F80010002990
:106C880000F0DD820A69884500F0F981002A00F0E9
:106C9800D6829045134600F0D0821169002900F091
:106CA800CE82884500F097820A69002A00F0C782E0
:106CB800904500F0C1821169002900F0C082884522
:106CC80000F089820A69002AE3D1B8E29BF8C00083
:106CD800032804BF9BF8BC00032800F0B781DBF849
:106CE80034000122D0E9000101F01F0102FA01F18C
:106CF800C0F88410DBF834008BF8C4A0CBF83C0053
:106D08000BF13C000EA9FBF7F3FC08B104206BE083
:106D18009BF8C40003284FD19BF85000032842D0A9
:106D2800042849D19BF8C000032804BF9BF8BC0085
:106D3800032841D19BF8B800032804BF9BF8B5008D
:106D4800032839D1DBE92090D0F8008006F0F6F866
:106D5800BFF35F8FD9F80010002900F048820A6954
:106D6800884500F07081002A00F041829045134662
:106D780000F03B821169002900F03982884500F053
:106D880027820A69002A00F03282904500F02C829E
:106D98001169002900F02B82884500F019820A69E0
:106DA800002AE3D123E29BF8C000032804BF9BF824
:106DB800BC00032800F02D81DBF834000122D0E963
:106DC800020101F01F0102FA01F1C0F88410DBF89A
:106DD80034008BF8C4A0CBF83C000BF13C000EA9A2
:106DE800FBF786FC98B105202870072041F2F035A2
:106DF800C2F22005307003202070072107AEDDE9BC
:106E080007208BF81010D1688847FBF71EBE9BF847
:106E1800C40003284DD19BF85000032840D0042813
:106E280047D19BF8C000032804BF9BF8BC00032887
:106E38003FD19BF8B800032804BF9BF8B50003288E
:106E480037D1DBE92040066806F078F8BFF35F8F9A
:106E58002168002900F0E3810A698E4200F0298147
:106E6800002A00F0DC819642134600F0D6811169B1
:106E7800002900F0D4818E4200F0B0810A69002A0E
:106E880000F0CD81964200F0C7811169002900F019
:106E9800C6818E4200F0A2810A69002AE3D1BEE1D0
:106EA8009BF8C000032804BF9BF8BC00032800F02F
:106EB800E98001242C7041F2F035C2F22005DBF89C
:106EC800080013A95C228BF8E9400130CBF80800D0
:106ED80064208BF82F40CBF814000BF1180007F052
:106EE80028FA07AE8BF874A00BF114000EA9FBF773
:106EF800DFF908B1082182E79BF87400032807D15D
:106F08009BF87000032804BF9BF86D00032852D03B
:106F1800DBF808004CF6CD44CCF6CC44A0FB0412B8
:106F2800D10801EB8101A0EB410002F050FE0646BA
:106F3800DBF808000130A0FB0412D10801EB810145
:106F4800A0EB410002F043FE0546DBF808000230E2
:106F5800A0FB0412D10801EB8101A0EB410002F073
:106F680036FE8046DBF808000330A0FB0412D10887
:106F780001EB8101A0EB410002F029FE59460022F5
:106F880001F80C6F042301F1DD04C87081F8028058
:106F980040F2CB684D7041F2F03551F8080CC0F260
:106FA8000008A1F8DC20C2F22005C1E93413C1F8B9
:106FB800D800FEF76CBEDBE90E40056805F0BEFFA1
:106FC800BFF35F8F2168002900F0F5800A698D42C0
:106FD80001D12260EFE0002A00F0ED8095421346CF
:106FE80000F0E7801169002900F0E5808D4200F08B
:106FF800C6800A69002A00F0DE80954200F0D88039
:107008001169002900F0D7808D4200F0B8800A6924
:10701800E1E79BF8B800032804BF9BF8B5000328F4
:107028007FF4CAAEDBE92090D0F8008005F086FF37
:10703800BFF35F8FD9F80010002900F0D8800A69E3
:10704800884540F08780C9F80020D0E09BF8B80058
:10705800032804BF9BF8B50003287FF440AEDBE9A2
:107068002090D0F8008005F069FFBFF35F8FD9F852
:107078000010002900F0E3800A69884551D1C9F859
:107088000020DCE09BF8B800032804BF9BF8B5009B
:1070980003287FF40EAFDBE92040066805F04EFFB9
:1070A800BFF35F8F2168002900F0B9800A698E421A
:1070B8001BD12260B3E09BF8CC00032804BF9BF8E7
:1070C800C90003287FF491ADDBE92550D0F8008092
:1070D80005F034FFBFF35F8F2968002900F0C780EF
:1070E8000A6988454ED12A60C1E0002A00F09780DD
:1070F8009642134600F091801169002900F08F80B4
:107108008E426BD00A69002A00F08980964200F00E
:1071180083801169002900F082808E425ED00A695E
:10712800E3E7002A00F08B809045134600F0858045
:107138001169002900F0838088454CD00A69002A2B
:107148007DD0904578D01169002978D0884542D003
:107158000A69E6E7002A4AD09045134645D01169E6
:10716800002944D0884533D00A69002A3FD0904589
:107178003AD01169D9B388452AD00A69EAE70B469B
:10718800114616E0002A72D0904513466DD0116959
:1071980000296CD0884524D00A69002A67D0904518
:1071A80062D01169002962D088451AD00A69E9E7D6
:1071B80013461A690A6105F0CCFEDBF848008BF823
:1071C8006CA000281EBFC168DBF84C0088479FE60A
:1071D8000B46114609E00B4611462EE00B461146B8
:1071E8001BE00B46114640E013461A690A6105F098
:1071F800B0FEDBF8900045F2000940F2CB688BF84E
:10720800B4A00028C2F20009C0F200081EBFC1687D
:10721800DBF894008847CFE513461A690A6105F040
:1072280098FEDBF890008BF8B4A000281EBFC16858
:10723800DBF8940088473CE613461A690A6105F0B2
:1072480088FEDBF8900045F2000940F2CB688BF825
:10725800B4A00028C2F20009C0F200081EBFC1682D
:10726800DBF8940088473AE513461A690A6105F085
:1072780070FEDBF8A40040F2CB688BF8C8A0C0F21F
:10728800000800281EBFC168DBF8A8008847ACE4E6
:1072980040F27010C2F2200006F0E3FD40F28010C8
:1072A800C2F2200006F0DDFD40F26010C2F22000BC
:1072B80006F0D7FD40F2A010C2F2200006F0D1FD82
:1072C80040F2D010C2F2200006F0CBFD40F2C01010
:1072D800C2F2200006F0C5FD40F2B010C2F2200054
:1072E80006F0BFFD40F29010C2F2200006F0B9FD92
:1072F800FEDE80B56F46E2B005F030FE48F29450ED
:107308000121C2F200006A4601704EF27140CEF2CD
:107318000000F02101704EF20C10CEF200004FF484
:107328000031016045F200010020C2F20001ADF811
:10733800F00048F298540A60C2F20004ADF86C01FB
:107348003DA8486044F20000C2F20000A04203D900
:1073580005F00EFEA04203D900F015F8FBF760FB1C
:10736800012100205D9140F20C41C2F220016090A1
:107378005F9004205C9140F214415E905CA8C2F2D8
:10738800200105F0C1FEF0B503AF2DE9000FADF205
:10739800F44DCCAC204602F02BFC02A8214600F0AC
:1073A8007AFCDDE9086048F2FC04C4F21F04DDE958
:1073B8000CB801900721DDF838A0D4F8140261F365
:1073C8000F30C4F81402D4F81C0261F30F30C4F86B
:1073D8001C02606A052161F303006062706820F096
:1073E80000707060E06A61F30300E062706820F08A
:1073F80000607060706920F000707061F06940F0A2
:107408000070F061706940F000707061706920F080
:1074180000607061F06940F00060F061706940F0F0
:107428000060706101A802F08CFD00200122CE905E
:107438000420CD900320CC904FF47A6047F8200CBC
:1074480048F23010C2F20000BFF35F8F00F2124022
:10745800D0E84F1FC0E8432F002BF9D1BFF35F8F4F
:1074680039BB48F230154FF48061C2F20005284656
:1074780006F063FF05F062FDCCA98146284601F0BD
:10748800F0FA98B948F2301202A8A7F12003C2F224
:1074980000020121CDF810A0CDE902B800F01FF9D3
:1074A80046F2EF784FF0000BC0F20008484605F0AE
:1074B80050FDBBF1000F40F0DE80D4F83402072104
:1074C80061F30F30C4F83402216C052060F3030126
:1074D800216401994A6822F001024A60A26C60F3B3
:1074E8000302A2644A68019B22F004024A60616CAC
:1074F80060F303016164596821F0020159604EF29A
:107508001001CEF200010A6822F001020A600A683E
:1075180042F004020A6042F2BF72C0F209024A60F5
:107528000A6842F002020A600A6842F001020A6030
:1075380048F288520121C2F20002BFF35F8F117135
:10754800BFF35F8FD4F8F02142F40062C4F8F02151
:10755800D4F8F42142F40062C4F8F421226860F3FC
:1075680003022260726842F480327260626860F3DB
:1075780003026260706845F20002C2F2000240F441
:1075880000307060536803F17800D0E84F5F45B968
:10759800BFF35F8FC0E8451F55B1D0E84F5F002D9E
:1075A800F8D040F26430BFF32F8FC2F2200028E0F9
:1075B800002041F2A461BFF35F8F83F8740041F2A9
:1075C800AC60C2F22001C2F220000125C3E900101C
:1075D800BFF35F8F83F87950126802F1F003D3E8A4
:1075E8004F4F44B9BFF35F8FC3E8445FB4B1D3E8EA
:1075F8004F4F002CF8D040F25430BFF32F8FC2F217
:10760800200040F23833009040F2F210C2F220031A
:10761800C2F2200002AA2B2105F0B8FD0023BFF317
:107628005F8F137441F28C63C2F22003012513604B
:107638001024BFF35F8F82F8F15041F28862112560
:10764800C2F22002C3E90064C2F8008048F604725E
:107658009A824FF47A721A611922C1E900621B21D9
:10766800C3E90265C0E9006105F07AFC0DF2F44D4A
:10767800BDE8000FF0BD40F2843040F27433C2F22E
:107688002000CDF810A0009040F2F210CDE902B829
:10769800C2F22000C2F2200302AA2B2105F076FDD7
:1076A80048F28850C2F2000000F0A4BD007840F211
:1076B8006C520B4640F24471C2F22001C2F2200221
:1076C80051F8201052F82020184606F0D1B8084684
:1076D80040F22871C2F22001122206F0C9B8F0B5B2
:1076E80003AF2DE9000FBFB048F24856D0F800C0EC
:1076F800C2F20006D0F808E046F200003260C2F29A
:10770800000041F238128618BFF35F8F56E8002F49
:1077180042F0004546E80054002CF7D1B2F1FF3F93
