:0200000460009A
:100000004643464200000156000000000101020084
:1000100000000000000000000000000000000000E0
:1000200000000000000000000000000000000000D0
:1000300000000000000000000000000000000000C0
:1000400000000000010403000000000000000000A8
:100050000000200000000000000000000000000080
:100060000000000000000000000000000000000090
:100070000000000000000000000000000000000080
:10008000EB04180A063204260000000000000000FD
:10009000050404240000000000000000000000002F
:1000A0000000000000000000000000000000000050
:1000B0000604000000000000000000000000000036
:1000C0000000000000000000000000000000000030
:1000D00020041808000000000000000000000000DC
:1000E0000000000000000000000000000000000010
:1000F0000000000000000000000000000000000000
:1001000000000000000000000000000000000000EF
:100110000204180804200000000000000000000095
:1001200000000000000000000000000000000000CF
:10013000600400000000000000000000000000005B
:1001400000000000000000000000000000000000AF
:10015000000000000000000000000000000000009F
:10016000000000000000000000000000000000008F
:10017000000000000000000000000000000000007F
:10018000000000000000000000000000000000006F
:10019000000000000000000000000000000000005F
:1001A000000000000000000000000000000000004F
:1001B000000000000000000000000000000000003F
:1001C000000100000010000001000000000000001D
:1001D000000000000000000000000000000000001F
:1001E000000000000000000000000000000000000F
:1001F00000000000000000000000000000000000FF
:10020000D4D4D4D4D4D4D4D4D4D4D4D4D4D4D4D4AE
:10100000D10020400020006000000000000000002F
:1010100020100060001000600000000000000000D0
:101020000000006044F8000000000000EFBEADDEEC
:10103000124880F3088812481249016000F036F81F
:10104000114812490022814201D004C0FBE7104838
:101050001049114A814202D008CA08C0FAE70F4875
:101060004FF47001026842EA01020260BFF34F8F41
:10107000BFF36F8F00F014F800DE00000040002086
:1010800008ED00E00040002000500020988500207E
:10109000B84200204C44002044F8006088ED00E095
:1010A00044F69B7CC0F2000C6047D4D41C4840F24C
:1010B000924188420CBF1B4A1B4A1C4B5360136869
:1010C00023F0800313601A481A4901BF1A480A0C1A
:1010D0008264C1F30F014164016C41F004010164B9
:1010E0001648174A824205D01649814202D008CAE2
:1010F00008C0FAE71448154A824205D014498142D3
:1011000002D008CA08C0FAE71248134A824205D042
:101110001249814202D008CA08C0FAE770470000AD
:10112000240400000080034000C00B4020C528D9E3
:1011300000C00A40AAAAFAFF00400E4000000000CA
:10114000B822006054BF0000004000200020006072
:10115000B8420020000020200CE200603816202059
:10116000D4D4D4D4D4D4D4D4D4D4D4D4D4D4D4D43F
:10117000D4D4D4D4D4D4D4D4D4D4D4D4D4D4D4D42F
:10118000D4D4D4D4D4D4D4D4D4D4D4D4D4D4D4D41F
:10119000D4D4D4D4D4D4D4D4D4D4D4D4D4D4D4D40F
:102000000040002031100060957E000039BF0000C4
:10201000957E0000957E0000957E00000000000087
:10202000000000000000000000000000957E00009D
:10203000957E000000000000957E0000A552000083
:10204000957E0000957E0000957E0000957E000044
:10205000957E0000957E0000957E0000957E000034
:10206000957E0000957E0000957E0000957E000024
:10207000957E0000957E0000957E0000957E000014
:10208000957E00000000000000000000000000003D
:10209000957E0000957E0000957E0000957E0000F4
:1020A000957E0000957E0000957E0000957E0000E4
:1020B000957E0000957E0000957E0000957E0000D4
:1020C000957E0000957E0000957E0000957E0000C4
:1020D000957E0000957E0000957E0000957E0000B4
:1020E000957E0000957E0000957E0000957E0000A4
:1020F000957E0000957E0000957E0000957E000094
:10210000957E0000957E0000957E0000957E000083
:1021100000000000957E000000000000957E000099
:10212000957E0000957E0000957E0000957E000063
:10213000957E0000957E000000000000957E000066
:10214000957E0000957E0000957E0000957E000043
:10215000957E0000957E0000000000000000000059
:10216000957E0000957E0000957E0000957E000023
:10217000957E0000957E0000957E0000957E000013
:10218000957E0000957E0000957E0000957E000003
:10219000957E0000957E0000957E0000957E0000F3
:1021A000957E0000957E0000957E0000957E0000E3
:1021B000957E0000957E0000957E0000957E0000D3
:1021C000957E0000957E0000957E000000000000D6
:1021D000957E0000957E0000957E0000957E0000B3
:1021E000957E0000957E0000957E0000957E0000A3
:1021F000957E0000957E0000957E0000957E000093
:10220000957E000055070000957E0000957E000039
:10221000957E0000957E0000957E0000957E000072
:10222000957E0000957E0000957E0000957E000062
:10223000957E0000957E0000957E00000000000065
:1022400000000000957E0000957E0000957E000055
:10225000957E0000957E0000957E0000957E000032
:10226000957E0000957E0000957E0000957E000022
:10227000957E0000957E0000957E0000957E000012
:10228000957E0000957E0000957E0000957E000002
:10229000957E0000957E0000957E0000957E0000F2
:1022A000957E0000957E0000957E000000000000F5
:0822B000957E0000957E000000
:1022B800F0B503AF2DE9000B86B0044690F8600036
:1022C8008846B0B1032840F0F28094F85C00D8B199
:1022D800032840F0F28094F8591004F11400002902
:1022E80068D0032940D040F2E020C2F220000BF071
:1022F8000DFD256848F280560020C2F2000684F8D9
:102308005C00C4E9016501E0D4E901654FF000090A
:102318000AF0C7FB014684F8599066654219002DFA
:1023280018BF511CC4E9030104F11400E1622246FC
:1023380042F8301F002182F828103379002B00F072
:10234800A4802346012543F8341F83F824501D46F2
:1023580045F81C1F03F11801C3E9053343E90821B7
:1023680043E9066543E90465414605F087FE814671
:1023780008B103204CE0A06C016849B1007B00283B
:102388001CBF002084F8580094F8580000BB35E0C2
:102398000021D4E9096084F85810D0F800800AF0C8
:1023A800C0FBBFF35F8F316869B10A69884504D102
:1023B800326008E0E16A666DB9E722B1904548D11C
:1023C80013461A690A610AF0B7FB94F85800A8B1D5
:1023D800D4E9095006680AF0A4FBBFF35F8F2968A7
:1023E80051B10A698E4201D12A6005E022B19642B4
:1023F80019D113461A690A610AF09EFB002084F875
:102408005800606B00281EBFC168A06B8847012078
:1024180084F8600084F85C0084F85900484606B0E7
:10242800BDE8000BF0BD11690029E5D08E4226D029
:102438000A69002AE0D09642DBD011690029DBD076
:102448008E421CD00A69002AD6D096421346EAD199
:10245800D0E711690029B6D0884513D00A69002A47
:10246800B1D09045ACD011690029ACD0884509D0CD
:102478000A69002AA7D090451346EAD1A1E70B467E
:102488001146B7E70B4611469BE7012004910190DE
:1024980040F27020C2F22000039140F2D021009057
:1024A8000420C2F22001029068460AF096FD40F22C
:1024B8006400C2F220000BF029FC40F2F020C2F2C6
:1024C80020000BF023FCD4D4F0B503AF2DE9000BAA
:1024D8000446807C8946DFE800F0050C121D385858
:1024E800739BBAD9227C08210020E36884E80B009A
:1024F80006E040F25010C2F220000BF007FCFEDEAE
:10250800884262746CDA01302060A068002184F887
:102518009C10606104F114054946284600F0E8F86B
:102528000126002840F0D780284600F03CFAA06831
:10253800D0E9000101F01F0106FA01F1C0F8881086
:102548000021A06884F89C10606104F114054946D4
:10255800284600F0CDF80126002840F0C280284621
:1025680000F021FAA068617CD0E9020202F01F02A3
:10257800C9074FF0840106FA02F208BF88214250C9
:102588000021A06884F89C10606104F11405494694
:10259800284600F0ADF80126002840F0858028463E
:1025A80000F001FAA068D0E9000101F01F0106FA65
:1025B80001F1C0F884100021A06884F89C106061C3
:1025C80004F114054946284600F092F800287BD10A
:1025D800284600F0E8F9627CD4E9000152088FE748
:1025E800A0680122D0E9000101F01F0102FA01F1FF
:1025F800C0F88810A068D0E9020101F01F0102FAB2
:1026080001F1C0F884100021A06884F89C10606172
:1026180004F114084946404600F06AF8012628B13A
:102628000720A0743046BDE8000BF0BD404600F01E
:10263800BAF9A068D0E9000101F01F0106FA01F11A
:10264800C0F884100021A06884F89C10606104F12F
:1026580014084946404600F04BF8012628B10820E6
:10266800A0743046BDE8000BF0BD404600F09BF971
:10267800A068D0E9000101F01F0106FA01F1C0F8D5
:1026880088100021A06884F89C10606104F114058A
:102698004946284600F02CF860B101260920A074AC
:1026A8003046BDE8000BF0BD0520A0743046BDE8FB
:1026B800000BF0BD284600F076F900260120A07432
:1026C8003046BDE8000BF0BD01260620A074304658
:1026D800BDE8000BF0BD0320A0743046BDE8000B38
:1026E800F0BD0420A0743046BDE8000BF0BDD4D482
:1026F800F0B503AF2DE9000B064690F8880089462F
:1027080068B1032840F0A980B04618F8140FDFE834
:1027180000F003AAB0534C00D6E9011008E0316874
:102728000022B0460869143108F8142F48E904104B
:10273800C6E9031048F63711C0F24101884200F299
:10274800BA804FF47A7100224843344604F8842F43
:1027580054F8781C44E91B104DF68361C4F21B3110
:10276800A0FB0101002086F88000880C306206F189
:1027780020004946FFF79CFD08B10420C0E096F808
:102788008000032807D196F87C00032804BF96F838
:102798007900032827D001210020217088F8001033
:1027A80086F88810BDE8000BF0BD344614F8840F95
:1027B80070B10328DBD005E0344614F8840F48B123
:1027C80003285BD040F20C30C2F220000BF09EFAD6
:1027D800F069C1E7F0694DF68361C4F21B31A0FBD3
:1027E8000101880C46E0D6E91150D0F800900AF0B3
:1027F80098F9BFF35F8F296851B10A69894501D1FA
:102808002A6005E022B191450ED113461A690A6182
:102818000AF092F9706D002186F8781000281EBF22
:10282800C168B06D8847B6E711690029F0D08945BD
:1028380010D00A69002AEBD09145E6D01169002929
:10284800E6D0894506D00A69002AE1D091451346A9
:10285800EAD1DBE70B461146D8E740F2E010C2F2B6
:1028680020000BF053FA40F2D800C2F220000BF01F
:102878004DFAFEDE0021306286F8801006F1200055
:102888004946FFF715FDD0BB96F88000032807D10D
:1028980096F87C00032804BF96F87900032820D016
:1028A8000121306986F8841048F63711C0F24101D9
:1028B80088427FF646AF0021344604F8841F47F269
:1028C800C961CFF6BE71084444F8740C4FF6D8605D
:1028D800CFF6FF7054F8781C44E91B1041F2C6008B
:1028E800C8E7D6E9115004680AF01BF9BFF35F8FF7
:1028F8002968A9B10A698C420CD12A6010E003202A
:102908000321217088F80000012086F88810BDE8AE
:10291800000BF0BD22B194420ED113461A690A6128
:102928000AF00AF9706D002186F8781000281EBF99
:10293800C168B06D8847B3E711690029F0D08C42AF
:1029480010D00A69002AEBD09442E6D01169002918
:10295800E6D08C4206D00A69002AE1D09442134698
:10296800EAD1DBE70B461146D8E7084640F2F011FA
:10297800C2F2200102220AF0E7BD45F2000001215F
:10298800C2F200000068BFF35F8F80F87D107047C7
:1029980045F200000121C2F200004068BFF35F8FDA
:1029A80080F8F1107047D0B502AF90F8881003296D
:1029B80018BFD0BD017D032918BF042907D190F89D
:1029C8008410032904BF90F88010032900D0D0BDDB
:1029D80090F87C10032904BF90F879100329F6D1E8
:1029E80000F144010446084605F00DFB616D002224
:1029F800204684F878200029E9D0C968806DBDE8B0
:102A0800D040084780B56F4641F24060C2F22000CE
:102A1800006880470020BDE880400AF0A2B8D4D4FE
:102A280080B56F46A8B045F2000B40F2E16A41F26A
:102A38000C2806AEC2F2000B0024C0F2000AC2F253
:102A4800200801E0BFF32F8FDBF8005095F87C00D9
:102A580028B305F17D00D0E84F1F01291DD1C0E83A
:102A6800414F0029F7D140F2CB60BFF35F8FC0F22E
:102A7800000004A9CDE90480287D08940028CDE948
:102A8800061166D0032840F0A18005F118003146F0
:102A9800FFF70EFC58B10321A0E0BFF32F8FDBF83E
:102AA800049099F8F000002840F0A480CCE795F84D
:102AB8007800032807D195F87400032804BF95F817
:102AC800710003284BD0A8680122D0E9000101F069
:102AD8001F0102FA01F14CF6CD42C0F88C102846CD
:102AE80050F8101FCCF6CC425143B1F1333F00F2FD
:102AF800C08048F29451C2F2000109680329C0F06D
:102B0800B880012140F22C421291C2F220021491A5
:102B18000AA913914BF68321C0F200011594CDE95F
:102B28000A0140F23440C2F2200011920AF091F9F1
:102B380040F2444110901520C2F220010F900CAAD7
:102B4800CDE90C1011A80E91032100230AF01AF9FF
:102B58008FE0D5E90010C5E902102C618DE0D5E9B8
:102B68000F60D0F8008009F0DCFFBFF35F8F316899
:102B7800E1B10A69884501D1326017E0B2B19045E8
:102B8800134611D0116989B1884509D00A696AB11B
:102B9800904508D0116949B1884501D00A69EDE727
:102BA8000B46114600E013461A690A6109F0C4FF92
:102BB800E86C41F20C2885F87040C2F22008002821
:102BC80006AE1EBFC168286D88477CE705F118006E
:102BD8003146FFF76DFB00283ED00421DDE90420D3
:102BE8002975D1688847DBF8049099F8F000002827
:102BF8003FF42AAF09F1F100D0E84F1F01297FF413
:102C080021AFC0E8414F0029F6D1BFF35F8FCDE96E
:102C1800068A99F810000E94CDE90C66DFE810F0EA
:102C280009001423142313007B00560850005D008C
:102C38005E21D9F800004FF47A7189F87440C9F818
:102C48001410C9F8040009F114000CA9FFF730FBAF
:102C580000B3032104F0CCB895F87800032808D114
:102C680095F87400032804BF95F87100032800F054
:102C78004181D5E9030101312961D0E904016422C8
:102C880001F01F01806885F87840AA61C840C00734
:102C98009CD1FAE699F87400032808D199F87000D5
:102CA800032804BF99F86D00032800F08481494681
:102CB80001F81C4F039151F8180C41F8080C37E043
:102CC800C84618F8C50FA8F1B106002800F0B3806F
:102CD800032801F0238004F087BA4E4616F8E90F5E
:102CE800002800F0AE80032844F08482C84618F813
:102CF8002F0FDFE810F00800A322A92297018D0109
:102D08007E18101FA601D9E90713D9F8280099F8E9
:102D18002C2002F0ABBC484610F81C1F0390083862
:102D2800DFE811F00500742292220801FA00006819
:102D3800CA464AF8200FD4464AF8080C0CF8CC4F7B
:102D48000021CB46027D00230BF83F1F0BF8031C24
:102D58004BF8070C0BF8171C4BF81B2C4E4601259B
:102D680006F83E5F06F8013C46F80A0C06F80E1C09
:102D780046F8122C017D8B422FD2C84606AE08F8C1
:102D88004A4F402108F8021C48F8060C4D4605F841
:102D9800544F15F80C1C45F8140C45F8080C05F8A8
:102DA8000B1CC9F850000122D0E9020101F01F01F3
:102DB800CDF808C002FA01F1C0F88810D9F850001F
:102DC80089F8E040C9F8580009F158000CA9FFF744
:102DD8008FFC00283DD0032082E1012034708BF85D
:102DE800000045F2000B8CF80000C2F2000B9AF8C4
:102DF800CC00032840F02D839AF81F0003380428DC
:102E080000F22783DFE810F00500F201D601E401A3
:102E1800D0019AF82A00032800F0BD82042800F0A7
:102E2800B382052840F013839AF834000338032846
:102E3800C0F0B6820BE399F8C400D9F8C01000F0CE
:102E480066BFD9E93713D9F8E40099F8E82003F008
:102E580022BB99F8E000032840F02A8199F86C0019
:102E6800032800F01C81042840F0228199F8DC0036
:102E7800032804BF99F8D800032840F0198199F86D
:102E8800D400032804BF99F8D100032840F010812A
:102E9800D9E927100191066809F043FE019BBFF3A9
:102EA8005F8F1968002902F0BF810A698E4200F01D
:102EB8004785002A02F0B8819642134602F0B28193
:102EC8001169002902F0B0818E4202F025810A6959
:102ED800002A02F0A981964202F0A3811169002913
:102EE80002F0A2818E4202F017810A69002AE3D11A
:102EF80002F09AB9D5E90F60D0F8008009F011FE08
:102F0800BFF35F8F3168002901F0D2830A698845D1
:102F180030D1326001F0CCBB4D4615F82A0FDFE8FE
:102F280010F006006F2193216A009C035B00D9F81A
:102F380024009CE2CC461CF8EC0FACF1CC0A00282B
:102F480036D0032844F06E81CB461BF83F0FDFE8EC
:102F580010F0080075217B21DE01D201020DE91A6B
:102F6800F10199F82810D9F8242099F83C30D9F8BB
:102F78003800F3E6002A01F09B839045134601F0E0
:102F880095831169002901F09383884500F05585E0
:102F98000A69002A01F08C83904501F08683116943
:102FA800002901F08583884500F047850A69E1E733
:102FB800DAF80000C4E6D9E90E60056809F0B1FD49
:102FC800BFF35F8F3168002901F03A860A698D42A4
:102FD80047D1326001F034BE4E4616F8340FDFE8B0
:102FE80010F0060027213321D3034104CC04D9F87B
:102FF8002C0000F0B8BB4E4616F8340FDFE810F08E
:1030080005000C2124215302C102D9F82C0039E211
:103018004D4615F8380FDFE810F0FE15FF20172190
:1030280011167E16CA461AF83A0FDFE810F00600A5
:10303800E9200D219F012A149001D9F8340002F0EB
:103048002ABB35464E4616F8380FDFE810F0060062
:10305800F120FD20E31D501EBD1ED9F8300003F0FD
:10306800C8BD002A01F0EC859542134601F0E685BB
:103078001169002901F0E4858D4201F064830A6931
:10308800002A01F0DD85954201F0D78511690029F4
:1030980001F0D6858D4201F056830A69E1E799F877
:1030A800DC00032804BF99F8D800032800F02E8418
:1030B800D9F850000122D0E9000101F01F0102FAFD
:1030C80001F1C0F88810D9F8500089F8E040C9F833
:1030D800580009F158000CA9FFF70AFBD0B10420E9
:1030E800DDF808C02870032040F2E16AC0F2000A47
:1030F80088F8000041F20C280320C2F220088BF85F
:10310800000045F2000B0320C2F2000B8CF800000F
:1031180000F03FBC99F8E00003287ED199F86C00D4
:10312800032871D0042878D199F8DC00032804BF5B
:1031380099F8D800032870D199F8D400032804BF5F
:1031480099F8D100032868D1D9E92760056809F002
:10315800E8FCBFF35F8F3168002902F019810A6922
:103168008D4201F0B381002A02F012819542134684
:1031780002F00C811169002902F00A818D4202F0E7
:103188002F800A69002A02F00381954202F0FD802F
:103198001169002902F0FC808D4202F021800A6941
:1031A800002AE3D102F0F4B89AF82800033802287C
:1031B80022D94CE19AF832000338062800F24781F8
:1031C8000AF1340595F88800032800F0F1803EE103
:1031D8009AF83E000338062800F239810AF14005C2
:1031E80095F88800032800F0E38030E19AF8280079
:1031F8000338012800F22B810AF12C0595F8880084
:10320800032800F0D58022E199F8DC00032804BFE8
:1032180099F8D800032801F04181012099F8491054
:1032280089F85400D9F8400089F85E4089F85C10A4
:10323800C9F8580009F14C000CA9FFF745F928B165
:10324800DDF808C040F2E16A04204FE799F85E0013
:103258000338062800F2FE8399F8E800032840F0B6
:10326800F98399F87400032800F0EB83042840F0F0
:10327800F18399F8E400032804BF99F8E0000328D3
:1032880040F0E88399F8DC00032804BF99F8D900D6
:10329800032840F0DF83D9E92960056809F041FC7B
:1032A800BFF35F8F3168002902F03F810A698D42C0
:1032B80001F06784002A02F038819542134602F033
:1032C80032811169002902F030818D4202F0DE80DE
:1032D8000A69002A02F02981954202F023811169C6
:1032E800002902F022818D4202F0D0800A69002A6A
:1032F800E3D102F01AB94D46CDF808C015F8480FC9
:10330800DFE810F0370A8A1FA21F4A0AB70AC84620
:10331800CDF808C018F84A0FDFE810F00700721F50
:10332800961FA9040600990484E7D9F84400DDF83B
:1033380008C02BE54D46CDF808C015F8480FDFE862
:1033480010F06219771F831F7519E1194D1A4D4640
:1033580015F8440FDFE810F006006C1F781F0E13F5
:103368007D13EC13D9F83C0002F0F3BA4D4615F87A
:10337800440FDFE810F00500511F691FAC111B1244
:10338800D9F83C0002F092B99AF83E0003380728B1
:103398005DD2202005E09AF834000338022856D27E
:1033A80018200AF120010D1895F8880003284ED13D
:1033B800287D032842D0042849D195F884000328A1
:1033C80004BF95F88000032841D195F87C000328B4
:1033D80004BF95F87900032839D1D5E91160D0F8F0
:1033E800008009F09EFBBFF35F8F3168002901F070
:1033F800FB870A69884501F0A380002A01F0F48759
:103408009045134601F0EE871169002901F0EC8719
:10341800884501F050870A69002A01F0E587904540
:1034280001F0DF871169002901F0DE87884501F086
:1034380042870A69002AE3D101F0D6BF95F88400D3
:10344800032804BF95F88000032801F060808AF8FB
:103458001E40D9F818004D4640F2E16AC0F2000A51
:10346800417D05F82A4F05F8021C45F8060C4E4622
:1034780006F8344F16F80C1C46F8140C46F8080CDD
:1034880006F80B1CC9F830000122D0E9020101F04E
:103498001F0102FA01F1C0F88810D9F8300089F844
:1034A800C040C9F8380009F138000CA9FFF720F925
:1034B80008B103206CE099F8C000032850D199F8AE
:1034C8004C00032843D004284AD199F8BC000328AB
:1034D80004BF99F8B800032842D199F8B40003282A
:1034E80004BF99F8B10003283AD1D9E91FA0D0F850
:1034F800008009F016FBBFF35F8FDAF8001000298F
:1035080001F037860A69884500F01981002A01F020
:1035180030869045134601F02A861169002901F08A
:103528002886884501F0F5850A69002A01F0218678
:10353800904501F01B861169002901F01A8688451B
:1035480001F0E7850A69002AE3D101F012BE99F873
:10355800BC00032804BF99F8B800032800F0D58000
:10356800D9F830000122D0E9000101F01F0102FA68
:1035780001F1C0F88810D9F8300089F8C040C9F8BE
:10358800380009F138000CA9FFF7B2F818B1042087
:1035980030700320FAE199F8C00006AE03284FD135
:1035A80099F84C00032842D0042849D199F8BC0066
:1035B800032804BF99F8B800032841D199F8B4004A
:1035C800032804BF99F8B100032839D1D9E91F604D
:1035D800D0F8008009F0A5FABFF35F8F31680029A1
:1035E80001F0AA860A69884500F02E83002A01F0B6
:1035F800A3869045134601F09D861169002901F0C4
:103608009B86884501F0AF850A69002A01F09486F7
:10361800904501F08E861169002901F08D86884554
:1036280001F0A1850A69002AE3D101F085BE99F865
:10363800BC00032804BF99F8B800032800F0EB8207
:10364800012099F8291089F83400D9F8200089F860
:103658003E4089F83C10C9F8380009F12C000CA943
:10366800FEF732FF08B1042091E199F83E000338D3
:10367800062871D899F8C80003286DD199F8540024
:10368800032860D0042867D199F8C400032804BF30
:1036980099F8C00003285FD199F8BC00032804BF3B
:1036A80099F8B900032857D1D9E92160D0F80080EA
:1036B80009F037FABFF35F8F3168002901F0F2860D
:1036C8000A69884501F03C80002A01F0EB869045A4
:1036D800134601F0E5861169002901F0E386884563
:1036E80001F07C860A69002A01F0DC86904501F029
:1036F800D6861169002901F0D586884501F06E86C5
:103708000A69002AE3D101F0CDBE99F8B400032874
:1037180004BF99F8B10003287FF422AFD9E91FA0AC
:10372800D0F8008009F0FDF9BFF35F8FDAF80010D8
:10373800002901F01E850A69884541F09181CAF87F
:10374800002001F016BD99F8C400032804BF99F8B9
:10375800C000032800F0DB874E4606F8344F56F8C1
:10376800140C46F8080CC9F830000122D0E902010F
:1037780001F01F0102FA01F1C0F88810D9F83000F1
:1037880089F8C040C9F8380009F138000CA9FEF7DB
:10379800AFFF08B10320F7E099F8C000032850D123
:1037A80099F84C00032843D004284AD199F8BC0062
:1037B800032804BF99F8B800032842D199F8B40047
:1037C800032804BF99F8B10003283AD1D9E91FA00A
:1037D800D0F8008009F0A5F9BFF35F8FDAF8001080
:1037E800002901F03D860A69884500F08C87002A87
:1037F80001F036869045134601F03086116900299C
:1038080001F02E86884501F0BD850A69002A01F07D
:103818002786904501F021861169002901F020864C
:10382800884501F0AF850A69002AE3D101F018BE86
:1038380099F8BC00032804BF99F8B800032800F0E1
:103848004887D9F830000122D0E9000101F01F01B2
:1038580002FA01F1C0F88410D9F8300089F8C040A4
:10386800C9F8380009F138000CA9FEF741FF08B182
:10387800042089E099F8C00003286DD199F84C001C
:10388800032860D0042867D199F8BC00032804BF36
:1038980099F8B80003285FD199F8B400032804BF49
:1038A80099F8B100032857D1D9E91FA0D0F80080B2
:1038B80009F037F9BFF35F8FDAF80010002901F03B
:1038C80006860A69884501F0C780002A01F0FF854D
:1038D8009045134601F0F9851169002901F0F78533
:1038E800884501F0B4850A69002A01F0F085904501
:1038F80001F0EA851169002901F0E985884501F0A0
:10390800A6850A69002AE3D101F0E1BD99F8D4003F
:10391800032804BF99F8D10003287FF4C9ABD9E97B
:1039280027100191066809F0FCF8019BBFF35F8F2F
:103938001968002901F078840A698E4241F0CB8029
:103948001A6001F071BC99F8BC00032804BF99F80B
:10395800B800032801F06680D9F830000122D0E9C8
:10396800020101F01F0102FA01F1C0F88410D9F830
:10397800300089F8C040C9F8380009F138000CA9AE
:10398800FEF7B6FE50B105203070052006AE28704F
:10399800042003990870042103F02ABA99F8C0009A
:1039A800032840F0818199F84C00032800F07381C6
:1039B800042840F0798199F8BC00032804BF99F8DD
:1039C800B800032840F0708199F8B400032804BFB8
:1039D80099F8B100032840F06781D9E91F600568AC
:1039E80009F09FF8BFF35F8F3168002901F0BE85A9
:1039F8000A698D4201F01B81002A01F0B7859542C2
:103A0800134601F0B1851169002901F0AF858D4297
:103A180001F042850A69002A01F0A885954201F063
:103A2800A2851169002901F0A1858D4201F0348534
:103A38000A69002AE3D101F099BD0B46114600F04E
:103A480035BE99F8E400032804BF99F8E00003287C
:103A580001F07F804D4605F8544F55F8140C45F891
:103A6800080CC9F850000122D0E9020101F01F0139
:103A780002FA01F1C0F88810D9F8500089F8E0403E
:103A8800C9F8580009F158000CA9FEF731FE10B129
:103A9800032000F095BD99F8E000032850D199F86B
:103AA8006C00032843D004284AD199F8DC00032885
:103AB80004BF99F8D800032842D199F8D400032804
:103AC80004BF99F8D10003283AD1D9E92710019108
:103AD800066809F026F8019BBFF35F8F1968002973
:103AE80001F011850A698E4200F0F287002A01F080
:103AF8000A859642134601F004851169002901F0F0
:103B080002858E4201F0A6840A69002A01F0FB842E
:103B1800964201F0F5841169002901F0F4848E427F
:103B280001F098840A69002AE3D101F0ECBC99F805
:103B3800DC00032804BF99F8D800032800F0AE87FA
:103B4800D9F850000122D0E9000101F01F0102FA62
:103B580001F1C0F88410D9F8500089F8E040C9F89C
:103B6800580009F158000CA9FEF7C2FD10B1042055
:103B780000F026BD99F8E000032840F0098599F87F
:103B88006C00032800F0FB84042840F0018599F8B4
:103B9800DC00032804BF99F8D800032840F0F88413
:103BA80099F8D400032804BF99F8D100032840F0FD
:103BB800EF84D9E927100191066808F0B2FF019B4C
:103BC800BFF35F8F1968002901F0E7840A698E4204
:103BD80001F0B880002A01F0E0849642134601F013
:103BE800DA841169002901F0D8848E4201F08584B5
:103BF8000A69002A01F0D184964201F0CB84116948
:103C0800002901F0CA848E4201F077840A69002AEB
:103C1800E3D101F0C2BC99F8B400032804BF99F8B5
:103C2800B10003287FF40CADD9E91F60D0F80080FB
:103C380008F077FFBFF35F8F3168002901F07C83BC
:103C48000A69884541F02880326001F075BB4D460D
:103C580015F8540FDFE810F00800EC1AF81A0700FE
:103C68000600AD047DE70DE7D9F84C00F9E64D46AE
:103C780015F8540FDFE810F00900D01AE81A070009
:103C88000500FFF726BAFFF79FB8D9F84C00DDF812
:103C980008C0FFF786B899F8BC00032804BF99F854
:103CA800B800032800F0AB87012011A989F82A0081
:103CB8005C2289F8340089F81C000A20C9F814002D
:103CC80009F118000AF08AFA89F8744009F1140613
:103CD8000CA93046FEF7ECFA18B1052106AE03F040
:103CE80087B899F87400032808D199F87000032858
:103CF80004BF99F86D00032800F008818F20D9F8D7
:103D08000410A9F8C40009F1C508C9F8C01048751D
:103D180089F81E4089F81C00C9F81810B07ADFE845
:103D280010F006006F1A931A1C0017010F00706834
:103D3800354605F8144F317A3060F060717217E03B
:103D4800354615F8140FDFE810F00600731A7F1ACD
:103D58009401FF016A02F0687DE1354615F8140FF9
:103D6800DFE810F005005A1A721A14007F00F06894
:103D780030610122D0E9020101F01F0102FA01F1CC
:103D8800C0F88810306986F8A040B06106F11800C4
:103D98000CA9FEF7ADFC08B1032069E096F8A00075
:103DA800032850D196F82C00032843D004284AD180
:103DB80096F89C00032804BF96F89800032842D17F
:103DC80096F89400032804BF96F8910003283AD186
:103DD800D6E917B0D0F800A008F0A3FEBFF35F8FB4
:103DE800DBF80010002901F052820A698A4500F0C8
:103DF8000783002A01F04B829245134601F0458261
:103E08001169002901F043828A4501F0A6810A69F7
:103E1800002A01F03C82924501F03682116900299E
:103E280001F035828A4501F098810A69002AE3D1B8
:103E380001F02DBA96F89C00032804BF96F8980064
:103E4800032800F0C38230690122D0E9000101F0A3
:103E58001F0102FA01F1C0F88810306986F8A04005
:103E6800B06106F118000CA9FEF742FC18B1042055
:103E780028700320DCE196F8A000032861D196F8A9
:103E88002C00032854D004285BD196F89C00032802
:103E980004BF96F89800032853D196F89400032895
:103EA80004BF96F8910003284BD1D6E91750D0F8F3
:103EB80000A008F036FEBFF35F8F2968002901F0E3
:103EC80051820A698A4500F0E682002A01F04A8296
:103ED8009245134601F044821169002901F042829B
:103EE8008A4501F07A810A69002A01F03B829245ED
:103EF80001F035821169002901F034828A4501F008
:103F08006C810A69002AE3D101F02CBAD9E90E5074
:103F1800D0F8008008F005FEBFF35F8F29680029FC
:103F280000F08E870A69884569D12A6000F088BF49
:103F380096F89C00032804BF96F89800032800F020
:103F480091820120717A30753068B4773177B06129
:103F580006F10C000CA9FEF7B7FA08B1042067E1D6
:103F6800B07F0338062871D896F8A80003286DD1C9
:103F780096F83400032860D0042867D196F8A40086
:103F8800032804BF96F8A00003285FD196F89C0088
:103F9800032804BF96F89900032857D1D6E9195089
:103FA800D0F800A008F0BDFDBFF35F8F2968002995
:103FB80001F02E820A698A4500F0DE82002A01F0AB
:103FC80027829245134601F021821169002901F0E8
:103FD8001F828A4501F072810A69002A01F018825D
:103FE800924501F012821169002901F011828A4577
:103FF80001F064810A69002AE3D101F009BA002AB4
:1040080000F01E879045134600F0188711690029B3
:1040180000F01687884500F00D860A69002A00F02E
:104028000F87904500F009871169002900F008877B
:10403800884500F0FF850A69E1E796F8A40003289F
:1040480004BF96F8A000032800F07D82354630684A
:10405800F06005F8144F30610122D0E9020101F047
:104068001F0102FA01F1C0F88810306986F8A040F3
:10407800B06106F118000CA9FEF73AFB08B103205D
:10408800D4E096F8A000032850D196F82C00032815
:1040980043D004284AD196F89C00032804BF96F818
:1040A8009800032842D196F89400032804BF96F894
:1040B800910003283AD1D6E917B0D0F800A008F04B
:1040C80030FDBFF35F8FDBF80010002901F01D8180
:1040D8000A698A4500F0C281002A01F016819245DA
:1040E800134601F010811169002901F00E818A45FB
:1040F80001F036800A69002A01F00781924501F033
:1041080001811169002901F000818A4501F02880A8
:104118000A69002AE3D101F0F8B896F89C00032850
:1041280004BF96F89800032800F07E8130690122C8
:10413800D0E9000101F01F0102FA01F1C0F8841072
:10414800306986F8A040B06106F118000CA9FEF7A6
:10415800CFFA08B1042069E096F8A000032850D1EE
:1041680096F82C00032843D004284AD196F89C00DE
:10417800032804BF96F89800032842D196F89400C3
:10418800032804BF96F8910003283AD1D6E917B05E
:10419800D0F800A008F0C5FCBFF35F8FDBF8001073
:1041A800002901F007810A698A4500F0AC81002ADC
:1041B80001F000819245134601F0FA801169002947
:1041C80001F0F8808A4501F05C800A69002A01F054
:1041D800F180924501F0EB801169002901F0EA8035
:1041E8008A4501F04E800A69002AE3D101F0E2B85D
:1041F80096F89C00032804BF96F89800032800F05E
:10420800688130690122D0E9020101F01F0102FA38
:1042180001F1C0F88410306986F8A040B06106F159
:1042280018000CA9FEF764FA48B10520287005208B
:10423800B072032088F80000062102F0D4BD96F879
:10424800A00003284FD196F82C00032842D0042858
:1042580049D196F89C00032804BF96F898000328D3
:1042680041D196F89400032804BF96F891000328DA
:1042780039D1D6E91750D0F8008008F052FCBFF3C6
:104288005F8F2968002901F0D6800A69884500F007
:104298000982002A01F0CF809045134601F0C980B9
:1042A8001169002901F0C780884501F028800A6952
:1042B800002A01F0C080904501F0BA8011690029F8
:1042C80001F0B980884501F01A800A69002AE3D113
:1042D80001F0B1B896F89C00032804BF96F898003E
:1042E800032800F0C68101204FF00108B072307534
:1042F80099F81E00032817D0042808D0052840F094
:104308008C8099F828000338032812D385E099F89F
:1043180032000338072880F080802020351895F86F
:10432800880003280BD078E099F828000338022881
:1043380073D21820351895F8880003286DD1287D88
:10434800032861D0042868D195F88400032804BFA5
:1043580095F88000032860D195F87C00032804BFF5
:1043680095F87900032858D1D5E91110039106680A
:1043780008F0D7FB039BBFF35F8F1968002901F092
:10438800E6800A698E4200F01984002A01F0DF8075
:104398009642134601F0D9801169002901F0D780AF
:1043A8008E4201F076800A69002A01F0D080964298
:1043B80001F0CA801169002901F0C9808E4201F01C
:1043C80068800A69002AE3D101F0C1B896F8940020
:1043D800032804BF96F8910003287FF434ADD6E98A
:1043E80017B0D0F800A008F09CFBBFF35F8FDBF894
:1043F8000010002900F04B870A698A4540F0E183E4
:10440800CBF8002000F043BF95F88400032804BFD0
:1044180095F88000032800F0B783002089F8C5804C
:10442800C9F8080002F045B896F89400032804BFBC
:1044380096F8910003287FF479AED6E917B0D0F842
:1044480000A008F06EFBBFF35F8FDBF800100029B7
:1044580000F05B870A698A4540F00084CBF80020A9
:1044680000F053BF96F89400032804BF96F8910013
:1044780003287FF466ADD6E91750D0F800A008F0FD
:1044880050FBBFF35F8F2968002900F06B870A692A
:104498008A4540F01F842A6000F064BF99F8D40070
:1044A800032804BF99F8D10003287EF4B6AED9E9F1
:1044B8002760056808F035FBBFF35F8F3168002976
:1044C80000F066870A698D4240F03F84326000F050
:1044D8005FBF96F89400032804BF96F8910003285C
:1044E8007FF48FAED6E917B0D0F800A008F019FB1A
:1044F800BFF35F8FDBF80010002900F05B870A69C3
:104508008A4540F04084CBF8002000F053BF95F86E
:104518007C00032804BF95F8790003287EF497AF40
:10452800D5E91160D0F8008008F0FBFABFF35F8F7F
:104538003168002900F058870A69884540F04184AD
:10454800326000F051BF96F89C00032804BF96F82B
:10455800990003287FF47AADD6E91950D0F800A065
:1045680008F0DFFABFF35F8F2968002900F0508751
:104578000A698A4540F043842A6000F049BF99F8E7
:10458800DC00032804BF99F8D800032800F0C08392
:10459800D9F850000122D0E9020101F01F0102FA06
:1045A80001F1C0F88410D9F8500089F8E040C9F842
:1045B800580009F158000CA9FEF79AF830B1052007
:1045C80028700520DDF808C0FEF78EBD99F8E000D8
:1045D80041F20C28C2F22008032840F0C08099F864
:1045E8006C00032800F0B280042840F0B88099F8E5
:1045F800DC00032804BF99F8D800032840F0AF80F6
:1046080099F8D400032804BF99F8D100032840F092
:10461800A680D9E92760056808F083FABFF35F8FA1
:104628003168002900F0E7870A698D4200F0678445
:10463800002A00F0E0879542134600F0DA871169F6
:10464800002900F0D8878D4200F0A1870A69002A66
:1046580000F0D187954200F0CB871169002900F05E
:10466800CA878D4200F093870A69002AE3D100F0D7
:10467800C2BF96F89400032804BF96F89100032857
:104688007FF431AED6E91750D0F8008008F049FA27
:10469800BFF35F8F2968002900F0CD860A69884535
:1046A80040F0DC832A6000F0C6BE13461A690A612E
:1046B80008F042FAE86C41F20C2885F87040C2F222
:1046C8002008002806AE1EBFC168286D8847FEF77F
:1046D800D0BA99F8B400032804BF99F8B1000328A8
:1046E8007FF4AFA8D9E91FA0D0F8008008F019FA24
:1046F800BFF35F8FDAF80010002900F0B1860A696D
:10470800884540F0FE83CAF8002000F0A9BE99F859
:10471800BC00032804BF99F8B90003287FF41CA83B
:10472800D9E92160D0F8008008F0FBF9BFF35F8F6A
:104738003168002900F0B6860A69884540F0198476
:10474800326000F0AFBE0B46114677E299F8DC0004
:10475800032804BF99F8D800032800F0B8834D4611
:10476800012105F8484F55F8140CA970297345F82C
:10477800080CD9F840000122C9F84400D0E9020128
:1047880001F01F0102FA01F1C0F88810D9F84400BD
:1047980089F8D440C9F84C0009F14C000CA9FDF780
:1047A800A7FF08B103206BE099F8D40003284FD184
:1047B80099F86000032842D0042849D199F8D0001C
:1047C800032804BF99F8CC00032841D199F8C80000
:1047D800032804BF99F8C500032839D1D9E9246012
:1047E800D0F8008008F09DF9BFF35F8F3168002989
:1047F80000F0EB860A69884500F06783002A00F01C
:10480800E4869045134600F0DE861169002900F021
:10481800DC86884500F0B8860A69002A00F0D5864B
:10482800904500F0CF861169002900F0CE868845B2
:1048380000F0AA860A69002AE3D100F0C6BE99F8FA
:10484800D000032804BF99F8CC00032800F0248383
:10485800D9F844000122D0E9000101F01F0102FA51
:1048680001F1C0F88810D9F8440089F8D440C9F893
:104878004C0009F14C000CA9FDF73AFF30B10420B7
:1048880028700420DDF808C001F0B3BF99F8D400FF
:10489800DDF808C003284ED199F86000032841D0FC
:1048A800042848D199F8D000032804BF99F8CC000F
:1048B800032840D199F8C800032804BF99F8C50017
:1048C800032838D1D9E92460056808F02AF9BFF32C
:1048D8005F8F3168002900F0A0860A698D4200F0D8
:1048E8004683002A00F099869542134600F0938685
:1048F8001169002900F091868D4200F05D860A69F1
:10490800002A00F08A86954200F084861169002901
:1049180000F083868D4200F04F860A69002AE3D1B1
:1049280000F07BBE99F8D000032804BF99F8CC00AA
:10493800032800F004830120D9F8341089F84800CE
:1049480099F83D00C9F84C10302161F39F0089F8AF
:10495800524089F8500009F140000CA96546FDF75E
:10496800B3FD38B140F2E16A0520C0F2000AAC4656
:10497800FEF7C5BB99F85200AC460338062800F28A
:10498800D18099F8DC00032840F0CC8099F86800C1
:10499800032800F0BE80042840F0C48099F8D800AD
:1049A800032804BF99F8D400032840F0BB8099F885
:1049B800D000032804BF99F8CD00032840F0B28046
:1049C800D9E926100291066808F0ABF8029BBFF3FC
:1049D8005F8F1968002900F037860A698E4200F057
:1049E8000083002A00F030869642134600F02A869B
:1049F8001169002900F028868E4200F0E0850A69D6
:104A0800002A00F02186964200F01B8611690029D1
:104A180000F01A868E4200F0D2850A69002AE3D196
:104A280000F012BE99F8B400032804BF99F8B10049
:104A380003287EF491AFD9E91FA0D0F8008008F0D0
:104A480070F8BFF35F8FDAF80010002900F03F8597
:104A58000A69884540F0C782CAF8002000F037BDCF
:104A6800002A00F086839045134600F08083116980
:104A7800002900F07E83884500F04B830A69002AEC
:104A880000F07783904500F071831169002900F0E8
:104A98007083884500F03D830A69E1E799F8D400FE
:104AA800032804BF99F8D10003287FF449A8D9E95D
:104AB80027100191066808F034F8019BBFF35F8F57
:104AC8001968002900F01F850A698E4240F0A98202
:104AD8001A6000F018BD002A00F0A683964213461B
:104AE80000F0A0831169002900F09E838E4200F037
:104AF80013830A69002A00F09783964200F0918395
:104B08001169002900F090838E4200F005830A693C
:104B1800E1E799F8D800032804BF99F8D4000328DE
:104B280000F04582D9F8341089F83E4099F83D00E4
:104B3800097D99F83020081AD9F82C3089F84420D2
:104B4800C9F84030C9F84800002841F0D78401F07E
:104B580051BD99F8DC00032804BF99F8D90003284F
:104B68007EF478AFD9E92960056807F0DAFFBFF36A
:104B78005F8F3168002900F0D8840A698D4240F0BF
:104B88006E82326000F0D1BC95F87C00032804BF27
:104B980095F8790003287FF440ACD5E9111003910A
:104BA800066807F0BEFF039BBFF35F8F19680029F3
:104BB80000F0CD840A698E4240F06F821A6000F0DE
:104BC800C6BC002A00F063839245134600F05D835B
:104BD8001169002900F05B838A4500F0BE820A69EA
:104BE800002A00F05483924500F04E831169002991
:104BF80000F04D838A4500F0B0820A69E1E799F830
:104C0800B400032804BF99F8B10003287FF44CA826
:104C1800D9E91F60056807F084FFBFF35F8F31682B
:104C2800002900F0A3840A698D4240F05482326062
:104C380000F09CBC0B46114600E113461A690A6154
:104C480007F07AFFD9F8480089F86C4000281EBFA1
:104C5800C168D9F84C008847FEF729B8002A00F047
:104C680054839245134600F04E831169002900F0E1
:104C78004C838A4500F074820A69002A00F0458353
:104C8800924500F03F831169002900F03E838A4570
:104C980000F066820A69E1E7002A00F04D8390453A
:104CA800134600F047831169002900F045838845C1
:104CB80000F059820A69002A00F03E83904500F00E
:104CC80038831169002900F03783884500F04B824A
:104CD8000A69E1E7002A00F045839245134600F08F
:104CE8003F831169002900F03D838A4500F07582F1
:104CF8000A69002A00F03683924500F03083116972
:104D0800002900F02F838A4500F067820A69E1E7ED
:104D180099F8D400032804BF99F8D10003287FF438
:104D280037ACD9E927100191066807F0FAFE019B14
:104D3800BFF35F8F1968002900F02F840A698E423B
:104D480040F0ED811A6000F028BC002A00F02083B2
:104D58009542134600F01A831169002900F0188360
:104D68008D4200F03D820A69002A00F011839542C5
:104D780000F00B831169002900F00A838D4200F0CE
:104D88002F820A69E1E7002A00F01483924513464E
:104D980000F00E831169002900F00C838A4500F0A9
:104DA80070820A69002A00F00583924500F0FF82AC
:104DB8001169002900F0FE828A4500F062820A69C2
:104DC800E1E7002A00F010839045134600F00A83BB
:104DD8001169002900F00883884500F06C820A698F
:104DE800002A00F00183904500F0FB821169002938
:104DF80000F0FA82884500F05E820A69E1E7002A3D
:104E080000F006839245134600F0008311690029DB
:104E180000F0FE828A4500F051820A69002A00F0FB
:104E2800F782924500F0F1821169002900F0F082C2
:104E38008A4500F043820A69E1E713461A690A6164
:104E480007F07AFED9F8480089F86C4000281EBFA0
:104E5800C168D9F84C008847FEF750BF002A00F017
:104E6800EA829045134600F0E4821169002900F0B7
:104E7800E282884500F043820A69002A00F0DB825A
:104E8800904500F0D5821169002900F0D482884548
:104E980000F035820A69E1E799F8C800032804BFE1
:104EA80099F8C50003287FF4D3ACD9E92460D0F879
:104EB800008007F036FEBFF35F8F3168002900F0ED
:104EC80084830A69884540F06A8132607DE399F8F5
:104ED800D400032804BF99F8D10003287FF43FAC1D
:104EE800D9E92760056807F01CFEBFF35F8F3168BA
:104EF800002900F080830A698D4240F07481326095
:104F080079E3002A00F0AC829045134600F0A682AF
:104F18001169002900F0A482884500F033820A69EB
:104F2800002A00F09D82904500F0978211690029BF
:104F380000F09682884500F025820A69E1E799F831
:104F4800C800032804BF99F8C50003287FF4F3AC10
:104F5800D9E92460056807F0E4FDBFF35F8F316885
:104F6800002900F05A830A698D4240F06C81326052
:104F780053E3002A00F096829045134600F0908291
:104F88001169002900F08E82884500F027820A699D
:104F9800002A00F08782904500F08182116900297B
:104FA80000F08082884500F019820A69E1E799F8E3
:104FB800D000032804BF99F8CD0003287FF4B2ADD0
:104FC800D9E926100291066807F0ABFD029BBFF3F2
:104FD8005F8F1968002900F037830A698E4240F014
:104FE80070811A6030E3002A00F071829045134600
:104FF80000F06B821169002900F06982884500F091
:1050080026820A69002A00F06282904500F05C82DC
:105018001169002900F05B82884500F018820A694E
:10502800E1E7002A00F06F829642134600F0698299
:105038001169002900F067828E4200F00B820A692C
:10504800002A00F06082964200F05A821169002915
:1050580000F059828E4200F0FD810A69E1E7002ADA
:1050680000F063829542134600F05D8211690029C1
:1050780000F05B828D4200F009820A69002A00F084
:105088005482954200F04E821169002900F04D8249
:105098008D4200F0FB810A69E1E7002A00F057829F
:1050A8009642134600F051821169002900F04F82A0
:1050B8008E4200F0EE810A69002A00F0488296428A
:1050C80000F042821169002900F041828E4200F00E
:1050D800E0810A69E1E7002A00F048829542134618
:1050E80000F042821169002900F040828D4200F0F0
:1050F800D3810A69002A00F03982954200F0338290
:105108001169002900F032828D4200F0C5810A69D8
:10511800E1E70B4611462AE00B46114682E0002AD9
:1051280000F03B829642134600F03582116900294F
:1051380000F033828E4200F0E0810A69002A00F014
:105148002C82964200F026821169002900F02582FF
:105158008E4200F0D2810A69E1E70B46114694E0DD
:105168000B461146CFE00B461146E3E013461A6999
:105178000A6107F0E1FCD9F88C0040F2E16A41F2DB
:105188000C2889F8B0400028C0F2000AC2F22008B2
:105198001EBFC168D9F890008847FEF7E1B9002A18
:1051A80000F013829045134600F00D821169002922
:1051B80000F00B82884500F0E7810A69002A00F0B8
:1051C8000482904500F0FE811169002900F0FD81FC
:1051D800884500F0D9810A69E1E70B461146BFE02E
:1051E8000B461146D2E0002A00F00582954213468C
:1051F80000F0FF811169002900F0FD818D4200F067
:10520800C6810A69002A00F0F681954200F0F08113
:105218001169002900F0EF818D4200F0B8810A6918
:10522800E1E713461A690A6107F086FCD9F8AC0071
:1052380006AE89F8D04000281EBFC168D9F8B00072
:105248008847FDF735BF002A00F0E78195421346ED
:1052580000F0E1811169002900F0DF818D4200F042
:10526800AB810A69002A00F0D881954200F0D2810A
:105278001169002900F0D1818D4200F09D810A69F1
:10528800E1E70B46114693E013461A690A6107F0F5
:1052980053FCF06E45F2000B40F2E16A86F890404C
:1052A8000028C2F2000BC0F2000A1EBFC168306FAE
:1052B8008847FEF7C8BD0B46114693E00B461146DA
:1052C800A4E0002A00F0C0819642134600F0BA819B
:1052D8001169002900F0B8818E4200F070810A69D6
:1052E800002A00F0B181964200F0AB8111690029D3
:1052F80000F0AA818E4200F062810A69E1E70B465C
:10530800114696E013461A690A6107F015FCF06E1B
:1053180045F2000B40F2E16A86F890400028C2F29C
:10532800000BC0F2000A1EBFC168306F8847FEF745
:10533800FDBE13461A690A6107F0FEFBD9F88C0016
:1053480041F20C2889F8B040C2F22008002806AEC5
:105358001EBFC168D9F890008847FEF771B9134697
:105368001A690A6107F0E8FBF06E40F2E16A86F814
:105378009040C0F2000A00281EBFC168306F8847FD
:10538800FEF7DFBD0B46114668E013461A690A614D
:1053980007F0D2FBD9F8AC0006AE89F8D040002857
:1053A8001EBFC168D9F8B0008847FDF736BF13465D
:1053B8001A690A6107F0C0FBF06E45F2000B40F273
:1053C800E16A86F890400028C2F2000BC0F2000A99
:1053D8001EBFC168306F8847FEF713BF0B461146E2
:1053E8005EE013461A690A6107F0A6FB686D41F290
:1053F8000C28C2F2200885F8784000283EF427A837
:10540800C168A86D8847FEF722B813461A690A6171
:1054180007F092FB706F40F2E16A86F89840C0F29C
:10542800000A00281EBFC168B06F8847FEF70EBE8D
:1054380013461A690A6107F07FFBF06E86F8904000
:1054480000281EBFC168306F8847FEF74CBF0B4667
:1054580011463AE00B46114653E013461A690A61B1
:1054680007F06AFBD9F88C0040F2E16A41F20C2897
:1054780089F8B0400028C0F2000AC2F220081EBF16
:10548800C168D9F890008847FEF7DBB90B4611468A
:1054980049E00B46114658E00B46114664E01346B6
:1054A8001A690A6107F048FBD9F8940041F20C2800
:1054B80089F8B840C2F2200800281EBFC168D9F890
:1054C80098008847FEF748B913461A690A6107F039
:1054D80033FBD9F88C0040F2E16A41F20C2889F8D4
:1054E800B0400028C0F2000AC2F220081EBFC168FE
:1054F800D9F890008847FEF72FBA0B4611464AE0C4
:1055080013461A690A6107F017FBD9F8AC0006AE12
:1055180089F8D04000281EBFC168D9F8B000884774
:10552800FEF70EBB13461A690A6107F005FBD9F8A6
:10553800B40006AE89F8D84000281EBFC168D9F863
:10554800B8008847FEF786BA13461A690A6107F059
:10555800F3FA686D85F8784000281EBFC168A86D09
:105568008847FEF75ABF13461A690A6107F0E4FA3A
:10557800D9F88C0089F8B04000281EBFC168D9F856
:1055880090008847FEF790BB0B4611461BE00B4680
:1055980011462EE013461A690A6107F0CDFAD9F8C8
:1055A800AC0006AE89F8D04000281EBFC168D9F803
:1055B800B0008847FEF7ECBF0B4611462BE00B46C0
:1055C80011463FE013461A690A6107F0B5FAD9F89F
:1055D800A00041F20C2889F8C440C2F22008002833
:1055E80006AE1EBFC168D9F8A4008847FFF730B9D6
:1055F80013461A690A6107F09FFAD9F8AC0006AE9B
:1056080089F8D04000281EBFC168D9F8B000884783
:10561800FFF7A5B813461A690A6107F08DFAD9F899
:10562800A00006AEDDF808C0002889F8C4403FF4A1
:1056380082A9C168D9F8A4008847DDF808C0FFF737
:105648007AB913461A690A6107F076FAD9F8A800F8
:1056580006AEAC4689F8CC4000283FF463AAC1687E
:10566800D9F8AC008847AC46FFF75CBA012589F841
:105678002D2089F82E50C9F82400C9E90513017DA9
:105688008A4281F01284CA4640210AF83A4F0AF841
:10569800021C4AF8060C4D4605F8444F15F80C1C38
:1056A80045F8140C45F8080C05F80B1CC9F840001F
:1056B8000122D0E9020101F01F0102FA01F1C0F84C
:1056C8008810D9F8400089F8D040C9F8480009F195
:1056D80048000CA9FDF70CF808B103206DE099F813
:1056E800D000032851D199F85C00032844D004283D
:1056F8004BD199F8CC00032804BF99F8C8000328B7
:1057080043D199F8C400032804BF99F8C1000328BD
:105718003BD1D9E923100391D0F800B007F001FA82
:10572800039BBFF35F8F1968002900F04F860A6951
:105738008B4500F06084002A00F048869345944623
:1057480000F041861169002900F040868B4500F081
:10575800D3850A69002A00F03986934500F032861D
:105768001169002900F032868B4500F0C5850A6969
:10577800002AE3D100F02ABE99F8CC00032804BF20
:1057880099F8C800032800F01B84D9F840000122CA
:10579800D0E9000101F01F0102FA01F1C0F88810F8
:1057A800D9F8400089F8D040C9F8480009F1480004
:1057B8000CA9FCF79DFF18B1042028700320C0E154
:1057C80099F8D00003284FD199F85C00032842D0FB
:1057D800042849D199F8CC00032804BF99F8C800D7
:1057E800032841D199F8C400032804BF99F8C100DF
:1057F800032839D1D9E92350D0F800B007F091F93E
:10580800BFF35F8F2968002900F088850A698B45F6
:1058180000F07F83002A00F081859345134600F04D
:105828007B851169002900F079858B4500F0588542
:105838000A69002A00F07285934500F06C851169A9
:10584800002900F06B858B4500F04A850A69002A1B
:10585800E3D100F063BD99F8CC00032804BF99F8A0
:10586800C800032800F03C83012099F8391089F812
:105878004400D9F8300089F84E4089F84C10C9F82E
:10588800480009F13C000CA9FCF71EFE08B10420F1
:1058980057E199F84E000338062853D899F8D800EC
:1058A80003284FD199F86400032842D0042849D12D
:1058B80099F8D400032804BF99F8D000032841D1EF
:1058C80099F8CC00032804BF99F8C900032839D1F6
:1058D800D9E92550D0F800B007F023F9BFF35F8F5E
:1058E8002968002900F0B1850A698B4500F0D68344
:1058F800002A00F0AA859345134600F0A485116993
:10590800002900F0A2858B4500F0FF840A69002A6F
:1059180000F09B85934500F095851169002900F0FA
:1059280094858B4500F0F1840A69002AE3D100F0E0
:105938008CBD99F8D400032804BF99F8D000032837
:1059480000F093834D4605F8444F55F8140C45F87C
:10595800080CC9F840000122D0E9020101F01F013A
:1059680002FA01F1C0F88810D9F8400089F8D0404F
:10597800C9F8480009F148000CA9FCF7B9FE08B1BC
:105988000320DCE099F8D000032851D199F85C0095
:10599800032844D004284BD199F8CC00032804BF2D
:1059A80099F8C800032843D199F8C400032804BF14
:1059B80099F8C10003283BD1D9E923100391D0F805
:1059C80000B007F0AEF8039BBFF35F8F196800299A
:1059D80000F012850A698B4500F02A83002A00F03E
:1059E8000B859345944600F004851169002900F061
:1059F80003858B4500F083840A69002A00F0FC8443
:105A0800934500F0F5841169002900F0F5848B4571
:105A180000F075840A69002AE3D100F0EDBC99F81A
:105A2800CC00032804BF99F8C800032800F0E582D9
:105A3800D9F840000122D0E9000101F01F0102FA63
:105A480001F1C0F88410D9F8400089F8D040C9F8AD
:105A5800480009F148000CA9FCF74AFE08B10420E7
:105A68006DE099F8D000032851D199F85C0003281B
:105A780044D004284BD199F8CC00032804BF99F8E6
:105A8800C800032843D199F8C400032804BF99F833
:105A9800C10003283BD1D9E923100391D0F800B005
:105AA80007F03FF8039BBFF35F8F1968002900F0E8
:105AB8005F840A698B4500F06482002A00F05884EC
:105AC8009345944600F051841169002900F05084F0
:105AD8008B4500F00B840A69002A00F0498493453D
:105AE80000F042841169002900F042848B4500F0DF
:105AF800FD830A69002AE3D100F03ABC99F8CC008A
:105B0800032804BF99F8C800032800F01F82D9F8B9
:105B180040000122D0E9020101F01F0102FA01F15F
:105B2800C0F88410D9F8400089F8D040C9F8480076
:105B380009F148000CA9FCF7DBFD58B105202870D5
:105B480005208AF8000040F2E16A0320C0F2000A4A
:105B580001F044B999F8D00040F2E16AC0F2000AB5
:105B680003284ED199F85C00032841D0042848D175
:105B780099F8CC00032804BF99F8C800032840D13D
:105B880099F8C400032804BF99F8C100032838D144
:105B9800D9E92350D0F800A006F0C3FFBFF35F8F08
:105BA8002968002900F0CF830A698A4500F0CC8172
:105BB800002A00F0C8839245134600F0C283116999
:105BC800002900F0C0838A4500F08D830A69002A05
:105BD80000F0B983924500F0B3831169002900F001
:105BE800B2838A4500F07F830A69002AE3D1AAE3D9
:105BF80099F8CC00032804BF99F8C800032800F0DE
:105C08008A814D46012105F8384F55F8140CA970C2
:105C1800297345F8080CD9F830000122C9F8340076
:105C2800D0E9020101F01F0102FA01F1C0F8881061
:105C3800D9F8340089F8C440C9F83C0009F13C009F
:105C48000CA9FCF755FD08B103206BE099F8C400D6
:105C580003284FD199F85000032842D0042849D18D
:105C680099F8C000032804BF99F8BC00032841D163
:105C780099F8B800032804BF99F8B500032839D16A
:105C8800D9E920B0D0F800A006F04BFFBFF35F8F32
:105C9800DBF80010002900F080830A698A4500F0CB
:105CA8008C81002A00F079839245134600F07383B3
:105CB8001169002900F071838A4500F01A830A6986
:105CC800002A00F06A83924500F064831169002974
:105CD80000F063838A4500F00C830A69002AE3D147
:105CE8005BE399F8C000032804BF99F8BC000328B7
:105CF80000F04981D9F834000122D0E9000101F00F
:105D08001F0102FA01F1C0F88810D9F8340089F8A7
:105D1800C440C9F83C0009F13C000CA9FCF7E8FCB8
:105D280020B104202870042001F058B899F8C40064
:105D380003284ED199F85000032841D0042848D1AF
:105D480099F8C000032804BF99F8BC00032840D183
:105D580099F8B800032804BF99F8B500032838D18A
:105D6800D9E92050D0F800A006F0DBFEBFF35F8F22
:105D78002968002900F055830A698A4500F0738173
:105D8800002A00F04E839245134600F048831169BB
:105D9800002900F046838A4500F0B4820A69002A87
:105DA80000F03F83924500F039831169002900F023
:105DB80038838A4500F0A6820A69002AE3D130E3D5
:105DC80099F8C000032804BF99F8BC00032800F024
:105DD80031810120D9F8241089F8380099F82D006C
:105DE800C9F83C10302161F39F0089F8424089F8D6
:105DF800400009F130000CA9FCF766FB10B1052042
:105E080000F0ECBF99F842000338062852D899F8F8
:105E1800CC0003284ED199F85800032841D0042813
:105E280048D199F8C800032804BF99F8C40003288A
:105E380040D199F8C000032804BF99F8BD00032891
:105E480038D1D9E92250D0F800A006F06AFEBFF395
:105E58005F8F2968002900F00D830A698A4500F0E0
:105E68003881002A00F006839245134600F000832B
:105E78001169002900F0FE828A4500F049820A690A
:105E8800002A00F0F782924500F0F182116900299A
:105E980000F0F0828A4500F03B820A69002AE3D1CB
:105EA800E8E299F8C800032804BF99F8C400032859
:105EB80000F0F680D9F82400354689F82E4099F884
:105EC8002D30007DD9E90512C01AC9E90C12C9F8AC
:105ED800380009F13806002840F0098600F083BE32
:105EE80099F8C400032804BF99F8C10003287FF477
:105EF800BBACD9E92350D0F800B006F012FEBFF3CE
:105F08005F8F2968002900F009820A698B4540F0F3
:105F1800E2802A6002E299F8C400032804BF99F8D5
:105F2800C10003287FF46DAED9E92350D0F800A052
:105F380006F0F7FDBFF35F8F2968002900F00382A0
:105F48000A698A4540F0E5802A60FCE199F8C400B6
:105F5800032804BF99F8C10003287FF4D8ADD9E914
:105F680023100391D0F800B006F0DBFD039BBFF3CC
:105F78005F8F1968002900F0FB810A698B4540F0A2
:105F8800E6801A60F4E199F8B800032804BF99F88C
:105F9800B50003287FF4AEAED9E920B0D0F800A050
:105FA80006F0BFFDBFF35F8FDBF80010002900F09B
:105FB800F4810A698A4540F0E880CBF80020ECE1DA
:105FC80099F8C400032804BF99F8C10003287FF496
:105FD800DCABD9E923100391D0F800B006F0A1FD9D
:105FE800039BBFF35F8F1968002900F0EF810A69EE
:105FF8008B4540F0E8801A60E8E199F8C40003286E
:1060080004BF99F8C10003287FF412ADD9E9231021
:106018000391D0F800B006F084FD039BBFF35F8FB7
:106028001968002900F0E8810A698B4540F0E8808A
:106038001A60E1E199F8B800032804BF99F8B5009F
:1060480003287FF4C6AED9E92050D0F800A006F0A6
:1060580068FDBFF35F8F2968002900F0E2810A69B3
:106068008A4540F0E9802A60DBE199F8CC000328F2
:1060780004BF99F8C90003287FF464ACD9E9255016
:10608800D0F800B006F04DFDBFF35F8F29680029F6
:1060980000F0DB810A698B4540F0EA802A60D4E190
:1060A80099F8C000032804BF99F8BD0003287FF4BD
:1060B80001AFD9E92250D0F800A006F032FDBFF3B5
:1060C8005F8F2968002900F0D5810A698A4540F068
:1060D800EB802A60CEE1002A00F020819345134628
:1060E80000F01A811169002900F018818B4500F031
:1060F800F7800A69002A00F01181934500F00B81AE
:106108001169002900F00A818B4500F0E9800A69CD
:10611800E1E7002A00F017819245134600F011814B
:106128001169002900F00F818A4500F0DC800A69B6
:10613800002A00F00881924500F0028111690029C7
:1061480000F001818A4500F0CE800A69E1E7002A63
:1061580000F00E819345944600F0078111690029EB
:1061680000F006818B4500F0C1800A69002A00F022
:10617800FF80934500F0F8801169002900F0F8804D
:106188008B4500F0B3800A69E1E7002A00F0058139
:106198009245134600F0FF801169002900F0FD8048
:1061A8008A4500F0A6800A69002A00F0F680924528
:1061B80000F0F0801169002900F0EF808A4500F0B6
:1061C80098800A69E1E7002A00F000819345944627
:1061D80000F0F9801169002900F0F8808B4500F083
:1061E8008B800A69002A00F0F180934500F0EA806C
:1061F8001169002900F0EA808B457DD00A69E2E741
:10620800002A00F0F9809345944600F0F280116965
:10621800002900F0F1808B4571D00A69002A00F04E
:10622800EB80934500F0E4801169002900F0E480D8
:106238008B4564D00A69E3E7002A00F0F2809245B2
:10624800134600F0EC801169002900F0EA808A45C5
:1062580058D00A69002A00F0E480924500F0DE80F8
:106268001169002900F0DD808A454BD00A69E3E70F
:10627800002A00F0EA809345134600F0E480116993
:10628800002900F0E2808B453FD00A69002A00F01F
:10629800DC80934500F0D6801169002900F0D58094
:1062A8008B4532D00A69E3E7002A00F0E380924583
:1062B800134600F0DD801169002900F0DB808A4573
:1062C80026D00A69002A00F0D580924500F0CF80D8
:1062D8001169002900F0CE808A4519D00A69E3E7E0
:1062E8000B46114618E00B4611462AE08C4611462B
:1062F8003BE00B4611464EE08C46114663E08C4667
:10630800114676E00B46114689E00B4611469AE0A5
:106318000B461146ACE013461A690A6106F00CFCFC
:10632800D9F89C0045F2000B89F8C040C2F2000B76
:1063380000281EBFC168D9F8A0008847FFF794BAA3
:1063480013461A690A6106F0F7FBD9F89C0040F277
:10635800E16A89F8C040C0F2000A00281EBFC1687F
:10636800D9F8A00088474CE49446DCF810200A616C
:1063780006F0E2FBD9F89C0045F2000B89F8C04012
:10638800C2F2000B00281EBFC168D9F8A0008847D8
:10639800FFF7BDBB13461A690A6106F0CDFBD9F8B1
:1063A800900045F2000B40F2E16A89F8B4400028F9
:1063B800C2F2000BC0F2000A1EBFC168D9F89400EF
:1063C800884797E49446DCF810200A6106F0B4FB8D
:1063D800D9F89C0045F2000B89F8C040C2F2000BC6
:1063E80000281EBFC168D9F8A0008847FFF7CDB9BB
:1063F8009446DCF810200A6106F09EFBD9F89C0050
:1064080045F2000B89F8C040C2F2000B00281EBFFD
:10641800C168D9F8A0008847FFF70ABB13461A6974
:106428000A6106F089FBD9F8900040F2E16A89F820
:10643800B440C0F2000A00281EBFC168D9F8940011
:106448008847C6E413461A690A6106F075FBD9F84D
:10645800A40045F2000B89F8C840C2F2000B0028DE
:106468001EBFC168D9F8A8008847FFF76BBA134662
:106478001A690A6106F060FBD9F8980040F2E16AEF
:1064880089F8BC40C0F2000A00281EBFC168D9F8CC
:106498009C0088470EE5C8460B4408F82F4F08F8BB
:1064A800032C48F8070C48F8131C48F80F3CFFF772
:1064B800DDB848F639610423C3F6E301A0FB0112F5
:1064C8005108002201EBC101401A40F25941C2F2C1
:1064D8002001085C494601F80C0F4F2001F1DD0648
:1064E800C87045F60630A1F8010051F8080CA1F86B
:1064F800DC20C1E93413C1F8D800CCE7D9F8401042
:106508000138C9F84800002974D0481EC9F840006D
:10651800D9F8340099F8441089F85E4089F85C107D
:10652800C9F8580009F14C000CA96546FBF7CCFFE7
:10653800AC4608B106205CE199F85E0003380628ED
:1065480053D899F8E80003284FD199F87400032824
:1065580042D0042849D199F8E400032804BF99F8E7
:10656800E000032841D199F8DC00032804BF99F81A
:10657800D900032839D1D9E929100291066806F013
:10658800D0FA029BBFF35F8F1968002900F0898257
:106598000A698E4200F0DA81002A00F0828296426F
:1065A800134600F07C821169002900F07A828E423D
:1065B80000F044820A69002A00F07382964200F0D3
:1065C8006D821169002900F06C828E4200F03682DB
:1065D8000A69002AE3D164E299F8E400032804BFB9
:1065E80099F8E000032800F09881D9F848000028BD
:1065F8007FF484AF4D46CDF808C005F8484F55F8EC
:10660800140C45F8080CD9F840000122C9F84400D8
:10661800D0E9020101F01F0102FA01F1C0F8881067
:10662800D9F8440089F8D440C9F84C0009F14C0065
:106638000CA9FCF75DF808B10320D6E099F8D4005E
:1066480003284ED199F86000032841D0042848D186
:1066580099F8D000032804BF99F8CC00032840D14A
:1066680099F8C800032804BF99F8C500032838D151
:10667800D9E92460D0F8008006F053FABFF35F8FA1
:106688003168002900F0E3810A69884500F0298112
:10669800002A00F0DC819045134600F0D68111698C
:1066A800002900F0D481884500F0C2810A69002AD7
:1066B80000F0CD81904500F0C7811169002900F0F4
:1066C800C681884500F0B4810A69002AE3D1BEE199
:1066D80099F8D000032804BF99F8CC00032800F0EB
:1066E800E880D9F844000122D0E9000101F01F0137
:1066F80002FA01F1C0F88410D9F8440089F8D440AE
:10670800C9F84C0009F14C000CA9FBF7F1FF08B1DE
:1067180004206AE099F8D40003284ED199F8600063
:10672800032841D0042848D199F8D000032804BF91
:1067380099F8CC00032840D199F8C800032804BF71
:1067480099F8C500032838D1D9E92460D0F8008029
:1067580006F0E7F9BFF35F8F3168002900F08C81FC
:106768000A69884500F0D780002A00F085819045A5
:10677800134600F07F811169002900F07D8188456A
:1067880000F059810A69002A00F07681904500F0EE
:1067980070811169002900F06F81884500F04B81F4
:1067A8000A69002AE3D167E199F8D000032804BFF9
:1067B80099F8CC00032800F09680D9F8440001220B
:1067C800D0E9020101F01F0102FA01F1C0F88410BA
:1067D800D9F8440089F8D440C9F84C0009F14C00B4
:1067E8000CA9FBF785FF50B10520DDF808C028701B
:1067F800072040F2E16AC0F2000AFCF780BC99F871
:10680800D400DDF808C003284CD199F860000328AB
:1068180040D0042846D199F8D000032804BF99F83D
:10682800CC0003283ED199F8C800032804BF99F882
:10683800C500032836D1D9E92460056806F071F946
:10684800BFF35F8F3168002900F03F810A698D42EC
:1068580000F09480002A00F038819542134600F039
:1068680032811169002900F030818D4200F0E98001
:106878000A69002A00F02981954200F023811169F4
:10688800002900F022818D4200F0DB800A69002A8D
:10689800E3D11AE199F8D000032804BF99F8CC0095
:1068A800032855D009F13E06012089F84800FCF775
:1068B80095BA99F8C800032804BF99F8C5000328B9
:1068C8007FF40FAFD9E92460D0F8008006F029F9E9
:1068D800BFF35F8F3168002900F0B9800A698845E5
:1068E8004ED13260B3E099F8C800032804BF99F884
:1068F800C50003287FF461AFD9E92460D0F800808F
:1069080006F00FF9BFF35F8F3168002900F0B480FB
:106918000A6988454AD13260AEE099F8DC0003285C
:1069280004BF99F8D90003287FF45FAED9E929108C
:106938000291066806F0F5F8029BBFF35F8F1968AD
:10694800002900F0AE800A698E4245D11A60A8E09D
:1069580099F8C800032804BF99F8C5000328A1D1F5
:10696800D9E92460056806F0DCF8BFF35F8F316869
:10697800002900F0AA800A698D4243D13260A4E060
:10698800002A64D0904513465FD0116900295ED073
:1069980088454DD00A69002A59D0904554D01169CC
:1069A800002954D0884543D00A69E9E7002A63D012
:1069B800904513465ED0116900295DD088453AD0CC
:1069C8000A69002A58D0904553D01169002953D03C
:1069D800884530D00A69E9E7002A62D09642134612
:1069E8005DD0116900295CD08E4227D00A69002A3F
:1069F80057D0964252D01169002952D08E421DD0EC
:106A08000A69E9E7002A60D0954213465BD011690C
:106A180000295AD08D4214D00A69002A55D09542CF
:106A280050D01169002950D08D420AD00A69E9E78F
:106A38000B46114609E00B4611461BE00B46114672
:106A48002DE00B4611463EE013461A690A6106F02E
:106A580073F8D9F8A00041F20C2889F8C440C2F2B2
:106A68002008002806AE1EBFC168D9F8A4008847D0
:106A780037E613461A690A6106F05EF8D9F8A000ED
:106A880041F20C2889F8C440C2F22008002806AE5A
:106A98001EBFC168D9F8A40088478EE613461A6954
:106AA8000A6106F049F8D9F8B40006AEAC4689F890
:106AB800D84000283FF499ADC168D9F8B800884794
:106AC800AC4692E513461A690A6106F035F8D9F81A
:106AD800A000DDF808C0002889F8C4403FF4E2AE01
:106AE800C168D9F8A4008847DDF808C0DAE6D9E912
:106AF8000C120138C9F83800914274D011F8010B12
:106B08002E46D9F82420C9F8301089F84C00C9F865
:106B1800482089F84E4009F13C000CA9FBF7D4FC49
:106B280008B106205AE199F84E000338062852D8D1
:106B380099F8D80003284ED199F86400032841D069
:106B4800042848D199F8D400032804BF99F8D00044
:106B5800032840D199F8CC00032804BF99F8C9004C
:106B6800032838D1D9E92550D0F800A005F0D9FF7D
:106B7800BFF35F8F2968002900F025830A698A45D9
:106B880000F05D82002A00F01E839245134600F053
:106B980018831169002900F016838A4500F0CD8218
:106BA8000A69002A00F00F83924500F009831169F1
:106BB800002900F008838A4500F0BF820A69002A8C
:106BC800E3D100E399F8D400032804BF99F8D00072
:106BD800032800F01C823546D9F8380009F1380638
:106BE80000287FF484AFD9F8240089F83840C9F820
:106BF8003000C9F834000122D0E9020101F01F0178
:106C080002FA01F1C0F88810D9F8340089F8C440B4
:106C1800C9F83C0009F13C000CA9FBF769FD08B173
:106C28000320D8E099F8C40003284FD199F8500000
:106C3800032842D0042849D199F8C000032804BF8A
:106C480099F8BC00032841D199F8B800032804BF7B
:106C580099F8B500032839D1D9E920B0D0F800A0B7
:106C680005F05FFFBFF35F8FDBF80010002900F02D
:106C780092820A698A4500F0AD81002A00F08B8271
:106C88009245134600F085821169002900F083823D
:106C98008A4500F04C820A69002A00F07C829245FD
:106CA80000F076821169002900F075828A4500F0AB
:106CB8003E820A69002AE3D16DE299F8C0000328F0
:106CC80004BF99F8BC00032800F06B81D9F83400A0
:106CD8000122D0E9000101F01F0102FA01F1C0F818
:106CE8008410D9F8340089F8C440C9F83C0009F187
:106CF8003C000CA9FBF7FCFC08B104206BE099F8F8
:106D0800C40003284FD199F85000032842D0042822
:106D180049D199F8C000032804BF99F8BC0003289A
:106D280041D199F8B800032804BF99F8B5000328A1
:106D380039D1D9E920B0D0F800A005F0F2FEBFF3B0
:106D48005F8FDBF80010002900F0FD810A698A4591
:106D580000F02481002A00F0F6819245134600F0E5
:106D6800F0811169002900F0EE818A4500F0DC818C
:106D78000A69002A00F0E781924500F0E181116973
:106D8800002900F0E0818A4500F0CE810A69002AD6
:106D9800E3D1D8E199F8C000032804BF99F8BC00F2
:106DA800032800F0E180D9F834000122D0E902017B
:106DB80001F01F0102FA01F1C0F88410D9F834007B
:106DC80089F8C440C9F83C0009F13C000CA9FBF75C
:106DD8008FFCA8B10520307007202E4688F80000E7
:106DE80003200721307041F20C2806AEC2F22008B9
:106DF800DDE9062089F81010D1688847FBF724BE22
:106E080099F8C40003284ED199F85000032841D0BE
:106E1800042848D199F8C000032804BF99F8BC0099
:106E2800032840D199F8B800032804BF99F8B500A1
:106E3800032838D1D9E92050D0F8008005F071FE38
:106E4800BFF35F8F2968002900F095810A6988459A
:106E580000F0DB80002A00F08E819045134600F098
:106E680088811169002900F08681884500F06281D7
:106E78000A69002A00F07F81904500F07981116944
:106E8800002900F07881884500F054810A69002AB9
:106E9800E3D170E199F8C000032804BF99F8BC0059
:106EA800032800F09A8001253570D9F8080011A947
:106EB8005C2289F8E9500130C9F80800642089F893
:106EC8002F50C9F8140009F1180007F087F941F2AA
:106ED8000C2806AEC2F2200889F8744009F11400A3
:106EE8000CA9FBF7E5F908B1082181E799F87400C6
:106EF800032807D199F87000032804BF99F86D009A
:106F0800032803D0D9F80800FFF7D3BAD9E90E60EF
:106F1800056805F006FEBFF35F8F3168002900F0B1
:106F2800F6800A698D4201D13260F0E0002A00F053
:106F3800EE809542134600F0E8801169002900F0C0
:106F4800E6808D4200F0C7800A69002A00F0DF80E1
:106F5800954200F0D9801169002900F0D8808D424F
:106F680000F0B9800A69E1E799F8B800032804BF7E
:106F780099F8B50003287FF416AFD9E920B0D0F806
:106F880000A005F0CEFDBFF35F8FDBF800100029ED
:106F980000F0D9800A698A4540F08880CBF8002043
:106FA800D1E099F8B800032804BF99F8B500032880
:106FB8007FF48CAED9E920B0D0F800A005F0B1FD7F
:106FC800BFF35F8FDBF80010002900F0E4800A6946
:106FD8008A4552D1CBF80020DDE099F8B8000328A3
:106FE80004BF99F8B50003287FF45DAFD9E92050B4
:106FF800D0F8008005F095FDBFF35F8F2968002960
:1070080000F0B9800A6988451BD12A60B3E099F875
:10701800CC00032804BF99F8C90003287FF4DBAD2E
:10702800D9E92550D0F800A005F07BFDBFF35F8FAC
:107038002968002900F0C7800A698A454ED12A606C
:10704800C1E0002A00F097809045134600F0918037
:107058001169002900F08F8088456BD00A69002AE1
:1070680000F08980904500F083801169002900F0C4
:10707800828088455ED00A69E3E7002A00F08B80A9
:107088009245134600F085801169002900F083803D
:107098008A454CD00A69002A7DD0924578D011697A
:1070A800002978D08A4542D00A69E6E7002A4AD002
:1070B8009245134645D01169002944D08A4533D0FA
:1070C8000A69002A3FD092453AD01169D9B38A4556
:1070D8002AD00A69EAE70B46114616E0002A72D060
:1070E800924513466DD0116900296CD08A4524D089
:1070F8000A69002A67D0924562D01169002962D0D6
:107108008A451AD00A69E9E713461A690A6105F03F
:1071180013FDD9F8480089F86C4000281EBFC168E3
:10712800D9F84C008847EDE60B46114609E00B46B6
:1071380011462EE00B4611461BE00B46114640E077
:1071480013461A690A6105F0F7FCD9F8900045F270
:10715800000B40F2E16A89F8B4400028C2F2000B43
:10716800C0F2000A1EBFC168D9F8940088471AE621
:1071780013461A690A6105F0DFFCD9F8900089F80E
:10718800B44000281EBFC168D9F8940088478AE631
:1071980013461A690A6105F0CFFCD9F8900045F248
:1071A800000B40F2E16A89F8B4400028C2F2000BF3
:1071B800C0F2000A1EBFC168D9F89400884785E567
:1071C80013461A690A6105F0B7FCD9F8A40040F221
:1071D800E16A89F8C840C0F2000A00281EBFC168E9
:1071E800D9F8A8008847F6E440F27010C2F22000EF
:1071F80006F08CFD40F28010C2F2200006F086FDF9
:1072080040F26010C2F2200006F080FD40F2A010AB
:10721800C2F2200006F07AFD40F2D010C2F220003F
:1072280006F074FD40F2C010C2F2200006F06EFDB8
:1072380040F2B010C2F2200006F068FD40F2901053
:10724800C2F2200006F062FDFEDE80B56F46E4B0B3
:1072580005F077FC48F28C500121C2F2000001AA27
:1072680001704EF27140CEF20000F02101704EF232
:107278000C10CEF200004FF40031016045F200011D
:107288000020C2F20001ADF8800048F298540A606C
:10729800C2F20004ADF8740121A8486044F200006D
:1072A800C2F20000A04203D905F055FCA04203D960
:1072B80000F015F8FBF7B4FB012100205F9140F2C4
:1072C8008C41C2F220016290619004205E9140F2EC
:1072D800944160905EA8C2F2200105F07EFEF0B5F0
:1072E80003AF2DE9000FADF2045DD0AC204602F0EB
:1072F80031FB06A8214600F096FC10ABDDE90C80B6
:107308000DF1080C0ECB8CE80F0002A802F0CBFCA4
:1073180006460020089004200790032006904FF4AA
:107328007A6047F8200CA7F1200089460090D0A881
:1073380003A906AB01224FF0010A00F02AF9D09800
:10734800002840F0F28048F2FC03DDF844C3C4F2A0
:107358001F030525D3F8340245F2000E4FF4E04030
:10736800C2F2000EC3F83402186C65F30300186407
:107378000299486820F001004860986C65F30300A2
:1073880098644868DDF808B020F004004860586C3C
:1073980065F303005864DBF8040020F00200CBF822
:1073A80004004EF21000CEF20000046824F001043C
:1073B8000460046844F00404046042F2BF74C0F23C
:1073C80009044460046844F002040460046844F05A
:1073D8000104046048F28050BFF35F8FC2F20000DE
:1073E80080F804A0BFF35F8FD3F8F40140F4006085
:1073F800C3F8F401D3F8F00140F40060C3F8F001D9
:10740800186865F303001860D8F8040040F4803069
:10741800C8F80400586865F303005860D8F80400F9
:1074280040F40030C8F80400DEF8044004F1F0032A
:10743800D3E84F0F48B90120BFF35F8FC3E8450F6A
:1074480055B1D3E84F5F002DF8D040F23C30BFF380
:107458002F8FC2F2200023E041F25C630020C2F2C9
:107468002003BFF35F8F207401202360BFF35F8F79
:1074780084F8F100DEF8005005F17C04D4E84F2FC1
:1074880042B9BFF35F8FC4E8420FB2B1D4E84F2FBF
:10749800002AF8D040F22C30BFF32F8FC2F2200020
:1074A80040F21C33009040F2F210C2F22003C2F204
:1074B800200006AA2B2105F0D2FD41F2446241F2D8
:1074C80038644FF0000EC2F22002C2F22004BFF36B
:1074D8005F8F85F814E00120C5E90042BFF35F8F94
:1074E80085F87D0041F240655061C2F2200548F6FA
:1074F8000470C5F800C002F1080C0225C2E9001E9C
:107508008CE822081121102298824FF47A70C4E97D
:107518000069C3E90082C3E90281186105F013FB21
:107528000DF2045DBDE8000FF0BDD0AA06AB07CA96
:1075380007C340F25C30C2F2200040F24C330090A6
:1075480040F2F210C2F22003C2F2200006AA2B2158
:1075580005F085FD48F28050C2F2000000F015BB2E
:10756800007840F28C320B4640F22471C2F22001BE
:10757800C2F2200251F8201052F82020184606F0D6
:10758800DFB8084640F20871C2F22001122206F064
:10759800D7B8F0B503AF2DE9000FB3B00C4648F2E9
:1075A8003011C2F200011D4601F212419246012338
:1075B800BFF35F8FD1E84F2FC1E8463F002EF9D1C6
:1075C800BFF35F8F32B194E80E000EC033B0BDE850
:1075D800000FF0BD48F230160590C2F200064FF4D5
:1075E8008061304606F0FEFD05F09BFA8046304685
:1075F800294601F0B0F920B194E80700059B07C3BC
:107608004BE248F24850D4F800C0C2F20000A26829
:10761800066046F20000C2F2000041F23813C618B4
:10762800BFF35F8F56E8003F43F0004546E800543B
:10763800002CF7D1B3F1FF3FBFF35F8F40F33A82DD
:1076480045F218060124C2F2000606F5A063BFF34E
:107658005F8FD3E84F5FC3E8414F0029F9D1CDF8D8
:107668001080002DBFF35F8F40F02F8241F2381158
:10767800CDE92EC20144279000F5865200F58050CE
:107688000DF19C0B2D9106214FF00009CDE9281032
:1076980058462C914FF00108CDE92A120121CDE975
:1076A8003063ADF8C89002F08CFEBBE87E000DF1A7
:1076B800180C0CF104007EC09BE87E007EC060467A
:1076C800514666468DF84C80CDF8189003F097FF28
:1076D8009DF84C0018B10698B968A0B300E205F00F
:1076E8003DFA044605F02DFAE1070698B96827D156
:1076F800002840F0F5814FF0FF3027AD06900020BC
:10770800279006F12000289028460C6803F0FBFE1D
:10771800284603F040FF2846514603F048FF284614
