:0200000460009A
:100000004643464200000156000000000101020084
:1000100000000000000000000000000000000000E0
:1000200000000000000000000000000000000000D0
:1000300000000000000000000000000000000000C0
:1000400000000000010403000000000000000000A8
:100050000000200000000000000000000000000080
:100060000000000000000000000000000000000090
:100070000000000000000000000000000000000080
:10008000EB04180A063204260000000000000000FD
:10009000050404240000000000000000000000002F
:1000A0000000000000000000000000000000000050
:1000B0000604000000000000000000000000000036
:1000C0000000000000000000000000000000000030
:1000D00020041808000000000000000000000000DC
:1000E0000000000000000000000000000000000010
:1000F0000000000000000000000000000000000000
:1001000000000000000000000000000000000000EF
:100110000204180804200000000000000000000095
:1001200000000000000000000000000000000000CF
:10013000600400000000000000000000000000005B
:1001400000000000000000000000000000000000AF
:10015000000000000000000000000000000000009F
:10016000000000000000000000000000000000008F
:10017000000000000000000000000000000000007F
:10018000000000000000000000000000000000006F
:10019000000000000000000000000000000000005F
:1001A000000000000000000000000000000000004F
:1001B000000000000000000000000000000000003F
:1001C000000100000010000001000000000000001D
:1001D000000000000000000000000000000000001F
:1001E000000000000000000000000000000000000F
:1001F00000000000000000000000000000000000FF
:10020000D4D4D4D4D4D4D4D4D4D4D4D4D4D4D4D4AE
:10100000D10020400020006000000000000000002F
:1010100020100060001000600000000000000000D0
:1010200000000060E4AB000000000000EFBEADDE99
:10103000124880F3088812481249016000F036F81F
:10104000114812490022814201D004C0FBE7104838
:101050001049114A814202D008CA08C0FAE70F4875
:101060004FF47001026842EA01020260BFF34F8F41
:10107000BFF36F8F00F014F800DE00000040002086
:1010800008ED00E00040002000500020988500207E
:10109000B84200204C440020E4AB006088ED00E042
:1010A00041F24B1CC0F2000C6047D4D41C4840F203
:1010B000924188420CBF1B4A1B4A1C4B5360136869
:1010C00023F0800313601A481A4901BF1A480A0C1A
:1010D0008264C1F30F014164016C41F004010164B9
:1010E0001648174A824205D01649814202D008CAE2
:1010F00008C0FAE71448154A824205D014498142D3
:1011000002D008CA08C0FAE71248134A824205D042
:101110001249814202D008CA08C0FAE770470000AD
:10112000240400000080034000C00B4020C528D9E3
:1011300000C00A40AAAAFAFF00400E4000000000CA
:10114000B822006098740000004000200020006079
:10115000B842002000002020509700609414202006
:10116000D4D4D4D4D4D4D4D4D4D4D4D4D4D4D4D43F
:10117000D4D4D4D4D4D4D4D4D4D4D4D4D4D4D4D42F
:10118000D4D4D4D4D4D4D4D4D4D4D4D4D4D4D4D41F
:10119000D4D4D4D4D4D4D4D4D4D4D4D4D4D4D4D40F
:102000000040002031100060E53300007F740000C4
:10201000E5330000E5330000E53300000000000078
:10202000000000000000000000000000E533000098
:10203000E533000000000000E53300001B14000041
:10204000E5330000E5330000E5330000E533000030
:10205000E5330000E5330000E5330000E533000020
:10206000E5330000E5330000E5330000E533000010
:10207000E5330000E5330000E5330000E533000000
:10208000E533000000000000000000000000000038
:10209000E5330000E5330000E5330000E5330000E0
:1020A000E5330000E5330000E5330000E5330000D0
:1020B000E5330000E5330000E5330000E5330000C0
:1020C000E5330000E5330000E5330000E5330000B0
:1020D000E5330000E5330000E5330000E5330000A0
:1020E000E5330000E5330000E5330000E533000090
:1020F000E5330000E5330000E5330000E533000080
:10210000E5330000E5330000E5330000E53300006F
:1021100000000000E533000000000000E53300008F
:10212000E5330000E5330000E5330000E53300004F
:10213000E5330000E533000000000000E533000057
:10214000E5330000E5330000E5330000E53300002F
:10215000E5330000E533000000000000000000004F
:10216000E5330000E5330000E5330000E53300000F
:10217000E5330000E5330000E5330000E5330000FF
:10218000E5330000E5330000E5330000E5330000EF
:10219000E5330000E5330000E5330000E5330000DF
:1021A000E5330000E5330000E5330000E5330000CF
:1021B000E5330000E5330000E5330000E5330000BF
:1021C000E5330000E5330000E533000000000000C7
:1021D000E5330000E5330000E5330000E53300009F
:1021E000E5330000E5330000E5330000E53300008F
:1021F000E5330000E5330000E5330000E53300007F
:10220000E5330000B30E0000E5330000E5330000C5
:10221000E5330000E5330000E5330000E53300005E
:10222000E5330000E5330000E5330000E53300004E
:10223000E5330000E5330000E53300000000000056
:1022400000000000E5330000E5330000E533000046
:10225000E5330000E5330000E5330000E53300001E
:10226000E5330000E5330000E5330000E53300000E
:10227000E5330000E5330000E5330000E5330000FE
:10228000E5330000E5330000E5330000E5330000EE
:10229000E5330000E5330000E5330000E5330000DE
:1022A000E5330000E5330000E533000000000000E6
:0822B000E5330000E5330000F6
:1022B800F0B503AF2DE9000B82B0044690F8340066
:1022C800D1E900598E6808B1206838E005F0EEFEC3
:1022D800804605F0DEFE20685FEAC8712FD100282D
:1022E8005AD14FF0FF30206028686D46009004F105
:1022F800200001902846D6F8008099F8006004F084
:10230800AAFB284604F0EFFB002E18BF012628463A
:10231800314604F0F4FB2846012104F0B4FB2846BA
:10232800414604F0BEFB284604F0A1FB20680130BA
:10233800206005F0B0FE02B0BDE8000BF0BD58BB50
:102348004FF0FF30206028686D46009004F12000AF
:1023580001902846D6F8008099F8006004F07BFBCD
:10236800284604F0C0FB002E18BF01262846314637
:1023780004F0C5FB2846012104F085FB28464146A8
:1023880004F08FFB284604F072FB206801302060BF
:1023980002B0BDE8000BF0BD40F25C00C2F22000C4
:1023A80006F012F8F0B503AF2DE9000F85B004462A
:1023B8008868002840F0848092F821B04FF0FF3000
:1023C80001F10C068860002091468846CDE9000B93
:1023D8000290304600210122002304F0B5FD8A4610
:1023E800D8F80810C00701F10101C8F808106DD12C
:1023F800002965D14FF0FF308021C8F8080000207F
:10240800CDE9000B012202903046802304F09CFDA8
:10241800D8F80820C00702F10102C8F8082069D1DD
:10242800D8F80000002879D14FF0FF30002A039136
:10243800C8F8000078D1C8F80800304604F0FDFD5F
:10244800D8F808000130C8F8080073D34FF0FF30FF
:102458008021C8F8080004F12400BFF35F8FC8F892
:102468004460BFF35F8F07F060F9C4F8DC6004F1E3
:10247800B400B9E86E006EC099E86E006EC0002026
:102488000399A17708F14401A161E160042184F86E
:10249800E200C4E92B00C4F8A400A4F81F00A4F8C3
:1024A8001CB0A4F8130084F812A0A4F810B020807F
:1024B800A4F8E310A4F8E00005B0BDE8000FF0BDF3
:1024C80040F22420C2F2200005F07EFF40F2F02006
:1024D80040F27423C2F22000A7F11E02009040F2DD
:1024E800F800C2F22000C2F22003202107F81EAC37
:1024F80006F05DF840F2E02040F27423C2F22000BA
:10250800A7F11D02009040F2F80007F81D1CC2F266
:102518002000C2F22003202106F049F840F254209E
:10252800C2F2200005F050FF40F24420C2F2200021
:1025380005F04AFF40F23420C2F2200005F044FFC3
:10254800F0B503AF2DE9000FADF5317D8B4604469C
:1025580001F1340038310BF1540202F05CFEDBF873
:102568002801016841F001010160DBF828110868C1
:1025780020F0020008600020C1F80801C1F8180125
:10258800C1F828011A91C1F83801DBF8C060306839
:1025980020F001003060306840F40040306030685E
:1025A800000409D53068000444BF30685FEA004081
:1025B80002D530680004F2D43F20B060306820F0C3
:1025C80001003060DBF8C450286820F00100286062
:1025D800286840F4004028602868000409D5286865
:1025E800000444BF28685FEA004002D52868000458
:1025F800F2D43F2040F26341A860286820F001002F
:102608002860DBF80080DBF85C011990D8F84800F6
:1026180040F00100C8F84800D8F844000843C8F85A
:102628004400D8F84400012161F38300C8F844004D
:10263800D8F8440020F08000C8F84400D8F84800D2
:1026480040F02000C8F84800D8F8440040F4404062
:10265800C8F84400D8F8440040F44470C8F844006E
:10266800D8F8480040F08000C8F84800D8F858006A
:1026780000070CD0D8F8580000071CBFD8F858003D
:102688005FEA007003D0D8F858000007EED1D8F8F8
:10269800480040F2634140F02000C8F84800D8F8EC
:1026A800440020F44040C8F84400D8F8440020F41E
:1026B800447000F58870C8F84400DBF80490D9F835
:1026C800480040F00100C9F84800D9F84400084320
:1026D800C9F84400D9F84400012161F38300C9F81E
:1026E8004400D9F8440020F08000C9F84400D9F823
:1026F800480040F02000C9F84800D9F8440040F4E8
:102708004040C9F84400D9F8440040F44470C9F87E
:102718004400D9F8480040F08000C9F84800D9F8CA
:10272800580000070CD0D9F8580000071CBFD9F88A
:1027380058005FEA007003D0D9F858000007EED1BE
:10274800D9F8480002220F2340F02000C9F84800B9
:10275800D9F8440020F44040C9F84400D9F84400AE
:1027680020F4447000F58870C9F84400DBF87C1147
:102778001BA803F031F8DBF868112DA84FF480523C
:1027880002F0F2FFDBF89C000B90DBF8A4000A9043
:10279800DBF8A8000690DBF8AC000590DBF88401B4
:1027A8000490DBF890010390DBF89801DBE917123D
:1027B800029031A803F074F8DBE90D10DBF8302142
:1027C8001890DBF854001790DBF880000990DBF8CC
:1027D80084000890DBF888000790DBF8E00015908B
:1027E800DBF8E8001490DBF8FC001390DBF800013C
:1027F8001090DBF804010F90DBF808010E90DBF86D
:102808000C011290DBF814011190DBF81C011691F1
:102818000F210D904FF470400C92A2F88C01A2F891
:102828008E11DBF834A1AAF88C01AAF88E11DBF816
:1028380038210192A2F88C01A2F88E114FF400728F
:10284800DBF83CB1ABF88C01ABF88E1131A90698D6
:102858002062059860620498A0620398E06202987A
:1028680020631A98C4E90465C4E90000C4E90200B9
:102878000B98A0610A98E06104F5907006F051FF8A
:1028880019990BF160020BF5907C01F1340050317D
:10289800C4E929B2C4E9C81004F1BC010998C4F814
:1028A800B4000898C4F8B80007980C9A81E80103A6
:1028B8000BF1C0010198C4E92B1C0AF1C00100F515
:1028C800907300F1C00600F16005C4E9230002F12D
:1028D800C0002067169860631898A0631798E06393
:1028E8001598C4E925560AF59075C4E9273B02F501
:1028F800907320640AF160061498C4E91D3A0F9B8E
:1029080060641398C4E9211502F1600163650E9BA8
:10291800A0641198A3650D9BE0641298E365109B71
:10292800C4E91A211BA9206504F1C800C4E91832BA
:102938004822C4E91FA606F0F4FE2DAB04F5887CF6
:102948000FCB8CE80F000DF5317DBDE8000FF0BD11
:10295800F0B503AF2DE9000F85B0054608680028DB
:1029680040F0AA80002091F804B008600C468868FE
:102978000BF101012171002840F098804FF0FF30E1
:1029880004F10C069146A060FF2008210322029062
:10299800CDE90021304680210022802304F0D4FABA
:1029A8008A46A168C00701F10101A16040F08A8050
:1029B8002068002840F0808094F8048000200029D6
:1029C800206008F10102227170D14FF0FF3100221E
:1029D800A1600221CDE900190021029030460023B0
:1029E80004F0B2FAA268C00702F10102A2607DD128
:1029F800002A03915AD14FF0FF300021A060022035
:102A0800CDE900093046029180210022802304F09C
:102A18009BFAC00701BF85F82CB085F82D8040F2DD
:102A2800FF30A5F80F0001BF85F80EA00820A88187
:102A380004F1440201BFAA604FF40073A5F82730DF
:102A480085F8261001BFA5F824902A62A5F81B3046
:102A5800039901BFA976A5F818906A614FF4FA5155
:102A680001BF2960A1680022AA7101BFA880EA8578
:102A7800481CA06002BF05B0BDE8000FF0BDA0680B
:102A880040F27423A7F11D0207F81D1C0130A06055
:102A980040F21030C2F22003C2F220000F21009051
:102AA80040F20030C2F2200005F081FD40F22420FF
:102AB800C2F2200005F088FC40F26420C2F2200037
:102AC80005F082FC40F2203040F27423C2F220006C
:102AD800A7F11F02009040F20030C2F22000C2F2BB
:102AE80020030F2107F81FAC05F061FD40F21030FC
:102AF80040F27423C2F22000A7F11E02009040F2B7
:102B0800003007F81E1CC2F22000C2F220030F2179
:102B180005F04DFD007840F218120B4640F2D43112
:102B2800C2F22001C2F2200251F8201052F82020EF
:102B3800184606F0ADB8084640F2C031C2F220018E
:102B4800122206F0A5B8F0B503AF2DE9000F81B049
:102B580080460C6805F04DFAD8F800603168451ACF
:102B6800B5F1FF3F04DDE80F01B0BDE8000FF0BD8F
:102B7800D8F80400D0F800B0DBF800000028F2D143
:102B8800D4E90010096888470446DBF80000894644
:102B9800366800281EBFC168DBF80400884700209B
:102BA800D8F808A0CBF810008BF80C00CBE9004946
:102BB800CBF8086005F05DFABFF35F8FDAF8001014
:102BC80009B38B68DBF80820D31A1AD40B698BB3C6
:102BD8009E68961B26D4196931B38E68961B25D436
:102BE8000B693BB39E68961B1CD41969E1B18E68CA
:102BF800961B1BD40B69EBB19E68961B1E46EAD543
:102C080016E0CBF81010CAF800B005F03DFAD8F875
:102C18000C00C0F800B005F004FAE80F01B0BDE8F8
:102C2800000FF0BD1E4603E0194603E00E461946A4
:102C3800CBF81060C1F810B005F026FAD8F80C00EF
:102C4800C0F800B0E80F01B0BDE8000FF0BDF0B566
:102C580003AF2DE90007804605F0EBF902E0616853
:102C68005046884705F005FABFF35F8F0546D8F848
:102C780000609EB3D6F8089005F0BBF9B168401A19
:102C88000021B0F1FF3FC8BF01210028317317D4DC
:102C98003069C8F80000D6E900100968884704467A
:102CA800307B05F001008A4605F0EEF9002CD6D1FC
:102CB80005F09FF9A0EB0900B0F1FF3FD2DC0AE074
:102CC80005F0010005F0E0F905F093F9A0EB090023
:102CD800B0F1FF3FC6DCBDE80007F0BD2846BDE8FF
:102CE8000007BDE8F04005F0CFB9F0B503AF2DE916
:102CF800000B86B0044690F860008846B0B10328FF
:102D080040F0F28094F85C00D8B1032840F0F280DB
:102D180094F8591004F11400002968D0032940D010
:102D280040F23450C2F2200006F098FA256848F2C2
:102D380080560020C2F2000684F85C00C4E90165F0
:102D480001E0D4E901654FF0000905F052F90146A8
:102D580084F8599066654219002D18BF511CC4E9C2
:102D6800030104F11400E162224642F8301F0021F9
:102D780082F828103379002B00F0A480234601251F
:102D880043F8341F83F824501D4645F81C1F03F1EF
:102D98001801C3E9053343E9082143E9066543E916
:102DA80004654146FFF7CFFE814608B103204CE099
:102DB800A06C016849B1007B00281CBF002084F882
:102DC800580094F8580000BB35E00021D4E90960A8
:102DD80084F85810D0F8008005F04BF9BFF35F8FE6
:102DE800316869B10A69884504D1326008E0E16A4E
:102DF800666DB9E722B1904548D113461A690A6150
:102E080005F042F994F85800A8B1D4E909500668C9
:102E180005F02FF9BFF35F8F296851B10A698E4217
:102E280001D12A6005E022B1964219D113461A69E8
:102E38000A6105F029F9002084F85800606B002821
:102E48001EBFC168A06B8847012084F8600084F821
:102E58005C0084F85900484606B0BDE8000BF0BD98
:102E680011690029E5D08E4226D00A69002AE0D0EF
:102E78009642DBD011690029DBD08E421CD00A694A
:102E8800002AD6D096421346EAD1D0E71169002924
:102E9800B6D0884513D00A69002AB1D09045ACD085
:102EA80011690029ACD0884509D00A69002AA7D041
:102EB80090451346EAD1A1E70B461146B7E70B4602
:102EC80011469BE701200491019040F2C440C2F2F0
:102ED8002000039140F2245100900420C2F2200106
:102EE8000290684605F021FB40F25840C2F22000EB
:102EF80006F0B4F940F24450C2F2200006F0AEF9F0
:102F0800084640F26841C2F22001022205F0C4BD21
:102F180045F200000121C2F200000068BFF35F8F94
:102F280080F885107047F0B503AF2DE9000FE1B0C8
:102F38008A4648F24851C2F20001D0F800C0D0F8E1
:102F480008E046F200000A60C2F2000041F23811BF
:102F580046188DF807A0BFF35F8F56E8001F41F0B1
:102F6800004546E80054002CF7D1B1F1FF3FBFF30C
:102F78005F8F40F3E08045F214060125C2F2000697
:102F880006F5A062BFF35F8FD2E84F4FC2E8415FFA
:102F98000029F9D10093002CBFF35F8F40F0D68051
:102FA80041F23811CDE95E620144559000F5865230
:102FB80000F580500DF5AA7B5B9106214FF00009C2
:102FC800CDE9561058465A91CDE958120121CDE95C
:102FD8005CCEADF8809102F09CFCBBE87E000DF160
:102FE800080808F104007EC09BE87E007EC001202E
:102FF80051468DF83C004046CDF8089003F0A7FDF7
:10300800009855A957900DF1070056904AA8559079
:103018004046CDF82891FFF74BF948F2000A4FF4E3
:103028008060C2F2000A4146AAF804000AF10C00C6
:10303800CAF80890CAF800905CC95CC07CC97CC01A
:1030480091E87C0051467CC040464FF40072CAF8B3
:103058004490FFF77DFCB8E87E0048F24C50C2F27D
:1030680000007EC098E87E007EC0322010ACCDF80B
:103078004E010220C4F200004BAACDF84A011020EC
:10308800ADF8480145F62400C2F2DD705146519072
:1030980009204E9040F26A40C2F22000CDF83C91DF
:1030A8004D902046CDF82C91FFF77CF9479D812162
:1030B800284603F09BFD2846012103F097FD28468A
:1030C800822103F093FD2846022103F08FFD284654
:1030D800832103F08BFD2846032103F087FD284652
:1030E800842103F083FD2846042103F07FFD284650
:1030F800852103F07BFD2846052103F077FD28464E
:10310800862103F073FD2846062103F06FFD28464B
:10311800872103F06BFD2846072103F067FD48F27D
:1031280048002146C2F20000E82206F0FAFA61B02F
:10313800BDE8000FF0BD40F26C0040F2E802C2F2B8
:103148002000C2F220021F2105F07CF940F238105D
:1031580040F2B812C2F22000C2F22002202105F08B
:1031680071F980B56F4641F29C40C2F220000068B8
:1031780080470020BDE8804004F09BBF80B56F46C3
:1031880094B045F2000A40F6614841F268060DF134
:103198000409C2F2000A0025C0F20008C2F22006A3
:1031A800642401E0BFF32F8FDAF800B09BF88400A5
:1031B8000028F9D00BF18500D0E84F1F0129F1D183
:1031C800C0E8415F0029F7D1BFF35F8FCDE90168FF
:1031D8009BF81C0005950028CDE903995DD00328CC
:1031E80040F09F800BF1200003A9FFF77EFD08B196
:1031F80003219DE09BF88000032807D19BF87C0001
:10320800032804BF9BF8790003284CD0DBF80C0096
:103218000122D0E9000101F01F0102FA01F14CF688
:10322800CD42C0F88C10584650F8181FCCF6CC4246
:103238005143B1F1333F00F28E8048F29451C2F20B
:10324800000109680329C0F08680012140F2CC52B0
:103258000891C2F220020A910DA9099146F6D3718C
:10326800C0F200010B95CDE90D0140F2D450C2F235
:103278002000079205F095F840F2E45113901520CC
:10328800C2F2200112900FAACDE90F1007A81191E0
:103298000321002305F01EF85DE09BE807000BF111
:1032A8000C0327C35CE0DBE91140D0F8008004F090
:1032B800E0FEBFF35F8F2168E1B10A69884501D15B
:1032C800226017E0B2B19045134611D0116989B157
:1032D800884509D00A696AB1904508D0116949B191
:1032E800884501D00A69EDE70B46114600E0134610
:1032F8001A690A6104F0C8FEDBF8540040F6614818
:1033080041F268068BF878500028C0F20008C2F233
:1033180020064FF064041EBFC168DBF858008847D8
:1033280074E70BF1200003A9FFF7DFFC38B1042193
:10333800DDE901208BF81C10D168884734E79BF839
:103348008000032807D19BF87C00032804BF9BF862
:103358007900032813D0DBF818000130CBF81800E7
:10336800DBF81000D0E9000101F01F0180688BF83C
:103378008050CBF82040C840C007D2D132E7DBE903
:103388001140D0F8008004F074FEBFF35F8F21680D
:10339800E1B10A69884501D1226017E0B2B19045D0
:1033A800134611D0116989B1884509D00A696AB1F3
:1033B800904508D0116949B1884501D00A69EDE7FF
:1033C8000B46114600E013461A690A6104F05CFED8
:1033D800DBF8540040F6614841F268068BF87850F3
:1033E8000028C0F20008C2F220064FF064041EBF95
:1033F800C168DBF858008847ADE780B56F46A8B0CC
:1034080004F047FE48F28C500121C2F2000048F255
:10341800985401704EF27140CEF20000F021017014
:103428004EF20C10CEF200004FF400310160002083
:10343800ADF8840045F20000C2F200006946016060
:1034480044F20000C2F20004C2F20000A04203D914
:1034580004F029FEA04203D900F015F8FFF78EFE0C
:1034680001210020239140F22461C2F2200126901C
:1034780025900420229140F22C61249022A8C2F2C7
:10348800200105F052F8F0B503AF2DE9000FADF2B9
:10349800FC4DCFAC204601F005FD05A82146FFF7FD
:1034A8004FF80FAB0C980DF1040C0ECB8CE80F0005
:1034B80001A801F0A0FE8046002007900420069095
:1034C800032005904FF47A60CF9048F23010C2F292
:1034D8000000894600F212400122BFF35F8FD0E856
:1034E8004F1FC0E8432F002BF9D10029BFF35F8F8E
:1034F80000F0AE80DDE9025B049E002D40F0D18033
:1035080048F23C120523C4F21F02D2F864024FF4B9
:10351800E040C2F86402506F63F3030050670198FB
:10352800416821F000514160116863F303011160A3
:10353800416821F001014160916863F303019160E2
:1035480001994E6826F004064E60566863F3030638
:1035580056604A6822F002024A604EF21002CEF229
:103568000002136823F001031360136843F0040397
:10357800136042F2BF73C0F209035360136843F04B
:1035880002031360136843F00103136048F280528A
:103598000123C2F20002BFF35F8F137145F20002EC
:1035A800BFF35F8FC2F20002126802F18406D6E808
:1035B8004F5F45B9BFF35F8FC6E8453FB5B1D6E861
:1035C8004F5F002DF8D040F29C5040F25453C2F2A5
:1035D8002000BFF32F8F009040F26450C2F2200009
:1035E800C2F2200305AA2B2104F0E1FF41F2944422
:1035F80041F2A84641F2A0454FF0000CC2F2200467
:10360800BFF35F8F82F81CC0C2F22006C2F2200509
:1036180082E870000123BFF35F8F82F8853041F2A2
:103628009C42C2F22002C4E90089C2F800B01D22FF
:10363800C5E900020222C6E9000CC6E90212C6E981
:10364800041304F028FD0DF2FC4DBDE8000FF0BD99
:1036580048F230144FF48061C2F20004204606F0AC
:1036680064F804F006FD05A98246204600F01CFC1B
:1036780018B1DDE9025B049E0DE048F2301202A8A1
:10368800CFABC2F200020121FFF74DFC41F6354BEA
:103698000025C0F2000B504604F0F6FC002D3FF464
:1036A8002FAF40F2BC5040F2AC53C2F22000079654
:1036B800009040F26450CDE9055BC2F22000C2F2EE
:1036C800200305AA2B2104F072FF48F28050C2F2B1
:1036D8000000FFF7BCBAF0B503AF4DF8048D8C4677
:1036E800816889B3C36841698B4249D20269D0F8BD
:1036F80018E0D45C0134D4540EF102038B421FD875
:103708000EF58075A9422C4638BF0C469D423ED323
:10371800E41A052C14D39CF80640BCF80450D45481
:1037280013440EF107049CF808608C429CF807804B
:103738005E704FEA15269D7083F80480DE7007D905
:1037480002205DF8048BF0BD07205DF8048BF0BD06
:103758008E4524D2072302F80E300EF101038B4266
:103768003FBF0521D154846108203CBF5DF8048B1C
:10377800F0BD40F228721846C2F2200204F0F8FEAA
:1037880040F238721846C2F2200204F0F1FE40F20C
:1037980008721846C2F22002214605F0C1FA40F22A
:1037A80018727046C2F2200204F0E2FE0020704750
:1037B80070470820704770470A46D0E9000105F0B5
:1037C8006BBA006804F018BF80B56F4682B000225B
:1037D8008029019207D28DF80410012201A900F076
:1037E80057FA02B080BD02220B4662F39F13B1F56F
:1037F800006F05D28DF80530C02343EA911125E00A
:10380800B1F5803F11D28DF806308B0962F39F1312
:10381800E02242EA11318DF805308DF804100322B8
:1038280001A900F035FA02B080BD8DF807308B0988
:1038380062F39F138DF806300B0B890C62F39F130C
:103848001E2262F3DF0104228DF805308DF8041082
:1038580001A900F01DFA02B080BD0A4640F2D871F5
:10386800C2F2200104F0CDBED0B502AF537A012BCD
:1038780007D1137A012B02BF90F82C3054889C4250
:1038880000D0D0BD9379212B04BF9288072A28D075
:10389800088840F002000628F3D1C86809220A8087
:1038A8000068BFF35F8F88B18A7C0C4611460122FD
:1038B80003F00EFEA0690068BFF35F8F00281FBFEA
:1038C800A17F0122BDE8D04003F002BE40F248705B
:1038D80040F2C872C2F22000C2F22002222104F093
:1038E80034FE0A88042A18BFD0BDCA88002390F87D
:1038F80004C0012490F805E0072AC1F8AC308379A8
:103908000068486208460C8081F8283081F829E070
:1039180081F82AC028BF0722C1F8B020BDE8D040EE
:1039280000F058BDD0B502AF84B0537A012B07D14F
:10393800137A012B02BF90F82C3054889C4201D096
:1039480004B0D0BD9379002B5BD0202B0ED0222B56
:103958002CD112780B8802F0010480F82E40062B37
:10396800C2F3400280F82F20EAD14DE0D1F8B03000
:10397800812B5CD2062B19D991F8282091F829407F
:1039880091F82AE0032A4B6AB1F800C003604FF0AF
:10399800000380F804E028BF1A46052C827138BF5E
:1039A8002346BCF1060F4371CAD12DE0088840F0C8
:1039B80002000628C4D1C86809220A800068BFF33B
:1039C8005F8F98B18A7C0C461146012203F080FD76
:1039D800A0690068BFF35F8F00281FBFA17F012285
:1039E80004B0BDE8D04018BF03F072BD40F2487083
:1039F80040F2C872C2F22000C2F22002222104F072
:103A0800A4FD088806289BD188690368BFF35F8FE7
:103A1800002BEBD08A7F0020009002A80C461946A4
:103A2800012303F06DFB0820208004B0D0BD40F6D0
:103A380054021846C2F22002802105F052F9F0B56E
:103A480003AF4DF8048D84B090F82C6080460025B3
:103A58000220CDE900050C46084631460222022321
:103A680004F029F8C1B2082963D120463146022260
:103A78000223009504F073F8C1B2082959D140F621
:103A880064022046C2F220022421032303F0B8FE78
:103A9800C1B208294DD140F667022046C2F2200281
:103AA8002421022303F0ACFEC1B2082941D106202B
:103AB800A7F1160207F8156C242198F82D60032346
:103AC80007F8160C204607F8146C03F099FEC1B2EB
:103AD80008292ED10120A7F1130227F8130C20463C
:103AE8002421032307F8116C03F08AFEC1B20829C8
:103AF8001FD108F108012046FFF7EDFDC1B20829E2
:103B080017D100203146009020460A22002304F0F5
:103B180026F8C1B208290CD108F120012046FFF788
:103B2800DAFDC1B2082904D108F114012046FFF7D3
:103B3800D2FD04B05DF8048BF0BD0021C185817110
:103B4800082181804FF4FA5101607047F0B503AF46
:103B58002DE9000B48F29452D1F80080C2F200021D
:103B68001268904503D90020BDE8000BF0BD4268FB
:103B7800F2B10068D1E90194061D02EB420085000C
:103B880003E00C3D06F10C06EDD030688442F8D114
:103B980056F8040C4946224605F0F4FB0028F0D1FB
:103BA80071680020884598BF0120BDE8000BF0BD72
:103BB8000120BDE8000BF0BDF0B503AF2DE9000F03
:103BC80091B0804648F29450C2F20000D1F820909B
:103BD800006881451ED8D8F804008A46F0B1D8F8A4
:103BE800001000EB4000DAE909B60C1D850003E07F
:103BF8000C3D04F10C040DD020688642F8D154F82D
:103C0800040C5946324605F0BDFB0028F0D1606827
:103C1800814505D911B0BDE8000FF0BDDAE909B654
:103C2800002040F2D87105900420029040F6700000
:103C3800C2F2200001AA01900320049007A8039073
:103C480041F21350C0F20000C2F220010C9010A8FB
:103C58000B9041F20950C0F20000CDF800800A90A4
:103C68000EA8099045F67770C0F20000CDF83490A0
:103C780008900DA807900AF12C0010906846CDE92D
:103C88000EB604F0BEFC11B0BDE8000FF0BD7047E1
:103C9800F0B503AF2DE9000F83B014460D46D0F8F8
:103CA800008004F0E6F9D8F80810002940F0F68002
:103CB800D8F80C904FF0FF31C8F80810012209F22B
:103CC8001146BFF35F8FD6E84F1FC6E8432F002B7E
:103CD800F9D1BFF35F8F61B10124D8F80810013121
:103CE800C8F8081004F0D0F9204603B0BDE8000F6A
:103CF800F0BDD9F80014BFF35F8FD9F80424BFF3DF
:103D08005F8F914203D2CB43D2180AD180E0B1F53C
:103D1800806F04D1012A7BD9013A002101E0C1F565
:103D28008062A246A242019238BF92460AEB010283
:103D38004944BFF35F8FC9F80C240290084629460E
:103D48005246009505F0EFFC029809F20C4B99F8E1
:103D58001114BFF35F8F59B3D9F80014BFF35F8F05
:103D6800BFF35F8F5BE8002F4BE80023002BF9D1EE
:103D7800BFF35F8FB1F5806FD9F80834BFF35F8F59
:103D8800D9F80C24BFF35F8F01D08A4203D39A423B
:103D980005D94FF48061BFF35F8FC9F80814BFF3EA
:103DA8005F8FC9F800240021BFF35F8F89F81114D1
:103DB8000199A14220D20099A4EB0A020125BFF380
:103DC8005F8F5144D6E84F3FC6E8445F002CF9D1D5
:103DD800002BBFF35F8F7FF47FAFD9F80034BFF3B8
:103DE8005F8FD9F804C4BFF35F8F634506D2DD4304
:103DF8001CEB050C14D10BE000246EE7B3F5806FC3
:103E08000CD1BCF1010F03D9ACF1010C002307E080
:103E180001240021BFF35F8F31705EE7C3F5806C2A
:103E2800944538BF6246D018BFF35F8FC9F80C04B9
:103E380009EB030005F077FC99F81104BFF35F8FD5
:103E480048B3D9F80014BFF35F8FBFF35F8F0298B0
:103E58005BE8002F4BE80023002BF9D1BFF35F8FFD
:103E6800B1F5806FD9F80834BFF35F8FD9F80C2407
:103E7800BFF35F8F01D08A4203D39A4205D94FF42A
:103E88008061BFF35F8FC9F808140024BFF35F8F08
:103E9800C9F80024BDE7002402981EE740F6F400A4
:103EA800C2F2200004F090FAD0B502AF45F2040245
:103EB8000C46D1E90113C2F200024FF0000CD060A9
:103EC80082E80A1040F60411C2F22001104604F0FC
:103ED800BCF9002801BF216848F29452C2F20002DE
:103EE8001160D0BDF0B503AF2DE9000B84B040F6EA
:103EF8001C1048F2445848F24805C2F220000390CA
:103F0800C2F2000808F10800C2F2000502A90290F6
:103F18002846012200F0E4FDD5F8DC40814694F8FB
:103F28003400D0B12068002840F08E814FF0FF3077
:103F3800214641F8200B0020CDE9020102A802F039
:103F4800C2FD002846D002AE304602F0CCFD304615
:103F580002F0B9FD0028F7D13AE004F0A7F80646C8
:103F680004F097F82068F1071AD1002840F06C8116
:103F78004FF0FF30214641F8200B0020CDE9020127
:103F880002A802F0A0FD00283FD002AE304602F0A1
:103F9800AAFD304602F097FD0028F7D1012639E046
:103FA800002840F051814FF0FF30214641F8200BA6
:103FB8000020CDE9020102A802F085FD50B102AE51
:103FC800304602F090FD304602F07DFD0028F7D122
:103FD800012604E002A802F034FD80F00106206802
:103FE8000130206095F8E21098F8000002291CD1F1
:103FF800002861D1D5F8DC0002F077FFD5F8DC4065
:1040080094F83400E0B120683CE002A802F019FD01
:1040180080F0010620680130206004F03CF895F833
:10402800E21098F800000229E2D0002800F09880F9
:10403800D5F8DC5095F83400002864D028687EE074
:1040480004F034F8054604F024F82068E90719D18B
:10405800002840F0F9804FF0FF30214641F8200B4E
:104068000020CDE9020102A802F061FD00281CBF72
:104078000DF1080002F0D9FC20680130206004F03E
:104088000AF816E0002840F0DF804FF0FF302146A4
:1040980041F8200B0020029002A8039102F047FD8E
:1040A80000281CBF0DF1080002F0BFFC2068013099
:1040B8002060012088F80000D8F81C000168BFF3D0
:1040C8005F8F002900F0C680002098F82220009019
:1040D80002A8012349EA0605012403F005F975B190
:1040E800D8F80400BFF35F8F00F58261D1E84F2F45
:1040F800C1E8434F002BF9D1BFF35F8FBAB304B0C7
:10410800BDE8000BF0BD03F0D1FF044603F0C1FF8A
:104118002868E10713D1002840F096804FF0FF305F
:1041280028600020029005F12000039002A802F008
:1041380092FC28680130286003F0ADFF10E00028E9
:1041480040F082804FF0FF3028600020029005F197
:104158002000039002A802F07EFC28680130286045
:10416800002088F8000004B0BDE8000BF0BDD0F8CE
:104178000064BFF35F8FD0F80824BFF35F8FD0F8D7
:104188000434BFF35F8F934206D19E423EBFBFF314
:104198005F8F0023C0F804349E4228BF32469A42FB
:1041A80007D10020BFF35F8F087004B0BDE8000B93
:1041B800F0BDD8F82810D8F804400968BFF35F8F1D
:1041C800002947D0D61A98F82E20034402A835466D
:1041D800B6F5007F28BF4FF40075009502F090FFF8
:1041E8009DF8080088B194F81004BFF35F8F002889
:1041F8003FF485AF04F20440BFF35F8F50E8001F1F
:1042080040E80012002AF9D115E0039894F8101438
:10421800BFF35F8F00293FF472AF04F20441864276
:1042280038BF3046BFF35F8F51E8002F024441E8A2
:104238000023002BF8D10020BFF35F8F84F810040F
:1042480004B0BDE8000BF0BD40F29860C2F2200057
:1042580004F0BAF840F2487040F2C872C2F2200086
:10426800C2F22002222104F070F9D0B502AF84B066
:104278000188062911D181690968BFF35F8F79B177
:104288000023827F009302AB04461846012302F004
:1042980037FF0820208004B0D0BD072004B0D0BD6F
:1042A80040F2487040F2C872C2F22000C2F2200206
:1042B800222104F04AF9F0B503AF4DF804BD86B0E9
:1042C800044608880D46411E032927D3052825D012
:1042D800072832D1D5F8AC00D5F80630698980288E
:1042E800D5F80220ADF80C10CDE901236BD8E968A8
:1042F8000968BFF35F8F00295AD0C0F18003AA7CF8
:104308002844009300F1240304A802F0EDFF9DF86F
:104318001000C0B39DF81100D8B92EE0E868016814
:10432800BFF35F8F002943D0AA7C04A8002601238D
:10433800009602F0D9FF2E801FE0E8680168BFF3FD
:104348005F8FA9B30020AA7C009004A8012302F083
:10435800CBFFE868092129800068BFF35F8F38B375
:10436800A97C012203F0B4F8A8690068BFF35F8F45
:10437800F0B1A97F012203F0ABF80420607206B007
:104388005DF804BBF0BD0598D5E92B120844C5F8C3
:10439800AC009042F1D3DDE901010623BDF80C2001
:1043A8002B8020606160228106B05DF804BBF0BDFF
:1043B80040F2487040F2C872C2F22000C2F22002F5
:1043C800222104F0C2F840F6B4128021C2F2200281
:1043D80004F068FCB0B502AF84B00446D0E92951B6
:1043E800D0F8AC00D4F8B0C0002DA38BAE46ACEB2F
:1043F800000208BF04F1240E9A4238BF1346002D6C
:1044080003EB000C08BF80219C4525D38C452AD896
:10441800A1690968BFF35F8F61B3A27F00930EEBB8
:10442800000302A802F06CFE9DF8080008B104B071
:10443800B0BD0398D4E92B120144C4F8AC109142E2
:10444800F5D30021A28BC4F8A4100321904208BF21
:104458000221218004B0B0BD40F6D4126146C2F2F8
:10446800200204F05DFC40F6D4126046C2F220023D
:1044780004F037FC40F2487040F2C872C2F22000E3
:10448800C2F22002222104F060F8D0B502AF04463F
:10449800C068092121800068BFF35F8F78B1A17CD3
:1044A800012203F015F8A0690068BFF35F8F0028A8
:1044B8001FBFA17F0122BDE8D04003F009B840F238
:1044C800487040F2C872C2F22000C2F220022221D3
:1044D80004F03BF8F0B503AF2DE9000782B01D46A4
:1044E8009146884682468AB108EBC9064446D4E913
:1044F80000012A464B6A51469847BAF8000040F036
:104508000200062835D10834B442F0D1687AA0B345
:10451800BAF8001041F0020006282AD1DAF80C0097
:104528000921AAF800100068BFF35F8FB0B19AF8AC
:104538001210012202F0CCFFDAF818000068BFF36D
:104548005F8F00281FBF9AF81E10012202B0BDE835
:1045580000071CBFBDE8F04002F0BABF40F2487047
:1045680040F2C872C2F22000C2F22002222103F0F7
:10457800ECFF02B0BDE80007F0BD297AA87949B37D
:10458800012912D0022908BF0028C1D16988DAF8A8
:10459800DC0001F08F0103F02DF8BAF800100429AF
:1045A800B8D1AAF82400002039E080B30A28AFD196
:1045B800BAF800100429ADD1BAF80610002001227B
:1045C8008AF82400AAF80020002918BF0121CAE9A6
:1045D8002B0153E0D0B306282CD0082898D1BAF87C
:1045E8000010042996D1BAF8061001229AF8E23090
:1045F8000020AAF80020002918BF0121CAE92B01D0
:10460800981EB0FA80F040098AF8240036E0BAF81B
:10461800001004297FF47EAF0020AAF82400BAF81D
:1046280006200121AAF80010022A28BF0222CAE99E
:104638002B0223E069884A4628885346CDE90001C1
:104648000AF1B400414600F0DFF861E7BAF800105B
:1046580004297FF45FAF9AF8E00001239AF8E1108B
:104668000022BAF80660AAF8003041EA4000022E9B
:1046780028BF0226CAE92B26AAF824005046FFF7CD
:10468800A9FE45E7F0B503AF4DF8048D84B01D468B
:1046980080468AB101EBC2040E46D6E900012A46DB
:1046A8000B6A41469847B8F8000040F00200062817
:1046B8005FD10836A642F0D1687A78B367E040F057
:1046C8000200062855D1D8F80C000921A8F80010D6
:1046D8000068BFF35F8FB0B198F81210012202F0A2
:1046E800F7FED8F818000068BFF35F8F00281FBFD7
:1046F80098F81E10012204B05DF8048B1CBFBDE8B9
:10470800F04002F0E5BE40F2487040F2C872C2F2D2
:104718002000C2F22002222103F017FF2A7AA8798A
:10472800298852B3012A0AD0022A30D1012837D069
:10473800032808BF00292AD16988012234E00B2800
:1047480008BF002923D1B8F800000628B7D1D8F847
:1047580018000168BFF35F8F0029D4D098F81E2095
:104768000020009002A8012302F0CAFC0820A8F843
:10477800000004B05DF8048BF0BD0138082806D8A5
:10478800DFE800F008052205190505052800B8F836
:10479800000094E70129FAD1002088F8E00024E01D
:1047A8000029F4D169880022D8F8DC0001F08F01D3
:1047B80002F08EFE19E0481E80B27F28E7D2D8F8B2
:1047C800DC0002F0F7FB0DE00129E0D1012088F8B8
:1047D800E0000AE019B10129D9D1022003E098F8D4
:1047E800E20030B1012088F8E2004046FFF73DFDC5
:1047F800CDE7B8F8000040F0020106297FF45FAF6A
:104808004046FFF742FEC2E7F0B503AF2DE90007C7
:104818008CB0BE680D46014698464FF0FF33B0B2E3
:1048280003EB10200E2800F2F480DFE810F00F00F0
:1048380052002900F200F200F200F200F200F20049
:10484800F200F200F200F200F2008500B8F8000071
:10485800042840F09980002080220A908DF82C00CE
:104868000690049004A8099208F12402B8F80640BA
:10487800089203F013F8C0B2082840F08580BFE022
:10488800F3B2032B00F2958004220846DFE803F018
:1048980002838086B8F80000042875D100208021A2
:1048A8000A9001AA8DF82C0002230690049040F289
:1048B8000940099108F12401ADF8040004A8089101
:1048C8000321B8F8064002F09BFFC0B208285BD16C
:1048D80096E0B8F80000042856D1002014460A9043
:1048E80080228DF82C000690049004A8099208F103
:1048F8002402B8F80690089203F069F8C0B20828B4
:1049080042D18CB105EBC40604AC4FF0000AD5E9DE
:104918000001CA6821469047C0B2082834D108353A
:10492800CDF818A0B542F2D104A803F0B4F80A985B
:10493800802800F2A580C2E0B8F80000042823D13E
:10494800002080210A9014468DF82C0006900490CF
:10495800019004A8039001A8099108F12401B8F86E
:104968000690089103F03CFAC0B208280CD1E60082
:1049780001AC002E7ED0F5E802010A692146904775
:10498800083EC0B20828F4D00CB0BDE80007F0BD5E
:1049980001F108000C22006828B93AE001F1100082
:1049A80014220068A8B38A58B8F800100429EBD17B
:1049B80011E0D7F80C90D4005CB3F5E802014A4640
:1049C8004B6931469847083C0028F5D00A46B8F8A4
:1049D80000100429D8D180230021099308F1240369
:1049E800089304AB0A918DF82C10069104910146A6
:1049F8001846B8F8064003F039F9C0B20828C3D100
:104A08000A9880283CD884424FF0000138BF2046DD
:104A180059E0B8F8000040F002000628B4D1D8F8F0
:104A28000C000921A8F800100068BFF35F8FB0B12F
:104A380098F81210012202F04BFDD8F8180000680F
:104A4800BFF35F8F00281FBF98F81E1001220CB01B
:104A5800BDE800071CBFBDE8F04002F039BD40F2D8
:104A6800487040F2C872C2F22000C2F2200222212D
:104A780003F06BFD01A803F083FA0A9880281ED979
:104A8800D8F80C000921A8F800100068BFF35F8F60
:104A98000028E4D098F81210012202F019FDD8F885
:104AA80018000068BFF35F8F0028D8D098F81E1050
:104AB800012202F00DFD0CB0BDE80007F0BD002199
:104AC800814538BF4846C8E92B100120A8F80000E6
:104AD8004046FFF77FFC0CB0BDE80007F0BDD4D41A
:104AE800F0B503AF2DE9000F8FB00D46D0F8DC10FC
:104AF800064607A8144602F0BEFD96F8E200BDF887
:104B08001C10032813D100294FF0000018BF0329F7
:104B180003D10FB0BDE8000FF0BD96F8E3000428FC
:104B280000F0A181042286F8E20086F8E320DFE89D
:104B380001F01E032D231E00D6F8DC0002F0B1FAA6
:104B480000204FF4806186F8E40086F8E000A6F8BB
:104B5800E21030805CB105EBC404083D55F8080F3D
:104B680069688969884705F10800A042F6D10020E4
:104B78000FB0BDE8000FF0BD032186F8E30086F80A
:104B8800E21000200FB0BDE8000FF0BDBDF81E0018
:104B9800BDF82010BDF822200490084340EA020A1C
:104BA800069105925FEACA70039400F0DD800698CA
:104BB800C00748D03088013807282CD8DFE800F033
:104BC8000415082B2B2B2B283046FFF703FC3AE063
:104BD800F0680068BFF35F8F002800F04F81B17C58
:104BE800002202F075FC052013E0B0690168BFF3EC
:104BF8005F8F002900F042810020B27F00900CA84E
:104C0800012302F07DFA9DF83000E0B9032000E0AE
:104C18000020308017E0F068092131800068BFF378
:104C28005F8F002800F02A81B17C012202F050FC3D
:104C3800B0690068BFF35F8F002800F01F81B17F63
:104C4800012202F045FC0598C0070AD10498C00764
:104C580000F0888009A83146FFF72DFB9DF82D004C
:104C68006CE0F0680168BFF35F8F002900F00681EF
:104C780006F124048020B27C00900CA8234602F0A0
:104C880033FB9DF8300018B19DF8310060B969E038
:104C98000D9A812A80F0FD800CA8214602F092FD31
:104CA8009DF83900042818D1F0680921318000687E
:104CB800BFF35F8F002800F0E180B17C012202F091
:104CC80007FCB0690068BFF35F8F002800F0D6804A
:104CD800B17F012202F0FCFB44E00C980290F068DE
:104CE800BDF838809DF837909DF836B0BDF834404F
:104CF8000068BFF35F8F002800F0C080B17C0022FD
:104D080002F0E6FBB9F1000F00F08A800299042056
:104D1800A6F80A8086F8099086F808B0F480C6F8E4
:104D280002103080ADF82C808DF82B908DF82AB0C9
:104D3800ADF8284009914FEA1820039C042811D0A7
:104D48009DF82B0040B180280CD109AB304629468C
:104D58002246FFF7BFFB05E009AB3046294622464D
:104D6800FFF790FC2AF0010ABAF1000F029542D031
:104D7800039900294FD002980225012600EBC109AA
:104D8800A0F108080598444605420AD054F8080FCF
:104D980061688A6A3146904704F108004845F5D1B0
:104DA8000DE0049805420AD0444654F8080F61689B
:104DB800CA6A3146904704F108004845F5D106987B
:104DC80005420DD066F07F04C3465BF8080FDBF898
:104DD80004100A6B214690470BF108004845F4D1AE
:104DE8002AEA050A5FEA0A4005D0701C0F2E4FEA2E
:104DF80045050646C6D3039969B1029800EBC1047C
:104E0800A0F1080555F8080F6968C969884705F1D0
:104E18000800A042F6D101200FB0BDE8000FF0BD98
:104E28008CB1802C3FF640AF0020A6F80A80C6E976
:104E38002B0470720298C6F80200072086F808B0A2
:104E4800F48030808EE70620ADF82C80308000207A
:104E5800C6F8B0008DF82B00ADF8280002988DF840
:104E68002AB0099067E740F6E41040F65C22C2F2E7
:104E78002000C2F220021C2103F0E4FA40F248703C
:104E880040F2C872C2F22000C2F22002222103F0CE
:104E98005CFB40F6C4131046C2F2200380211A4678
:104EA80003F01FFFF0B503AF2DE9000F81B048F202
:104EB8007C514FF0010CC2F20001BFF35F8FD1E8C3
:104EC8004F2FC1E843CF002BF9D1BFF35F8F002AE2
:104ED80001BF48F20001C4F20D010022C4F22F0202
:104EE80001BF02F5542C02F5502E02F54C28A1F50D
:104EF800004401BFA1F5003501F5F61601F5F413DC
:104F0800C0E9683601BFC0E96A54C0E96C8EC0E9DF
:104F18006EC101F5005E01BF01F5805640F2040C38
:104F2800C4F22E0C01F5021401BF0CF5FE7501F553
:104F3800004300F5C07888E8380001BF00F5C67363
:104F480083E81210C0E9666EA1F5404C01BF01F577
:104F5800881E01F5861801F5841401F5821301BF36
:104F680001F5003602F51025C0E9585600F5B4756C
:104F780001BF85E81A41C0F87CC1A1F5804C02F553
:104F88001C2E01BF02F5182802F51424A1F5E03300
:104F980001F5282601BF01F5EE15C0E9505600F5C8
:104FA800A47585E8184101BFC0E9562C02F5782898
:104FB80002F5742902F5702401BF02F56C234CF246
:104FC800000CC4F2070C0CF5004601BF01F5E03EE9
:104FD80001F58E15C0E9485EC0E94A6101BF00F5D8
:104FE800987585E81802C0F83C8101F5482801BF8A
:104FF80001F5442901F5402A01F53C2B01F5382338
:1050080001BF01F5342401F5302501F52C26C0E94E
:10501800406501BFC0E94243C0E944BAC0E94698C7
:1050280002F5302801BF02F52C2902F5282A02F5DD
:10503800242B02F5861301BF02F5841402F58215AC
:1050480002F58016C0E9386501BFC0E93A43C0E9F6
:105058003CBAC0E93E9801F5F01801BF01F5921974
:10506800A1F5503AA1F5403BA1F5303301BF01F558
:10507800901401F58C1501F58A16C0E9306501BF59
:10508800C0E93243C0E934BAC0E9369844F2000BAB
:1050980001BFC4F2002B0BF500490BF5804A4FF015
:1050A800844801BF01F56C2601F5682401F56425E3
:1050B800A1F5C03301BFC0E9283500F1A80383E892
:1050C8005009C0E92EA901BF01F5602801F5E619CC
:1050D80001F5E81AA1F5203601BF0BF5E03301F51B
:1050E800582401F55425C0E9205401BF00F1880473
:1050F80084E84804C0E9259EC0F89C8001BFA1F55A
:10510800103E01F5FE1801F5001902F5642A01BFE9
:1051180002F5602302F55C2602F5582501F5A03456
:1051280001BF00F1600B8BE87000C0E91B3AC0E9D1
:105138001D9801BFC0F87CE001F5803E02F54048AB
:105148000CF5804901BF01F5804A01F5F21344F2DC
:105158000806C4F2090601BF06F1100506F10804A5
:10516800C0E91064C0E9125301BFC0E914A9C0E93D
:10517800168E0CF5C03E01F5103801BF01F58019F7
:1051880001F57C2401F5782302F57C2601BF02F5A0
:105198004825C0E9085600F1280585E8180201BF2E
:1051A800C0E90D81C0F83CE002F5442E02F50C265A
:1051B80001BF01F5D21501F5242402F54022A1F51D
:1051C800803301BFA1F5A031C0E90013C0E9022C6A
:1051D800103001BF80E8704001B0BDE8000FF0BD9D
:1051E80040F66C2040F60032C2F22000C2F22002E3
:1051F800352103F0AAF948F248110068C4F21F01EA
:1052080005230A6863F303020A60416841F0080154
:10521800416003217047F0B503AF4DF804BD0E4659
:1052280000211546044600F06BFA284640F2E24198
:1052380000F06DFA304600F02EFA40F2981521463B
:10524800C2F2200500222846366800F015FBA81C8B
:105258002146002200F010FB281D2146002200F004
:105268000BFBA81D2146002200F006FB05F10800F3
:105278002146002200F000FB05F10A002146002229
:1052880000F0FAFA05F10C002146002200F0F4FAC9
:1052980005F10E002146002200F0EEFA05F110009B
:1052A8002146002200F0E8FA05F11200214600220A
:1052B80000F0E2FA05F114002146002200F0DCFAC1
:1052C80005F116002146002200F0D6FA05F1180073
:1052D8002146002200F0D0FA05F11A0021460022EA
:1052E80000F0CAFA05F11C002146002200F0C4FAB9
:1052F80005F11E002146002200F0BEFA206841692F
:10530800890107D5416921F000714161204600F00B
:10531800E8F920684169012221F060514161206863
:10532800816962F30D318161204600F0DAF9206865
:10533800416941F000714161204600F0D2F94FF413
:1053480080503060642030604FF4005070603068E6
:10535800002809D4306800285CBF3068002803D4CE
:105368003068B0F1FF3FF2DC20680122016962F386
:1053780002010161204600F0B4F92068416921F476
:10538800E0514161204600F0ACF92068816941F4A0
:10539800402181612068416921F000714161204606
:1053A80000F09FF9206840F61C35C2F22005002263
:1053B800416941F4407141612846214600F05CFA98
:1053C800A81C2146002200F057FA281D2146002279
:1053D80000F052FAA81D2146002200F04DFA20687C
:1053E800022640F62C350022C2F22005816B66F3B6
:1053F800D84181632068816B41F48021816328460C
:10540800214600F039FAA81C2146002200F034FA9F
:10541800281D2146002200F02FFAA81D214600224F
:1054280000F02AFA206840F610350322C2F220055F
:10543800816966F3051181612068816962F39C6165
:10544800816128462146002200F016FAA81C214650
:10545800002200F011FA281D2146002200F00CFA63
:10546800A81D2146002200F007FA05F10800214690
:10547800002200F001FA2068172240F27435C2F2C7
:105488002005C16962F30501C16120680022C16974
:1054980041F04001C1612846214600F0EDF9A81C01
:1054A8002146002200F0E8F9281D2146002200F0DC
:1054B800E3F9A81D2146002200F0DEF905F10800F5
:1054C8002146002200F0D8F905F10A002146002201
:1054D80000F0D2F905F10C002146002200F0CCF9C9
:1054E80005F10E002146002200F0C6F9206840F6BA
:1054F8003435C2F220050322416A41F0400141627D
:105508002068416A66F3050141622846214600F099
:10551800B3F9A81C2146032200F0AEF9281D214644
:10552800032200F0A9F9A81D2146032200F0A4F9DE
:1055380005F108002146032200F09EF905F10A0052
:105548002146032200F098F905F10C0021460322B8
:1055580000F092F905F10E002146032200F08CF9C3
:1055680005F110002146032200F086F905F112002A
:105578002146032200F080F905F114002146032298
:1055880000F07AF905F116002146032200F074F9BB
:1055980005F118002146032200F06EF905F11A0002
:1055A8002146032200F068F905F11C002146032278
:1055B80000F062F905F11E002146032200F05CF9B3
:1055C80005F120002146032200F056F905F12200DA
:1055D8002146032200F050F905F124002146032258
:1055E80000F04AF905F126002146032200F044F9AB
:1055F80005F128002146032200F03EF905F12A00B2
:105608002146032200F038F905F12C002146032237
:1056180000F032F905F12E002146032200F02CF9A2
:1056280005F130002146032200F026F905F1320089
:105638002146032200F020F905F134002146032217
:1056480000F01AF905F136002146032200F014F99A
:1056580005F138002146032200F00EF905F13A0061
:105668002146032200F008F905F13C0021460322F7
:1056780000F002F905F13E002146032200F0FCF893
:1056880005F14000214603225DF804BBBDE8F04067
:1056980000F0F2B8FEE780B56F4600684FF400519D
:1056A8004FF480524FF0400C4FF4803E00E04161CF
:1056B80003699B04FBD50369DB0401D44261F7E766
:1056C8000369B3F1FF3FF3DC0369DB0306D4036925
:1056D8005B0648BF80BDC0F814C0E9E7C0F818E011
:1056E800E6E7006803E0816C002908BF7047816C19
:1056F80029B1816C00291CBF816C0029F3D1704746
:105708000068426D22F0030211434165704740F280
:105718002762914238BF0A46B2F5487F98BF4FF4D6
:105728004872A2F5487144F2AF7300688AB25A43CE
:10573800C368A1EB124189B2490801EB124123F079
:105748001F0242EA1111C16004E00168B1F1FF3F94
:10575800D8BF70470168002905D4016800295CBFDB
:1057680001680029F1D57047F0B503AF2DE9000BAA
:1057780044F2E043C4F21F031B68C3F30B2E4FEA45
:10578800135CE6451FBF0124C1F88841DBB24FF422
:105798007A781FBF03FB08F9ACEB0E04D1F89061CF
:1057A80049F658651FBFCFF6FF7513FB085393FBE7
:1057B800F4F3C2EA06021FBFC1F8902180E80A404C
:1057C800C0F80C90BDE8000B18BFF0BD40F6E430FF
:1057D800C2F2200003F02FFDB0B502AF05460868FD
:1057E8000C4640F480300860086840F040000860CB
:1057F800222063F31340486040F26850C0F20C1056
:10580800086240F29510C0F2B2004862DC20C0F293
:105818007A0088627D20C0F25800C8624B20C0F22E
:10582800400008632F20C0F22E004863886346F6C4
:105838002010C86040F6A31088604FF4C840C861C3
:105848004FF4C860886140F6C410C0F68040086113
:105858003F204861086820F003001043086008688A
:1058680020F480300860C86F4021281D03F05DFFD8
:1058780010202C606864B0BD03784078096803F094
:105888003F0301EB83014000C0B20323D1F868C095
:10589800834002FA00F02CEA030318438866704735
:1058A800F0B503AF2DE9000FADF5057D0DF1040B43
:1058B80080464FF40071584603F037FF44F2B82988
:1058C8000DF5017AC2F2000900244E460025D9E9F7
:1058D8006001CDE9830150468295819602F063FB11
:1058E80081AB0C3601350FCB4BF804000BEB0400F1
:1058F80010340430B4F5007F0EC0E8D101A9404649
:105908004FF4007203F00DFF0DF5057DBDE8000FA3
:10591800F0BD80B56F46D0E9072E4FF0004C4FF030
:105928008043CEF834C0CEF838C0CEF838300023E3
:10593800CEF800300223C2F84031D2F840319B073C
:105948000CD5D2F840319B0744BFD2F840315FEA0A
:10595800837303D5D2F840319B07EED44FF0000C87
:105968000A23C2F840C10029C2F8A831D2F884310C
:1059780023F0807308BF03F18073C2F88431D2F832
:1059880044110068C2F84411C2F848C1C2F858016D
:1059980080BDF0B503AF4DF804BD9AB00446C069A8
:1059A800D0F8B811C0F8B811D0F8BC11C0F8BC11C3
:1059B800D0F87811C0F878110021C0F87C11D0F81F
:1059C800B01159B1D0F8B01100291CBFD0F8B011EE
:1059D800002903D0D0F8B0110029F0D14FF0FF31E1
:1059E800C0F8B411D0F8B41159B1D0F8B4110029E5
:1059F8001CBFD0F8B411002903D0D0F8B411002985
:105A0800F0D100200821CDE9060101210C90089071
:105A18000390019001A800F1400500F110061094D0
:105A2800059102E00598022824D03046294600F066
:105A3800A2FEF8B1007C10F07F01F3D0E2690829DA
:105A480011911BD2013940B2B0F1FF3F6FF40C0045
:105A5800C9B202EB8101D1F8C421C8BF6FF08C0034
:105A680000EA02004FF40022C8BF08221043C1F820
:105A7800C401D7E71AB05DF804BBF0BD002040F6BA
:105A8800885116900220139040F61C50C2F2200054
:105A9800C2F2200112900120159018A8149046F621
:105AA800D370C0F20000199011A8189012A802F043
:105AB8003CFD02464368C8B2490041EAD011C8B269
:105AC800834217D9936901F00F011B68BFF35F8FF9
:105AD8009BB223FA01F1C9070CD05169814284BFF6
:105AE8000120704780B56F4640F6F452C2F220029A
:105AF80002F03EFD00207047F0B503AF2DE9000F1E
:105B080083B08046486800281FBF88690068BFF3D3
:105B18005F8F5FEAC07005D140F65040C2F22000A6
:105B280002F086FC4869002800F01D8151F81C4FDE
:105B38009A460125BAF1080F51F80C0CD4F8AC318B
:105B480090F9106006F01F0C05FA0CF56ED32B4087
:105B58006CD0D0F808C0C4F8AC51D4F8406146F411
:105B68000056C4F84061DCE90A56D4F840319B0479
:105B780025D4D4F8403143F40053C4F84031DCE96B
:105B88000A56D4F840319B045FBFD4F8403143F43F
:105B98000053C4F84031DCE90A565CBFD4F8403100
:105BA8005FEA83430BD4D4F8403143F40053C4F87C
:105BB8004031DCE90A56D4F840319B04CDD5D4F8FD
:105BC800403123F40053C4F8403190F910C0D4F8A0
:105BD800B8315660BCF1000F15600CF01F024FF091
:105BE800010648BF1B0C964033401B0614D14FF4E6
:105BF8008033BCF1FF3FC8BF01234FF47F0603FA8F
:105C080002F2C8BFFF263240C4F8782182681268C1
:105C1800C2F30A4200F02BFD0820C8F80400002057
:105C280088F8000003B0BDE8000FF0BDC3685B68EA
:105C380013F0680F01D0072008E0D4F8B831002E1F
:105C480048BF1B0C2B401B0609D0002088F8010018
:105C5800012088F8000003B0BDE8000FF0BDB6F1E0
:105C6800FF3F4FF480364FF47F03CDF80880C8BF5C
:105C78000126C8BFFF2306FA0CF63340C4F8BC312E
:105C88004FF4803E90F910304FF47F05B3F1FF3F99
:105C980003F01F03C4BFFF254FF0010E0EFA03F3F4
:105CA8002B40C4F87831C668D0E9013EDEF80050D0
:105CB8007468F669C5F30A45554538BFAA46C4F362
:105CC8000E45761BB24528BFB246534538BF9A46A3
:105CD800BAF1000F36D0D0F800B00AF00305BAF1D7
:105CE800040F01D200261EE040F2FC730AEA030901
:105CF80002F10108002601950BEB06041BF806507B
:105D080008EB060394F801C008F806C00436B1454C
:105D180094F802C003F8015C83F801C0E5789D702F
:105D2800EAD1019DB3446DB19BF80030012D935524
:105D380008D032449BF80130022D53701CBF9BF8E9
:105D480002309370DEF80020C2F30A4200F08FFCA4
:105D5800DDF808800020C8F804A088F8000003B027
:105D6800BDE8000FF0BD40F604620020C2F2200238
:105D7800002102F0FDFBF0B503AF2DE9000F85B05F
:105D88004E68022EC0F00C818E693668BFF35F8FB3
:105D9800B60740F105814E69012E40F207810E6970
:105DA800356A6D6815F0680F01D0072115E08A463D
:105DB80096F824505AF81C8F05F01F0E4FFA85FCF0
:105DC8000125D8F8B841BCF1000F48BF240C05FAEA
:105DD8000EF52C40240607D00021417001210170E6
:105DE80005B0BDE8000FF0BD4FF480344FF47F05D7
:105DF800BCF1FF3FC8BF0124C8BFFF2504FA0EF459
:105E08002540C8F8785106F11409D6E905B4F669B1
:105E18003668C6F30A469E4238BF33469C4238BFAE
:105E28002346CDE9030343B103F00305042BCDF862
:105E3800089007D200205E4623E00C4648465146AB
:105E480000225AE040F2FC7003EA000E02F1010958
:105E58000020019509EB000619F8005016F8014CCE
:105E680096F801C0B6780BF800400BEB000404303C
:105E78008645657084F802C0E670EBD1019D0BEB96
:105E880000060C4655B1115C012D317006D0104446
:105E9800022D417871701CBF8078B070581E0121A6
:105EA80001EB501606F0030902F0F7F8049A4EF6D3
:105EB80070702BF01F01CEF20000612A0FD326F07C
:105EC800030201F120030160036001F14003036054
:105ED80001F16003043A01F180010360F1D1B9F1E5
:105EE800000F1CBF0160B9F1010F50D102F0D5F8C5
:105EF80002F0D6F802985146049A00F0B8FBA0695F
:105F08000068BFF35F8FC00758D060690028DDE9DB
:105F1800030259D0216901240B7CD8F8B8515EB22C
:105F280003F01F03002E48BF2D0C9C4025402D0672
:105F380026D14FF48032B6F1FF3FC8BF01224FF49B
:105F48007F0502FA03F2C8BFFF252A40C8F8BC2122
:105F580091F910204FF480304FF47F06B2F1FF3FE3
:105F680002F01F02C4BFFF260120904000223040EB
:105F7800C8F878010846514600F079FBDDE90302CC
:105F880000214260017005B0BDE8000FF0BD01F1CD
:105F980020020260B9F1020F1CBF40310160A5E781
:105FA80040F66040C2F2200002F042FA40F6046275
:105FB8000120C2F22002314602F0DAFA40F67040BF
:105FC800C2F2200002F034FA40F604620020C2F265
:105FD8002002002102F0CCFAF0B503AF2DE9000F42
:105FE80083B08446387A4D68460046EAD016F0B247
:105FF800854240F2C4808D6906F00F062D68BFF314
:106008005F8FADB225FA06F6F60700F0B880D1F832
:1060180014E0864540F2B9800E6900EB800006EB7B
:106028008000C668766816F0680F01D0072012E075
:10603800057C8E4651F81C9F05F01F0A6CB201259D
:10604800D9F8B86105FA0AF5002C48BF360C354076
:106058002D0609D000208CF8010001208CF80000E2
:1060680003B0BDE8000FF0BDBEF82C6004F00F05CA
:10607800EE40F607EED04FF480354FF47F06CDF8AA
:1060880008C0B4F1FF3FC8BF0125C8BFFF2605FA05
:106098000AF52E40C9F8BC614FF4803C90F91060B5
:1060A8004FF47F04B6F1FF3F06F01F06C4BFFF247C
:1060B8004FF0010C0CFA06F62640C9F87861C5685D
:1060C800D0E9016EDEF80040D5F804C0ED69C4F3EC
:1060D8000A449C4238BF2346CCF30E442D1BAB42E6
:1060E80028BF2B469E4238BF3346B3B3D0F800A032
:1060F80003F00304042B01D200261FE0019440F2B0
:10610800FC7403EA040902F1010B00260AEB0604F9
:106118001AF806500BEB060C94F801800BF8068071
:106128000436B14594F802800CF8015C8CF80180C3
:10613800E4788CF80240E9D1019CB2446CB19AF839
:106148000050012C955508D032449AF80150022C81
:1061580055701CBF9AF802609670DEF800201C4645
:10616800C2F30A4200F083FADDF808C00020CCF838
:1061780004408CF8000003B0BDE8000FF0BD40F605
:106188008040C2F2200002F053F940F604627146E2
:10619800C2F2200202F0ECF9F0B503AF2DE9000FCE
:1061A80081B03E7A4D68740044EAD616F4B2A5422E
:1061B80040F2CE808D6906F00F062D68BFF35F8F21
:1061C800ADB225FA06F6F60700F0C280D1F814C081
:1061D800A44540F2C3800E6904EB840506EB850BE9
:1061E800DBF80C60766816F0680F01D0072112E022
:1061F8009BF8105051F81CCF05F01F0E6CB201250A
:10620800DCF8B86105FA0EF5002C48BF360C3540AD
:106218002D0607D0002141700121017001B0BDE8B1
:10622800000FF0BD00904FF48030B4F1FF3FC8BFBD
:1062380001204FF47F0400FA0EF0C8BFFF2420406D
:10624800CCF87801DBF80860DBE900803668C6F333
:106258000A469E4238BF3346984238BF0346002B51
:1062680061D003F0030C042B02D2002640461BE049
:1062780040F2FC7003EA000E02F10109002609EB66
:10628800060019F806A010F8014C4578807808F83F
:10629800064008EB06040436B64584F801A0A5704C
:1062A800E070ECD108EB06008946BCF1000F0CD079
:1062B800915DBCF1010F017007D09119BCF1020F7B
:1062C8004A7842701CBF89788170581E01219A460D
:1062D80001EB501404F0030601F0DFFE4EF6707077
:1062E80028F01F01CEF20000BAF1610F52460FD319
:1062F80024F0030201F120030160036001F140036F
:10630800036001F16003043A01F180010360F1D1F7
:10631800002E1CBF0160012E12D101F0BEFE01F05B
:10632800BFFE5346494658461A461C4600F09FF998
:10633800009800214460017001B0BDE8000FF0BD75
:1063480001F120020260022E1CBF40310160E4E727
:1063580040F69040C2F2200002F06AF840F604626B
:106368002046C2F22002614602F002F9B0B502AF3F
:106378008AB0D3B2540044EAD314D0F804C05FFA08
:1063880084FEF44555D9836904F00F041B68BFF3F4
:106398005F8F9BB2E340DB074BD0D0F814C0F445C5
:1063A8004DD950F81CCF0EEB8E0450F80C3C03EB83
:1063B800840E9EF8103003F07F040194082C46D216
:1063C8005DB205F03F03002D0CEB8303D3F8C04109
:1063D80008D424F001040C4452B2002AC3F8C04186
:1063E80009D518E024F4803461F3104452B2002A2D
:1063F800C3F8C0410FD471B9DCF8B81101239EF974
:106408001020002A02F01F0248BF090C03FA02F20A
:106418001140090601D00AB0B0BDDEF808100968BD
:10642800C1F30A42014670460AB0BDE8B04000F028
:106438001EB940F6A040C2F2200001F0F9FF40F674
:1064480004627046C2F22002614602F091F8002010
:1064580040F6885106900220039040F61C50C2F284
:106468002000C2F2200102900120059008A80490A3
:1064780046F6D370C0F20000099001A8089002A85F
:1064880002F053F880B56F468AB002464368C8B236
:10649800490041EAD011C8B2834227D9936901F073
:1064A8000F011B68BFF35F8F9BB223FA01F1C90785
:1064B8001CD0516981421FD9136900EB8000D16952
:1064C80003EB8000007C00F07F020192082A19D2B9
:1064D80040B200F03F02002801EB8201D1F8C01160
:1064E80048BF090C01F001000AB080BD40F6B04079
:1064F800C2F2200001F09CFF40F6F452C2F22002E2
:1065080002F036F8002040F68851069002200390E9
:1065180040F61C50C2F22000C2F220010290012075
:10652800059008A8049046F6D370C0F200000990C0
:1065380001A8089002A801F0F8FFF0B503AF2DE913
:10654800000B9AB08046109000200821CDE9060182
:1065580008F11C090C90012108900390019001A8F2
:1065680000F1400500F1100605910AE021F44C0104
:1065780041EA824141F44001C0F8C411059802285B
:1065880021D03046294600F0F6F8E0B1027C12F03E
:106598007F01F3D0D9F80030082911914CD254B2B8
:1065A800427C481EB4F1FF3FC0B203EB8000D0F834
:1065B800C411DBDD02F00F0221F00C0141EA820177
:1065C80041F0C001D8E700200821CDE906010121EA
:1065D800CDF840800C9008900591039001900CE054
:1065E800B1F1FF3F06DD81680968C1F30A424946F7
:1065F80000F03DF8059802281AD03046294600F0E8
:10660800BAF8A8B1017C11F07F0249B2E8D0D9F8F4
:106618000030082A11920FD2013A0029D2B203EBB6
:106628008202D2F8C421E5D412F08001DBD1E1E77F
:106638001AB0BDE8000BF0BD002040F68851169056
:106648000220139040F61C50C2F22000C2F2200132
:1066580012900120159018A8149046F6D370C0F235
:106668000000199011A8189012A801F05EFFF0B56B
:1066780003AF4DF8048D82B005468846EE680121C7
:10668800006831607168F26162F31E417160CAB1DD
:10669800B06040F6FF71B068884300F58050F06044
:1066A800F0686FF30B0000F58050306130696FF3CC
:1066B8000B0000F58050706170696FF30B0000F5F6
:1066C800805004E00020B060F06030617061B0611B
:1066D8008021706840F400407060706861F30700C2
:1066E8007060009601F0D9FC4EF670746846CEF2E0
:1066F800000420F01C00206001F0CFFC01F0D0FC69
:10670800A8688660C16821F0FF01C160019001F0AE
:10671800C4FC01A820F01C0020602030206001F09B
:10672800BCFC01F0BDFC95F910204FF47F01D8F8AE
:1067380000004FF48033B2F1FF3F02F01F02C8BFE0
:10674800FF21C8BF012303FA02F21140C0F8B011BB
:10675800D0F8B01159B1D0F8B01100291CBFD0F849
:10676800B011002903D0D0F8B0110029F0D102B03F
:106778005DF8048BF0BDF0B503AF4DF804BD84B0EF
:10678800C16800291CBFD0E904128A4266D101AB56
:10679800056884460ECB002D4CF8101FC0E9052370
:1067A80044D0D0E90112914240D2C26A00F1180ED9
:1067B8000224012503E0D0E90113994236D24B1C8B
:1067C800436041F08003C9B2446141EA0321018377
:1067D8000021C56003E0D0E904138B42EBD04B1CC9
:1067E800CCF800301EF8011056684B0043EAD1116E
:1067F800CBB29E42EFD9966901F00F013668BFF31C
:106808005F8FB6B226FA01F1C907E4D051699942FF
:106818007CD9116903EB830301EB8303197C4906D7
:10682800D9D0184604B05DF804BBF0BD01AEC56907
:10683800002346CE002DC3608CE846001CBFD0E97B
:1068480008128A4233D101AE46CEC0E90926C0E912
:106858000731184604B05DF804BBF0BDC26A00F108
:10686800180503E0D0E904138B4290D04B1C036158
:10687800695C54684B0043EAD111CBB29C42F1D910
:10688800946901F00F012468BFF35F8FA4B224FA62
:1068980001F1C907E6D05169994237D9116903EB6B
:1068A800830301EB8303197C4906DBD0B9E7C26A8D
:1068B80000F1280503E0D0E908168E42C3D04E1C2B
:1068C8000662695C56684C0044EAD1115FFA81FCA3
:1068D8006645F0D9966901F00F013668BFF35F8FFE
:1068E800B6B226FA01F1C907E5D05169614514D954
:1068F80011690CEB8C0601EB86010E7C7606DAD06A
:106908000B46184604B05DF804BBF0BD40F60462BF
:106918001846C2F2200201F02BFE40F604626046DF
:10692800C2F2200201F024FEF0B503AF2DE9000BFE
:1069380084464668C8B24D0045EAD014E0B28642A3
:1069480017D9DCF8189004F00F04D7F8088001264E
:1069580006FA04FEBFF35F8F59E8006F46EA0E049B
:1069680049E80045002DF7D116EA0E0FBFF35F8FF7
:1069780003D00020BDE8000BF0BDDCF80CE0864534
:1069880045D9DCF814E0864548D9DCF800600025D4
:10699800C0F2FF75B3F5806F06EB801405EA034576
:1069A800266846F000562660266888BF4FF0806546
:1069B8006FF31A462E44266026685FEA0865DCF8FD
:1069C80008E026F40049DCF810C04EB24D4608BF76
:1069D80005F50045B6F1FF3FD8BF4D462560450196
:1069E80001264EF805600EEB401600EB8000756836
:1069F80025F0FF0575604CF820200CEB8000017431
:106A0800011D80F8118058C1BDE8000BF0BD40F6AB
:106A180014627146C2F2200201F0AAFD40F6246217
:106A28007146C2F2200201F0A3FDD0E900018C22D8
:106A38000968002808BF8422885840F00040885020
:106A48007047D0E900018C220968002808BF842219
:106A58008858C00F7047D0E900018C2209680028C7
:106A680008BF8422885820F0004088507047D0E939
:106A780000018C220968002808BF8422885840F049
:106A8800804088507047D0E900028C2312680028A3
:106A980008BF8423D05820F0807040EA0160D050AD
:106AA8007047D0E900028823002808BF80236FF0D0
:106AB8007F401268814238BF0846012898BF0120EC
:106AC8000138D0507047D0E900014FF000720968D2
:106AD8000028D1F8441108BF4FF0807211EA020073
:106AE80018BF01207047D0E900014FF00072096813
:106AF800002808BF4FF08072C1F844217047D0E9E0
:106B080000024FF000731268002808BF4FF080732E
:106B18006FF00070D2F848C108BF6FF0807000298C
:106B280000EA0C0018BF1843C2F848017047D0E9C2
:106B380000014FF0007209680028D1F8481108BF19
:106B48004FF0807211EA020018BF01207047F0B5BB
:106B580003AF4DF804BD044690F834000D4608B163
:106B6800206829E001F0A2FA064601F092FA2068AE
:106B7800F10721D1002801BF206A4FF0FF312160C1
:106B8800D0F8481101BF21F0410165F3000165F318
:106B98008611C0F8481101BF2068013020605DF8F7
:106BA80004BB04BFBDE8F04001F075BA40F6A06030
:106BB800C2F2200001F008FC002801BF206A4FF053
:106BC800FF312160D0F8481101BF21F0410165F380
:106BD800000165F38611C0F8481101BF2068013033
:106BE80020605DF804BB08BFF0BDDFE7F0B503AF78
:106BF8004DF804BD044690F834000D4608B12068ED
:106C080035E001F053FA064601F043FA2068F1072F
:106C18002DD1002855D14FF0FF3069002060E8B22F
:106C280041EAD011A268C8B2824217D9E26901F0DC
:106C38000F011268BFF35F8F92B222FA01F1C90700
:106C48000CD0A169814242D9616900EB800001EB57
:106C580080008068016821F00051016020680130DF
:106C680020605DF804BBBDE8F04001F014BA40BBF9
:106C78004FF0FF3069002060E8B241EAD011A26805
:106C8800C8B2824217D9E26901F00F011268BFF356
:106C98005F8F92B222FA01F1C9070CD0A169814233
:106CA80015D9616900EB800001EB800080680168FC
:106CB80021F0005101602068013020605DF804BBBC
:106CC800F0BD40F6A060C2F2200001F07DFB40F666
:106CD8000462C2F2200201F04BFCF0B503AF2DE9CB
:106CE800000782B006683168002940F0EB8000F1A7
:106CF800040A04694FF0FF3230469AE8220440F84B
:106D0800042B0A784AB34978B4684A0042EAD11297
:106D1800D3B29C4211D9F46902F00F022468BFF380
:106D28005F8FA4B224FA02F2D20706D0B169994261
:106D380040F2CE8001200521BDE0F26A2B889A42FC
:106D4800C0F0AB80B56AD21AAA42C0F0A680F2623F
:106D58000C469AF800500095A8E02178B26841F0F6
:106D680001094FEA490343EAD111CBB29A4240F2F2
:106D78008C80F26901F00F011268BFF35F8F92B245
:106D880022FA01F1C90700F08080B169994240F206
:106D98009F802178B26841F002094FEA490343EA2B
:106DA800D111CBB29A4270D9F26901F00F01126881
:106DB800BFF35F8F92B222FA01F1C90765D0B169BA
:106DC800994240F285802178B26841F003094FEA80
:106DD800490343EAD111CBB29A4256D9F26901F07C
:106DE8000F011268BFF35F8F92B222FA01F1C9074F
:106DF8004BD0B16999426BD92178B26841F0040946
:106E08004FEA490343EAD111CBB29A423DD9F2691C
:106E180001F00F011268BFF35F8F92B222FA01F1FD
:106E2800C90732D0B169994252D92178B26841F084
:106E380005094FEA490343EAD111CBB29A4224D952
:106E4800F26901F00F011268BFF35F8F92B222FA64
:106E580001F1C90719D0B169994239D92178804619
:106E680041F006094946FEF724FE0146404661B155
:106E7800207840F0070940464946FEF71AFE0146C9
:106E8800404611B10120032115E0F16A2B8899428F
:106E980003D3CA1AB16A8A4202D2012004210AE045
:106EA800F2624C469AF8001000914946FFF73CFD03
:106EB800A8B10020214632680132326002B0BDE834
:106EC8000007F0BD40F6A060C2F2200001F07CFA95
:106ED80040F6F4521846C2F2200201F049FB40F68F
:106EE800C040C2F2200001F0A3FAB0B502AF0446D8
:106EF80090F8340008B1206815E001F0D7F805468D
:106F080001F0C7F82068E9070DD1B8B94FF0FF3094
:106F18002060201DFFF711FB206801302060BDE8CC
:106F2800B04001F0B8B848B94FF0FF302060201DDC
:106F3800FFF703FB206801302060B0BD40F6A06079
:106F4800C2F2200001F040FAB0B502AF88B007F8ED
:106F5800221CA7F122010791A7F11F010691A7F1B1
:106F68001E01059190F83410D7E9024507F8212C45
:106F7800A7F1210207F8203C07F81F4C27F81E5CF0
:106F8800CDE9030221B103A8FFF7A7FE08B0B0BD01
:106F980001F08CF8044601F07CF803A8FFF79DFE89
:106FA800E20705D104460D4601F075F8294620464A
:106FB80008B0B0BDF0B503AF4DF804BD044690F875
:106FC80034000D4608B1206823E001F06FF806464A
:106FD80001F05FF82068F1071BD1002801BF206A83
:106FE8004FF0FF312160690601BF01F18071C0F8DF
:106FF80054112068013001BF20605DF804BBBDE872
:10700800F04001F048B840F6A060C2F2200001F05C
:10701800DBF9002801BF206A4FF0FF3121606906C3
:1070280001BF01F18071C0F854112068013002BF1E
:1070380020605DF804BBF0BDE5E7B0B502AF0446DB
:1070480090F8340008B120681DE001F02FF80546DB
:1070580001F01FF82068E90715D1002801BF206A50
:10706800D0F840110022226001BF41F00101C0F8B0
:107078004011BDE8B04001F00EB840F6A060C2F281
:10708800200001F0A1F9002801BF206AD0F84011C2
:107098000022226002BF41F00101C0F84011B0BDDA
:1070A800EBE7B0B502AF044690F8340008B12068A9
:1070B80015E000F0FBFF054600F0EBFF2068E9074C
:1070C8000DD1B8B94FF0FF302060201DFEF761FCEC
:1070D800206801302060BDE8B04000F0DCBF48B94E
:1070E8004FF0FF302060201DFEF753FC2068013070
:1070F8002060B0BD40F6A060C2F2200001F064F943
:10710800F0B503AF2DE9000784B0814691F834004B
:10711800D7F8088016460D46E0B32868002840F0E6
:10712800D7804FF0FF3071002860F0B241EAD011EB
:10713800AA68C8B2824220D9EA6901F00F01126830
:10714800BFF35F8F92B222FA01F1C90715D0A9697E
:10715800814240F2C380291D700600F0928002A887
:107168001A4643460096FFF717F89DF808000028CE
:1071780000F091809DF8090000E0052089F80100E1
:107188000120296889F80000481C286004B0BDE87F
:107198000007F0BD9A4600F089FF044600F079FF29
:1071A8002868E1072CD1002840F092804FF0FF308A
:1071B80071002860F0B241EAD011AA68C8B28242D0
:1071C80049D9EB6901F00F011B68BFF35F8F9BB2D0
:1071D80023FA01F1C9073ED0A96981427ED9291D48
:1071E800524670065CD002A843460096FEF7D4FFCC
:1071F8009DF8080000285BD09DF8096001242CE068
:10720800002865D14FF0FF3071002860F0B241EAE4
:10721800D011AA68C8B2824225D9EB6901F00F01E2
:107228001B68BFF35F8F9BB223FA01F1C9071AD01D
:10723800A969814252D9291D524670063CD002A83C
:1072480043460096FEF7A8FF9DF80800E0B39DF8B6
:107258000960012409E00124052628680130286016
:1072680000F019FF04E00124052628680130286091
:10727800F0B244EA0020C9E9000804B0BDE80007FC
:10728800F0BD02A81A464346FEF775FD9DF80800B2
:1072980000287FF46FAF0398C9F80400002070E756
:1072A80002A84346FEF767FD9DF808000028A3D111
:1072B800DDF80C800024D0E702A84346FEF75BFD0A
:1072C8009DF808000028C2D1DDF80C800024CCE726
:1072D80040F6A060C2F2200001F076F840F6F452C1
:1072E800C2F2200201F044F9F0B503AF2DE900071E
:1072F80084B0814691F83400D7F8088016460D46C8
:10730800E0B32868002840F0D7804FF0FF307100C4
:107318002860F0B241EAD011AA68C8B2824220D9E6
:10732800EA6901F00F011268BFF35F8F92B222FA87
:1073380001F1C90715D0A969814240F2C380291D0E
:10734800700600F0928002A81A4643460096FEF79F
:1073580043FE9DF80800002800F091809DF8090080
:1073680000E0052089F801000120296889F800005B
:10737800481C286004B0BDE80007F0BD9A4600F03C
:1073880095FE044600F085FE2868E1072CD1002808
:1073980040F092804FF0FF3071002860F0B241EA6F
:1073A800D011AA68C8B2824249D9EB6901F00F012D
:1073B8001B68BFF35F8F9BB223FA01F1C9073ED068
:1073C800A96981427ED9291D524670065CD002A85F
:1073D80043460096FEF700FE9DF8080000285BD0A3
:1073E8009DF8096001242CE0002865D14FF0FF309A
:1073F80071002860F0B241EAD011AA68C8B282428E
:1074080025D9EB6901F00F011B68BFF35F8F9BB2B1
:1074180023FA01F1C9071AD0A969814252D9291D55
:10742800524670063CD002A843460096FEF7D4FDAB
:107438009DF80800E0B39DF80960012409E00124E3
:10744800052628680130286000F025FE04E00124A4
:107458000526286801302860F0B244EA0020C9E90E
:10746800000804B0BDE80007F0BD02A81A4643466C
:10747800FEF742FB9DF8080000287FF46FAF0398E1
:10748800C9F80400002070E702A84346FEF734FB61
:107498009DF808000028A3D1DDF80C800024D0E76F
:1074A80002A84346FEF728FB9DF808000028C2D131
:1074B800DDF80C800024CCE740F6A060C2F2200082
:1074C80000F082FF40F6F452C2F2200201F050F8B8
:1074D800F0B503AF4DF8048D044690F834000D461E
:1074E800F0B12068002872D14FF0FF3069002060A9
:1074F800E8B241EAD011A368C8B2834261D9E3690E
:1075080001F00F011B68BFF35F8F9BB223FA01F1F3
:10751800C90756D0A16981425FD9201D11464DE0A7
:10752800904600F0C3FD064600F0B3FD2068F10761
:1075380028D100284BD14FF0FF306A002060E8B214
:1075480042EAD012A168D0B2814212D9E36902F0AE
:107558000F021B68BFF35F8F9BB223FA02F2D207B8
:1075680007D0A36983423ED9201D41462A46FEF72B
:10757800FDFE2068013020605DF8048BBDE8F04016
:1075880000F089BD18BB4FF0FF306A002060E8B2F8
:1075980042EAD012A168D0B2814212D9E36902F05E
:1075A8000F021B68BFF35F8F9BB223FA02F2D20768
:1075B80007D0A369834216D94146201D2A46FEF703
:1075C800D5FE2068013020605DF8048BF0BD40F6E0
:1075D800A060C2F2200000F0F7FE40F6F452C2F2BA
:1075E800200200F0C5FF40F6F4521946C2F220020C
:1075F80000F0BEFFF0B503AF4DF804BD044690F8A7
:10760800340028B120686FF00042904222D32CE069
:107618000E4600F04BFD054600F03BFD2068E907EB
:1076280013D16FF0004188421FD201302060201D25
:107638003146FEF727FF054620680138206000F034
:107648002AFD28465DF804BBF0BD6FF00041884272
:107658000BD2314601302060201DFEF713FF216850
:10766800013921605DF804BBF0BD40F69060C2F2BC
:10767800200000F0C3FEF0B503AF2DE900070C466B
:1076880091F8341079B12168002940F09580216A79
:107698004FF0FF322260D1F8442153061AD4D207A2
:1076A8002BD100213DE0064600F000FD054600F024
:1076B800F0FC2068E90712D100287DD1206A4FF03C
:1076C800FF312160D0F844114A0631D4C90739D1B5
:1076D800002531E04022C1F84421012121E00028A1
:1076E8006AD1206A4FF0FF312160D0F844114A0670
:1076F80023D4C90740D1002523E00122C1F8442141
:10770800D1F8BC21D1F8BC31D2B2C3F307432286E9
:107718001E04C1F8BC6183804280D1F8AC11C180DD
